{"src/mocks/VRFCoordinatorV2PlusMock.sol":{"VRFCoordinatorV2PlusMock":{"abi":[{"anonymous":false,"inputs":[{"indexed":true,"internalType":"uint256","name":"requestId","type":"uint256"},{"indexed":false,"internalType":"uint256","name":"outputSeed","type":"uint256"},{"indexed":true,"internalType":"uint256","name":"subId","type":"uint256"},{"indexed":false,"internalType":"uint96","name":"payment","type":"uint96"},{"indexed":false,"internalType":"bool","name":"success","type":"bool"},{"indexed":false,"internalType":"bool","name":"onlyPremium","type":"bool"}],"name":"RandomWordsFulfilled","type":"event"},{"anonymous":false,"inputs":[{"indexed":true,"internalType":"bytes32","name":"keyHash","type":"bytes32"},{"indexed":false,"internalType":"uint256","name":"requestId","type":"uint256"},{"indexed":false,"internalType":"uint256","name":"preSeed","type":"uint256"},{"indexed":true,"internalType":"uint256","name":"subId","type":"uint256"},{"indexed":false,"internalType":"uint16","name":"minimumRequestConfirmations","type":"uint16"},{"indexed":false,"internalType":"uint32","name":"callbackGasLimit","type":"uint32"},{"indexed":false,"internalType":"uint32","name":"numWords","type":"uint32"},{"indexed":false,"internalType":"bytes","name":"extraArgs","type":"bytes"},{"indexed":true,"internalType":"address","name":"sender","type":"address"}],"name":"RandomWordsRequested","type":"event"},{"inputs":[{"internalType":"uint256","name":"subId","type":"uint256"},{"internalType":"address","name":"consumer","type":"address"}],"name":"addConsumer","outputs":[],"stateMutability":"nonpayable","type":"function"},{"inputs":[],"name":"createSubscription","outputs":[{"internalType":"uint256","name":"","type":"uint256"}],"stateMutability":"nonpayable","type":"function"},{"inputs":[{"internalType":"uint256","name":"requestId","type":"uint256"},{"internalType":"address","name":"consumer","type":"address"}],"name":"fulfillRandomWords","outputs":[],"stateMutability":"nonpayable","type":"function"},{"inputs":[{"internalType":"uint256","name":"requestId","type":"uint256"},{"internalType":"address","name":"consumer","type":"address"},{"internalType":"uint256[]","name":"randomWords","type":"uint256[]"}],"name":"fulfillRandomWordsWithOverride","outputs":[],"stateMutability":"nonpayable","type":"function"},{"inputs":[{"internalType":"uint256","name":"subId","type":"uint256"},{"internalType":"uint96","name":"amount","type":"uint96"}],"name":"fundSubscription","outputs":[],"stateMutability":"nonpayable","type":"function"},{"inputs":[{"internalType":"uint256","name":"subId","type":"uint256"}],"name":"getSubscription","outputs":[{"internalType":"uint96","name":"balance","type":"uint96"},{"internalType":"uint64","name":"reqCount","type":"uint64"},{"internalType":"address","name":"owner","type":"address"},{"internalType":"address[]","name":"consumers","type":"address[]"}],"stateMutability":"view","type":"function"},{"inputs":[{"internalType":"bytes32","name":"keyHash","type":"bytes32"},{"internalType":"uint64","name":"subId","type":"uint64"},{"internalType":"uint16","name":"minimumRequestConfirmations","type":"uint16"},{"internalType":"uint32","name":"callbackGasLimit","type":"uint32"},{"internalType":"uint32","name":"numWords","type":"uint32"}],"name":"requestRandomWords","outputs":[{"internalType":"uint256","name":"","type":"uint256"}],"stateMutability":"nonpayable","type":"function"}],"evm":{"bytecode":{"linkReferences":{},"object":"6080604052600160005534801561001557600080fd5b50611828806100256000396000f3fe608060405234801561001057600080fd5b506004361061007d5760003560e01c8063808974ff1161005b578063808974ff146100ea578063a21a23e414610106578063bec4c08c14610124578063dc311dd3146101405761007d565b806308e3898e146100825780634cf94d871461009e5780635d3b1d30146100ba575b600080fd5b61009c60048036038101906100979190610fc0565b610173565b005b6100b860048036038101906100b39190611073565b610527565b005b6100d460048036038101906100cf919061119f565b6105be565b6040516100e19190611229565b60405180910390f35b61010460048036038101906100ff9190611244565b6107ba565b005b61010e61084e565b60405161011b9190611229565b60405180910390f35b61013e60048036038101906101399190611244565b610a4e565b005b61015a60048036038101906101559190611284565b610b05565b60405161016a949392919061139c565b60405180910390f35b610187679d7cd5b0f23d893c60c01b610d0a565b61019b6797c2ff56ebd90eb260c01b610d0a565b6101af6704cd3cf4fb360add60c01b610d0a565b6101c36792b9ebf8d384857f60c01b610d0a565b8173ffffffffffffffffffffffffffffffffffffffff166001600085815260200190815260200160002060009054906101000a900473ffffffffffffffffffffffffffffffffffffffff1673ffffffffffffffffffffffffffffffffffffffff1614801561024157506102406794de964d01f2bb2c60c01b610d0d565b5b806102955750600073ffffffffffffffffffffffffffffffffffffffff168273ffffffffffffffffffffffffffffffffffffffff1614158015610294575061029367b862ce5abcf38a3e60c01b610d0d565b5b5b6102d4576040517f08c379a00000000000000000000000000000000000000000000000000000000081526004016102cb90611445565b60405180910390fd5b6102e867bd12499aea30004460c01b610d0a565b6102fc679fd09e1b984dfa1460c01b610d0a565b610310675f4ea78e49eb377d60c01b610d0a565b60008151036103f25761032d675ed33da9402060fc60c01b610d0a565b6103416776a6b2f8a571a3c960c01b610d0a565b600167ffffffffffffffff81111561035c5761035b610e7d565b5b60405190808252806020026020018201604052801561038a5781602001602082028036833780820191505090505b5090506103a16759a4cc20ac9790c860c01b610d0a565b82426040516020016103b4929190611465565b6040516020818303038152906040528051906020012060001c816000815181106103e1576103e061148e565b5b602002602001018181525050610407565b6104066729e58735e2f4e26260c01b610d0a565b5b61041b67682356a2ce535cac60c01b610d0a565b61042f677f9a82571ed2c3ab60c01b610d0a565b8173ffffffffffffffffffffffffffffffffffffffff16631fe543e384836040518363ffffffff1660e01b815260040161046a92919061157b565b600060405180830381600087803b15801561048457600080fd5b505af1158015610498573d6000803e3d6000fd5b505050506104b0676aefdbc662d9366160c01b610d0a565b6104c4671fc280071aadd12760c01b610d0a565b6000837f6c6b5394380e16e41988d8383648010de6f5c2e4814803be5de1c6b1c852db55836000815181106104fc576104fb61148e565b5b602002602001015160006001600060405161051a949392919061160b565b60405180910390a3505050565b61053b679b20e9a2614dfe6f60c01b610d0a565b61054f6717420fca18967b2d60c01b610d0a565b806002600084815260200190815260200160002060000160008282829054906101000a90046bffffffffffffffffffffffff1661058c919061167f565b92506101000a8154816bffffffffffffffffffffffff02191690836bffffffffffffffffffffffff1602179055505050565b60006105d467628537b761d4345060c01b610d0a565b6105e8679d4e4813ae33f38660c01b610d0a565b6105fc676bcaffe3116e49c660c01b610d0a565b6000806000815480929190610610906116bf565b91905055905061062a67423612654ff3f35560c01b610d0a565b336001600083815260200190815260200160002060006101000a81548173ffffffffffffffffffffffffffffffffffffffff021916908373ffffffffffffffffffffffffffffffffffffffff16021790555061069067276d6eb4430a69f860c01b610d0a565b6106a4674564abe81c84af9f60c01b610d0a565b3373ffffffffffffffffffffffffffffffffffffffff168667ffffffffffffffff16887feb0e3652e0f44f417695e6e90f2f42c99b65cd7169074c5a654b16b9748c3a4e84428a8a8a6040516106fe95949392919061175c565b60405180910390a461071a67a87c31e5185cd8f460c01b610d0a565b600260008767ffffffffffffffff168152602001908152602001600020600001600c81819054906101000a900467ffffffffffffffff168092919061075e906117c2565b91906101000a81548167ffffffffffffffff021916908367ffffffffffffffff1602179055505061079967f0defbd62a2f840260c01b610d0a565b6107ad67eb003413c3f30e8f60c01b610d0a565b8091505095945050505050565b6107ce67144b0486afdf626d60c01b610d0a565b6107e2678029f4dc842eb76a60c01b610d0a565b6107f667cc6c30f6dbcccb6a60c01b610d0a565b61084a8282600167ffffffffffffffff81111561081657610815610e7d565b5b6040519080825280602002602001820160405280156108445781602001602082028036833780820191505090505b50610173565b5050565b6000610864673cbc1dfd256276d860c01b610d0a565b6108786786e2f5079925d1db60c01b610d0a565b61088c679ea084c542655adf60c01b610d0a565b60004290506108a5675bfef2cfe1b1a01560c01b610d0a565b604051806080016040528060006bffffffffffffffffffffffff168152602001600067ffffffffffffffff1681526020013373ffffffffffffffffffffffffffffffffffffffff168152602001600067ffffffffffffffff81111561090d5761090c610e7d565b5b60405190808252806020026020018201604052801561093b5781602001602082028036833780820191505090505b508152506002600083815260200190815260200160002060008201518160000160006101000a8154816bffffffffffffffffffffffff02191690836bffffffffffffffffffffffff160217905550602082015181600001600c6101000a81548167ffffffffffffffff021916908367ffffffffffffffff16021790555060408201518160010160006101000a81548173ffffffffffffffffffffffffffffffffffffffff021916908373ffffffffffffffffffffffffffffffffffffffff1602179055506060820151816002019080519060200190610a1b929190610d18565b50905050610a33676ec2a8f92be35bef60c01b610d0a565b610a4767c047750255b5395460c01b610d0a565b8091505090565b610a62670feb311cbc06d5bf60c01b610d0a565b610a7667ca2deb360b17d38660c01b610d0a565b610a8a67906edbdd4f2a5d0e60c01b610d0a565b60026000838152602001908152602001600020600201819080600181540180825580915050600190039060005260206000200160009091909190916101000a81548173ffffffffffffffffffffffffffffffffffffffff021916908373ffffffffffffffffffffffffffffffffffffffff1602179055505050565b60008060006060610b2067a106457987e4360f60c01b610d0a565b610b34675c2515ff5622aae360c01b610d0a565b610b486775ef0b43788af91360c01b610d0a565b6000600260008781526020019081526020016000206040518060800160405290816000820160009054906101000a90046bffffffffffffffffffffffff166bffffffffffffffffffffffff166bffffffffffffffffffffffff16815260200160008201600c9054906101000a900467ffffffffffffffff1667ffffffffffffffff1667ffffffffffffffff1681526020016001820160009054906101000a900473ffffffffffffffffffffffffffffffffffffffff1673ffffffffffffffffffffffffffffffffffffffff1673ffffffffffffffffffffffffffffffffffffffff16815260200160028201805480602002602001604051908101604052809291908181526020018280548015610cb357602002820191906000526020600020905b8160009054906101000a900473ffffffffffffffffffffffffffffffffffffffff1673ffffffffffffffffffffffffffffffffffffffff1681526020019060010190808311610c69575b5050505050815250509050610cd26743e0a74ba7fe85a060c01b610d0a565b610ce667f3fa12e0572d807460c01b610d0a565b80600001518160200151826040015183606001519450945094509450509193509193565b50565b600060019050919050565b828054828255906000526020600020908101928215610d91579160200282015b82811115610d905782518260006101000a81548173ffffffffffffffffffffffffffffffffffffffff021916908373ffffffffffffffffffffffffffffffffffffffff16021790555091602001919060010190610d38565b5b509050610d9e9190610da2565b5090565b5b80821115610dbb576000816000905550600101610da3565b5090565b6000604051905090565b600080fd5b600080fd5b6000819050919050565b610de681610dd3565b8114610df157600080fd5b50565b600081359050610e0381610ddd565b92915050565b600073ffffffffffffffffffffffffffffffffffffffff82169050919050565b6000610e3482610e09565b9050919050565b610e4481610e29565b8114610e4f57600080fd5b50565b600081359050610e6181610e3b565b92915050565b600080fd5b6000601f19601f8301169050919050565b7f4e487b7100000000000000000000000000000000000000000000000000000000600052604160045260246000fd5b610eb582610e6c565b810181811067ffffffffffffffff82111715610ed457610ed3610e7d565b5b80604052505050565b6000610ee7610dbf565b9050610ef38282610eac565b919050565b600067ffffffffffffffff821115610f1357610f12610e7d565b5b602082029050602081019050919050565b600080fd5b6000610f3c610f3784610ef8565b610edd565b90508083825260208201905060208402830185811115610f5f57610f5e610f24565b5b835b81811015610f885780610f748882610df4565b845260208401935050602081019050610f61565b5050509392505050565b600082601f830112610fa757610fa6610e67565b5b8135610fb7848260208601610f29565b91505092915050565b600080600060608486031215610fd957610fd8610dc9565b5b6000610fe786828701610df4565b9350506020610ff886828701610e52565b925050604084013567ffffffffffffffff81111561101957611018610dce565b5b61102586828701610f92565b9150509250925092565b60006bffffffffffffffffffffffff82169050919050565b6110508161102f565b811461105b57600080fd5b50565b60008135905061106d81611047565b92915050565b6000806040838503121561108a57611089610dc9565b5b600061109885828601610df4565b92505060206110a98582860161105e565b9150509250929050565b6000819050919050565b6110c6816110b3565b81146110d157600080fd5b50565b6000813590506110e3816110bd565b92915050565b600067ffffffffffffffff82169050919050565b611106816110e9565b811461111157600080fd5b50565b600081359050611123816110fd565b92915050565b600061ffff82169050919050565b61114081611129565b811461114b57600080fd5b50565b60008135905061115d81611137565b92915050565b600063ffffffff82169050919050565b61117c81611163565b811461118757600080fd5b50565b60008135905061119981611173565b92915050565b600080600080600060a086880312156111bb576111ba610dc9565b5b60006111c9888289016110d4565b95505060206111da88828901611114565b94505060406111eb8882890161114e565b93505060606111fc8882890161118a565b925050608061120d8882890161118a565b9150509295509295909350565b61122381610dd3565b82525050565b600060208201905061123e600083018461121a565b92915050565b6000806040838503121561125b5761125a610dc9565b5b600061126985828601610df4565b925050602061127a85828601610e52565b9150509250929050565b60006020828403121561129a57611299610dc9565b5b60006112a884828501610df4565b91505092915050565b6112ba8161102f565b82525050565b6112c9816110e9565b82525050565b6112d881610e29565b82525050565b600081519050919050565b600082825260208201905092915050565b6000819050602082019050919050565b61131381610e29565b82525050565b6000611325838361130a565b60208301905092915050565b6000602082019050919050565b6000611349826112de565b61135381856112e9565b935061135e836112fa565b8060005b8381101561138f5781516113768882611319565b975061138183611331565b925050600181019050611362565b5085935050505092915050565b60006080820190506113b160008301876112b1565b6113be60208301866112c0565b6113cb60408301856112cf565b81810360608301526113dd818461133e565b905095945050505050565b600082825260208201905092915050565b7f496e76616c696420636f6e73756d657200000000000000000000000000000000600082015250565b600061142f6010836113e8565b915061143a826113f9565b602082019050919050565b6000602082019050818103600083015261145e81611422565b9050919050565b600060408201905061147a600083018561121a565b611487602083018461121a565b9392505050565b7f4e487b7100000000000000000000000000000000000000000000000000000000600052603260045260246000fd5b600081519050919050565b600082825260208201905092915050565b6000819050602082019050919050565b6114f281610dd3565b82525050565b600061150483836114e9565b60208301905092915050565b6000602082019050919050565b6000611528826114bd565b61153281856114c8565b935061153d836114d9565b8060005b8381101561156e57815161155588826114f8565b975061156083611510565b925050600181019050611541565b5085935050505092915050565b6000604082019050611590600083018561121a565b81810360208301526115a2818461151d565b90509392505050565b6000819050919050565b6000819050919050565b60006115da6115d56115d0846115ab565b6115b5565b61102f565b9050919050565b6115ea816115bf565b82525050565b60008115159050919050565b611605816115f0565b82525050565b6000608082019050611620600083018761121a565b61162d60208301866115e1565b61163a60408301856115fc565b61164760608301846115fc565b95945050505050565b7f4e487b7100000000000000000000000000000000000000000000000000000000600052601160045260246000fd5b600061168a8261102f565b91506116958361102f565b925082820190506bffffffffffffffffffffffff8111156116b9576116b8611650565b5b92915050565b60006116ca82610dd3565b91507fffffffffffffffffffffffffffffffffffffffffffffffffffffffffffffffff82036116fc576116fb611650565b5b600182019050919050565b61171081611129565b82525050565b61171f81611163565b82525050565b600082825260208201905092915050565b50565b6000611746600083611725565b915061175182611736565b600082019050919050565b600060c082019050611771600083018861121a565b61177e602083018761121a565b61178b6040830186611707565b6117986060830185611716565b6117a56080830184611716565b81810360a08301526117b681611739565b90509695505050505050565b60006117cd826110e9565b915067ffffffffffffffff82036117e7576117e6611650565b5b60018201905091905056fea264697066735822122052af74bb10d8fdd38add1a24261ef307dff87b36f929b7841ee496a4a3f5f11c64736f6c63430008130033","opcodes":"PUSH1 0x80 PUSH1 0x40 MSTORE PUSH1 0x1 PUSH1 0x0 SSTORE CALLVALUE DUP1 ISZERO PUSH2 0x15 JUMPI PUSH1 0x0 DUP1 REVERT JUMPDEST POP PUSH2 0x1828 DUP1 PUSH2 0x25 PUSH1 0x0 CODECOPY PUSH1 0x0 RETURN INVALID PUSH1 0x80 PUSH1 0x40 MSTORE CALLVALUE DUP1 ISZERO PUSH2 0x10 JUMPI PUSH1 0x0 DUP1 REVERT JUMPDEST POP PUSH1 0x4 CALLDATASIZE LT PUSH2 0x7D JUMPI PUSH1 0x0 CALLDATALOAD PUSH1 0xE0 SHR DUP1 PUSH4 0x808974FF GT PUSH2 0x5B JUMPI DUP1 PUSH4 0x808974FF EQ PUSH2 0xEA JUMPI DUP1 PUSH4 0xA21A23E4 EQ PUSH2 0x106 JUMPI DUP1 PUSH4 0xBEC4C08C EQ PUSH2 0x124 JUMPI DUP1 PUSH4 0xDC311DD3 EQ PUSH2 0x140 JUMPI PUSH2 0x7D JUMP JUMPDEST DUP1 PUSH4 0x8E3898E EQ PUSH2 0x82 JUMPI DUP1 PUSH4 0x4CF94D87 EQ PUSH2 0x9E JUMPI DUP1 PUSH4 0x5D3B1D30 EQ PUSH2 0xBA JUMPI JUMPDEST PUSH1 0x0 DUP1 REVERT JUMPDEST PUSH2 0x9C PUSH1 0x4 DUP1 CALLDATASIZE SUB DUP2 ADD SWAP1 PUSH2 0x97 SWAP2 SWAP1 PUSH2 0xFC0 JUMP JUMPDEST PUSH2 0x173 JUMP JUMPDEST STOP JUMPDEST PUSH2 0xB8 PUSH1 0x4 DUP1 CALLDATASIZE SUB DUP2 ADD SWAP1 PUSH2 0xB3 SWAP2 SWAP1 PUSH2 0x1073 JUMP JUMPDEST PUSH2 0x527 JUMP JUMPDEST STOP JUMPDEST PUSH2 0xD4 PUSH1 0x4 DUP1 CALLDATASIZE SUB DUP2 ADD SWAP1 PUSH2 0xCF SWAP2 SWAP1 PUSH2 0x119F JUMP JUMPDEST PUSH2 0x5BE JUMP JUMPDEST PUSH1 0x40 MLOAD PUSH2 0xE1 SWAP2 SWAP1 PUSH2 0x1229 JUMP JUMPDEST PUSH1 0x40 MLOAD DUP1 SWAP2 SUB SWAP1 RETURN JUMPDEST PUSH2 0x104 PUSH1 0x4 DUP1 CALLDATASIZE SUB DUP2 ADD SWAP1 PUSH2 0xFF SWAP2 SWAP1 PUSH2 0x1244 JUMP JUMPDEST PUSH2 0x7BA JUMP JUMPDEST STOP JUMPDEST PUSH2 0x10E PUSH2 0x84E JUMP JUMPDEST PUSH1 0x40 MLOAD PUSH2 0x11B SWAP2 SWAP1 PUSH2 0x1229 JUMP JUMPDEST PUSH1 0x40 MLOAD DUP1 SWAP2 SUB SWAP1 RETURN JUMPDEST PUSH2 0x13E PUSH1 0x4 DUP1 CALLDATASIZE SUB DUP2 ADD SWAP1 PUSH2 0x139 SWAP2 SWAP1 PUSH2 0x1244 JUMP JUMPDEST PUSH2 0xA4E JUMP JUMPDEST STOP JUMPDEST PUSH2 0x15A PUSH1 0x4 DUP1 CALLDATASIZE SUB DUP2 ADD SWAP1 PUSH2 0x155 SWAP2 SWAP1 PUSH2 0x1284 JUMP JUMPDEST PUSH2 0xB05 JUMP JUMPDEST PUSH1 0x40 MLOAD PUSH2 0x16A SWAP5 SWAP4 SWAP3 SWAP2 SWAP1 PUSH2 0x139C JUMP JUMPDEST PUSH1 0x40 MLOAD DUP1 SWAP2 SUB SWAP1 RETURN JUMPDEST PUSH2 0x187 PUSH8 0x9D7CD5B0F23D893C PUSH1 0xC0 SHL PUSH2 0xD0A JUMP JUMPDEST PUSH2 0x19B PUSH8 0x97C2FF56EBD90EB2 PUSH1 0xC0 SHL PUSH2 0xD0A JUMP JUMPDEST PUSH2 0x1AF PUSH8 0x4CD3CF4FB360ADD PUSH1 0xC0 SHL PUSH2 0xD0A JUMP JUMPDEST PUSH2 0x1C3 PUSH8 0x92B9EBF8D384857F PUSH1 0xC0 SHL PUSH2 0xD0A JUMP JUMPDEST DUP2 PUSH20 0xFFFFFFFFFFFFFFFFFFFFFFFFFFFFFFFFFFFFFFFF AND PUSH1 0x1 PUSH1 0x0 DUP6 DUP2 MSTORE PUSH1 0x20 ADD SWAP1 DUP2 MSTORE PUSH1 0x20 ADD PUSH1 0x0 KECCAK256 PUSH1 0x0 SWAP1 SLOAD SWAP1 PUSH2 0x100 EXP SWAP1 DIV PUSH20 0xFFFFFFFFFFFFFFFFFFFFFFFFFFFFFFFFFFFFFFFF AND PUSH20 0xFFFFFFFFFFFFFFFFFFFFFFFFFFFFFFFFFFFFFFFF AND EQ DUP1 ISZERO PUSH2 0x241 JUMPI POP PUSH2 0x240 PUSH8 0x94DE964D01F2BB2C PUSH1 0xC0 SHL PUSH2 0xD0D JUMP JUMPDEST JUMPDEST DUP1 PUSH2 0x295 JUMPI POP PUSH1 0x0 PUSH20 0xFFFFFFFFFFFFFFFFFFFFFFFFFFFFFFFFFFFFFFFF AND DUP3 PUSH20 0xFFFFFFFFFFFFFFFFFFFFFFFFFFFFFFFFFFFFFFFF AND EQ ISZERO DUP1 ISZERO PUSH2 0x294 JUMPI POP PUSH2 0x293 PUSH8 0xB862CE5ABCF38A3E PUSH1 0xC0 SHL PUSH2 0xD0D JUMP JUMPDEST JUMPDEST JUMPDEST PUSH2 0x2D4 JUMPI PUSH1 0x40 MLOAD PUSH32 0x8C379A000000000000000000000000000000000000000000000000000000000 DUP2 MSTORE PUSH1 0x4 ADD PUSH2 0x2CB SWAP1 PUSH2 0x1445 JUMP JUMPDEST PUSH1 0x40 MLOAD DUP1 SWAP2 SUB SWAP1 REVERT JUMPDEST PUSH2 0x2E8 PUSH8 0xBD12499AEA300044 PUSH1 0xC0 SHL PUSH2 0xD0A JUMP JUMPDEST PUSH2 0x2FC PUSH8 0x9FD09E1B984DFA14 PUSH1 0xC0 SHL PUSH2 0xD0A JUMP JUMPDEST PUSH2 0x310 PUSH8 0x5F4EA78E49EB377D PUSH1 0xC0 SHL PUSH2 0xD0A JUMP JUMPDEST PUSH1 0x0 DUP2 MLOAD SUB PUSH2 0x3F2 JUMPI PUSH2 0x32D PUSH8 0x5ED33DA9402060FC PUSH1 0xC0 SHL PUSH2 0xD0A JUMP JUMPDEST PUSH2 0x341 PUSH8 0x76A6B2F8A571A3C9 PUSH1 0xC0 SHL PUSH2 0xD0A JUMP JUMPDEST PUSH1 0x1 PUSH8 0xFFFFFFFFFFFFFFFF DUP2 GT ISZERO PUSH2 0x35C JUMPI PUSH2 0x35B PUSH2 0xE7D JUMP JUMPDEST JUMPDEST PUSH1 0x40 MLOAD SWAP1 DUP1 DUP3 MSTORE DUP1 PUSH1 0x20 MUL PUSH1 0x20 ADD DUP3 ADD PUSH1 0x40 MSTORE DUP1 ISZERO PUSH2 0x38A JUMPI DUP2 PUSH1 0x20 ADD PUSH1 0x20 DUP3 MUL DUP1 CALLDATASIZE DUP4 CALLDATACOPY DUP1 DUP3 ADD SWAP2 POP POP SWAP1 POP JUMPDEST POP SWAP1 POP PUSH2 0x3A1 PUSH8 0x59A4CC20AC9790C8 PUSH1 0xC0 SHL PUSH2 0xD0A JUMP JUMPDEST DUP3 TIMESTAMP PUSH1 0x40 MLOAD PUSH1 0x20 ADD PUSH2 0x3B4 SWAP3 SWAP2 SWAP1 PUSH2 0x1465 JUMP JUMPDEST PUSH1 0x40 MLOAD PUSH1 0x20 DUP2 DUP4 SUB SUB DUP2 MSTORE SWAP1 PUSH1 0x40 MSTORE DUP1 MLOAD SWAP1 PUSH1 0x20 ADD KECCAK256 PUSH1 0x0 SHR DUP2 PUSH1 0x0 DUP2 MLOAD DUP2 LT PUSH2 0x3E1 JUMPI PUSH2 0x3E0 PUSH2 0x148E JUMP JUMPDEST JUMPDEST PUSH1 0x20 MUL PUSH1 0x20 ADD ADD DUP2 DUP2 MSTORE POP POP PUSH2 0x407 JUMP JUMPDEST PUSH2 0x406 PUSH8 0x29E58735E2F4E262 PUSH1 0xC0 SHL PUSH2 0xD0A JUMP JUMPDEST JUMPDEST PUSH2 0x41B PUSH8 0x682356A2CE535CAC PUSH1 0xC0 SHL PUSH2 0xD0A JUMP JUMPDEST PUSH2 0x42F PUSH8 0x7F9A82571ED2C3AB PUSH1 0xC0 SHL PUSH2 0xD0A JUMP JUMPDEST DUP2 PUSH20 0xFFFFFFFFFFFFFFFFFFFFFFFFFFFFFFFFFFFFFFFF AND PUSH4 0x1FE543E3 DUP5 DUP4 PUSH1 0x40 MLOAD DUP4 PUSH4 0xFFFFFFFF AND PUSH1 0xE0 SHL DUP2 MSTORE PUSH1 0x4 ADD PUSH2 0x46A SWAP3 SWAP2 SWAP1 PUSH2 0x157B JUMP JUMPDEST PUSH1 0x0 PUSH1 0x40 MLOAD DUP1 DUP4 SUB DUP2 PUSH1 0x0 DUP8 DUP1 EXTCODESIZE ISZERO DUP1 ISZERO PUSH2 0x484 JUMPI PUSH1 0x0 DUP1 REVERT JUMPDEST POP GAS CALL ISZERO DUP1 ISZERO PUSH2 0x498 JUMPI RETURNDATASIZE PUSH1 0x0 DUP1 RETURNDATACOPY RETURNDATASIZE PUSH1 0x0 REVERT JUMPDEST POP POP POP POP PUSH2 0x4B0 PUSH8 0x6AEFDBC662D93661 PUSH1 0xC0 SHL PUSH2 0xD0A JUMP JUMPDEST PUSH2 0x4C4 PUSH8 0x1FC280071AADD127 PUSH1 0xC0 SHL PUSH2 0xD0A JUMP JUMPDEST PUSH1 0x0 DUP4 PUSH32 0x6C6B5394380E16E41988D8383648010DE6F5C2E4814803BE5DE1C6B1C852DB55 DUP4 PUSH1 0x0 DUP2 MLOAD DUP2 LT PUSH2 0x4FC JUMPI PUSH2 0x4FB PUSH2 0x148E JUMP JUMPDEST JUMPDEST PUSH1 0x20 MUL PUSH1 0x20 ADD ADD MLOAD PUSH1 0x0 PUSH1 0x1 PUSH1 0x0 PUSH1 0x40 MLOAD PUSH2 0x51A SWAP5 SWAP4 SWAP3 SWAP2 SWAP1 PUSH2 0x160B JUMP JUMPDEST PUSH1 0x40 MLOAD DUP1 SWAP2 SUB SWAP1 LOG3 POP POP POP JUMP JUMPDEST PUSH2 0x53B PUSH8 0x9B20E9A2614DFE6F PUSH1 0xC0 SHL PUSH2 0xD0A JUMP JUMPDEST PUSH2 0x54F PUSH8 0x17420FCA18967B2D PUSH1 0xC0 SHL PUSH2 0xD0A JUMP JUMPDEST DUP1 PUSH1 0x2 PUSH1 0x0 DUP5 DUP2 MSTORE PUSH1 0x20 ADD SWAP1 DUP2 MSTORE PUSH1 0x20 ADD PUSH1 0x0 KECCAK256 PUSH1 0x0 ADD PUSH1 0x0 DUP3 DUP3 DUP3 SWAP1 SLOAD SWAP1 PUSH2 0x100 EXP SWAP1 DIV PUSH12 0xFFFFFFFFFFFFFFFFFFFFFFFF AND PUSH2 0x58C SWAP2 SWAP1 PUSH2 0x167F JUMP JUMPDEST SWAP3 POP PUSH2 0x100 EXP DUP2 SLOAD DUP2 PUSH12 0xFFFFFFFFFFFFFFFFFFFFFFFF MUL NOT AND SWAP1 DUP4 PUSH12 0xFFFFFFFFFFFFFFFFFFFFFFFF AND MUL OR SWAP1 SSTORE POP POP POP JUMP JUMPDEST PUSH1 0x0 PUSH2 0x5D4 PUSH8 0x628537B761D43450 PUSH1 0xC0 SHL PUSH2 0xD0A JUMP JUMPDEST PUSH2 0x5E8 PUSH8 0x9D4E4813AE33F386 PUSH1 0xC0 SHL PUSH2 0xD0A JUMP JUMPDEST PUSH2 0x5FC PUSH8 0x6BCAFFE3116E49C6 PUSH1 0xC0 SHL PUSH2 0xD0A JUMP JUMPDEST PUSH1 0x0 DUP1 PUSH1 0x0 DUP2 SLOAD DUP1 SWAP3 SWAP2 SWAP1 PUSH2 0x610 SWAP1 PUSH2 0x16BF JUMP JUMPDEST SWAP2 SWAP1 POP SSTORE SWAP1 POP PUSH2 0x62A PUSH8 0x423612654FF3F355 PUSH1 0xC0 SHL PUSH2 0xD0A JUMP JUMPDEST CALLER PUSH1 0x1 PUSH1 0x0 DUP4 DUP2 MSTORE PUSH1 0x20 ADD SWAP1 DUP2 MSTORE PUSH1 0x20 ADD PUSH1 0x0 KECCAK256 PUSH1 0x0 PUSH2 0x100 EXP DUP2 SLOAD DUP2 PUSH20 0xFFFFFFFFFFFFFFFFFFFFFFFFFFFFFFFFFFFFFFFF MUL NOT AND SWAP1 DUP4 PUSH20 0xFFFFFFFFFFFFFFFFFFFFFFFFFFFFFFFFFFFFFFFF AND MUL OR SWAP1 SSTORE POP PUSH2 0x690 PUSH8 0x276D6EB4430A69F8 PUSH1 0xC0 SHL PUSH2 0xD0A JUMP JUMPDEST PUSH2 0x6A4 PUSH8 0x4564ABE81C84AF9F PUSH1 0xC0 SHL PUSH2 0xD0A JUMP JUMPDEST CALLER PUSH20 0xFFFFFFFFFFFFFFFFFFFFFFFFFFFFFFFFFFFFFFFF AND DUP7 PUSH8 0xFFFFFFFFFFFFFFFF AND DUP9 PUSH32 0xEB0E3652E0F44F417695E6E90F2F42C99B65CD7169074C5A654B16B9748C3A4E DUP5 TIMESTAMP DUP11 DUP11 DUP11 PUSH1 0x40 MLOAD PUSH2 0x6FE SWAP6 SWAP5 SWAP4 SWAP3 SWAP2 SWAP1 PUSH2 0x175C JUMP JUMPDEST PUSH1 0x40 MLOAD DUP1 SWAP2 SUB SWAP1 LOG4 PUSH2 0x71A PUSH8 0xA87C31E5185CD8F4 PUSH1 0xC0 SHL PUSH2 0xD0A JUMP JUMPDEST PUSH1 0x2 PUSH1 0x0 DUP8 PUSH8 0xFFFFFFFFFFFFFFFF AND DUP2 MSTORE PUSH1 0x20 ADD SWAP1 DUP2 MSTORE PUSH1 0x20 ADD PUSH1 0x0 KECCAK256 PUSH1 0x0 ADD PUSH1 0xC DUP2 DUP2 SWAP1 SLOAD SWAP1 PUSH2 0x100 EXP SWAP1 DIV PUSH8 0xFFFFFFFFFFFFFFFF AND DUP1 SWAP3 SWAP2 SWAP1 PUSH2 0x75E SWAP1 PUSH2 0x17C2 JUMP JUMPDEST SWAP2 SWAP1 PUSH2 0x100 EXP DUP2 SLOAD DUP2 PUSH8 0xFFFFFFFFFFFFFFFF MUL NOT AND SWAP1 DUP4 PUSH8 0xFFFFFFFFFFFFFFFF AND MUL OR SWAP1 SSTORE POP POP PUSH2 0x799 PUSH8 0xF0DEFBD62A2F8402 PUSH1 0xC0 SHL PUSH2 0xD0A JUMP JUMPDEST PUSH2 0x7AD PUSH8 0xEB003413C3F30E8F PUSH1 0xC0 SHL PUSH2 0xD0A JUMP JUMPDEST DUP1 SWAP2 POP POP SWAP6 SWAP5 POP POP POP POP POP JUMP JUMPDEST PUSH2 0x7CE PUSH8 0x144B0486AFDF626D PUSH1 0xC0 SHL PUSH2 0xD0A JUMP JUMPDEST PUSH2 0x7E2 PUSH8 0x8029F4DC842EB76A PUSH1 0xC0 SHL PUSH2 0xD0A JUMP JUMPDEST PUSH2 0x7F6 PUSH8 0xCC6C30F6DBCCCB6A PUSH1 0xC0 SHL PUSH2 0xD0A JUMP JUMPDEST PUSH2 0x84A DUP3 DUP3 PUSH1 0x1 PUSH8 0xFFFFFFFFFFFFFFFF DUP2 GT ISZERO PUSH2 0x816 JUMPI PUSH2 0x815 PUSH2 0xE7D JUMP JUMPDEST JUMPDEST PUSH1 0x40 MLOAD SWAP1 DUP1 DUP3 MSTORE DUP1 PUSH1 0x20 MUL PUSH1 0x20 ADD DUP3 ADD PUSH1 0x40 MSTORE DUP1 ISZERO PUSH2 0x844 JUMPI DUP2 PUSH1 0x20 ADD PUSH1 0x20 DUP3 MUL DUP1 CALLDATASIZE DUP4 CALLDATACOPY DUP1 DUP3 ADD SWAP2 POP POP SWAP1 POP JUMPDEST POP PUSH2 0x173 JUMP JUMPDEST POP POP JUMP JUMPDEST PUSH1 0x0 PUSH2 0x864 PUSH8 0x3CBC1DFD256276D8 PUSH1 0xC0 SHL PUSH2 0xD0A JUMP JUMPDEST PUSH2 0x878 PUSH8 0x86E2F5079925D1DB PUSH1 0xC0 SHL PUSH2 0xD0A JUMP JUMPDEST PUSH2 0x88C PUSH8 0x9EA084C542655ADF PUSH1 0xC0 SHL PUSH2 0xD0A JUMP JUMPDEST PUSH1 0x0 TIMESTAMP SWAP1 POP PUSH2 0x8A5 PUSH8 0x5BFEF2CFE1B1A015 PUSH1 0xC0 SHL PUSH2 0xD0A JUMP JUMPDEST PUSH1 0x40 MLOAD DUP1 PUSH1 0x80 ADD PUSH1 0x40 MSTORE DUP1 PUSH1 0x0 PUSH12 0xFFFFFFFFFFFFFFFFFFFFFFFF AND DUP2 MSTORE PUSH1 0x20 ADD PUSH1 0x0 PUSH8 0xFFFFFFFFFFFFFFFF AND DUP2 MSTORE PUSH1 0x20 ADD CALLER PUSH20 0xFFFFFFFFFFFFFFFFFFFFFFFFFFFFFFFFFFFFFFFF AND DUP2 MSTORE PUSH1 0x20 ADD PUSH1 0x0 PUSH8 0xFFFFFFFFFFFFFFFF DUP2 GT ISZERO PUSH2 0x90D JUMPI PUSH2 0x90C PUSH2 0xE7D JUMP JUMPDEST JUMPDEST PUSH1 0x40 MLOAD SWAP1 DUP1 DUP3 MSTORE DUP1 PUSH1 0x20 MUL PUSH1 0x20 ADD DUP3 ADD PUSH1 0x40 MSTORE DUP1 ISZERO PUSH2 0x93B JUMPI DUP2 PUSH1 0x20 ADD PUSH1 0x20 DUP3 MUL DUP1 CALLDATASIZE DUP4 CALLDATACOPY DUP1 DUP3 ADD SWAP2 POP POP SWAP1 POP JUMPDEST POP DUP2 MSTORE POP PUSH1 0x2 PUSH1 0x0 DUP4 DUP2 MSTORE PUSH1 0x20 ADD SWAP1 DUP2 MSTORE PUSH1 0x20 ADD PUSH1 0x0 KECCAK256 PUSH1 0x0 DUP3 ADD MLOAD DUP2 PUSH1 0x0 ADD PUSH1 0x0 PUSH2 0x100 EXP DUP2 SLOAD DUP2 PUSH12 0xFFFFFFFFFFFFFFFFFFFFFFFF MUL NOT AND SWAP1 DUP4 PUSH12 0xFFFFFFFFFFFFFFFFFFFFFFFF AND MUL OR SWAP1 SSTORE POP PUSH1 0x20 DUP3 ADD MLOAD DUP2 PUSH1 0x0 ADD PUSH1 0xC PUSH2 0x100 EXP DUP2 SLOAD DUP2 PUSH8 0xFFFFFFFFFFFFFFFF MUL NOT AND SWAP1 DUP4 PUSH8 0xFFFFFFFFFFFFFFFF AND MUL OR SWAP1 SSTORE POP PUSH1 0x40 DUP3 ADD MLOAD DUP2 PUSH1 0x1 ADD PUSH1 0x0 PUSH2 0x100 EXP DUP2 SLOAD DUP2 PUSH20 0xFFFFFFFFFFFFFFFFFFFFFFFFFFFFFFFFFFFFFFFF MUL NOT AND SWAP1 DUP4 PUSH20 0xFFFFFFFFFFFFFFFFFFFFFFFFFFFFFFFFFFFFFFFF AND MUL OR SWAP1 SSTORE POP PUSH1 0x60 DUP3 ADD MLOAD DUP2 PUSH1 0x2 ADD SWAP1 DUP1 MLOAD SWAP1 PUSH1 0x20 ADD SWAP1 PUSH2 0xA1B SWAP3 SWAP2 SWAP1 PUSH2 0xD18 JUMP JUMPDEST POP SWAP1 POP POP PUSH2 0xA33 PUSH8 0x6EC2A8F92BE35BEF PUSH1 0xC0 SHL PUSH2 0xD0A JUMP JUMPDEST PUSH2 0xA47 PUSH8 0xC047750255B53954 PUSH1 0xC0 SHL PUSH2 0xD0A JUMP JUMPDEST DUP1 SWAP2 POP POP SWAP1 JUMP JUMPDEST PUSH2 0xA62 PUSH8 0xFEB311CBC06D5BF PUSH1 0xC0 SHL PUSH2 0xD0A JUMP JUMPDEST PUSH2 0xA76 PUSH8 0xCA2DEB360B17D386 PUSH1 0xC0 SHL PUSH2 0xD0A JUMP JUMPDEST PUSH2 0xA8A PUSH8 0x906EDBDD4F2A5D0E PUSH1 0xC0 SHL PUSH2 0xD0A JUMP JUMPDEST PUSH1 0x2 PUSH1 0x0 DUP4 DUP2 MSTORE PUSH1 0x20 ADD SWAP1 DUP2 MSTORE PUSH1 0x20 ADD PUSH1 0x0 KECCAK256 PUSH1 0x2 ADD DUP2 SWAP1 DUP1 PUSH1 0x1 DUP2 SLOAD ADD DUP1 DUP3 SSTORE DUP1 SWAP2 POP POP PUSH1 0x1 SWAP1 SUB SWAP1 PUSH1 0x0 MSTORE PUSH1 0x20 PUSH1 0x0 KECCAK256 ADD PUSH1 0x0 SWAP1 SWAP2 SWAP1 SWAP2 SWAP1 SWAP2 PUSH2 0x100 EXP DUP2 SLOAD DUP2 PUSH20 0xFFFFFFFFFFFFFFFFFFFFFFFFFFFFFFFFFFFFFFFF MUL NOT AND SWAP1 DUP4 PUSH20 0xFFFFFFFFFFFFFFFFFFFFFFFFFFFFFFFFFFFFFFFF AND MUL OR SWAP1 SSTORE POP POP POP JUMP JUMPDEST PUSH1 0x0 DUP1 PUSH1 0x0 PUSH1 0x60 PUSH2 0xB20 PUSH8 0xA106457987E4360F PUSH1 0xC0 SHL PUSH2 0xD0A JUMP JUMPDEST PUSH2 0xB34 PUSH8 0x5C2515FF5622AAE3 PUSH1 0xC0 SHL PUSH2 0xD0A JUMP JUMPDEST PUSH2 0xB48 PUSH8 0x75EF0B43788AF913 PUSH1 0xC0 SHL PUSH2 0xD0A JUMP JUMPDEST PUSH1 0x0 PUSH1 0x2 PUSH1 0x0 DUP8 DUP2 MSTORE PUSH1 0x20 ADD SWAP1 DUP2 MSTORE PUSH1 0x20 ADD PUSH1 0x0 KECCAK256 PUSH1 0x40 MLOAD DUP1 PUSH1 0x80 ADD PUSH1 0x40 MSTORE SWAP1 DUP2 PUSH1 0x0 DUP3 ADD PUSH1 0x0 SWAP1 SLOAD SWAP1 PUSH2 0x100 EXP SWAP1 DIV PUSH12 0xFFFFFFFFFFFFFFFFFFFFFFFF AND PUSH12 0xFFFFFFFFFFFFFFFFFFFFFFFF AND PUSH12 0xFFFFFFFFFFFFFFFFFFFFFFFF AND DUP2 MSTORE PUSH1 0x20 ADD PUSH1 0x0 DUP3 ADD PUSH1 0xC SWAP1 SLOAD SWAP1 PUSH2 0x100 EXP SWAP1 DIV PUSH8 0xFFFFFFFFFFFFFFFF AND PUSH8 0xFFFFFFFFFFFFFFFF AND PUSH8 0xFFFFFFFFFFFFFFFF AND DUP2 MSTORE PUSH1 0x20 ADD PUSH1 0x1 DUP3 ADD PUSH1 0x0 SWAP1 SLOAD SWAP1 PUSH2 0x100 EXP SWAP1 DIV PUSH20 0xFFFFFFFFFFFFFFFFFFFFFFFFFFFFFFFFFFFFFFFF AND PUSH20 0xFFFFFFFFFFFFFFFFFFFFFFFFFFFFFFFFFFFFFFFF AND PUSH20 0xFFFFFFFFFFFFFFFFFFFFFFFFFFFFFFFFFFFFFFFF AND DUP2 MSTORE PUSH1 0x20 ADD PUSH1 0x2 DUP3 ADD DUP1 SLOAD DUP1 PUSH1 0x20 MUL PUSH1 0x20 ADD PUSH1 0x40 MLOAD SWAP1 DUP2 ADD PUSH1 0x40 MSTORE DUP1 SWAP3 SWAP2 SWAP1 DUP2 DUP2 MSTORE PUSH1 0x20 ADD DUP3 DUP1 SLOAD DUP1 ISZERO PUSH2 0xCB3 JUMPI PUSH1 0x20 MUL DUP3 ADD SWAP2 SWAP1 PUSH1 0x0 MSTORE PUSH1 0x20 PUSH1 0x0 KECCAK256 SWAP1 JUMPDEST DUP2 PUSH1 0x0 SWAP1 SLOAD SWAP1 PUSH2 0x100 EXP SWAP1 DIV PUSH20 0xFFFFFFFFFFFFFFFFFFFFFFFFFFFFFFFFFFFFFFFF AND PUSH20 0xFFFFFFFFFFFFFFFFFFFFFFFFFFFFFFFFFFFFFFFF AND DUP2 MSTORE PUSH1 0x20 ADD SWAP1 PUSH1 0x1 ADD SWAP1 DUP1 DUP4 GT PUSH2 0xC69 JUMPI JUMPDEST POP POP POP POP POP DUP2 MSTORE POP POP SWAP1 POP PUSH2 0xCD2 PUSH8 0x43E0A74BA7FE85A0 PUSH1 0xC0 SHL PUSH2 0xD0A JUMP JUMPDEST PUSH2 0xCE6 PUSH8 0xF3FA12E0572D8074 PUSH1 0xC0 SHL PUSH2 0xD0A JUMP JUMPDEST DUP1 PUSH1 0x0 ADD MLOAD DUP2 PUSH1 0x20 ADD MLOAD DUP3 PUSH1 0x40 ADD MLOAD DUP4 PUSH1 0x60 ADD MLOAD SWAP5 POP SWAP5 POP SWAP5 POP SWAP5 POP POP SWAP2 SWAP4 POP SWAP2 SWAP4 JUMP JUMPDEST POP JUMP JUMPDEST PUSH1 0x0 PUSH1 0x1 SWAP1 POP SWAP2 SWAP1 POP JUMP JUMPDEST DUP3 DUP1 SLOAD DUP3 DUP3 SSTORE SWAP1 PUSH1 0x0 MSTORE PUSH1 0x20 PUSH1 0x0 KECCAK256 SWAP1 DUP2 ADD SWAP3 DUP3 ISZERO PUSH2 0xD91 JUMPI SWAP2 PUSH1 0x20 MUL DUP3 ADD JUMPDEST DUP3 DUP2 GT ISZERO PUSH2 0xD90 JUMPI DUP3 MLOAD DUP3 PUSH1 0x0 PUSH2 0x100 EXP DUP2 SLOAD DUP2 PUSH20 0xFFFFFFFFFFFFFFFFFFFFFFFFFFFFFFFFFFFFFFFF MUL NOT AND SWAP1 DUP4 PUSH20 0xFFFFFFFFFFFFFFFFFFFFFFFFFFFFFFFFFFFFFFFF AND MUL OR SWAP1 SSTORE POP SWAP2 PUSH1 0x20 ADD SWAP2 SWAP1 PUSH1 0x1 ADD SWAP1 PUSH2 0xD38 JUMP JUMPDEST JUMPDEST POP SWAP1 POP PUSH2 0xD9E SWAP2 SWAP1 PUSH2 0xDA2 JUMP JUMPDEST POP SWAP1 JUMP JUMPDEST JUMPDEST DUP1 DUP3 GT ISZERO PUSH2 0xDBB JUMPI PUSH1 0x0 DUP2 PUSH1 0x0 SWAP1 SSTORE POP PUSH1 0x1 ADD PUSH2 0xDA3 JUMP JUMPDEST POP SWAP1 JUMP JUMPDEST PUSH1 0x0 PUSH1 0x40 MLOAD SWAP1 POP SWAP1 JUMP JUMPDEST PUSH1 0x0 DUP1 REVERT JUMPDEST PUSH1 0x0 DUP1 REVERT JUMPDEST PUSH1 0x0 DUP2 SWAP1 POP SWAP2 SWAP1 POP JUMP JUMPDEST PUSH2 0xDE6 DUP2 PUSH2 0xDD3 JUMP JUMPDEST DUP2 EQ PUSH2 0xDF1 JUMPI PUSH1 0x0 DUP1 REVERT JUMPDEST POP JUMP JUMPDEST PUSH1 0x0 DUP2 CALLDATALOAD SWAP1 POP PUSH2 0xE03 DUP2 PUSH2 0xDDD JUMP JUMPDEST SWAP3 SWAP2 POP POP JUMP JUMPDEST PUSH1 0x0 PUSH20 0xFFFFFFFFFFFFFFFFFFFFFFFFFFFFFFFFFFFFFFFF DUP3 AND SWAP1 POP SWAP2 SWAP1 POP JUMP JUMPDEST PUSH1 0x0 PUSH2 0xE34 DUP3 PUSH2 0xE09 JUMP JUMPDEST SWAP1 POP SWAP2 SWAP1 POP JUMP JUMPDEST PUSH2 0xE44 DUP2 PUSH2 0xE29 JUMP JUMPDEST DUP2 EQ PUSH2 0xE4F JUMPI PUSH1 0x0 DUP1 REVERT JUMPDEST POP JUMP JUMPDEST PUSH1 0x0 DUP2 CALLDATALOAD SWAP1 POP PUSH2 0xE61 DUP2 PUSH2 0xE3B JUMP JUMPDEST SWAP3 SWAP2 POP POP JUMP JUMPDEST PUSH1 0x0 DUP1 REVERT JUMPDEST PUSH1 0x0 PUSH1 0x1F NOT PUSH1 0x1F DUP4 ADD AND SWAP1 POP SWAP2 SWAP1 POP JUMP JUMPDEST PUSH32 0x4E487B7100000000000000000000000000000000000000000000000000000000 PUSH1 0x0 MSTORE PUSH1 0x41 PUSH1 0x4 MSTORE PUSH1 0x24 PUSH1 0x0 REVERT JUMPDEST PUSH2 0xEB5 DUP3 PUSH2 0xE6C JUMP JUMPDEST DUP2 ADD DUP2 DUP2 LT PUSH8 0xFFFFFFFFFFFFFFFF DUP3 GT OR ISZERO PUSH2 0xED4 JUMPI PUSH2 0xED3 PUSH2 0xE7D JUMP JUMPDEST JUMPDEST DUP1 PUSH1 0x40 MSTORE POP POP POP JUMP JUMPDEST PUSH1 0x0 PUSH2 0xEE7 PUSH2 0xDBF JUMP JUMPDEST SWAP1 POP PUSH2 0xEF3 DUP3 DUP3 PUSH2 0xEAC JUMP JUMPDEST SWAP2 SWAP1 POP JUMP JUMPDEST PUSH1 0x0 PUSH8 0xFFFFFFFFFFFFFFFF DUP3 GT ISZERO PUSH2 0xF13 JUMPI PUSH2 0xF12 PUSH2 0xE7D JUMP JUMPDEST JUMPDEST PUSH1 0x20 DUP3 MUL SWAP1 POP PUSH1 0x20 DUP2 ADD SWAP1 POP SWAP2 SWAP1 POP JUMP JUMPDEST PUSH1 0x0 DUP1 REVERT JUMPDEST PUSH1 0x0 PUSH2 0xF3C PUSH2 0xF37 DUP5 PUSH2 0xEF8 JUMP JUMPDEST PUSH2 0xEDD JUMP JUMPDEST SWAP1 POP DUP1 DUP4 DUP3 MSTORE PUSH1 0x20 DUP3 ADD SWAP1 POP PUSH1 0x20 DUP5 MUL DUP4 ADD DUP6 DUP2 GT ISZERO PUSH2 0xF5F JUMPI PUSH2 0xF5E PUSH2 0xF24 JUMP JUMPDEST JUMPDEST DUP4 JUMPDEST DUP2 DUP2 LT ISZERO PUSH2 0xF88 JUMPI DUP1 PUSH2 0xF74 DUP9 DUP3 PUSH2 0xDF4 JUMP JUMPDEST DUP5 MSTORE PUSH1 0x20 DUP5 ADD SWAP4 POP POP PUSH1 0x20 DUP2 ADD SWAP1 POP PUSH2 0xF61 JUMP JUMPDEST POP POP POP SWAP4 SWAP3 POP POP POP JUMP JUMPDEST PUSH1 0x0 DUP3 PUSH1 0x1F DUP4 ADD SLT PUSH2 0xFA7 JUMPI PUSH2 0xFA6 PUSH2 0xE67 JUMP JUMPDEST JUMPDEST DUP2 CALLDATALOAD PUSH2 0xFB7 DUP5 DUP3 PUSH1 0x20 DUP7 ADD PUSH2 0xF29 JUMP JUMPDEST SWAP2 POP POP SWAP3 SWAP2 POP POP JUMP JUMPDEST PUSH1 0x0 DUP1 PUSH1 0x0 PUSH1 0x60 DUP5 DUP7 SUB SLT ISZERO PUSH2 0xFD9 JUMPI PUSH2 0xFD8 PUSH2 0xDC9 JUMP JUMPDEST JUMPDEST PUSH1 0x0 PUSH2 0xFE7 DUP7 DUP3 DUP8 ADD PUSH2 0xDF4 JUMP JUMPDEST SWAP4 POP POP PUSH1 0x20 PUSH2 0xFF8 DUP7 DUP3 DUP8 ADD PUSH2 0xE52 JUMP JUMPDEST SWAP3 POP POP PUSH1 0x40 DUP5 ADD CALLDATALOAD PUSH8 0xFFFFFFFFFFFFFFFF DUP2 GT ISZERO PUSH2 0x1019 JUMPI PUSH2 0x1018 PUSH2 0xDCE JUMP JUMPDEST JUMPDEST PUSH2 0x1025 DUP7 DUP3 DUP8 ADD PUSH2 0xF92 JUMP JUMPDEST SWAP2 POP POP SWAP3 POP SWAP3 POP SWAP3 JUMP JUMPDEST PUSH1 0x0 PUSH12 0xFFFFFFFFFFFFFFFFFFFFFFFF DUP3 AND SWAP1 POP SWAP2 SWAP1 POP JUMP JUMPDEST PUSH2 0x1050 DUP2 PUSH2 0x102F JUMP JUMPDEST DUP2 EQ PUSH2 0x105B JUMPI PUSH1 0x0 DUP1 REVERT JUMPDEST POP JUMP JUMPDEST PUSH1 0x0 DUP2 CALLDATALOAD SWAP1 POP PUSH2 0x106D DUP2 PUSH2 0x1047 JUMP JUMPDEST SWAP3 SWAP2 POP POP JUMP JUMPDEST PUSH1 0x0 DUP1 PUSH1 0x40 DUP4 DUP6 SUB SLT ISZERO PUSH2 0x108A JUMPI PUSH2 0x1089 PUSH2 0xDC9 JUMP JUMPDEST JUMPDEST PUSH1 0x0 PUSH2 0x1098 DUP6 DUP3 DUP7 ADD PUSH2 0xDF4 JUMP JUMPDEST SWAP3 POP POP PUSH1 0x20 PUSH2 0x10A9 DUP6 DUP3 DUP7 ADD PUSH2 0x105E JUMP JUMPDEST SWAP2 POP POP SWAP3 POP SWAP3 SWAP1 POP JUMP JUMPDEST PUSH1 0x0 DUP2 SWAP1 POP SWAP2 SWAP1 POP JUMP JUMPDEST PUSH2 0x10C6 DUP2 PUSH2 0x10B3 JUMP JUMPDEST DUP2 EQ PUSH2 0x10D1 JUMPI PUSH1 0x0 DUP1 REVERT JUMPDEST POP JUMP JUMPDEST PUSH1 0x0 DUP2 CALLDATALOAD SWAP1 POP PUSH2 0x10E3 DUP2 PUSH2 0x10BD JUMP JUMPDEST SWAP3 SWAP2 POP POP JUMP JUMPDEST PUSH1 0x0 PUSH8 0xFFFFFFFFFFFFFFFF DUP3 AND SWAP1 POP SWAP2 SWAP1 POP JUMP JUMPDEST PUSH2 0x1106 DUP2 PUSH2 0x10E9 JUMP JUMPDEST DUP2 EQ PUSH2 0x1111 JUMPI PUSH1 0x0 DUP1 REVERT JUMPDEST POP JUMP JUMPDEST PUSH1 0x0 DUP2 CALLDATALOAD SWAP1 POP PUSH2 0x1123 DUP2 PUSH2 0x10FD JUMP JUMPDEST SWAP3 SWAP2 POP POP JUMP JUMPDEST PUSH1 0x0 PUSH2 0xFFFF DUP3 AND SWAP1 POP SWAP2 SWAP1 POP JUMP JUMPDEST PUSH2 0x1140 DUP2 PUSH2 0x1129 JUMP JUMPDEST DUP2 EQ PUSH2 0x114B JUMPI PUSH1 0x0 DUP1 REVERT JUMPDEST POP JUMP JUMPDEST PUSH1 0x0 DUP2 CALLDATALOAD SWAP1 POP PUSH2 0x115D DUP2 PUSH2 0x1137 JUMP JUMPDEST SWAP3 SWAP2 POP POP JUMP JUMPDEST PUSH1 0x0 PUSH4 0xFFFFFFFF DUP3 AND SWAP1 POP SWAP2 SWAP1 POP JUMP JUMPDEST PUSH2 0x117C DUP2 PUSH2 0x1163 JUMP JUMPDEST DUP2 EQ PUSH2 0x1187 JUMPI PUSH1 0x0 DUP1 REVERT JUMPDEST POP JUMP JUMPDEST PUSH1 0x0 DUP2 CALLDATALOAD SWAP1 POP PUSH2 0x1199 DUP2 PUSH2 0x1173 JUMP JUMPDEST SWAP3 SWAP2 POP POP JUMP JUMPDEST PUSH1 0x0 DUP1 PUSH1 0x0 DUP1 PUSH1 0x0 PUSH1 0xA0 DUP7 DUP9 SUB SLT ISZERO PUSH2 0x11BB JUMPI PUSH2 0x11BA PUSH2 0xDC9 JUMP JUMPDEST JUMPDEST PUSH1 0x0 PUSH2 0x11C9 DUP9 DUP3 DUP10 ADD PUSH2 0x10D4 JUMP JUMPDEST SWAP6 POP POP PUSH1 0x20 PUSH2 0x11DA DUP9 DUP3 DUP10 ADD PUSH2 0x1114 JUMP JUMPDEST SWAP5 POP POP PUSH1 0x40 PUSH2 0x11EB DUP9 DUP3 DUP10 ADD PUSH2 0x114E JUMP JUMPDEST SWAP4 POP POP PUSH1 0x60 PUSH2 0x11FC DUP9 DUP3 DUP10 ADD PUSH2 0x118A JUMP JUMPDEST SWAP3 POP POP PUSH1 0x80 PUSH2 0x120D DUP9 DUP3 DUP10 ADD PUSH2 0x118A JUMP JUMPDEST SWAP2 POP POP SWAP3 SWAP6 POP SWAP3 SWAP6 SWAP1 SWAP4 POP JUMP JUMPDEST PUSH2 0x1223 DUP2 PUSH2 0xDD3 JUMP JUMPDEST DUP3 MSTORE POP POP JUMP JUMPDEST PUSH1 0x0 PUSH1 0x20 DUP3 ADD SWAP1 POP PUSH2 0x123E PUSH1 0x0 DUP4 ADD DUP5 PUSH2 0x121A JUMP JUMPDEST SWAP3 SWAP2 POP POP JUMP JUMPDEST PUSH1 0x0 DUP1 PUSH1 0x40 DUP4 DUP6 SUB SLT ISZERO PUSH2 0x125B JUMPI PUSH2 0x125A PUSH2 0xDC9 JUMP JUMPDEST JUMPDEST PUSH1 0x0 PUSH2 0x1269 DUP6 DUP3 DUP7 ADD PUSH2 0xDF4 JUMP JUMPDEST SWAP3 POP POP PUSH1 0x20 PUSH2 0x127A DUP6 DUP3 DUP7 ADD PUSH2 0xE52 JUMP JUMPDEST SWAP2 POP POP SWAP3 POP SWAP3 SWAP1 POP JUMP JUMPDEST PUSH1 0x0 PUSH1 0x20 DUP3 DUP5 SUB SLT ISZERO PUSH2 0x129A JUMPI PUSH2 0x1299 PUSH2 0xDC9 JUMP JUMPDEST JUMPDEST PUSH1 0x0 PUSH2 0x12A8 DUP5 DUP3 DUP6 ADD PUSH2 0xDF4 JUMP JUMPDEST SWAP2 POP POP SWAP3 SWAP2 POP POP JUMP JUMPDEST PUSH2 0x12BA DUP2 PUSH2 0x102F JUMP JUMPDEST DUP3 MSTORE POP POP JUMP JUMPDEST PUSH2 0x12C9 DUP2 PUSH2 0x10E9 JUMP JUMPDEST DUP3 MSTORE POP POP JUMP JUMPDEST PUSH2 0x12D8 DUP2 PUSH2 0xE29 JUMP JUMPDEST DUP3 MSTORE POP POP JUMP JUMPDEST PUSH1 0x0 DUP2 MLOAD SWAP1 POP SWAP2 SWAP1 POP JUMP JUMPDEST PUSH1 0x0 DUP3 DUP3 MSTORE PUSH1 0x20 DUP3 ADD SWAP1 POP SWAP3 SWAP2 POP POP JUMP JUMPDEST PUSH1 0x0 DUP2 SWAP1 POP PUSH1 0x20 DUP3 ADD SWAP1 POP SWAP2 SWAP1 POP JUMP JUMPDEST PUSH2 0x1313 DUP2 PUSH2 0xE29 JUMP JUMPDEST DUP3 MSTORE POP POP JUMP JUMPDEST PUSH1 0x0 PUSH2 0x1325 DUP4 DUP4 PUSH2 0x130A JUMP JUMPDEST PUSH1 0x20 DUP4 ADD SWAP1 POP SWAP3 SWAP2 POP POP JUMP JUMPDEST PUSH1 0x0 PUSH1 0x20 DUP3 ADD SWAP1 POP SWAP2 SWAP1 POP JUMP JUMPDEST PUSH1 0x0 PUSH2 0x1349 DUP3 PUSH2 0x12DE JUMP JUMPDEST PUSH2 0x1353 DUP2 DUP6 PUSH2 0x12E9 JUMP JUMPDEST SWAP4 POP PUSH2 0x135E DUP4 PUSH2 0x12FA JUMP JUMPDEST DUP1 PUSH1 0x0 JUMPDEST DUP4 DUP2 LT ISZERO PUSH2 0x138F JUMPI DUP2 MLOAD PUSH2 0x1376 DUP9 DUP3 PUSH2 0x1319 JUMP JUMPDEST SWAP8 POP PUSH2 0x1381 DUP4 PUSH2 0x1331 JUMP JUMPDEST SWAP3 POP POP PUSH1 0x1 DUP2 ADD SWAP1 POP PUSH2 0x1362 JUMP JUMPDEST POP DUP6 SWAP4 POP POP POP POP SWAP3 SWAP2 POP POP JUMP JUMPDEST PUSH1 0x0 PUSH1 0x80 DUP3 ADD SWAP1 POP PUSH2 0x13B1 PUSH1 0x0 DUP4 ADD DUP8 PUSH2 0x12B1 JUMP JUMPDEST PUSH2 0x13BE PUSH1 0x20 DUP4 ADD DUP7 PUSH2 0x12C0 JUMP JUMPDEST PUSH2 0x13CB PUSH1 0x40 DUP4 ADD DUP6 PUSH2 0x12CF JUMP JUMPDEST DUP2 DUP2 SUB PUSH1 0x60 DUP4 ADD MSTORE PUSH2 0x13DD DUP2 DUP5 PUSH2 0x133E JUMP JUMPDEST SWAP1 POP SWAP6 SWAP5 POP POP POP POP POP JUMP JUMPDEST PUSH1 0x0 DUP3 DUP3 MSTORE PUSH1 0x20 DUP3 ADD SWAP1 POP SWAP3 SWAP2 POP POP JUMP JUMPDEST PUSH32 0x496E76616C696420636F6E73756D657200000000000000000000000000000000 PUSH1 0x0 DUP3 ADD MSTORE POP JUMP JUMPDEST PUSH1 0x0 PUSH2 0x142F PUSH1 0x10 DUP4 PUSH2 0x13E8 JUMP JUMPDEST SWAP2 POP PUSH2 0x143A DUP3 PUSH2 0x13F9 JUMP JUMPDEST PUSH1 0x20 DUP3 ADD SWAP1 POP SWAP2 SWAP1 POP JUMP JUMPDEST PUSH1 0x0 PUSH1 0x20 DUP3 ADD SWAP1 POP DUP2 DUP2 SUB PUSH1 0x0 DUP4 ADD MSTORE PUSH2 0x145E DUP2 PUSH2 0x1422 JUMP JUMPDEST SWAP1 POP SWAP2 SWAP1 POP JUMP JUMPDEST PUSH1 0x0 PUSH1 0x40 DUP3 ADD SWAP1 POP PUSH2 0x147A PUSH1 0x0 DUP4 ADD DUP6 PUSH2 0x121A JUMP JUMPDEST PUSH2 0x1487 PUSH1 0x20 DUP4 ADD DUP5 PUSH2 0x121A JUMP JUMPDEST SWAP4 SWAP3 POP POP POP JUMP JUMPDEST PUSH32 0x4E487B7100000000000000000000000000000000000000000000000000000000 PUSH1 0x0 MSTORE PUSH1 0x32 PUSH1 0x4 MSTORE PUSH1 0x24 PUSH1 0x0 REVERT JUMPDEST PUSH1 0x0 DUP2 MLOAD SWAP1 POP SWAP2 SWAP1 POP JUMP JUMPDEST PUSH1 0x0 DUP3 DUP3 MSTORE PUSH1 0x20 DUP3 ADD SWAP1 POP SWAP3 SWAP2 POP POP JUMP JUMPDEST PUSH1 0x0 DUP2 SWAP1 POP PUSH1 0x20 DUP3 ADD SWAP1 POP SWAP2 SWAP1 POP JUMP JUMPDEST PUSH2 0x14F2 DUP2 PUSH2 0xDD3 JUMP JUMPDEST DUP3 MSTORE POP POP JUMP JUMPDEST PUSH1 0x0 PUSH2 0x1504 DUP4 DUP4 PUSH2 0x14E9 JUMP JUMPDEST PUSH1 0x20 DUP4 ADD SWAP1 POP SWAP3 SWAP2 POP POP JUMP JUMPDEST PUSH1 0x0 PUSH1 0x20 DUP3 ADD SWAP1 POP SWAP2 SWAP1 POP JUMP JUMPDEST PUSH1 0x0 PUSH2 0x1528 DUP3 PUSH2 0x14BD JUMP JUMPDEST PUSH2 0x1532 DUP2 DUP6 PUSH2 0x14C8 JUMP JUMPDEST SWAP4 POP PUSH2 0x153D DUP4 PUSH2 0x14D9 JUMP JUMPDEST DUP1 PUSH1 0x0 JUMPDEST DUP4 DUP2 LT ISZERO PUSH2 0x156E JUMPI DUP2 MLOAD PUSH2 0x1555 DUP9 DUP3 PUSH2 0x14F8 JUMP JUMPDEST SWAP8 POP PUSH2 0x1560 DUP4 PUSH2 0x1510 JUMP JUMPDEST SWAP3 POP POP PUSH1 0x1 DUP2 ADD SWAP1 POP PUSH2 0x1541 JUMP JUMPDEST POP DUP6 SWAP4 POP POP POP POP SWAP3 SWAP2 POP POP JUMP JUMPDEST PUSH1 0x0 PUSH1 0x40 DUP3 ADD SWAP1 POP PUSH2 0x1590 PUSH1 0x0 DUP4 ADD DUP6 PUSH2 0x121A JUMP JUMPDEST DUP2 DUP2 SUB PUSH1 0x20 DUP4 ADD MSTORE PUSH2 0x15A2 DUP2 DUP5 PUSH2 0x151D JUMP JUMPDEST SWAP1 POP SWAP4 SWAP3 POP POP POP JUMP JUMPDEST PUSH1 0x0 DUP2 SWAP1 POP SWAP2 SWAP1 POP JUMP JUMPDEST PUSH1 0x0 DUP2 SWAP1 POP SWAP2 SWAP1 POP JUMP JUMPDEST PUSH1 0x0 PUSH2 0x15DA PUSH2 0x15D5 PUSH2 0x15D0 DUP5 PUSH2 0x15AB JUMP JUMPDEST PUSH2 0x15B5 JUMP JUMPDEST PUSH2 0x102F JUMP JUMPDEST SWAP1 POP SWAP2 SWAP1 POP JUMP JUMPDEST PUSH2 0x15EA DUP2 PUSH2 0x15BF JUMP JUMPDEST DUP3 MSTORE POP POP JUMP JUMPDEST PUSH1 0x0 DUP2 ISZERO ISZERO SWAP1 POP SWAP2 SWAP1 POP JUMP JUMPDEST PUSH2 0x1605 DUP2 PUSH2 0x15F0 JUMP JUMPDEST DUP3 MSTORE POP POP JUMP JUMPDEST PUSH1 0x0 PUSH1 0x80 DUP3 ADD SWAP1 POP PUSH2 0x1620 PUSH1 0x0 DUP4 ADD DUP8 PUSH2 0x121A JUMP JUMPDEST PUSH2 0x162D PUSH1 0x20 DUP4 ADD DUP7 PUSH2 0x15E1 JUMP JUMPDEST PUSH2 0x163A PUSH1 0x40 DUP4 ADD DUP6 PUSH2 0x15FC JUMP JUMPDEST PUSH2 0x1647 PUSH1 0x60 DUP4 ADD DUP5 PUSH2 0x15FC JUMP JUMPDEST SWAP6 SWAP5 POP POP POP POP POP JUMP JUMPDEST PUSH32 0x4E487B7100000000000000000000000000000000000000000000000000000000 PUSH1 0x0 MSTORE PUSH1 0x11 PUSH1 0x4 MSTORE PUSH1 0x24 PUSH1 0x0 REVERT JUMPDEST PUSH1 0x0 PUSH2 0x168A DUP3 PUSH2 0x102F JUMP JUMPDEST SWAP2 POP PUSH2 0x1695 DUP4 PUSH2 0x102F JUMP JUMPDEST SWAP3 POP DUP3 DUP3 ADD SWAP1 POP PUSH12 0xFFFFFFFFFFFFFFFFFFFFFFFF DUP2 GT ISZERO PUSH2 0x16B9 JUMPI PUSH2 0x16B8 PUSH2 0x1650 JUMP JUMPDEST JUMPDEST SWAP3 SWAP2 POP POP JUMP JUMPDEST PUSH1 0x0 PUSH2 0x16CA DUP3 PUSH2 0xDD3 JUMP JUMPDEST SWAP2 POP PUSH32 0xFFFFFFFFFFFFFFFFFFFFFFFFFFFFFFFFFFFFFFFFFFFFFFFFFFFFFFFFFFFFFFFF DUP3 SUB PUSH2 0x16FC JUMPI PUSH2 0x16FB PUSH2 0x1650 JUMP JUMPDEST JUMPDEST PUSH1 0x1 DUP3 ADD SWAP1 POP SWAP2 SWAP1 POP JUMP JUMPDEST PUSH2 0x1710 DUP2 PUSH2 0x1129 JUMP JUMPDEST DUP3 MSTORE POP POP JUMP JUMPDEST PUSH2 0x171F DUP2 PUSH2 0x1163 JUMP JUMPDEST DUP3 MSTORE POP POP JUMP JUMPDEST PUSH1 0x0 DUP3 DUP3 MSTORE PUSH1 0x20 DUP3 ADD SWAP1 POP SWAP3 SWAP2 POP POP JUMP JUMPDEST POP JUMP JUMPDEST PUSH1 0x0 PUSH2 0x1746 PUSH1 0x0 DUP4 PUSH2 0x1725 JUMP JUMPDEST SWAP2 POP PUSH2 0x1751 DUP3 PUSH2 0x1736 JUMP JUMPDEST PUSH1 0x0 DUP3 ADD SWAP1 POP SWAP2 SWAP1 POP JUMP JUMPDEST PUSH1 0x0 PUSH1 0xC0 DUP3 ADD SWAP1 POP PUSH2 0x1771 PUSH1 0x0 DUP4 ADD DUP9 PUSH2 0x121A JUMP JUMPDEST PUSH2 0x177E PUSH1 0x20 DUP4 ADD DUP8 PUSH2 0x121A JUMP JUMPDEST PUSH2 0x178B PUSH1 0x40 DUP4 ADD DUP7 PUSH2 0x1707 JUMP JUMPDEST PUSH2 0x1798 PUSH1 0x60 DUP4 ADD DUP6 PUSH2 0x1716 JUMP JUMPDEST PUSH2 0x17A5 PUSH1 0x80 DUP4 ADD DUP5 PUSH2 0x1716 JUMP JUMPDEST DUP2 DUP2 SUB PUSH1 0xA0 DUP4 ADD MSTORE PUSH2 0x17B6 DUP2 PUSH2 0x1739 JUMP JUMPDEST SWAP1 POP SWAP7 SWAP6 POP POP POP POP POP POP JUMP JUMPDEST PUSH1 0x0 PUSH2 0x17CD DUP3 PUSH2 0x10E9 JUMP JUMPDEST SWAP2 POP PUSH8 0xFFFFFFFFFFFFFFFF DUP3 SUB PUSH2 0x17E7 JUMPI PUSH2 0x17E6 PUSH2 0x1650 JUMP JUMPDEST JUMPDEST PUSH1 0x1 DUP3 ADD SWAP1 POP SWAP2 SWAP1 POP JUMP INVALID LOG2 PUSH5 0x6970667358 0x22 SLT KECCAK256 MSTORE 0xAF PUSH21 0xBB10D8FDD38ADD1A24261EF307DFF87B36F929B784 0x1E 0xE4 SWAP7 LOG4 LOG3 CREATE2 CALL SHR PUSH5 0x736F6C6343 STOP ADDMOD SGT STOP CALLER "},"methodIdentifiers":{"addConsumer(uint256,address)":"bec4c08c","createSubscription()":"a21a23e4","fulfillRandomWords(uint256,address)":"808974ff","fulfillRandomWordsWithOverride(uint256,address,uint256[])":"08e3898e","fundSubscription(uint256,uint96)":"4cf94d87","getSubscription(uint256)":"dc311dd3","requestRandomWords(bytes32,uint64,uint16,uint32,uint32)":"5d3b1d30"}}}}}