{"src/mocks/VRFCoordinatorV2Mock.sol":{"VRFCoordinatorV2Mock":{"abi":[{"anonymous":false,"inputs":[{"indexed":true,"internalType":"uint256","name":"requestId","type":"uint256"},{"indexed":false,"internalType":"uint256","name":"outputSeed","type":"uint256"},{"indexed":false,"internalType":"uint96","name":"payment","type":"uint96"},{"indexed":false,"internalType":"bool","name":"success","type":"bool"}],"name":"RandomWordsFulfilled","type":"event"},{"anonymous":false,"inputs":[{"indexed":true,"internalType":"bytes32","name":"keyHash","type":"bytes32"},{"indexed":false,"internalType":"uint256","name":"requestId","type":"uint256"},{"indexed":false,"internalType":"uint256","name":"preSeed","type":"uint256"},{"indexed":true,"internalType":"uint64","name":"subId","type":"uint64"},{"indexed":false,"internalType":"uint16","name":"minimumRequestConfirmations","type":"uint16"},{"indexed":false,"internalType":"uint32","name":"callbackGasLimit","type":"uint32"},{"indexed":false,"internalType":"uint32","name":"numWords","type":"uint32"},{"indexed":true,"internalType":"address","name":"sender","type":"address"}],"name":"RandomWordsRequested","type":"event"},{"anonymous":false,"inputs":[{"indexed":true,"internalType":"uint64","name":"subId","type":"uint64"},{"indexed":false,"internalType":"address","name":"consumer","type":"address"}],"name":"SubscriptionConsumerAdded","type":"event"},{"anonymous":false,"inputs":[{"indexed":true,"internalType":"uint64","name":"subId","type":"uint64"},{"indexed":false,"internalType":"address","name":"owner","type":"address"}],"name":"SubscriptionCreated","type":"event"},{"anonymous":false,"inputs":[{"indexed":true,"internalType":"uint64","name":"subId","type":"uint64"},{"indexed":false,"internalType":"uint256","name":"oldBalance","type":"uint256"},{"indexed":false,"internalType":"uint256","name":"newBalance","type":"uint256"}],"name":"SubscriptionFunded","type":"event"},{"inputs":[{"internalType":"uint64","name":"subId","type":"uint64"}],"name":"acceptSubscriptionOwnerTransfer","outputs":[],"stateMutability":"nonpayable","type":"function"},{"inputs":[{"internalType":"uint64","name":"subId","type":"uint64"},{"internalType":"address","name":"consumer","type":"address"}],"name":"addConsumer","outputs":[],"stateMutability":"nonpayable","type":"function"},{"inputs":[{"internalType":"uint64","name":"subId","type":"uint64"},{"internalType":"address","name":"to","type":"address"}],"name":"cancelSubscription","outputs":[],"stateMutability":"nonpayable","type":"function"},{"inputs":[],"name":"createSubscription","outputs":[{"internalType":"uint64","name":"","type":"uint64"}],"stateMutability":"nonpayable","type":"function"},{"inputs":[{"internalType":"uint256","name":"requestId","type":"uint256"},{"internalType":"address","name":"consumer","type":"address"},{"internalType":"uint256[]","name":"randomWords","type":"uint256[]"}],"name":"fulfillRandomWords","outputs":[],"stateMutability":"nonpayable","type":"function"},{"inputs":[{"internalType":"uint256","name":"requestId","type":"uint256"},{"internalType":"address","name":"consumer","type":"address"},{"internalType":"uint256[]","name":"randomWords","type":"uint256[]"}],"name":"fulfillRandomWordsWithOverride","outputs":[],"stateMutability":"nonpayable","type":"function"},{"inputs":[{"internalType":"uint64","name":"subId","type":"uint64"},{"internalType":"uint96","name":"amount","type":"uint96"}],"name":"fundSubscription","outputs":[],"stateMutability":"nonpayable","type":"function"},{"inputs":[],"name":"getRequestConfig","outputs":[{"internalType":"uint16","name":"","type":"uint16"},{"internalType":"uint32","name":"","type":"uint32"},{"internalType":"bytes32[]","name":"","type":"bytes32[]"}],"stateMutability":"view","type":"function"},{"inputs":[{"internalType":"uint64","name":"subId","type":"uint64"}],"name":"getSubscription","outputs":[{"internalType":"uint96","name":"balance","type":"uint96"},{"internalType":"uint64","name":"reqCount","type":"uint64"},{"internalType":"address","name":"owner","type":"address"},{"internalType":"address[]","name":"consumers","type":"address[]"}],"stateMutability":"view","type":"function"},{"inputs":[{"internalType":"uint64","name":"subId","type":"uint64"}],"name":"pendingRequestExists","outputs":[{"internalType":"bool","name":"","type":"bool"}],"stateMutability":"view","type":"function"},{"inputs":[{"internalType":"uint64","name":"subId","type":"uint64"},{"internalType":"address","name":"consumer","type":"address"}],"name":"removeConsumer","outputs":[],"stateMutability":"nonpayable","type":"function"},{"inputs":[{"internalType":"bytes32","name":"keyHash","type":"bytes32"},{"internalType":"uint64","name":"subId","type":"uint64"},{"internalType":"uint16","name":"minimumRequestConfirmations","type":"uint16"},{"internalType":"uint32","name":"callbackGasLimit","type":"uint32"},{"internalType":"uint32","name":"numWords","type":"uint32"}],"name":"requestRandomWords","outputs":[{"internalType":"uint256","name":"","type":"uint256"}],"stateMutability":"nonpayable","type":"function"},{"inputs":[{"internalType":"uint64","name":"subId","type":"uint64"},{"internalType":"address","name":"newOwner","type":"address"}],"name":"requestSubscriptionOwnerTransfer","outputs":[],"stateMutability":"nonpayable","type":"function"}],"evm":{"bytecode":{"linkReferences":{},"object":"608060405260016000556001805534801561001957600080fd5b50612a0e806100296000396000f3fe608060405234801561001057600080fd5b50600436106100ce5760003560e01c80639f87fad71161008c578063afc69b5311610066578063afc69b5314610200578063ca7aefd21461021c578063d7ae1d3014610238578063e82ad7d414610254576100ce565b80639f87fad714610193578063a21a23e4146101af578063a47c7696146101cd576100ce565b8062012291146100d357806304c357cb146100f357806308e3898e1461010f5780635d3b1d301461012b5780637341c10c1461015b5780638235974014610177575b600080fd5b6100db610284565b6040516100ea93929190611e48565b60405180910390f35b61010d60048036038101906101089190611f38565b6103a6565b005b61012960048036038101906101249190612107565b610543565b005b610145600480360381019061014091906121fa565b610682565b6040516101529190612284565b60405180910390f35b61017560048036038101906101709190611f38565b610b35565b005b610191600480360381019061018c919061229f565b610d72565b005b6101ad60048036038101906101a89190611f38565b610d89565b005b6101b761114f565b6040516101c491906122db565b60405180910390f35b6101e760048036038101906101e2919061229f565b6113e3565b6040516101f794939291906123ea565b60405180910390f35b61021a60048036038101906102159190612462565b6115fc565b005b61023660048036038101906102319190612107565b6117d3565b005b610252600480360381019061024d9190611f38565b6119f3565b005b61026e6004803603810190610269919061229f565b611c32565b60405161027b91906124bd565b60405180910390f35b600080606061029d675563d211d9dde86f60c01b611c79565b6102b167a053ec6aed4ff4d660c01b611c79565b6102c5679b901199f806f10c60c01b611c79565b6000600167ffffffffffffffff8111156102e2576102e1611fc4565b5b6040519080825280602002602001820160405280156103105781602001602082028036833780820191505090505b50905061032767f717e11e4d4b93a660c01b611c79565b7f474e34a077df58807dbe9c96d3c009b23b3c6d0cce433e59bbf5b34f823bc56c60001b8160008151811061035f5761035e6124d8565b5b60200260200101818152505061037f67fee0d4ae36a76a8a60c01b611c79565b61039367d1e6085a9ff58c0260c01b611c79565b6003622625a08293509350935050909192565b6103ba67cf168d32ee83c5d060c01b611c79565b6103ce670a442b9a79e7a5d760c01b611c79565b6103e26750455249da7b23fd60c01b611c79565b6103f6673b8c2de164c8edf560c01b611c79565b3373ffffffffffffffffffffffffffffffffffffffff16600260008467ffffffffffffffff1667ffffffffffffffff16815260200190815260200160002060000160009054906101000a900473ffffffffffffffffffffffffffffffffffffffff1673ffffffffffffffffffffffffffffffffffffffff16146104ae576040517f08c379a00000000000000000000000000000000000000000000000000000000081526004016104a590612564565b60405180910390fd5b6104c2672c9aa785c9ef94aa60c01b611c79565b6104d66715445a4afd72974460c01b611c79565b80600260008467ffffffffffffffff1667ffffffffffffffff16815260200190815260200160002060000160006101000a81548173ffffffffffffffffffffffffffffffffffffffff021916908373ffffffffffffffffffffffffffffffffffffffff1602179055505050565b6105576732d2576211635dbc60c01b611c79565b61056a66d834c62df5fa5260c01b611c79565b61057e678e16d539b1f3ecd460c01b611c79565b8173ffffffffffffffffffffffffffffffffffffffff16631fe543e384836040518363ffffffff1660e01b81526004016105b9929190612642565b600060405180830381600087803b1580156105d357600080fd5b505af11580156105e7573d6000803e3d6000fd5b505050506105ff67f9b8be141f4a26e360c01b611c79565b610613677994d846e93ba1bf60c01b611c79565b827f7dffc5ae5ee4e2e4df1651cf6ad329a73cebdb728f37ea0187b9b17e036756e46000835111610645576000610662565b82600081518110610659576106586124d8565b5b60200260200101515b60006001604051610675939291906126b7565b60405180910390a2505050565b600061069867e525e260b0d0b70760c01b611c79565b6106ac678ba0ca0b0a01904a60c01b611c79565b6106c067c0f6584179b8cae060c01b611c79565b60006106d667f3d01e85d4a4088860c01b611c79565b6106ea677ebdd7c9ab8411c560c01b611c79565b6000600260008867ffffffffffffffff1667ffffffffffffffff16815260200190815260200160002060020180548060200260200160405190810160405280929190818152602001828054801561079657602002820191906000526020600020905b8160009054906101000a900473ffffffffffffffffffffffffffffffffffffffff1673ffffffffffffffffffffffffffffffffffffffff168152602001906001019080831161074c575b505050505090506107b167db59e3ccbb2dc6fd60c01b611c79565b6107c567ee913ab9b72c0c4560c01b611c79565b60005b81518110156108b2576107e567f475e0e8df1baee860c01b611c79565b6107f967e9b842873310568e60c01b611c79565b3373ffffffffffffffffffffffffffffffffffffffff16828281518110610823576108226124d8565b5b602002602001015173ffffffffffffffffffffffffffffffffffffffff160361088b5761085a6733a3dd2e6086e65860c01b611c79565b61086e67786c6695f7ee815360c01b611c79565b60019250610886670ec9204d8b2dd02c60c01b611c79565b6108b2565b61089f67d06c93e4898ff07260c01b611c79565b80806108aa9061271d565b9150506107c8565b506108c767e0465f32b898d48a60c01b611c79565b6108db6774b894110ae94d1560c01b611c79565b6108ef6783f4355b10200b2b60c01b611c79565b8161092f576040517f08c379a0000000000000000000000000000000000000000000000000000000008152600401610926906127b1565b60405180910390fd5b6109436715a7055f84d30d4a60c01b611c79565b610957675f43a2defa941e4460c01b611c79565b61096b67474ad8bfbbab574160c01b611c79565b600080600081548092919061097f9061271d565b91905055905061099967f904f5bfcc0b7d9e60c01b611c79565b336003600083815260200190815260200160002060006101000a81548173ffffffffffffffffffffffffffffffffffffffff021916908373ffffffffffffffffffffffffffffffffffffffff1602179055506109ff673f3a7254fb1418d960c01b611c79565b600260008967ffffffffffffffff1667ffffffffffffffff168152602001908152602001600020600101600081819054906101000a900467ffffffffffffffff1680929190610a4d906127d1565b91906101000a81548167ffffffffffffffff021916908367ffffffffffffffff16021790555050610a88673c835941dc9279b960c01b611c79565b610a9c6708ed1a63b256ea1d60c01b611c79565b3373ffffffffffffffffffffffffffffffffffffffff168867ffffffffffffffff168a7f63373d1c4696214b898952999c9aaec57dac1ee2723cec59bea6888f489a977284428c8c8c604051610af6959493929190612801565b60405180910390a4610b1267540b306a99fe397e60c01b611c79565b610b266772c756dfc29adfb460c01b611c79565b80935050505095945050505050565b610b49673b75488b18fc648b60c01b611c79565b610b5d67c0b0afe0b84cb9ee60c01b611c79565b610b7167eaeb184bb49831ac60c01b611c79565b610b8567d75258f206850fba60c01b611c79565b3373ffffffffffffffffffffffffffffffffffffffff16600260008467ffffffffffffffff1667ffffffffffffffff16815260200190815260200160002060000160009054906101000a900473ffffffffffffffffffffffffffffffffffffffff1673ffffffffffffffffffffffffffffffffffffffff1614610c3d576040517f08c379a0000000000000000000000000000000000000000000000000000000008152600401610c3490612564565b60405180910390fd5b610c51676ba21d80eafdce4e60c01b611c79565b610c656766cbcfa9eea7e0fa60c01b611c79565b610c79670bcb9166e3da2d6760c01b611c79565b600260008367ffffffffffffffff1667ffffffffffffffff168152602001908152602001600020600201819080600181540180825580915050600190039060005260206000200160009091909190916101000a81548173ffffffffffffffffffffffffffffffffffffffff021916908373ffffffffffffffffffffffffffffffffffffffff160217905550610d1867e7a5427d078ac28660c01b611c79565b610d2c67edae7b586305d7fd60c01b611c79565b8167ffffffffffffffff167f43dc749a04ac8fb825cbd514f7c0e13f13bc6f2ee66043b76629d51776cff8e082604051610d669190612854565b60405180910390a25050565b610d8667b7dfc338632f039860c01b611c79565b50565b610d9d6709840602ab8c3c0960c01b611c79565b610db167b5f5fcfb242630c560c01b611c79565b610dc56707fa1b5015e7b68e60c01b611c79565b610dd967a3c270a6e07b4f5a60c01b611c79565b3373ffffffffffffffffffffffffffffffffffffffff16600260008467ffffffffffffffff1667ffffffffffffffff16815260200190815260200160002060000160009054906101000a900473ffffffffffffffffffffffffffffffffffffffff1673ffffffffffffffffffffffffffffffffffffffff1614610e91576040517f08c379a0000000000000000000000000000000000000000000000000000000008152600401610e8890612564565b60405180910390fd5b610ea567d6c98f59260cbeb160c01b611c79565b610eb96744d86688db8cd62f60c01b611c79565b610ecd67e854d764ea01350d60c01b611c79565b6000600260008467ffffffffffffffff1667ffffffffffffffff1681526020019081526020016000206002019050610f0f67653fc42a0bb4776b60c01b611c79565b610f23672e19930a293f75b960c01b611c79565b60005b818054905081101561114957610f466715ec5babe1c21efd60c01b611c79565b610f5a679af792141fe46fff60c01b611c79565b8273ffffffffffffffffffffffffffffffffffffffff16828281548110610f8457610f836124d8565b5b9060005260206000200160009054906101000a900473ffffffffffffffffffffffffffffffffffffffff1673ffffffffffffffffffffffffffffffffffffffff160361112257610fde671d46977e255f103560c01b611c79565b610ff26797fbdc1f1d38eb2860c01b611c79565b8160018380549050611004919061286f565b81548110611015576110146124d8565b5b9060005260206000200160009054906101000a900473ffffffffffffffffffffffffffffffffffffffff16828281548110611053576110526124d8565b5b9060005260206000200160006101000a81548173ffffffffffffffffffffffffffffffffffffffff021916908373ffffffffffffffffffffffffffffffffffffffff1602179055506110af67acb4727f75fbbe7f60c01b611c79565b6110c36778da6a74e2848ff060c01b611c79565b818054806110d4576110d36128a3565b5b6001900381819060005260206000200160006101000a81549073ffffffffffffffffffffffffffffffffffffffff0219169055905561111d67e4b04e70e9a4309960c01b611c79565b611149565b6111366745861e0b34fac72e60c01b611c79565b80806111419061271d565b915050610f26565b50505050565b600061116567c84dd88318f36c6960c01b611c79565b61117967c6f3f434fb53220360c01b611c79565b61118d67038ef2122f8812f060c01b611c79565b6000600160008154809291906111a29061271d565b9190505590506111bc675fcd55cd2514500160c01b611c79565b60405180608001604052803373ffffffffffffffffffffffffffffffffffffffff16815260200160006bffffffffffffffffffffffff168152602001600067ffffffffffffffff168152602001600067ffffffffffffffff81111561122457611223611fc4565b5b6040519080825280602002602001820160405280156112525781602001602082028036833780820191505090505b50815250600260008367ffffffffffffffff1667ffffffffffffffff16815260200190815260200160002060008201518160000160006101000a81548173ffffffffffffffffffffffffffffffffffffffff021916908373ffffffffffffffffffffffffffffffffffffffff16021790555060208201518160000160146101000a8154816bffffffffffffffffffffffff02191690836bffffffffffffffffffffffff16021790555060408201518160010160006101000a81548167ffffffffffffffff021916908367ffffffffffffffff1602179055506060820151816002019080519060200190611346929190611c7c565b5090505061135e67b9cde84f0fa5193460c01b611c79565b61137267cd9fc65cf8804daa60c01b611c79565b8067ffffffffffffffff167f464722b4166576d3dcbba877b999bc35cf911f4eaf434b7eba68fa113951d0bf336040516113ac9190612854565b60405180910390a26113c867c39ddada015692ea60c01b611c79565b6113dc6751feb5c79e504b3660c01b611c79565b8091505090565b600080600060606113fe67862576f73e3f2fb160c01b611c79565b61141267c09e4c934579b7b560c01b611c79565b6114266740e09b533b8270c460c01b611c79565b6000600260008767ffffffffffffffff1667ffffffffffffffff1681526020019081526020016000206040518060800160405290816000820160009054906101000a900473ffffffffffffffffffffffffffffffffffffffff1673ffffffffffffffffffffffffffffffffffffffff1673ffffffffffffffffffffffffffffffffffffffff1681526020016000820160149054906101000a90046bffffffffffffffffffffffff166bffffffffffffffffffffffff166bffffffffffffffffffffffff1681526020016001820160009054906101000a900467ffffffffffffffff1667ffffffffffffffff1667ffffffffffffffff168152602001600282018054806020026020016040519081016040528092919081815260200182805480156115a557602002820191906000526020600020905b8160009054906101000a900473ffffffffffffffffffffffffffffffffffffffff1673ffffffffffffffffffffffffffffffffffffffff168152602001906001019080831161155b575b50505050508152505090506115c467802aa237351d685b60c01b611c79565b6115d86708f094dbd0e7e2b960c01b611c79565b80602001518160400151826000015183606001519450945094509450509193509193565b61161067bdbdad12a2232e8360c01b611c79565b6116246780892061c67a035c60c01b611c79565b611638671fce872b951cfc7460c01b611c79565b6000600260008467ffffffffffffffff1667ffffffffffffffff16815260200190815260200160002060000160149054906101000a90046bffffffffffffffffffffffff166bffffffffffffffffffffffff1690506116a1679d6cc566a14eba5c60c01b611c79565b81600260008567ffffffffffffffff1667ffffffffffffffff16815260200190815260200160002060000160148282829054906101000a90046bffffffffffffffffffffffff166116f291906128d2565b92506101000a8154816bffffffffffffffffffffffff02191690836bffffffffffffffffffffffff16021790555061173467c06e83c95c0d02e460c01b611c79565b611748674047115599aff19860c01b611c79565b8267ffffffffffffffff167fd39ec07f4e209f627a4c427971473820dc129761ba28de8906bd56f57101d4f882600260008767ffffffffffffffff1667ffffffffffffffff16815260200190815260200160002060000160149054906101000a90046bffffffffffffffffffffffff166040516117c6929190612943565b60405180910390a2505050565b6117e767f447232e3243f98c60c01b611c79565b6117fb67ac085addf603050960c01b611c79565b61180f674584d8095ec2e2c860c01b611c79565b61182367eca278e9a683797a60c01b611c79565b8173ffffffffffffffffffffffffffffffffffffffff166003600085815260200190815260200160002060009054906101000a900473ffffffffffffffffffffffffffffffffffffffff1673ffffffffffffffffffffffffffffffffffffffff16146118c4576040517f08c379a00000000000000000000000000000000000000000000000000000000081526004016118bb906129b8565b60405180910390fd5b6118d8678314aa38001cb10360c01b611c79565b6118ec67994c4cb71e36372260c01b611c79565b61190067b305e6af3dc06a4160c01b611c79565b8173ffffffffffffffffffffffffffffffffffffffff16631fe543e384836040518363ffffffff1660e01b815260040161193b929190612642565b600060405180830381600087803b15801561195557600080fd5b505af1158015611969573d6000803e3d6000fd5b5050505061198167f9e9c45dcb9fd17b60c01b611c79565b6119956713a0086f4882f87260c01b611c79565b827f7dffc5ae5ee4e2e4df1651cf6ad329a73cebdb728f37ea0187b9b17e036756e4826000815181106119cb576119ca6124d8565b5b6020026020010151600060016040516119e6939291906126b7565b60405180910390a2505050565b611a0767e2604d3f31c507ff60c01b611c79565b611a1b670a676be60efaa67860c01b611c79565b611a2f67086a489526e2d59160c01b611c79565b611a43676f46b2989373e97860c01b611c79565b3373ffffffffffffffffffffffffffffffffffffffff16600260008467ffffffffffffffff1667ffffffffffffffff16815260200190815260200160002060000160009054906101000a900473ffffffffffffffffffffffffffffffffffffffff1673ffffffffffffffffffffffffffffffffffffffff1614611afb576040517f08c379a0000000000000000000000000000000000000000000000000000000008152600401611af290612564565b60405180910390fd5b611b0f67428f0fa95ec40a2b60c01b611c79565b611b23679c377e93060c8dfe60c01b611c79565b611b3767b5b776e74694e57860c01b611c79565b6000600260008467ffffffffffffffff1667ffffffffffffffff16815260200190815260200160002060000160149054906101000a90046bffffffffffffffffffffffff169050611b9267879240458b35687b60c01b611c79565b600260008467ffffffffffffffff1667ffffffffffffffff168152602001908152602001600020600080820160006101000a81549073ffffffffffffffffffffffffffffffffffffffff02191690556000820160146101000a8154906bffffffffffffffffffffffff02191690556001820160006101000a81549067ffffffffffffffff0219169055600282016000611c2b9190611d06565b5050505050565b6000611c4867698c4ea5934854cd60c01b611c79565b611c5c67c1b645e96c893bf160c01b611c79565b611c7067ee9413e624748b1e60c01b611c79565b60009050919050565b50565b828054828255906000526020600020908101928215611cf5579160200282015b82811115611cf45782518260006101000a81548173ffffffffffffffffffffffffffffffffffffffff021916908373ffffffffffffffffffffffffffffffffffffffff16021790555091602001919060010190611c9c565b5b509050611d029190611d27565b5090565b5080546000825590600052602060002090810190611d249190611d27565b50565b5b80821115611d40576000816000905550600101611d28565b5090565b600061ffff82169050919050565b611d5b81611d44565b82525050565b600063ffffffff82169050919050565b611d7a81611d61565b82525050565b600081519050919050565b600082825260208201905092915050565b6000819050602082019050919050565b6000819050919050565b611dbf81611dac565b82525050565b6000611dd18383611db6565b60208301905092915050565b6000602082019050919050565b6000611df582611d80565b611dff8185611d8b565b9350611e0a83611d9c565b8060005b83811015611e3b578151611e228882611dc5565b9750611e2d83611ddd565b925050600181019050611e0e565b5085935050505092915050565b6000606082019050611e5d6000830186611d52565b611e6a6020830185611d71565b8181036040830152611e7c8184611dea565b9050949350505050565b6000604051905090565b600080fd5b600080fd5b600067ffffffffffffffff82169050919050565b611eb781611e9a565b8114611ec257600080fd5b50565b600081359050611ed481611eae565b92915050565b600073ffffffffffffffffffffffffffffffffffffffff82169050919050565b6000611f0582611eda565b9050919050565b611f1581611efa565b8114611f2057600080fd5b50565b600081359050611f3281611f0c565b92915050565b60008060408385031215611f4f57611f4e611e90565b5b6000611f5d85828601611ec5565b9250506020611f6e85828601611f23565b9150509250929050565b6000819050919050565b611f8b81611f78565b8114611f9657600080fd5b50565b600081359050611fa881611f82565b92915050565b600080fd5b6000601f19601f8301169050919050565b7f4e487b7100000000000000000000000000000000000000000000000000000000600052604160045260246000fd5b611ffc82611fb3565b810181811067ffffffffffffffff8211171561201b5761201a611fc4565b5b80604052505050565b600061202e611e86565b905061203a8282611ff3565b919050565b600067ffffffffffffffff82111561205a57612059611fc4565b5b602082029050602081019050919050565b600080fd5b600061208361207e8461203f565b612024565b905080838252602082019050602084028301858111156120a6576120a561206b565b5b835b818110156120cf57806120bb8882611f99565b8452602084019350506020810190506120a8565b5050509392505050565b600082601f8301126120ee576120ed611fae565b5b81356120fe848260208601612070565b91505092915050565b6000806000606084860312156121205761211f611e90565b5b600061212e86828701611f99565b935050602061213f86828701611f23565b925050604084013567ffffffffffffffff8111156121605761215f611e95565b5b61216c868287016120d9565b9150509250925092565b61217f81611dac565b811461218a57600080fd5b50565b60008135905061219c81612176565b92915050565b6121ab81611d44565b81146121b657600080fd5b50565b6000813590506121c8816121a2565b92915050565b6121d781611d61565b81146121e257600080fd5b50565b6000813590506121f4816121ce565b92915050565b600080600080600060a0868803121561221657612215611e90565b5b60006122248882890161218d565b955050602061223588828901611ec5565b9450506040612246888289016121b9565b9350506060612257888289016121e5565b9250506080612268888289016121e5565b9150509295509295909350565b61227e81611f78565b82525050565b60006020820190506122996000830184612275565b92915050565b6000602082840312156122b5576122b4611e90565b5b60006122c384828501611ec5565b91505092915050565b6122d581611e9a565b82525050565b60006020820190506122f060008301846122cc565b92915050565b60006bffffffffffffffffffffffff82169050919050565b612317816122f6565b82525050565b61232681611efa565b82525050565b600081519050919050565b600082825260208201905092915050565b6000819050602082019050919050565b61236181611efa565b82525050565b60006123738383612358565b60208301905092915050565b6000602082019050919050565b60006123978261232c565b6123a18185612337565b93506123ac83612348565b8060005b838110156123dd5781516123c48882612367565b97506123cf8361237f565b9250506001810190506123b0565b5085935050505092915050565b60006080820190506123ff600083018761230e565b61240c60208301866122cc565b612419604083018561231d565b818103606083015261242b818461238c565b905095945050505050565b61243f816122f6565b811461244a57600080fd5b50565b60008135905061245c81612436565b92915050565b6000806040838503121561247957612478611e90565b5b600061248785828601611ec5565b92505060206124988582860161244d565b9150509250929050565b60008115159050919050565b6124b7816124a2565b82525050565b60006020820190506124d260008301846124ae565b92915050565b7f4e487b7100000000000000000000000000000000000000000000000000000000600052603260045260246000fd5b600082825260208201905092915050565b7f4e6f7420737562736372697074696f6e206f776e657200000000000000000000600082015250565b600061254e601683612507565b915061255982612518565b602082019050919050565b6000602082019050818103600083015261257d81612541565b9050919050565b600081519050919050565b600082825260208201905092915050565b6000819050602082019050919050565b6125b981611f78565b82525050565b60006125cb83836125b0565b60208301905092915050565b6000602082019050919050565b60006125ef82612584565b6125f9818561258f565b9350612604836125a0565b8060005b8381101561263557815161261c88826125bf565b9750612627836125d7565b925050600181019050612608565b5085935050505092915050565b60006040820190506126576000830185612275565b818103602083015261266981846125e4565b90509392505050565b6000819050919050565b6000819050919050565b60006126a161269c61269784612672565b61267c565b6122f6565b9050919050565b6126b181612686565b82525050565b60006060820190506126cc6000830186612275565b6126d960208301856126a8565b6126e660408301846124ae565b949350505050565b7f4e487b7100000000000000000000000000000000000000000000000000000000600052601160045260246000fd5b600061272882611f78565b91507fffffffffffffffffffffffffffffffffffffffffffffffffffffffffffffffff820361275a576127596126ee565b5b600182019050919050565b7f4e6f7420617574686f72697a656420636f6e73756d6572000000000000000000600082015250565b600061279b601783612507565b91506127a682612765565b602082019050919050565b600060208201905081810360008301526127ca8161278e565b9050919050565b60006127dc82611e9a565b915067ffffffffffffffff82036127f6576127f56126ee565b5b600182019050919050565b600060a0820190506128166000830188612275565b6128236020830187612275565b6128306040830186611d52565b61283d6060830185611d71565b61284a6080830184611d71565b9695505050505050565b6000602082019050612869600083018461231d565b92915050565b600061287a82611f78565b915061288583611f78565b925082820390508181111561289d5761289c6126ee565b5b92915050565b7f4e487b7100000000000000000000000000000000000000000000000000000000600052603160045260246000fd5b60006128dd826122f6565b91506128e8836122f6565b925082820190506bffffffffffffffffffffffff81111561290c5761290b6126ee565b5b92915050565b600061292d612928612923846122f6565b61267c565b611f78565b9050919050565b61293d81612912565b82525050565b60006040820190506129586000830185612275565b6129656020830184612934565b9392505050565b7f57726f6e6720636f6e73756d6572000000000000000000000000000000000000600082015250565b60006129a2600e83612507565b91506129ad8261296c565b602082019050919050565b600060208201905081810360008301526129d181612995565b905091905056fea264697066735822122026838d5a5c2e48e02e4fbf52edb14afbcbf5a07778dc08419c8f2457c356a21564736f6c63430008130033","opcodes":"PUSH1 0x80 PUSH1 0x40 MSTORE PUSH1 0x1 PUSH1 0x0 SSTORE PUSH1 0x1 DUP1 SSTORE CALLVALUE DUP1 ISZERO PUSH2 0x19 JUMPI PUSH1 0x0 DUP1 REVERT JUMPDEST POP PUSH2 0x2A0E DUP1 PUSH2 0x29 PUSH1 0x0 CODECOPY PUSH1 0x0 RETURN INVALID PUSH1 0x80 PUSH1 0x40 MSTORE CALLVALUE DUP1 ISZERO PUSH2 0x10 JUMPI PUSH1 0x0 DUP1 REVERT JUMPDEST POP PUSH1 0x4 CALLDATASIZE LT PUSH2 0xCE JUMPI PUSH1 0x0 CALLDATALOAD PUSH1 0xE0 SHR DUP1 PUSH4 0x9F87FAD7 GT PUSH2 0x8C JUMPI DUP1 PUSH4 0xAFC69B53 GT PUSH2 0x66 JUMPI DUP1 PUSH4 0xAFC69B53 EQ PUSH2 0x200 JUMPI DUP1 PUSH4 0xCA7AEFD2 EQ PUSH2 0x21C JUMPI DUP1 PUSH4 0xD7AE1D30 EQ PUSH2 0x238 JUMPI DUP1 PUSH4 0xE82AD7D4 EQ PUSH2 0x254 JUMPI PUSH2 0xCE JUMP JUMPDEST DUP1 PUSH4 0x9F87FAD7 EQ PUSH2 0x193 JUMPI DUP1 PUSH4 0xA21A23E4 EQ PUSH2 0x1AF JUMPI DUP1 PUSH4 0xA47C7696 EQ PUSH2 0x1CD JUMPI PUSH2 0xCE JUMP JUMPDEST DUP1 PUSH3 0x12291 EQ PUSH2 0xD3 JUMPI DUP1 PUSH4 0x4C357CB EQ PUSH2 0xF3 JUMPI DUP1 PUSH4 0x8E3898E EQ PUSH2 0x10F JUMPI DUP1 PUSH4 0x5D3B1D30 EQ PUSH2 0x12B JUMPI DUP1 PUSH4 0x7341C10C EQ PUSH2 0x15B JUMPI DUP1 PUSH4 0x82359740 EQ PUSH2 0x177 JUMPI JUMPDEST PUSH1 0x0 DUP1 REVERT JUMPDEST PUSH2 0xDB PUSH2 0x284 JUMP JUMPDEST PUSH1 0x40 MLOAD PUSH2 0xEA SWAP4 SWAP3 SWAP2 SWAP1 PUSH2 0x1E48 JUMP JUMPDEST PUSH1 0x40 MLOAD DUP1 SWAP2 SUB SWAP1 RETURN JUMPDEST PUSH2 0x10D PUSH1 0x4 DUP1 CALLDATASIZE SUB DUP2 ADD SWAP1 PUSH2 0x108 SWAP2 SWAP1 PUSH2 0x1F38 JUMP JUMPDEST PUSH2 0x3A6 JUMP JUMPDEST STOP JUMPDEST PUSH2 0x129 PUSH1 0x4 DUP1 CALLDATASIZE SUB DUP2 ADD SWAP1 PUSH2 0x124 SWAP2 SWAP1 PUSH2 0x2107 JUMP JUMPDEST PUSH2 0x543 JUMP JUMPDEST STOP JUMPDEST PUSH2 0x145 PUSH1 0x4 DUP1 CALLDATASIZE SUB DUP2 ADD SWAP1 PUSH2 0x140 SWAP2 SWAP1 PUSH2 0x21FA JUMP JUMPDEST PUSH2 0x682 JUMP JUMPDEST PUSH1 0x40 MLOAD PUSH2 0x152 SWAP2 SWAP1 PUSH2 0x2284 JUMP JUMPDEST PUSH1 0x40 MLOAD DUP1 SWAP2 SUB SWAP1 RETURN JUMPDEST PUSH2 0x175 PUSH1 0x4 DUP1 CALLDATASIZE SUB DUP2 ADD SWAP1 PUSH2 0x170 SWAP2 SWAP1 PUSH2 0x1F38 JUMP JUMPDEST PUSH2 0xB35 JUMP JUMPDEST STOP JUMPDEST PUSH2 0x191 PUSH1 0x4 DUP1 CALLDATASIZE SUB DUP2 ADD SWAP1 PUSH2 0x18C SWAP2 SWAP1 PUSH2 0x229F JUMP JUMPDEST PUSH2 0xD72 JUMP JUMPDEST STOP JUMPDEST PUSH2 0x1AD PUSH1 0x4 DUP1 CALLDATASIZE SUB DUP2 ADD SWAP1 PUSH2 0x1A8 SWAP2 SWAP1 PUSH2 0x1F38 JUMP JUMPDEST PUSH2 0xD89 JUMP JUMPDEST STOP JUMPDEST PUSH2 0x1B7 PUSH2 0x114F JUMP JUMPDEST PUSH1 0x40 MLOAD PUSH2 0x1C4 SWAP2 SWAP1 PUSH2 0x22DB JUMP JUMPDEST PUSH1 0x40 MLOAD DUP1 SWAP2 SUB SWAP1 RETURN JUMPDEST PUSH2 0x1E7 PUSH1 0x4 DUP1 CALLDATASIZE SUB DUP2 ADD SWAP1 PUSH2 0x1E2 SWAP2 SWAP1 PUSH2 0x229F JUMP JUMPDEST PUSH2 0x13E3 JUMP JUMPDEST PUSH1 0x40 MLOAD PUSH2 0x1F7 SWAP5 SWAP4 SWAP3 SWAP2 SWAP1 PUSH2 0x23EA JUMP JUMPDEST PUSH1 0x40 MLOAD DUP1 SWAP2 SUB SWAP1 RETURN JUMPDEST PUSH2 0x21A PUSH1 0x4 DUP1 CALLDATASIZE SUB DUP2 ADD SWAP1 PUSH2 0x215 SWAP2 SWAP1 PUSH2 0x2462 JUMP JUMPDEST PUSH2 0x15FC JUMP JUMPDEST STOP JUMPDEST PUSH2 0x236 PUSH1 0x4 DUP1 CALLDATASIZE SUB DUP2 ADD SWAP1 PUSH2 0x231 SWAP2 SWAP1 PUSH2 0x2107 JUMP JUMPDEST PUSH2 0x17D3 JUMP JUMPDEST STOP JUMPDEST PUSH2 0x252 PUSH1 0x4 DUP1 CALLDATASIZE SUB DUP2 ADD SWAP1 PUSH2 0x24D SWAP2 SWAP1 PUSH2 0x1F38 JUMP JUMPDEST PUSH2 0x19F3 JUMP JUMPDEST STOP JUMPDEST PUSH2 0x26E PUSH1 0x4 DUP1 CALLDATASIZE SUB DUP2 ADD SWAP1 PUSH2 0x269 SWAP2 SWAP1 PUSH2 0x229F JUMP JUMPDEST PUSH2 0x1C32 JUMP JUMPDEST PUSH1 0x40 MLOAD PUSH2 0x27B SWAP2 SWAP1 PUSH2 0x24BD JUMP JUMPDEST PUSH1 0x40 MLOAD DUP1 SWAP2 SUB SWAP1 RETURN JUMPDEST PUSH1 0x0 DUP1 PUSH1 0x60 PUSH2 0x29D PUSH8 0x5563D211D9DDE86F PUSH1 0xC0 SHL PUSH2 0x1C79 JUMP JUMPDEST PUSH2 0x2B1 PUSH8 0xA053EC6AED4FF4D6 PUSH1 0xC0 SHL PUSH2 0x1C79 JUMP JUMPDEST PUSH2 0x2C5 PUSH8 0x9B901199F806F10C PUSH1 0xC0 SHL PUSH2 0x1C79 JUMP JUMPDEST PUSH1 0x0 PUSH1 0x1 PUSH8 0xFFFFFFFFFFFFFFFF DUP2 GT ISZERO PUSH2 0x2E2 JUMPI PUSH2 0x2E1 PUSH2 0x1FC4 JUMP JUMPDEST JUMPDEST PUSH1 0x40 MLOAD SWAP1 DUP1 DUP3 MSTORE DUP1 PUSH1 0x20 MUL PUSH1 0x20 ADD DUP3 ADD PUSH1 0x40 MSTORE DUP1 ISZERO PUSH2 0x310 JUMPI DUP2 PUSH1 0x20 ADD PUSH1 0x20 DUP3 MUL DUP1 CALLDATASIZE DUP4 CALLDATACOPY DUP1 DUP3 ADD SWAP2 POP POP SWAP1 POP JUMPDEST POP SWAP1 POP PUSH2 0x327 PUSH8 0xF717E11E4D4B93A6 PUSH1 0xC0 SHL PUSH2 0x1C79 JUMP JUMPDEST PUSH32 0x474E34A077DF58807DBE9C96D3C009B23B3C6D0CCE433E59BBF5B34F823BC56C PUSH1 0x0 SHL DUP2 PUSH1 0x0 DUP2 MLOAD DUP2 LT PUSH2 0x35F JUMPI PUSH2 0x35E PUSH2 0x24D8 JUMP JUMPDEST JUMPDEST PUSH1 0x20 MUL PUSH1 0x20 ADD ADD DUP2 DUP2 MSTORE POP POP PUSH2 0x37F PUSH8 0xFEE0D4AE36A76A8A PUSH1 0xC0 SHL PUSH2 0x1C79 JUMP JUMPDEST PUSH2 0x393 PUSH8 0xD1E6085A9FF58C02 PUSH1 0xC0 SHL PUSH2 0x1C79 JUMP JUMPDEST PUSH1 0x3 PUSH3 0x2625A0 DUP3 SWAP4 POP SWAP4 POP SWAP4 POP POP SWAP1 SWAP2 SWAP3 JUMP JUMPDEST PUSH2 0x3BA PUSH8 0xCF168D32EE83C5D0 PUSH1 0xC0 SHL PUSH2 0x1C79 JUMP JUMPDEST PUSH2 0x3CE PUSH8 0xA442B9A79E7A5D7 PUSH1 0xC0 SHL PUSH2 0x1C79 JUMP JUMPDEST PUSH2 0x3E2 PUSH8 0x50455249DA7B23FD PUSH1 0xC0 SHL PUSH2 0x1C79 JUMP JUMPDEST PUSH2 0x3F6 PUSH8 0x3B8C2DE164C8EDF5 PUSH1 0xC0 SHL PUSH2 0x1C79 JUMP JUMPDEST CALLER PUSH20 0xFFFFFFFFFFFFFFFFFFFFFFFFFFFFFFFFFFFFFFFF AND PUSH1 0x2 PUSH1 0x0 DUP5 PUSH8 0xFFFFFFFFFFFFFFFF AND PUSH8 0xFFFFFFFFFFFFFFFF AND DUP2 MSTORE PUSH1 0x20 ADD SWAP1 DUP2 MSTORE PUSH1 0x20 ADD PUSH1 0x0 KECCAK256 PUSH1 0x0 ADD PUSH1 0x0 SWAP1 SLOAD SWAP1 PUSH2 0x100 EXP SWAP1 DIV PUSH20 0xFFFFFFFFFFFFFFFFFFFFFFFFFFFFFFFFFFFFFFFF AND PUSH20 0xFFFFFFFFFFFFFFFFFFFFFFFFFFFFFFFFFFFFFFFF AND EQ PUSH2 0x4AE JUMPI PUSH1 0x40 MLOAD PUSH32 0x8C379A000000000000000000000000000000000000000000000000000000000 DUP2 MSTORE PUSH1 0x4 ADD PUSH2 0x4A5 SWAP1 PUSH2 0x2564 JUMP JUMPDEST PUSH1 0x40 MLOAD DUP1 SWAP2 SUB SWAP1 REVERT JUMPDEST PUSH2 0x4C2 PUSH8 0x2C9AA785C9EF94AA PUSH1 0xC0 SHL PUSH2 0x1C79 JUMP JUMPDEST PUSH2 0x4D6 PUSH8 0x15445A4AFD729744 PUSH1 0xC0 SHL PUSH2 0x1C79 JUMP JUMPDEST DUP1 PUSH1 0x2 PUSH1 0x0 DUP5 PUSH8 0xFFFFFFFFFFFFFFFF AND PUSH8 0xFFFFFFFFFFFFFFFF AND DUP2 MSTORE PUSH1 0x20 ADD SWAP1 DUP2 MSTORE PUSH1 0x20 ADD PUSH1 0x0 KECCAK256 PUSH1 0x0 ADD PUSH1 0x0 PUSH2 0x100 EXP DUP2 SLOAD DUP2 PUSH20 0xFFFFFFFFFFFFFFFFFFFFFFFFFFFFFFFFFFFFFFFF MUL NOT AND SWAP1 DUP4 PUSH20 0xFFFFFFFFFFFFFFFFFFFFFFFFFFFFFFFFFFFFFFFF AND MUL OR SWAP1 SSTORE POP POP POP JUMP JUMPDEST PUSH2 0x557 PUSH8 0x32D2576211635DBC PUSH1 0xC0 SHL PUSH2 0x1C79 JUMP JUMPDEST PUSH2 0x56A PUSH7 0xD834C62DF5FA52 PUSH1 0xC0 SHL PUSH2 0x1C79 JUMP JUMPDEST PUSH2 0x57E PUSH8 0x8E16D539B1F3ECD4 PUSH1 0xC0 SHL PUSH2 0x1C79 JUMP JUMPDEST DUP2 PUSH20 0xFFFFFFFFFFFFFFFFFFFFFFFFFFFFFFFFFFFFFFFF AND PUSH4 0x1FE543E3 DUP5 DUP4 PUSH1 0x40 MLOAD DUP4 PUSH4 0xFFFFFFFF AND PUSH1 0xE0 SHL DUP2 MSTORE PUSH1 0x4 ADD PUSH2 0x5B9 SWAP3 SWAP2 SWAP1 PUSH2 0x2642 JUMP JUMPDEST PUSH1 0x0 PUSH1 0x40 MLOAD DUP1 DUP4 SUB DUP2 PUSH1 0x0 DUP8 DUP1 EXTCODESIZE ISZERO DUP1 ISZERO PUSH2 0x5D3 JUMPI PUSH1 0x0 DUP1 REVERT JUMPDEST POP GAS CALL ISZERO DUP1 ISZERO PUSH2 0x5E7 JUMPI RETURNDATASIZE PUSH1 0x0 DUP1 RETURNDATACOPY RETURNDATASIZE PUSH1 0x0 REVERT JUMPDEST POP POP POP POP PUSH2 0x5FF PUSH8 0xF9B8BE141F4A26E3 PUSH1 0xC0 SHL PUSH2 0x1C79 JUMP JUMPDEST PUSH2 0x613 PUSH8 0x7994D846E93BA1BF PUSH1 0xC0 SHL PUSH2 0x1C79 JUMP JUMPDEST DUP3 PUSH32 0x7DFFC5AE5EE4E2E4DF1651CF6AD329A73CEBDB728F37EA0187B9B17E036756E4 PUSH1 0x0 DUP4 MLOAD GT PUSH2 0x645 JUMPI PUSH1 0x0 PUSH2 0x662 JUMP JUMPDEST DUP3 PUSH1 0x0 DUP2 MLOAD DUP2 LT PUSH2 0x659 JUMPI PUSH2 0x658 PUSH2 0x24D8 JUMP JUMPDEST JUMPDEST PUSH1 0x20 MUL PUSH1 0x20 ADD ADD MLOAD JUMPDEST PUSH1 0x0 PUSH1 0x1 PUSH1 0x40 MLOAD PUSH2 0x675 SWAP4 SWAP3 SWAP2 SWAP1 PUSH2 0x26B7 JUMP JUMPDEST PUSH1 0x40 MLOAD DUP1 SWAP2 SUB SWAP1 LOG2 POP POP POP JUMP JUMPDEST PUSH1 0x0 PUSH2 0x698 PUSH8 0xE525E260B0D0B707 PUSH1 0xC0 SHL PUSH2 0x1C79 JUMP JUMPDEST PUSH2 0x6AC PUSH8 0x8BA0CA0B0A01904A PUSH1 0xC0 SHL PUSH2 0x1C79 JUMP JUMPDEST PUSH2 0x6C0 PUSH8 0xC0F6584179B8CAE0 PUSH1 0xC0 SHL PUSH2 0x1C79 JUMP JUMPDEST PUSH1 0x0 PUSH2 0x6D6 PUSH8 0xF3D01E85D4A40888 PUSH1 0xC0 SHL PUSH2 0x1C79 JUMP JUMPDEST PUSH2 0x6EA PUSH8 0x7EBDD7C9AB8411C5 PUSH1 0xC0 SHL PUSH2 0x1C79 JUMP JUMPDEST PUSH1 0x0 PUSH1 0x2 PUSH1 0x0 DUP9 PUSH8 0xFFFFFFFFFFFFFFFF AND PUSH8 0xFFFFFFFFFFFFFFFF AND DUP2 MSTORE PUSH1 0x20 ADD SWAP1 DUP2 MSTORE PUSH1 0x20 ADD PUSH1 0x0 KECCAK256 PUSH1 0x2 ADD DUP1 SLOAD DUP1 PUSH1 0x20 MUL PUSH1 0x20 ADD PUSH1 0x40 MLOAD SWAP1 DUP2 ADD PUSH1 0x40 MSTORE DUP1 SWAP3 SWAP2 SWAP1 DUP2 DUP2 MSTORE PUSH1 0x20 ADD DUP3 DUP1 SLOAD DUP1 ISZERO PUSH2 0x796 JUMPI PUSH1 0x20 MUL DUP3 ADD SWAP2 SWAP1 PUSH1 0x0 MSTORE PUSH1 0x20 PUSH1 0x0 KECCAK256 SWAP1 JUMPDEST DUP2 PUSH1 0x0 SWAP1 SLOAD SWAP1 PUSH2 0x100 EXP SWAP1 DIV PUSH20 0xFFFFFFFFFFFFFFFFFFFFFFFFFFFFFFFFFFFFFFFF AND PUSH20 0xFFFFFFFFFFFFFFFFFFFFFFFFFFFFFFFFFFFFFFFF AND DUP2 MSTORE PUSH1 0x20 ADD SWAP1 PUSH1 0x1 ADD SWAP1 DUP1 DUP4 GT PUSH2 0x74C JUMPI JUMPDEST POP POP POP POP POP SWAP1 POP PUSH2 0x7B1 PUSH8 0xDB59E3CCBB2DC6FD PUSH1 0xC0 SHL PUSH2 0x1C79 JUMP JUMPDEST PUSH2 0x7C5 PUSH8 0xEE913AB9B72C0C45 PUSH1 0xC0 SHL PUSH2 0x1C79 JUMP JUMPDEST PUSH1 0x0 JUMPDEST DUP2 MLOAD DUP2 LT ISZERO PUSH2 0x8B2 JUMPI PUSH2 0x7E5 PUSH8 0xF475E0E8DF1BAEE8 PUSH1 0xC0 SHL PUSH2 0x1C79 JUMP JUMPDEST PUSH2 0x7F9 PUSH8 0xE9B842873310568E PUSH1 0xC0 SHL PUSH2 0x1C79 JUMP JUMPDEST CALLER PUSH20 0xFFFFFFFFFFFFFFFFFFFFFFFFFFFFFFFFFFFFFFFF AND DUP3 DUP3 DUP2 MLOAD DUP2 LT PUSH2 0x823 JUMPI PUSH2 0x822 PUSH2 0x24D8 JUMP JUMPDEST JUMPDEST PUSH1 0x20 MUL PUSH1 0x20 ADD ADD MLOAD PUSH20 0xFFFFFFFFFFFFFFFFFFFFFFFFFFFFFFFFFFFFFFFF AND SUB PUSH2 0x88B JUMPI PUSH2 0x85A PUSH8 0x33A3DD2E6086E658 PUSH1 0xC0 SHL PUSH2 0x1C79 JUMP JUMPDEST PUSH2 0x86E PUSH8 0x786C6695F7EE8153 PUSH1 0xC0 SHL PUSH2 0x1C79 JUMP JUMPDEST PUSH1 0x1 SWAP3 POP PUSH2 0x886 PUSH8 0xEC9204D8B2DD02C PUSH1 0xC0 SHL PUSH2 0x1C79 JUMP JUMPDEST PUSH2 0x8B2 JUMP JUMPDEST PUSH2 0x89F PUSH8 0xD06C93E4898FF072 PUSH1 0xC0 SHL PUSH2 0x1C79 JUMP JUMPDEST DUP1 DUP1 PUSH2 0x8AA SWAP1 PUSH2 0x271D JUMP JUMPDEST SWAP2 POP POP PUSH2 0x7C8 JUMP JUMPDEST POP PUSH2 0x8C7 PUSH8 0xE0465F32B898D48A PUSH1 0xC0 SHL PUSH2 0x1C79 JUMP JUMPDEST PUSH2 0x8DB PUSH8 0x74B894110AE94D15 PUSH1 0xC0 SHL PUSH2 0x1C79 JUMP JUMPDEST PUSH2 0x8EF PUSH8 0x83F4355B10200B2B PUSH1 0xC0 SHL PUSH2 0x1C79 JUMP JUMPDEST DUP2 PUSH2 0x92F JUMPI PUSH1 0x40 MLOAD PUSH32 0x8C379A000000000000000000000000000000000000000000000000000000000 DUP2 MSTORE PUSH1 0x4 ADD PUSH2 0x926 SWAP1 PUSH2 0x27B1 JUMP JUMPDEST PUSH1 0x40 MLOAD DUP1 SWAP2 SUB SWAP1 REVERT JUMPDEST PUSH2 0x943 PUSH8 0x15A7055F84D30D4A PUSH1 0xC0 SHL PUSH2 0x1C79 JUMP JUMPDEST PUSH2 0x957 PUSH8 0x5F43A2DEFA941E44 PUSH1 0xC0 SHL PUSH2 0x1C79 JUMP JUMPDEST PUSH2 0x96B PUSH8 0x474AD8BFBBAB5741 PUSH1 0xC0 SHL PUSH2 0x1C79 JUMP JUMPDEST PUSH1 0x0 DUP1 PUSH1 0x0 DUP2 SLOAD DUP1 SWAP3 SWAP2 SWAP1 PUSH2 0x97F SWAP1 PUSH2 0x271D JUMP JUMPDEST SWAP2 SWAP1 POP SSTORE SWAP1 POP PUSH2 0x999 PUSH8 0xF904F5BFCC0B7D9E PUSH1 0xC0 SHL PUSH2 0x1C79 JUMP JUMPDEST CALLER PUSH1 0x3 PUSH1 0x0 DUP4 DUP2 MSTORE PUSH1 0x20 ADD SWAP1 DUP2 MSTORE PUSH1 0x20 ADD PUSH1 0x0 KECCAK256 PUSH1 0x0 PUSH2 0x100 EXP DUP2 SLOAD DUP2 PUSH20 0xFFFFFFFFFFFFFFFFFFFFFFFFFFFFFFFFFFFFFFFF MUL NOT AND SWAP1 DUP4 PUSH20 0xFFFFFFFFFFFFFFFFFFFFFFFFFFFFFFFFFFFFFFFF AND MUL OR SWAP1 SSTORE POP PUSH2 0x9FF PUSH8 0x3F3A7254FB1418D9 PUSH1 0xC0 SHL PUSH2 0x1C79 JUMP JUMPDEST PUSH1 0x2 PUSH1 0x0 DUP10 PUSH8 0xFFFFFFFFFFFFFFFF AND PUSH8 0xFFFFFFFFFFFFFFFF AND DUP2 MSTORE PUSH1 0x20 ADD SWAP1 DUP2 MSTORE PUSH1 0x20 ADD PUSH1 0x0 KECCAK256 PUSH1 0x1 ADD PUSH1 0x0 DUP2 DUP2 SWAP1 SLOAD SWAP1 PUSH2 0x100 EXP SWAP1 DIV PUSH8 0xFFFFFFFFFFFFFFFF AND DUP1 SWAP3 SWAP2 SWAP1 PUSH2 0xA4D SWAP1 PUSH2 0x27D1 JUMP JUMPDEST SWAP2 SWAP1 PUSH2 0x100 EXP DUP2 SLOAD DUP2 PUSH8 0xFFFFFFFFFFFFFFFF MUL NOT AND SWAP1 DUP4 PUSH8 0xFFFFFFFFFFFFFFFF AND MUL OR SWAP1 SSTORE POP POP PUSH2 0xA88 PUSH8 0x3C835941DC9279B9 PUSH1 0xC0 SHL PUSH2 0x1C79 JUMP JUMPDEST PUSH2 0xA9C PUSH8 0x8ED1A63B256EA1D PUSH1 0xC0 SHL PUSH2 0x1C79 JUMP JUMPDEST CALLER PUSH20 0xFFFFFFFFFFFFFFFFFFFFFFFFFFFFFFFFFFFFFFFF AND DUP9 PUSH8 0xFFFFFFFFFFFFFFFF AND DUP11 PUSH32 0x63373D1C4696214B898952999C9AAEC57DAC1EE2723CEC59BEA6888F489A9772 DUP5 TIMESTAMP DUP13 DUP13 DUP13 PUSH1 0x40 MLOAD PUSH2 0xAF6 SWAP6 SWAP5 SWAP4 SWAP3 SWAP2 SWAP1 PUSH2 0x2801 JUMP JUMPDEST PUSH1 0x40 MLOAD DUP1 SWAP2 SUB SWAP1 LOG4 PUSH2 0xB12 PUSH8 0x540B306A99FE397E PUSH1 0xC0 SHL PUSH2 0x1C79 JUMP JUMPDEST PUSH2 0xB26 PUSH8 0x72C756DFC29ADFB4 PUSH1 0xC0 SHL PUSH2 0x1C79 JUMP JUMPDEST DUP1 SWAP4 POP POP POP POP SWAP6 SWAP5 POP POP POP POP POP JUMP JUMPDEST PUSH2 0xB49 PUSH8 0x3B75488B18FC648B PUSH1 0xC0 SHL PUSH2 0x1C79 JUMP JUMPDEST PUSH2 0xB5D PUSH8 0xC0B0AFE0B84CB9EE PUSH1 0xC0 SHL PUSH2 0x1C79 JUMP JUMPDEST PUSH2 0xB71 PUSH8 0xEAEB184BB49831AC PUSH1 0xC0 SHL PUSH2 0x1C79 JUMP JUMPDEST PUSH2 0xB85 PUSH8 0xD75258F206850FBA PUSH1 0xC0 SHL PUSH2 0x1C79 JUMP JUMPDEST CALLER PUSH20 0xFFFFFFFFFFFFFFFFFFFFFFFFFFFFFFFFFFFFFFFF AND PUSH1 0x2 PUSH1 0x0 DUP5 PUSH8 0xFFFFFFFFFFFFFFFF AND PUSH8 0xFFFFFFFFFFFFFFFF AND DUP2 MSTORE PUSH1 0x20 ADD SWAP1 DUP2 MSTORE PUSH1 0x20 ADD PUSH1 0x0 KECCAK256 PUSH1 0x0 ADD PUSH1 0x0 SWAP1 SLOAD SWAP1 PUSH2 0x100 EXP SWAP1 DIV PUSH20 0xFFFFFFFFFFFFFFFFFFFFFFFFFFFFFFFFFFFFFFFF AND PUSH20 0xFFFFFFFFFFFFFFFFFFFFFFFFFFFFFFFFFFFFFFFF AND EQ PUSH2 0xC3D JUMPI PUSH1 0x40 MLOAD PUSH32 0x8C379A000000000000000000000000000000000000000000000000000000000 DUP2 MSTORE PUSH1 0x4 ADD PUSH2 0xC34 SWAP1 PUSH2 0x2564 JUMP JUMPDEST PUSH1 0x40 MLOAD DUP1 SWAP2 SUB SWAP1 REVERT JUMPDEST PUSH2 0xC51 PUSH8 0x6BA21D80EAFDCE4E PUSH1 0xC0 SHL PUSH2 0x1C79 JUMP JUMPDEST PUSH2 0xC65 PUSH8 0x66CBCFA9EEA7E0FA PUSH1 0xC0 SHL PUSH2 0x1C79 JUMP JUMPDEST PUSH2 0xC79 PUSH8 0xBCB9166E3DA2D67 PUSH1 0xC0 SHL PUSH2 0x1C79 JUMP JUMPDEST PUSH1 0x2 PUSH1 0x0 DUP4 PUSH8 0xFFFFFFFFFFFFFFFF AND PUSH8 0xFFFFFFFFFFFFFFFF AND DUP2 MSTORE PUSH1 0x20 ADD SWAP1 DUP2 MSTORE PUSH1 0x20 ADD PUSH1 0x0 KECCAK256 PUSH1 0x2 ADD DUP2 SWAP1 DUP1 PUSH1 0x1 DUP2 SLOAD ADD DUP1 DUP3 SSTORE DUP1 SWAP2 POP POP PUSH1 0x1 SWAP1 SUB SWAP1 PUSH1 0x0 MSTORE PUSH1 0x20 PUSH1 0x0 KECCAK256 ADD PUSH1 0x0 SWAP1 SWAP2 SWAP1 SWAP2 SWAP1 SWAP2 PUSH2 0x100 EXP DUP2 SLOAD DUP2 PUSH20 0xFFFFFFFFFFFFFFFFFFFFFFFFFFFFFFFFFFFFFFFF MUL NOT AND SWAP1 DUP4 PUSH20 0xFFFFFFFFFFFFFFFFFFFFFFFFFFFFFFFFFFFFFFFF AND MUL OR SWAP1 SSTORE POP PUSH2 0xD18 PUSH8 0xE7A5427D078AC286 PUSH1 0xC0 SHL PUSH2 0x1C79 JUMP JUMPDEST PUSH2 0xD2C PUSH8 0xEDAE7B586305D7FD PUSH1 0xC0 SHL PUSH2 0x1C79 JUMP JUMPDEST DUP2 PUSH8 0xFFFFFFFFFFFFFFFF AND PUSH32 0x43DC749A04AC8FB825CBD514F7C0E13F13BC6F2EE66043B76629D51776CFF8E0 DUP3 PUSH1 0x40 MLOAD PUSH2 0xD66 SWAP2 SWAP1 PUSH2 0x2854 JUMP JUMPDEST PUSH1 0x40 MLOAD DUP1 SWAP2 SUB SWAP1 LOG2 POP POP JUMP JUMPDEST PUSH2 0xD86 PUSH8 0xB7DFC338632F0398 PUSH1 0xC0 SHL PUSH2 0x1C79 JUMP JUMPDEST POP JUMP JUMPDEST PUSH2 0xD9D PUSH8 0x9840602AB8C3C09 PUSH1 0xC0 SHL PUSH2 0x1C79 JUMP JUMPDEST PUSH2 0xDB1 PUSH8 0xB5F5FCFB242630C5 PUSH1 0xC0 SHL PUSH2 0x1C79 JUMP JUMPDEST PUSH2 0xDC5 PUSH8 0x7FA1B5015E7B68E PUSH1 0xC0 SHL PUSH2 0x1C79 JUMP JUMPDEST PUSH2 0xDD9 PUSH8 0xA3C270A6E07B4F5A PUSH1 0xC0 SHL PUSH2 0x1C79 JUMP JUMPDEST CALLER PUSH20 0xFFFFFFFFFFFFFFFFFFFFFFFFFFFFFFFFFFFFFFFF AND PUSH1 0x2 PUSH1 0x0 DUP5 PUSH8 0xFFFFFFFFFFFFFFFF AND PUSH8 0xFFFFFFFFFFFFFFFF AND DUP2 MSTORE PUSH1 0x20 ADD SWAP1 DUP2 MSTORE PUSH1 0x20 ADD PUSH1 0x0 KECCAK256 PUSH1 0x0 ADD PUSH1 0x0 SWAP1 SLOAD SWAP1 PUSH2 0x100 EXP SWAP1 DIV PUSH20 0xFFFFFFFFFFFFFFFFFFFFFFFFFFFFFFFFFFFFFFFF AND PUSH20 0xFFFFFFFFFFFFFFFFFFFFFFFFFFFFFFFFFFFFFFFF AND EQ PUSH2 0xE91 JUMPI PUSH1 0x40 MLOAD PUSH32 0x8C379A000000000000000000000000000000000000000000000000000000000 DUP2 MSTORE PUSH1 0x4 ADD PUSH2 0xE88 SWAP1 PUSH2 0x2564 JUMP JUMPDEST PUSH1 0x40 MLOAD DUP1 SWAP2 SUB SWAP1 REVERT JUMPDEST PUSH2 0xEA5 PUSH8 0xD6C98F59260CBEB1 PUSH1 0xC0 SHL PUSH2 0x1C79 JUMP JUMPDEST PUSH2 0xEB9 PUSH8 0x44D86688DB8CD62F PUSH1 0xC0 SHL PUSH2 0x1C79 JUMP JUMPDEST PUSH2 0xECD PUSH8 0xE854D764EA01350D PUSH1 0xC0 SHL PUSH2 0x1C79 JUMP JUMPDEST PUSH1 0x0 PUSH1 0x2 PUSH1 0x0 DUP5 PUSH8 0xFFFFFFFFFFFFFFFF AND PUSH8 0xFFFFFFFFFFFFFFFF AND DUP2 MSTORE PUSH1 0x20 ADD SWAP1 DUP2 MSTORE PUSH1 0x20 ADD PUSH1 0x0 KECCAK256 PUSH1 0x2 ADD SWAP1 POP PUSH2 0xF0F PUSH8 0x653FC42A0BB4776B PUSH1 0xC0 SHL PUSH2 0x1C79 JUMP JUMPDEST PUSH2 0xF23 PUSH8 0x2E19930A293F75B9 PUSH1 0xC0 SHL PUSH2 0x1C79 JUMP JUMPDEST PUSH1 0x0 JUMPDEST DUP2 DUP1 SLOAD SWAP1 POP DUP2 LT ISZERO PUSH2 0x1149 JUMPI PUSH2 0xF46 PUSH8 0x15EC5BABE1C21EFD PUSH1 0xC0 SHL PUSH2 0x1C79 JUMP JUMPDEST PUSH2 0xF5A PUSH8 0x9AF792141FE46FFF PUSH1 0xC0 SHL PUSH2 0x1C79 JUMP JUMPDEST DUP3 PUSH20 0xFFFFFFFFFFFFFFFFFFFFFFFFFFFFFFFFFFFFFFFF AND DUP3 DUP3 DUP2 SLOAD DUP2 LT PUSH2 0xF84 JUMPI PUSH2 0xF83 PUSH2 0x24D8 JUMP JUMPDEST JUMPDEST SWAP1 PUSH1 0x0 MSTORE PUSH1 0x20 PUSH1 0x0 KECCAK256 ADD PUSH1 0x0 SWAP1 SLOAD SWAP1 PUSH2 0x100 EXP SWAP1 DIV PUSH20 0xFFFFFFFFFFFFFFFFFFFFFFFFFFFFFFFFFFFFFFFF AND PUSH20 0xFFFFFFFFFFFFFFFFFFFFFFFFFFFFFFFFFFFFFFFF AND SUB PUSH2 0x1122 JUMPI PUSH2 0xFDE PUSH8 0x1D46977E255F1035 PUSH1 0xC0 SHL PUSH2 0x1C79 JUMP JUMPDEST PUSH2 0xFF2 PUSH8 0x97FBDC1F1D38EB28 PUSH1 0xC0 SHL PUSH2 0x1C79 JUMP JUMPDEST DUP2 PUSH1 0x1 DUP4 DUP1 SLOAD SWAP1 POP PUSH2 0x1004 SWAP2 SWAP1 PUSH2 0x286F JUMP JUMPDEST DUP2 SLOAD DUP2 LT PUSH2 0x1015 JUMPI PUSH2 0x1014 PUSH2 0x24D8 JUMP JUMPDEST JUMPDEST SWAP1 PUSH1 0x0 MSTORE PUSH1 0x20 PUSH1 0x0 KECCAK256 ADD PUSH1 0x0 SWAP1 SLOAD SWAP1 PUSH2 0x100 EXP SWAP1 DIV PUSH20 0xFFFFFFFFFFFFFFFFFFFFFFFFFFFFFFFFFFFFFFFF AND DUP3 DUP3 DUP2 SLOAD DUP2 LT PUSH2 0x1053 JUMPI PUSH2 0x1052 PUSH2 0x24D8 JUMP JUMPDEST JUMPDEST SWAP1 PUSH1 0x0 MSTORE PUSH1 0x20 PUSH1 0x0 KECCAK256 ADD PUSH1 0x0 PUSH2 0x100 EXP DUP2 SLOAD DUP2 PUSH20 0xFFFFFFFFFFFFFFFFFFFFFFFFFFFFFFFFFFFFFFFF MUL NOT AND SWAP1 DUP4 PUSH20 0xFFFFFFFFFFFFFFFFFFFFFFFFFFFFFFFFFFFFFFFF AND MUL OR SWAP1 SSTORE POP PUSH2 0x10AF PUSH8 0xACB4727F75FBBE7F PUSH1 0xC0 SHL PUSH2 0x1C79 JUMP JUMPDEST PUSH2 0x10C3 PUSH8 0x78DA6A74E2848FF0 PUSH1 0xC0 SHL PUSH2 0x1C79 JUMP JUMPDEST DUP2 DUP1 SLOAD DUP1 PUSH2 0x10D4 JUMPI PUSH2 0x10D3 PUSH2 0x28A3 JUMP JUMPDEST JUMPDEST PUSH1 0x1 SWAP1 SUB DUP2 DUP2 SWAP1 PUSH1 0x0 MSTORE PUSH1 0x20 PUSH1 0x0 KECCAK256 ADD PUSH1 0x0 PUSH2 0x100 EXP DUP2 SLOAD SWAP1 PUSH20 0xFFFFFFFFFFFFFFFFFFFFFFFFFFFFFFFFFFFFFFFF MUL NOT AND SWAP1 SSTORE SWAP1 SSTORE PUSH2 0x111D PUSH8 0xE4B04E70E9A43099 PUSH1 0xC0 SHL PUSH2 0x1C79 JUMP JUMPDEST PUSH2 0x1149 JUMP JUMPDEST PUSH2 0x1136 PUSH8 0x45861E0B34FAC72E PUSH1 0xC0 SHL PUSH2 0x1C79 JUMP JUMPDEST DUP1 DUP1 PUSH2 0x1141 SWAP1 PUSH2 0x271D JUMP JUMPDEST SWAP2 POP POP PUSH2 0xF26 JUMP JUMPDEST POP POP POP POP JUMP JUMPDEST PUSH1 0x0 PUSH2 0x1165 PUSH8 0xC84DD88318F36C69 PUSH1 0xC0 SHL PUSH2 0x1C79 JUMP JUMPDEST PUSH2 0x1179 PUSH8 0xC6F3F434FB532203 PUSH1 0xC0 SHL PUSH2 0x1C79 JUMP JUMPDEST PUSH2 0x118D PUSH8 0x38EF2122F8812F0 PUSH1 0xC0 SHL PUSH2 0x1C79 JUMP JUMPDEST PUSH1 0x0 PUSH1 0x1 PUSH1 0x0 DUP2 SLOAD DUP1 SWAP3 SWAP2 SWAP1 PUSH2 0x11A2 SWAP1 PUSH2 0x271D JUMP JUMPDEST SWAP2 SWAP1 POP SSTORE SWAP1 POP PUSH2 0x11BC PUSH8 0x5FCD55CD25145001 PUSH1 0xC0 SHL PUSH2 0x1C79 JUMP JUMPDEST PUSH1 0x40 MLOAD DUP1 PUSH1 0x80 ADD PUSH1 0x40 MSTORE DUP1 CALLER PUSH20 0xFFFFFFFFFFFFFFFFFFFFFFFFFFFFFFFFFFFFFFFF AND DUP2 MSTORE PUSH1 0x20 ADD PUSH1 0x0 PUSH12 0xFFFFFFFFFFFFFFFFFFFFFFFF AND DUP2 MSTORE PUSH1 0x20 ADD PUSH1 0x0 PUSH8 0xFFFFFFFFFFFFFFFF AND DUP2 MSTORE PUSH1 0x20 ADD PUSH1 0x0 PUSH8 0xFFFFFFFFFFFFFFFF DUP2 GT ISZERO PUSH2 0x1224 JUMPI PUSH2 0x1223 PUSH2 0x1FC4 JUMP JUMPDEST JUMPDEST PUSH1 0x40 MLOAD SWAP1 DUP1 DUP3 MSTORE DUP1 PUSH1 0x20 MUL PUSH1 0x20 ADD DUP3 ADD PUSH1 0x40 MSTORE DUP1 ISZERO PUSH2 0x1252 JUMPI DUP2 PUSH1 0x20 ADD PUSH1 0x20 DUP3 MUL DUP1 CALLDATASIZE DUP4 CALLDATACOPY DUP1 DUP3 ADD SWAP2 POP POP SWAP1 POP JUMPDEST POP DUP2 MSTORE POP PUSH1 0x2 PUSH1 0x0 DUP4 PUSH8 0xFFFFFFFFFFFFFFFF AND PUSH8 0xFFFFFFFFFFFFFFFF AND DUP2 MSTORE PUSH1 0x20 ADD SWAP1 DUP2 MSTORE PUSH1 0x20 ADD PUSH1 0x0 KECCAK256 PUSH1 0x0 DUP3 ADD MLOAD DUP2 PUSH1 0x0 ADD PUSH1 0x0 PUSH2 0x100 EXP DUP2 SLOAD DUP2 PUSH20 0xFFFFFFFFFFFFFFFFFFFFFFFFFFFFFFFFFFFFFFFF MUL NOT AND SWAP1 DUP4 PUSH20 0xFFFFFFFFFFFFFFFFFFFFFFFFFFFFFFFFFFFFFFFF AND MUL OR SWAP1 SSTORE POP PUSH1 0x20 DUP3 ADD MLOAD DUP2 PUSH1 0x0 ADD PUSH1 0x14 PUSH2 0x100 EXP DUP2 SLOAD DUP2 PUSH12 0xFFFFFFFFFFFFFFFFFFFFFFFF MUL NOT AND SWAP1 DUP4 PUSH12 0xFFFFFFFFFFFFFFFFFFFFFFFF AND MUL OR SWAP1 SSTORE POP PUSH1 0x40 DUP3 ADD MLOAD DUP2 PUSH1 0x1 ADD PUSH1 0x0 PUSH2 0x100 EXP DUP2 SLOAD DUP2 PUSH8 0xFFFFFFFFFFFFFFFF MUL NOT AND SWAP1 DUP4 PUSH8 0xFFFFFFFFFFFFFFFF AND MUL OR SWAP1 SSTORE POP PUSH1 0x60 DUP3 ADD MLOAD DUP2 PUSH1 0x2 ADD SWAP1 DUP1 MLOAD SWAP1 PUSH1 0x20 ADD SWAP1 PUSH2 0x1346 SWAP3 SWAP2 SWAP1 PUSH2 0x1C7C JUMP JUMPDEST POP SWAP1 POP POP PUSH2 0x135E PUSH8 0xB9CDE84F0FA51934 PUSH1 0xC0 SHL PUSH2 0x1C79 JUMP JUMPDEST PUSH2 0x1372 PUSH8 0xCD9FC65CF8804DAA PUSH1 0xC0 SHL PUSH2 0x1C79 JUMP JUMPDEST DUP1 PUSH8 0xFFFFFFFFFFFFFFFF AND PUSH32 0x464722B4166576D3DCBBA877B999BC35CF911F4EAF434B7EBA68FA113951D0BF CALLER PUSH1 0x40 MLOAD PUSH2 0x13AC SWAP2 SWAP1 PUSH2 0x2854 JUMP JUMPDEST PUSH1 0x40 MLOAD DUP1 SWAP2 SUB SWAP1 LOG2 PUSH2 0x13C8 PUSH8 0xC39DDADA015692EA PUSH1 0xC0 SHL PUSH2 0x1C79 JUMP JUMPDEST PUSH2 0x13DC PUSH8 0x51FEB5C79E504B36 PUSH1 0xC0 SHL PUSH2 0x1C79 JUMP JUMPDEST DUP1 SWAP2 POP POP SWAP1 JUMP JUMPDEST PUSH1 0x0 DUP1 PUSH1 0x0 PUSH1 0x60 PUSH2 0x13FE PUSH8 0x862576F73E3F2FB1 PUSH1 0xC0 SHL PUSH2 0x1C79 JUMP JUMPDEST PUSH2 0x1412 PUSH8 0xC09E4C934579B7B5 PUSH1 0xC0 SHL PUSH2 0x1C79 JUMP JUMPDEST PUSH2 0x1426 PUSH8 0x40E09B533B8270C4 PUSH1 0xC0 SHL PUSH2 0x1C79 JUMP JUMPDEST PUSH1 0x0 PUSH1 0x2 PUSH1 0x0 DUP8 PUSH8 0xFFFFFFFFFFFFFFFF AND PUSH8 0xFFFFFFFFFFFFFFFF AND DUP2 MSTORE PUSH1 0x20 ADD SWAP1 DUP2 MSTORE PUSH1 0x20 ADD PUSH1 0x0 KECCAK256 PUSH1 0x40 MLOAD DUP1 PUSH1 0x80 ADD PUSH1 0x40 MSTORE SWAP1 DUP2 PUSH1 0x0 DUP3 ADD PUSH1 0x0 SWAP1 SLOAD SWAP1 PUSH2 0x100 EXP SWAP1 DIV PUSH20 0xFFFFFFFFFFFFFFFFFFFFFFFFFFFFFFFFFFFFFFFF AND PUSH20 0xFFFFFFFFFFFFFFFFFFFFFFFFFFFFFFFFFFFFFFFF AND PUSH20 0xFFFFFFFFFFFFFFFFFFFFFFFFFFFFFFFFFFFFFFFF AND DUP2 MSTORE PUSH1 0x20 ADD PUSH1 0x0 DUP3 ADD PUSH1 0x14 SWAP1 SLOAD SWAP1 PUSH2 0x100 EXP SWAP1 DIV PUSH12 0xFFFFFFFFFFFFFFFFFFFFFFFF AND PUSH12 0xFFFFFFFFFFFFFFFFFFFFFFFF AND PUSH12 0xFFFFFFFFFFFFFFFFFFFFFFFF AND DUP2 MSTORE PUSH1 0x20 ADD PUSH1 0x1 DUP3 ADD PUSH1 0x0 SWAP1 SLOAD SWAP1 PUSH2 0x100 EXP SWAP1 DIV PUSH8 0xFFFFFFFFFFFFFFFF AND PUSH8 0xFFFFFFFFFFFFFFFF AND PUSH8 0xFFFFFFFFFFFFFFFF AND DUP2 MSTORE PUSH1 0x20 ADD PUSH1 0x2 DUP3 ADD DUP1 SLOAD DUP1 PUSH1 0x20 MUL PUSH1 0x20 ADD PUSH1 0x40 MLOAD SWAP1 DUP2 ADD PUSH1 0x40 MSTORE DUP1 SWAP3 SWAP2 SWAP1 DUP2 DUP2 MSTORE PUSH1 0x20 ADD DUP3 DUP1 SLOAD DUP1 ISZERO PUSH2 0x15A5 JUMPI PUSH1 0x20 MUL DUP3 ADD SWAP2 SWAP1 PUSH1 0x0 MSTORE PUSH1 0x20 PUSH1 0x0 KECCAK256 SWAP1 JUMPDEST DUP2 PUSH1 0x0 SWAP1 SLOAD SWAP1 PUSH2 0x100 EXP SWAP1 DIV PUSH20 0xFFFFFFFFFFFFFFFFFFFFFFFFFFFFFFFFFFFFFFFF AND PUSH20 0xFFFFFFFFFFFFFFFFFFFFFFFFFFFFFFFFFFFFFFFF AND DUP2 MSTORE PUSH1 0x20 ADD SWAP1 PUSH1 0x1 ADD SWAP1 DUP1 DUP4 GT PUSH2 0x155B JUMPI JUMPDEST POP POP POP POP POP DUP2 MSTORE POP POP SWAP1 POP PUSH2 0x15C4 PUSH8 0x802AA237351D685B PUSH1 0xC0 SHL PUSH2 0x1C79 JUMP JUMPDEST PUSH2 0x15D8 PUSH8 0x8F094DBD0E7E2B9 PUSH1 0xC0 SHL PUSH2 0x1C79 JUMP JUMPDEST DUP1 PUSH1 0x20 ADD MLOAD DUP2 PUSH1 0x40 ADD MLOAD DUP3 PUSH1 0x0 ADD MLOAD DUP4 PUSH1 0x60 ADD MLOAD SWAP5 POP SWAP5 POP SWAP5 POP SWAP5 POP POP SWAP2 SWAP4 POP SWAP2 SWAP4 JUMP JUMPDEST PUSH2 0x1610 PUSH8 0xBDBDAD12A2232E83 PUSH1 0xC0 SHL PUSH2 0x1C79 JUMP JUMPDEST PUSH2 0x1624 PUSH8 0x80892061C67A035C PUSH1 0xC0 SHL PUSH2 0x1C79 JUMP JUMPDEST PUSH2 0x1638 PUSH8 0x1FCE872B951CFC74 PUSH1 0xC0 SHL PUSH2 0x1C79 JUMP JUMPDEST PUSH1 0x0 PUSH1 0x2 PUSH1 0x0 DUP5 PUSH8 0xFFFFFFFFFFFFFFFF AND PUSH8 0xFFFFFFFFFFFFFFFF AND DUP2 MSTORE PUSH1 0x20 ADD SWAP1 DUP2 MSTORE PUSH1 0x20 ADD PUSH1 0x0 KECCAK256 PUSH1 0x0 ADD PUSH1 0x14 SWAP1 SLOAD SWAP1 PUSH2 0x100 EXP SWAP1 DIV PUSH12 0xFFFFFFFFFFFFFFFFFFFFFFFF AND PUSH12 0xFFFFFFFFFFFFFFFFFFFFFFFF AND SWAP1 POP PUSH2 0x16A1 PUSH8 0x9D6CC566A14EBA5C PUSH1 0xC0 SHL PUSH2 0x1C79 JUMP JUMPDEST DUP2 PUSH1 0x2 PUSH1 0x0 DUP6 PUSH8 0xFFFFFFFFFFFFFFFF AND PUSH8 0xFFFFFFFFFFFFFFFF AND DUP2 MSTORE PUSH1 0x20 ADD SWAP1 DUP2 MSTORE PUSH1 0x20 ADD PUSH1 0x0 KECCAK256 PUSH1 0x0 ADD PUSH1 0x14 DUP3 DUP3 DUP3 SWAP1 SLOAD SWAP1 PUSH2 0x100 EXP SWAP1 DIV PUSH12 0xFFFFFFFFFFFFFFFFFFFFFFFF AND PUSH2 0x16F2 SWAP2 SWAP1 PUSH2 0x28D2 JUMP JUMPDEST SWAP3 POP PUSH2 0x100 EXP DUP2 SLOAD DUP2 PUSH12 0xFFFFFFFFFFFFFFFFFFFFFFFF MUL NOT AND SWAP1 DUP4 PUSH12 0xFFFFFFFFFFFFFFFFFFFFFFFF AND MUL OR SWAP1 SSTORE POP PUSH2 0x1734 PUSH8 0xC06E83C95C0D02E4 PUSH1 0xC0 SHL PUSH2 0x1C79 JUMP JUMPDEST PUSH2 0x1748 PUSH8 0x4047115599AFF198 PUSH1 0xC0 SHL PUSH2 0x1C79 JUMP JUMPDEST DUP3 PUSH8 0xFFFFFFFFFFFFFFFF AND PUSH32 0xD39EC07F4E209F627A4C427971473820DC129761BA28DE8906BD56F57101D4F8 DUP3 PUSH1 0x2 PUSH1 0x0 DUP8 PUSH8 0xFFFFFFFFFFFFFFFF AND PUSH8 0xFFFFFFFFFFFFFFFF AND DUP2 MSTORE PUSH1 0x20 ADD SWAP1 DUP2 MSTORE PUSH1 0x20 ADD PUSH1 0x0 KECCAK256 PUSH1 0x0 ADD PUSH1 0x14 SWAP1 SLOAD SWAP1 PUSH2 0x100 EXP SWAP1 DIV PUSH12 0xFFFFFFFFFFFFFFFFFFFFFFFF AND PUSH1 0x40 MLOAD PUSH2 0x17C6 SWAP3 SWAP2 SWAP1 PUSH2 0x2943 JUMP JUMPDEST PUSH1 0x40 MLOAD DUP1 SWAP2 SUB SWAP1 LOG2 POP POP POP JUMP JUMPDEST PUSH2 0x17E7 PUSH8 0xF447232E3243F98C PUSH1 0xC0 SHL PUSH2 0x1C79 JUMP JUMPDEST PUSH2 0x17FB PUSH8 0xAC085ADDF6030509 PUSH1 0xC0 SHL PUSH2 0x1C79 JUMP JUMPDEST PUSH2 0x180F PUSH8 0x4584D8095EC2E2C8 PUSH1 0xC0 SHL PUSH2 0x1C79 JUMP JUMPDEST PUSH2 0x1823 PUSH8 0xECA278E9A683797A PUSH1 0xC0 SHL PUSH2 0x1C79 JUMP JUMPDEST DUP2 PUSH20 0xFFFFFFFFFFFFFFFFFFFFFFFFFFFFFFFFFFFFFFFF AND PUSH1 0x3 PUSH1 0x0 DUP6 DUP2 MSTORE PUSH1 0x20 ADD SWAP1 DUP2 MSTORE PUSH1 0x20 ADD PUSH1 0x0 KECCAK256 PUSH1 0x0 SWAP1 SLOAD SWAP1 PUSH2 0x100 EXP SWAP1 DIV PUSH20 0xFFFFFFFFFFFFFFFFFFFFFFFFFFFFFFFFFFFFFFFF AND PUSH20 0xFFFFFFFFFFFFFFFFFFFFFFFFFFFFFFFFFFFFFFFF AND EQ PUSH2 0x18C4 JUMPI PUSH1 0x40 MLOAD PUSH32 0x8C379A000000000000000000000000000000000000000000000000000000000 DUP2 MSTORE PUSH1 0x4 ADD PUSH2 0x18BB SWAP1 PUSH2 0x29B8 JUMP JUMPDEST PUSH1 0x40 MLOAD DUP1 SWAP2 SUB SWAP1 REVERT JUMPDEST PUSH2 0x18D8 PUSH8 0x8314AA38001CB103 PUSH1 0xC0 SHL PUSH2 0x1C79 JUMP JUMPDEST PUSH2 0x18EC PUSH8 0x994C4CB71E363722 PUSH1 0xC0 SHL PUSH2 0x1C79 JUMP JUMPDEST PUSH2 0x1900 PUSH8 0xB305E6AF3DC06A41 PUSH1 0xC0 SHL PUSH2 0x1C79 JUMP JUMPDEST DUP2 PUSH20 0xFFFFFFFFFFFFFFFFFFFFFFFFFFFFFFFFFFFFFFFF AND PUSH4 0x1FE543E3 DUP5 DUP4 PUSH1 0x40 MLOAD DUP4 PUSH4 0xFFFFFFFF AND PUSH1 0xE0 SHL DUP2 MSTORE PUSH1 0x4 ADD PUSH2 0x193B SWAP3 SWAP2 SWAP1 PUSH2 0x2642 JUMP JUMPDEST PUSH1 0x0 PUSH1 0x40 MLOAD DUP1 DUP4 SUB DUP2 PUSH1 0x0 DUP8 DUP1 EXTCODESIZE ISZERO DUP1 ISZERO PUSH2 0x1955 JUMPI PUSH1 0x0 DUP1 REVERT JUMPDEST POP GAS CALL ISZERO DUP1 ISZERO PUSH2 0x1969 JUMPI RETURNDATASIZE PUSH1 0x0 DUP1 RETURNDATACOPY RETURNDATASIZE PUSH1 0x0 REVERT JUMPDEST POP POP POP POP PUSH2 0x1981 PUSH8 0xF9E9C45DCB9FD17B PUSH1 0xC0 SHL PUSH2 0x1C79 JUMP JUMPDEST PUSH2 0x1995 PUSH8 0x13A0086F4882F872 PUSH1 0xC0 SHL PUSH2 0x1C79 JUMP JUMPDEST DUP3 PUSH32 0x7DFFC5AE5EE4E2E4DF1651CF6AD329A73CEBDB728F37EA0187B9B17E036756E4 DUP3 PUSH1 0x0 DUP2 MLOAD DUP2 LT PUSH2 0x19CB JUMPI PUSH2 0x19CA PUSH2 0x24D8 JUMP JUMPDEST JUMPDEST PUSH1 0x20 MUL PUSH1 0x20 ADD ADD MLOAD PUSH1 0x0 PUSH1 0x1 PUSH1 0x40 MLOAD PUSH2 0x19E6 SWAP4 SWAP3 SWAP2 SWAP1 PUSH2 0x26B7 JUMP JUMPDEST PUSH1 0x40 MLOAD DUP1 SWAP2 SUB SWAP1 LOG2 POP POP POP JUMP JUMPDEST PUSH2 0x1A07 PUSH8 0xE2604D3F31C507FF PUSH1 0xC0 SHL PUSH2 0x1C79 JUMP JUMPDEST PUSH2 0x1A1B PUSH8 0xA676BE60EFAA678 PUSH1 0xC0 SHL PUSH2 0x1C79 JUMP JUMPDEST PUSH2 0x1A2F PUSH8 0x86A489526E2D591 PUSH1 0xC0 SHL PUSH2 0x1C79 JUMP JUMPDEST PUSH2 0x1A43 PUSH8 0x6F46B2989373E978 PUSH1 0xC0 SHL PUSH2 0x1C79 JUMP JUMPDEST CALLER PUSH20 0xFFFFFFFFFFFFFFFFFFFFFFFFFFFFFFFFFFFFFFFF AND PUSH1 0x2 PUSH1 0x0 DUP5 PUSH8 0xFFFFFFFFFFFFFFFF AND PUSH8 0xFFFFFFFFFFFFFFFF AND DUP2 MSTORE PUSH1 0x20 ADD SWAP1 DUP2 MSTORE PUSH1 0x20 ADD PUSH1 0x0 KECCAK256 PUSH1 0x0 ADD PUSH1 0x0 SWAP1 SLOAD SWAP1 PUSH2 0x100 EXP SWAP1 DIV PUSH20 0xFFFFFFFFFFFFFFFFFFFFFFFFFFFFFFFFFFFFFFFF AND PUSH20 0xFFFFFFFFFFFFFFFFFFFFFFFFFFFFFFFFFFFFFFFF AND EQ PUSH2 0x1AFB JUMPI PUSH1 0x40 MLOAD PUSH32 0x8C379A000000000000000000000000000000000000000000000000000000000 DUP2 MSTORE PUSH1 0x4 ADD PUSH2 0x1AF2 SWAP1 PUSH2 0x2564 JUMP JUMPDEST PUSH1 0x40 MLOAD DUP1 SWAP2 SUB SWAP1 REVERT JUMPDEST PUSH2 0x1B0F PUSH8 0x428F0FA95EC40A2B PUSH1 0xC0 SHL PUSH2 0x1C79 JUMP JUMPDEST PUSH2 0x1B23 PUSH8 0x9C377E93060C8DFE PUSH1 0xC0 SHL PUSH2 0x1C79 JUMP JUMPDEST PUSH2 0x1B37 PUSH8 0xB5B776E74694E578 PUSH1 0xC0 SHL PUSH2 0x1C79 JUMP JUMPDEST PUSH1 0x0 PUSH1 0x2 PUSH1 0x0 DUP5 PUSH8 0xFFFFFFFFFFFFFFFF AND PUSH8 0xFFFFFFFFFFFFFFFF AND DUP2 MSTORE PUSH1 0x20 ADD SWAP1 DUP2 MSTORE PUSH1 0x20 ADD PUSH1 0x0 KECCAK256 PUSH1 0x0 ADD PUSH1 0x14 SWAP1 SLOAD SWAP1 PUSH2 0x100 EXP SWAP1 DIV PUSH12 0xFFFFFFFFFFFFFFFFFFFFFFFF AND SWAP1 POP PUSH2 0x1B92 PUSH8 0x879240458B35687B PUSH1 0xC0 SHL PUSH2 0x1C79 JUMP JUMPDEST PUSH1 0x2 PUSH1 0x0 DUP5 PUSH8 0xFFFFFFFFFFFFFFFF AND PUSH8 0xFFFFFFFFFFFFFFFF AND DUP2 MSTORE PUSH1 0x20 ADD SWAP1 DUP2 MSTORE PUSH1 0x20 ADD PUSH1 0x0 KECCAK256 PUSH1 0x0 DUP1 DUP3 ADD PUSH1 0x0 PUSH2 0x100 EXP DUP2 SLOAD SWAP1 PUSH20 0xFFFFFFFFFFFFFFFFFFFFFFFFFFFFFFFFFFFFFFFF MUL NOT AND SWAP1 SSTORE PUSH1 0x0 DUP3 ADD PUSH1 0x14 PUSH2 0x100 EXP DUP2 SLOAD SWAP1 PUSH12 0xFFFFFFFFFFFFFFFFFFFFFFFF MUL NOT AND SWAP1 SSTORE PUSH1 0x1 DUP3 ADD PUSH1 0x0 PUSH2 0x100 EXP DUP2 SLOAD SWAP1 PUSH8 0xFFFFFFFFFFFFFFFF MUL NOT AND SWAP1 SSTORE PUSH1 0x2 DUP3 ADD PUSH1 0x0 PUSH2 0x1C2B SWAP2 SWAP1 PUSH2 0x1D06 JUMP JUMPDEST POP POP POP POP POP JUMP JUMPDEST PUSH1 0x0 PUSH2 0x1C48 PUSH8 0x698C4EA5934854CD PUSH1 0xC0 SHL PUSH2 0x1C79 JUMP JUMPDEST PUSH2 0x1C5C PUSH8 0xC1B645E96C893BF1 PUSH1 0xC0 SHL PUSH2 0x1C79 JUMP JUMPDEST PUSH2 0x1C70 PUSH8 0xEE9413E624748B1E PUSH1 0xC0 SHL PUSH2 0x1C79 JUMP JUMPDEST PUSH1 0x0 SWAP1 POP SWAP2 SWAP1 POP JUMP JUMPDEST POP JUMP JUMPDEST DUP3 DUP1 SLOAD DUP3 DUP3 SSTORE SWAP1 PUSH1 0x0 MSTORE PUSH1 0x20 PUSH1 0x0 KECCAK256 SWAP1 DUP2 ADD SWAP3 DUP3 ISZERO PUSH2 0x1CF5 JUMPI SWAP2 PUSH1 0x20 MUL DUP3 ADD JUMPDEST DUP3 DUP2 GT ISZERO PUSH2 0x1CF4 JUMPI DUP3 MLOAD DUP3 PUSH1 0x0 PUSH2 0x100 EXP DUP2 SLOAD DUP2 PUSH20 0xFFFFFFFFFFFFFFFFFFFFFFFFFFFFFFFFFFFFFFFF MUL NOT AND SWAP1 DUP4 PUSH20 0xFFFFFFFFFFFFFFFFFFFFFFFFFFFFFFFFFFFFFFFF AND MUL OR SWAP1 SSTORE POP SWAP2 PUSH1 0x20 ADD SWAP2 SWAP1 PUSH1 0x1 ADD SWAP1 PUSH2 0x1C9C JUMP JUMPDEST JUMPDEST POP SWAP1 POP PUSH2 0x1D02 SWAP2 SWAP1 PUSH2 0x1D27 JUMP JUMPDEST POP SWAP1 JUMP JUMPDEST POP DUP1 SLOAD PUSH1 0x0 DUP3 SSTORE SWAP1 PUSH1 0x0 MSTORE PUSH1 0x20 PUSH1 0x0 KECCAK256 SWAP1 DUP2 ADD SWAP1 PUSH2 0x1D24 SWAP2 SWAP1 PUSH2 0x1D27 JUMP JUMPDEST POP JUMP JUMPDEST JUMPDEST DUP1 DUP3 GT ISZERO PUSH2 0x1D40 JUMPI PUSH1 0x0 DUP2 PUSH1 0x0 SWAP1 SSTORE POP PUSH1 0x1 ADD PUSH2 0x1D28 JUMP JUMPDEST POP SWAP1 JUMP JUMPDEST PUSH1 0x0 PUSH2 0xFFFF DUP3 AND SWAP1 POP SWAP2 SWAP1 POP JUMP JUMPDEST PUSH2 0x1D5B DUP2 PUSH2 0x1D44 JUMP JUMPDEST DUP3 MSTORE POP POP JUMP JUMPDEST PUSH1 0x0 PUSH4 0xFFFFFFFF DUP3 AND SWAP1 POP SWAP2 SWAP1 POP JUMP JUMPDEST PUSH2 0x1D7A DUP2 PUSH2 0x1D61 JUMP JUMPDEST DUP3 MSTORE POP POP JUMP JUMPDEST PUSH1 0x0 DUP2 MLOAD SWAP1 POP SWAP2 SWAP1 POP JUMP JUMPDEST PUSH1 0x0 DUP3 DUP3 MSTORE PUSH1 0x20 DUP3 ADD SWAP1 POP SWAP3 SWAP2 POP POP JUMP JUMPDEST PUSH1 0x0 DUP2 SWAP1 POP PUSH1 0x20 DUP3 ADD SWAP1 POP SWAP2 SWAP1 POP JUMP JUMPDEST PUSH1 0x0 DUP2 SWAP1 POP SWAP2 SWAP1 POP JUMP JUMPDEST PUSH2 0x1DBF DUP2 PUSH2 0x1DAC JUMP JUMPDEST DUP3 MSTORE POP POP JUMP JUMPDEST PUSH1 0x0 PUSH2 0x1DD1 DUP4 DUP4 PUSH2 0x1DB6 JUMP JUMPDEST PUSH1 0x20 DUP4 ADD SWAP1 POP SWAP3 SWAP2 POP POP JUMP JUMPDEST PUSH1 0x0 PUSH1 0x20 DUP3 ADD SWAP1 POP SWAP2 SWAP1 POP JUMP JUMPDEST PUSH1 0x0 PUSH2 0x1DF5 DUP3 PUSH2 0x1D80 JUMP JUMPDEST PUSH2 0x1DFF DUP2 DUP6 PUSH2 0x1D8B JUMP JUMPDEST SWAP4 POP PUSH2 0x1E0A DUP4 PUSH2 0x1D9C JUMP JUMPDEST DUP1 PUSH1 0x0 JUMPDEST DUP4 DUP2 LT ISZERO PUSH2 0x1E3B JUMPI DUP2 MLOAD PUSH2 0x1E22 DUP9 DUP3 PUSH2 0x1DC5 JUMP JUMPDEST SWAP8 POP PUSH2 0x1E2D DUP4 PUSH2 0x1DDD JUMP JUMPDEST SWAP3 POP POP PUSH1 0x1 DUP2 ADD SWAP1 POP PUSH2 0x1E0E JUMP JUMPDEST POP DUP6 SWAP4 POP POP POP POP SWAP3 SWAP2 POP POP JUMP JUMPDEST PUSH1 0x0 PUSH1 0x60 DUP3 ADD SWAP1 POP PUSH2 0x1E5D PUSH1 0x0 DUP4 ADD DUP7 PUSH2 0x1D52 JUMP JUMPDEST PUSH2 0x1E6A PUSH1 0x20 DUP4 ADD DUP6 PUSH2 0x1D71 JUMP JUMPDEST DUP2 DUP2 SUB PUSH1 0x40 DUP4 ADD MSTORE PUSH2 0x1E7C DUP2 DUP5 PUSH2 0x1DEA JUMP JUMPDEST SWAP1 POP SWAP5 SWAP4 POP POP POP POP JUMP JUMPDEST PUSH1 0x0 PUSH1 0x40 MLOAD SWAP1 POP SWAP1 JUMP JUMPDEST PUSH1 0x0 DUP1 REVERT JUMPDEST PUSH1 0x0 DUP1 REVERT JUMPDEST PUSH1 0x0 PUSH8 0xFFFFFFFFFFFFFFFF DUP3 AND SWAP1 POP SWAP2 SWAP1 POP JUMP JUMPDEST PUSH2 0x1EB7 DUP2 PUSH2 0x1E9A JUMP JUMPDEST DUP2 EQ PUSH2 0x1EC2 JUMPI PUSH1 0x0 DUP1 REVERT JUMPDEST POP JUMP JUMPDEST PUSH1 0x0 DUP2 CALLDATALOAD SWAP1 POP PUSH2 0x1ED4 DUP2 PUSH2 0x1EAE JUMP JUMPDEST SWAP3 SWAP2 POP POP JUMP JUMPDEST PUSH1 0x0 PUSH20 0xFFFFFFFFFFFFFFFFFFFFFFFFFFFFFFFFFFFFFFFF DUP3 AND SWAP1 POP SWAP2 SWAP1 POP JUMP JUMPDEST PUSH1 0x0 PUSH2 0x1F05 DUP3 PUSH2 0x1EDA JUMP JUMPDEST SWAP1 POP SWAP2 SWAP1 POP JUMP JUMPDEST PUSH2 0x1F15 DUP2 PUSH2 0x1EFA JUMP JUMPDEST DUP2 EQ PUSH2 0x1F20 JUMPI PUSH1 0x0 DUP1 REVERT JUMPDEST POP JUMP JUMPDEST PUSH1 0x0 DUP2 CALLDATALOAD SWAP1 POP PUSH2 0x1F32 DUP2 PUSH2 0x1F0C JUMP JUMPDEST SWAP3 SWAP2 POP POP JUMP JUMPDEST PUSH1 0x0 DUP1 PUSH1 0x40 DUP4 DUP6 SUB SLT ISZERO PUSH2 0x1F4F JUMPI PUSH2 0x1F4E PUSH2 0x1E90 JUMP JUMPDEST JUMPDEST PUSH1 0x0 PUSH2 0x1F5D DUP6 DUP3 DUP7 ADD PUSH2 0x1EC5 JUMP JUMPDEST SWAP3 POP POP PUSH1 0x20 PUSH2 0x1F6E DUP6 DUP3 DUP7 ADD PUSH2 0x1F23 JUMP JUMPDEST SWAP2 POP POP SWAP3 POP SWAP3 SWAP1 POP JUMP JUMPDEST PUSH1 0x0 DUP2 SWAP1 POP SWAP2 SWAP1 POP JUMP JUMPDEST PUSH2 0x1F8B DUP2 PUSH2 0x1F78 JUMP JUMPDEST DUP2 EQ PUSH2 0x1F96 JUMPI PUSH1 0x0 DUP1 REVERT JUMPDEST POP JUMP JUMPDEST PUSH1 0x0 DUP2 CALLDATALOAD SWAP1 POP PUSH2 0x1FA8 DUP2 PUSH2 0x1F82 JUMP JUMPDEST SWAP3 SWAP2 POP POP JUMP JUMPDEST PUSH1 0x0 DUP1 REVERT JUMPDEST PUSH1 0x0 PUSH1 0x1F NOT PUSH1 0x1F DUP4 ADD AND SWAP1 POP SWAP2 SWAP1 POP JUMP JUMPDEST PUSH32 0x4E487B7100000000000000000000000000000000000000000000000000000000 PUSH1 0x0 MSTORE PUSH1 0x41 PUSH1 0x4 MSTORE PUSH1 0x24 PUSH1 0x0 REVERT JUMPDEST PUSH2 0x1FFC DUP3 PUSH2 0x1FB3 JUMP JUMPDEST DUP2 ADD DUP2 DUP2 LT PUSH8 0xFFFFFFFFFFFFFFFF DUP3 GT OR ISZERO PUSH2 0x201B JUMPI PUSH2 0x201A PUSH2 0x1FC4 JUMP JUMPDEST JUMPDEST DUP1 PUSH1 0x40 MSTORE POP POP POP JUMP JUMPDEST PUSH1 0x0 PUSH2 0x202E PUSH2 0x1E86 JUMP JUMPDEST SWAP1 POP PUSH2 0x203A DUP3 DUP3 PUSH2 0x1FF3 JUMP JUMPDEST SWAP2 SWAP1 POP JUMP JUMPDEST PUSH1 0x0 PUSH8 0xFFFFFFFFFFFFFFFF DUP3 GT ISZERO PUSH2 0x205A JUMPI PUSH2 0x2059 PUSH2 0x1FC4 JUMP JUMPDEST JUMPDEST PUSH1 0x20 DUP3 MUL SWAP1 POP PUSH1 0x20 DUP2 ADD SWAP1 POP SWAP2 SWAP1 POP JUMP JUMPDEST PUSH1 0x0 DUP1 REVERT JUMPDEST PUSH1 0x0 PUSH2 0x2083 PUSH2 0x207E DUP5 PUSH2 0x203F JUMP JUMPDEST PUSH2 0x2024 JUMP JUMPDEST SWAP1 POP DUP1 DUP4 DUP3 MSTORE PUSH1 0x20 DUP3 ADD SWAP1 POP PUSH1 0x20 DUP5 MUL DUP4 ADD DUP6 DUP2 GT ISZERO PUSH2 0x20A6 JUMPI PUSH2 0x20A5 PUSH2 0x206B JUMP JUMPDEST JUMPDEST DUP4 JUMPDEST DUP2 DUP2 LT ISZERO PUSH2 0x20CF JUMPI DUP1 PUSH2 0x20BB DUP9 DUP3 PUSH2 0x1F99 JUMP JUMPDEST DUP5 MSTORE PUSH1 0x20 DUP5 ADD SWAP4 POP POP PUSH1 0x20 DUP2 ADD SWAP1 POP PUSH2 0x20A8 JUMP JUMPDEST POP POP POP SWAP4 SWAP3 POP POP POP JUMP JUMPDEST PUSH1 0x0 DUP3 PUSH1 0x1F DUP4 ADD SLT PUSH2 0x20EE JUMPI PUSH2 0x20ED PUSH2 0x1FAE JUMP JUMPDEST JUMPDEST DUP2 CALLDATALOAD PUSH2 0x20FE DUP5 DUP3 PUSH1 0x20 DUP7 ADD PUSH2 0x2070 JUMP JUMPDEST SWAP2 POP POP SWAP3 SWAP2 POP POP JUMP JUMPDEST PUSH1 0x0 DUP1 PUSH1 0x0 PUSH1 0x60 DUP5 DUP7 SUB SLT ISZERO PUSH2 0x2120 JUMPI PUSH2 0x211F PUSH2 0x1E90 JUMP JUMPDEST JUMPDEST PUSH1 0x0 PUSH2 0x212E DUP7 DUP3 DUP8 ADD PUSH2 0x1F99 JUMP JUMPDEST SWAP4 POP POP PUSH1 0x20 PUSH2 0x213F DUP7 DUP3 DUP8 ADD PUSH2 0x1F23 JUMP JUMPDEST SWAP3 POP POP PUSH1 0x40 DUP5 ADD CALLDATALOAD PUSH8 0xFFFFFFFFFFFFFFFF DUP2 GT ISZERO PUSH2 0x2160 JUMPI PUSH2 0x215F PUSH2 0x1E95 JUMP JUMPDEST JUMPDEST PUSH2 0x216C DUP7 DUP3 DUP8 ADD PUSH2 0x20D9 JUMP JUMPDEST SWAP2 POP POP SWAP3 POP SWAP3 POP SWAP3 JUMP JUMPDEST PUSH2 0x217F DUP2 PUSH2 0x1DAC JUMP JUMPDEST DUP2 EQ PUSH2 0x218A JUMPI PUSH1 0x0 DUP1 REVERT JUMPDEST POP JUMP JUMPDEST PUSH1 0x0 DUP2 CALLDATALOAD SWAP1 POP PUSH2 0x219C DUP2 PUSH2 0x2176 JUMP JUMPDEST SWAP3 SWAP2 POP POP JUMP JUMPDEST PUSH2 0x21AB DUP2 PUSH2 0x1D44 JUMP JUMPDEST DUP2 EQ PUSH2 0x21B6 JUMPI PUSH1 0x0 DUP1 REVERT JUMPDEST POP JUMP JUMPDEST PUSH1 0x0 DUP2 CALLDATALOAD SWAP1 POP PUSH2 0x21C8 DUP2 PUSH2 0x21A2 JUMP JUMPDEST SWAP3 SWAP2 POP POP JUMP JUMPDEST PUSH2 0x21D7 DUP2 PUSH2 0x1D61 JUMP JUMPDEST DUP2 EQ PUSH2 0x21E2 JUMPI PUSH1 0x0 DUP1 REVERT JUMPDEST POP JUMP JUMPDEST PUSH1 0x0 DUP2 CALLDATALOAD SWAP1 POP PUSH2 0x21F4 DUP2 PUSH2 0x21CE JUMP JUMPDEST SWAP3 SWAP2 POP POP JUMP JUMPDEST PUSH1 0x0 DUP1 PUSH1 0x0 DUP1 PUSH1 0x0 PUSH1 0xA0 DUP7 DUP9 SUB SLT ISZERO PUSH2 0x2216 JUMPI PUSH2 0x2215 PUSH2 0x1E90 JUMP JUMPDEST JUMPDEST PUSH1 0x0 PUSH2 0x2224 DUP9 DUP3 DUP10 ADD PUSH2 0x218D JUMP JUMPDEST SWAP6 POP POP PUSH1 0x20 PUSH2 0x2235 DUP9 DUP3 DUP10 ADD PUSH2 0x1EC5 JUMP JUMPDEST SWAP5 POP POP PUSH1 0x40 PUSH2 0x2246 DUP9 DUP3 DUP10 ADD PUSH2 0x21B9 JUMP JUMPDEST SWAP4 POP POP PUSH1 0x60 PUSH2 0x2257 DUP9 DUP3 DUP10 ADD PUSH2 0x21E5 JUMP JUMPDEST SWAP3 POP POP PUSH1 0x80 PUSH2 0x2268 DUP9 DUP3 DUP10 ADD PUSH2 0x21E5 JUMP JUMPDEST SWAP2 POP POP SWAP3 SWAP6 POP SWAP3 SWAP6 SWAP1 SWAP4 POP JUMP JUMPDEST PUSH2 0x227E DUP2 PUSH2 0x1F78 JUMP JUMPDEST DUP3 MSTORE POP POP JUMP JUMPDEST PUSH1 0x0 PUSH1 0x20 DUP3 ADD SWAP1 POP PUSH2 0x2299 PUSH1 0x0 DUP4 ADD DUP5 PUSH2 0x2275 JUMP JUMPDEST SWAP3 SWAP2 POP POP JUMP JUMPDEST PUSH1 0x0 PUSH1 0x20 DUP3 DUP5 SUB SLT ISZERO PUSH2 0x22B5 JUMPI PUSH2 0x22B4 PUSH2 0x1E90 JUMP JUMPDEST JUMPDEST PUSH1 0x0 PUSH2 0x22C3 DUP5 DUP3 DUP6 ADD PUSH2 0x1EC5 JUMP JUMPDEST SWAP2 POP POP SWAP3 SWAP2 POP POP JUMP JUMPDEST PUSH2 0x22D5 DUP2 PUSH2 0x1E9A JUMP JUMPDEST DUP3 MSTORE POP POP JUMP JUMPDEST PUSH1 0x0 PUSH1 0x20 DUP3 ADD SWAP1 POP PUSH2 0x22F0 PUSH1 0x0 DUP4 ADD DUP5 PUSH2 0x22CC JUMP JUMPDEST SWAP3 SWAP2 POP POP JUMP JUMPDEST PUSH1 0x0 PUSH12 0xFFFFFFFFFFFFFFFFFFFFFFFF DUP3 AND SWAP1 POP SWAP2 SWAP1 POP JUMP JUMPDEST PUSH2 0x2317 DUP2 PUSH2 0x22F6 JUMP JUMPDEST DUP3 MSTORE POP POP JUMP JUMPDEST PUSH2 0x2326 DUP2 PUSH2 0x1EFA JUMP JUMPDEST DUP3 MSTORE POP POP JUMP JUMPDEST PUSH1 0x0 DUP2 MLOAD SWAP1 POP SWAP2 SWAP1 POP JUMP JUMPDEST PUSH1 0x0 DUP3 DUP3 MSTORE PUSH1 0x20 DUP3 ADD SWAP1 POP SWAP3 SWAP2 POP POP JUMP JUMPDEST PUSH1 0x0 DUP2 SWAP1 POP PUSH1 0x20 DUP3 ADD SWAP1 POP SWAP2 SWAP1 POP JUMP JUMPDEST PUSH2 0x2361 DUP2 PUSH2 0x1EFA JUMP JUMPDEST DUP3 MSTORE POP POP JUMP JUMPDEST PUSH1 0x0 PUSH2 0x2373 DUP4 DUP4 PUSH2 0x2358 JUMP JUMPDEST PUSH1 0x20 DUP4 ADD SWAP1 POP SWAP3 SWAP2 POP POP JUMP JUMPDEST PUSH1 0x0 PUSH1 0x20 DUP3 ADD SWAP1 POP SWAP2 SWAP1 POP JUMP JUMPDEST PUSH1 0x0 PUSH2 0x2397 DUP3 PUSH2 0x232C JUMP JUMPDEST PUSH2 0x23A1 DUP2 DUP6 PUSH2 0x2337 JUMP JUMPDEST SWAP4 POP PUSH2 0x23AC DUP4 PUSH2 0x2348 JUMP JUMPDEST DUP1 PUSH1 0x0 JUMPDEST DUP4 DUP2 LT ISZERO PUSH2 0x23DD JUMPI DUP2 MLOAD PUSH2 0x23C4 DUP9 DUP3 PUSH2 0x2367 JUMP JUMPDEST SWAP8 POP PUSH2 0x23CF DUP4 PUSH2 0x237F JUMP JUMPDEST SWAP3 POP POP PUSH1 0x1 DUP2 ADD SWAP1 POP PUSH2 0x23B0 JUMP JUMPDEST POP DUP6 SWAP4 POP POP POP POP SWAP3 SWAP2 POP POP JUMP JUMPDEST PUSH1 0x0 PUSH1 0x80 DUP3 ADD SWAP1 POP PUSH2 0x23FF PUSH1 0x0 DUP4 ADD DUP8 PUSH2 0x230E JUMP JUMPDEST PUSH2 0x240C PUSH1 0x20 DUP4 ADD DUP7 PUSH2 0x22CC JUMP JUMPDEST PUSH2 0x2419 PUSH1 0x40 DUP4 ADD DUP6 PUSH2 0x231D JUMP JUMPDEST DUP2 DUP2 SUB PUSH1 0x60 DUP4 ADD MSTORE PUSH2 0x242B DUP2 DUP5 PUSH2 0x238C JUMP JUMPDEST SWAP1 POP SWAP6 SWAP5 POP POP POP POP POP JUMP JUMPDEST PUSH2 0x243F DUP2 PUSH2 0x22F6 JUMP JUMPDEST DUP2 EQ PUSH2 0x244A JUMPI PUSH1 0x0 DUP1 REVERT JUMPDEST POP JUMP JUMPDEST PUSH1 0x0 DUP2 CALLDATALOAD SWAP1 POP PUSH2 0x245C DUP2 PUSH2 0x2436 JUMP JUMPDEST SWAP3 SWAP2 POP POP JUMP JUMPDEST PUSH1 0x0 DUP1 PUSH1 0x40 DUP4 DUP6 SUB SLT ISZERO PUSH2 0x2479 JUMPI PUSH2 0x2478 PUSH2 0x1E90 JUMP JUMPDEST JUMPDEST PUSH1 0x0 PUSH2 0x2487 DUP6 DUP3 DUP7 ADD PUSH2 0x1EC5 JUMP JUMPDEST SWAP3 POP POP PUSH1 0x20 PUSH2 0x2498 DUP6 DUP3 DUP7 ADD PUSH2 0x244D JUMP JUMPDEST SWAP2 POP POP SWAP3 POP SWAP3 SWAP1 POP JUMP JUMPDEST PUSH1 0x0 DUP2 ISZERO ISZERO SWAP1 POP SWAP2 SWAP1 POP JUMP JUMPDEST PUSH2 0x24B7 DUP2 PUSH2 0x24A2 JUMP JUMPDEST DUP3 MSTORE POP POP JUMP JUMPDEST PUSH1 0x0 PUSH1 0x20 DUP3 ADD SWAP1 POP PUSH2 0x24D2 PUSH1 0x0 DUP4 ADD DUP5 PUSH2 0x24AE JUMP JUMPDEST SWAP3 SWAP2 POP POP JUMP JUMPDEST PUSH32 0x4E487B7100000000000000000000000000000000000000000000000000000000 PUSH1 0x0 MSTORE PUSH1 0x32 PUSH1 0x4 MSTORE PUSH1 0x24 PUSH1 0x0 REVERT JUMPDEST PUSH1 0x0 DUP3 DUP3 MSTORE PUSH1 0x20 DUP3 ADD SWAP1 POP SWAP3 SWAP2 POP POP JUMP JUMPDEST PUSH32 0x4E6F7420737562736372697074696F6E206F776E657200000000000000000000 PUSH1 0x0 DUP3 ADD MSTORE POP JUMP JUMPDEST PUSH1 0x0 PUSH2 0x254E PUSH1 0x16 DUP4 PUSH2 0x2507 JUMP JUMPDEST SWAP2 POP PUSH2 0x2559 DUP3 PUSH2 0x2518 JUMP JUMPDEST PUSH1 0x20 DUP3 ADD SWAP1 POP SWAP2 SWAP1 POP JUMP JUMPDEST PUSH1 0x0 PUSH1 0x20 DUP3 ADD SWAP1 POP DUP2 DUP2 SUB PUSH1 0x0 DUP4 ADD MSTORE PUSH2 0x257D DUP2 PUSH2 0x2541 JUMP JUMPDEST SWAP1 POP SWAP2 SWAP1 POP JUMP JUMPDEST PUSH1 0x0 DUP2 MLOAD SWAP1 POP SWAP2 SWAP1 POP JUMP JUMPDEST PUSH1 0x0 DUP3 DUP3 MSTORE PUSH1 0x20 DUP3 ADD SWAP1 POP SWAP3 SWAP2 POP POP JUMP JUMPDEST PUSH1 0x0 DUP2 SWAP1 POP PUSH1 0x20 DUP3 ADD SWAP1 POP SWAP2 SWAP1 POP JUMP JUMPDEST PUSH2 0x25B9 DUP2 PUSH2 0x1F78 JUMP JUMPDEST DUP3 MSTORE POP POP JUMP JUMPDEST PUSH1 0x0 PUSH2 0x25CB DUP4 DUP4 PUSH2 0x25B0 JUMP JUMPDEST PUSH1 0x20 DUP4 ADD SWAP1 POP SWAP3 SWAP2 POP POP JUMP JUMPDEST PUSH1 0x0 PUSH1 0x20 DUP3 ADD SWAP1 POP SWAP2 SWAP1 POP JUMP JUMPDEST PUSH1 0x0 PUSH2 0x25EF DUP3 PUSH2 0x2584 JUMP JUMPDEST PUSH2 0x25F9 DUP2 DUP6 PUSH2 0x258F JUMP JUMPDEST SWAP4 POP PUSH2 0x2604 DUP4 PUSH2 0x25A0 JUMP JUMPDEST DUP1 PUSH1 0x0 JUMPDEST DUP4 DUP2 LT ISZERO PUSH2 0x2635 JUMPI DUP2 MLOAD PUSH2 0x261C DUP9 DUP3 PUSH2 0x25BF JUMP JUMPDEST SWAP8 POP PUSH2 0x2627 DUP4 PUSH2 0x25D7 JUMP JUMPDEST SWAP3 POP POP PUSH1 0x1 DUP2 ADD SWAP1 POP PUSH2 0x2608 JUMP JUMPDEST POP DUP6 SWAP4 POP POP POP POP SWAP3 SWAP2 POP POP JUMP JUMPDEST PUSH1 0x0 PUSH1 0x40 DUP3 ADD SWAP1 POP PUSH2 0x2657 PUSH1 0x0 DUP4 ADD DUP6 PUSH2 0x2275 JUMP JUMPDEST DUP2 DUP2 SUB PUSH1 0x20 DUP4 ADD MSTORE PUSH2 0x2669 DUP2 DUP5 PUSH2 0x25E4 JUMP JUMPDEST SWAP1 POP SWAP4 SWAP3 POP POP POP JUMP JUMPDEST PUSH1 0x0 DUP2 SWAP1 POP SWAP2 SWAP1 POP JUMP JUMPDEST PUSH1 0x0 DUP2 SWAP1 POP SWAP2 SWAP1 POP JUMP JUMPDEST PUSH1 0x0 PUSH2 0x26A1 PUSH2 0x269C PUSH2 0x2697 DUP5 PUSH2 0x2672 JUMP JUMPDEST PUSH2 0x267C JUMP JUMPDEST PUSH2 0x22F6 JUMP JUMPDEST SWAP1 POP SWAP2 SWAP1 POP JUMP JUMPDEST PUSH2 0x26B1 DUP2 PUSH2 0x2686 JUMP JUMPDEST DUP3 MSTORE POP POP JUMP JUMPDEST PUSH1 0x0 PUSH1 0x60 DUP3 ADD SWAP1 POP PUSH2 0x26CC PUSH1 0x0 DUP4 ADD DUP7 PUSH2 0x2275 JUMP JUMPDEST PUSH2 0x26D9 PUSH1 0x20 DUP4 ADD DUP6 PUSH2 0x26A8 JUMP JUMPDEST PUSH2 0x26E6 PUSH1 0x40 DUP4 ADD DUP5 PUSH2 0x24AE JUMP JUMPDEST SWAP5 SWAP4 POP POP POP POP JUMP JUMPDEST PUSH32 0x4E487B7100000000000000000000000000000000000000000000000000000000 PUSH1 0x0 MSTORE PUSH1 0x11 PUSH1 0x4 MSTORE PUSH1 0x24 PUSH1 0x0 REVERT JUMPDEST PUSH1 0x0 PUSH2 0x2728 DUP3 PUSH2 0x1F78 JUMP JUMPDEST SWAP2 POP PUSH32 0xFFFFFFFFFFFFFFFFFFFFFFFFFFFFFFFFFFFFFFFFFFFFFFFFFFFFFFFFFFFFFFFF DUP3 SUB PUSH2 0x275A JUMPI PUSH2 0x2759 PUSH2 0x26EE JUMP JUMPDEST JUMPDEST PUSH1 0x1 DUP3 ADD SWAP1 POP SWAP2 SWAP1 POP JUMP JUMPDEST PUSH32 0x4E6F7420617574686F72697A656420636F6E73756D6572000000000000000000 PUSH1 0x0 DUP3 ADD MSTORE POP JUMP JUMPDEST PUSH1 0x0 PUSH2 0x279B PUSH1 0x17 DUP4 PUSH2 0x2507 JUMP JUMPDEST SWAP2 POP PUSH2 0x27A6 DUP3 PUSH2 0x2765 JUMP JUMPDEST PUSH1 0x20 DUP3 ADD SWAP1 POP SWAP2 SWAP1 POP JUMP JUMPDEST PUSH1 0x0 PUSH1 0x20 DUP3 ADD SWAP1 POP DUP2 DUP2 SUB PUSH1 0x0 DUP4 ADD MSTORE PUSH2 0x27CA DUP2 PUSH2 0x278E JUMP JUMPDEST SWAP1 POP SWAP2 SWAP1 POP JUMP JUMPDEST PUSH1 0x0 PUSH2 0x27DC DUP3 PUSH2 0x1E9A JUMP JUMPDEST SWAP2 POP PUSH8 0xFFFFFFFFFFFFFFFF DUP3 SUB PUSH2 0x27F6 JUMPI PUSH2 0x27F5 PUSH2 0x26EE JUMP JUMPDEST JUMPDEST PUSH1 0x1 DUP3 ADD SWAP1 POP SWAP2 SWAP1 POP JUMP JUMPDEST PUSH1 0x0 PUSH1 0xA0 DUP3 ADD SWAP1 POP PUSH2 0x2816 PUSH1 0x0 DUP4 ADD DUP9 PUSH2 0x2275 JUMP JUMPDEST PUSH2 0x2823 PUSH1 0x20 DUP4 ADD DUP8 PUSH2 0x2275 JUMP JUMPDEST PUSH2 0x2830 PUSH1 0x40 DUP4 ADD DUP7 PUSH2 0x1D52 JUMP JUMPDEST PUSH2 0x283D PUSH1 0x60 DUP4 ADD DUP6 PUSH2 0x1D71 JUMP JUMPDEST PUSH2 0x284A PUSH1 0x80 DUP4 ADD DUP5 PUSH2 0x1D71 JUMP JUMPDEST SWAP7 SWAP6 POP POP POP POP POP POP JUMP JUMPDEST PUSH1 0x0 PUSH1 0x20 DUP3 ADD SWAP1 POP PUSH2 0x2869 PUSH1 0x0 DUP4 ADD DUP5 PUSH2 0x231D JUMP JUMPDEST SWAP3 SWAP2 POP POP JUMP JUMPDEST PUSH1 0x0 PUSH2 0x287A DUP3 PUSH2 0x1F78 JUMP JUMPDEST SWAP2 POP PUSH2 0x2885 DUP4 PUSH2 0x1F78 JUMP JUMPDEST SWAP3 POP DUP3 DUP3 SUB SWAP1 POP DUP2 DUP2 GT ISZERO PUSH2 0x289D JUMPI PUSH2 0x289C PUSH2 0x26EE JUMP JUMPDEST JUMPDEST SWAP3 SWAP2 POP POP JUMP JUMPDEST PUSH32 0x4E487B7100000000000000000000000000000000000000000000000000000000 PUSH1 0x0 MSTORE PUSH1 0x31 PUSH1 0x4 MSTORE PUSH1 0x24 PUSH1 0x0 REVERT JUMPDEST PUSH1 0x0 PUSH2 0x28DD DUP3 PUSH2 0x22F6 JUMP JUMPDEST SWAP2 POP PUSH2 0x28E8 DUP4 PUSH2 0x22F6 JUMP JUMPDEST SWAP3 POP DUP3 DUP3 ADD SWAP1 POP PUSH12 0xFFFFFFFFFFFFFFFFFFFFFFFF DUP2 GT ISZERO PUSH2 0x290C JUMPI PUSH2 0x290B PUSH2 0x26EE JUMP JUMPDEST JUMPDEST SWAP3 SWAP2 POP POP JUMP JUMPDEST PUSH1 0x0 PUSH2 0x292D PUSH2 0x2928 PUSH2 0x2923 DUP5 PUSH2 0x22F6 JUMP JUMPDEST PUSH2 0x267C JUMP JUMPDEST PUSH2 0x1F78 JUMP JUMPDEST SWAP1 POP SWAP2 SWAP1 POP JUMP JUMPDEST PUSH2 0x293D DUP2 PUSH2 0x2912 JUMP JUMPDEST DUP3 MSTORE POP POP JUMP JUMPDEST PUSH1 0x0 PUSH1 0x40 DUP3 ADD SWAP1 POP PUSH2 0x2958 PUSH1 0x0 DUP4 ADD DUP6 PUSH2 0x2275 JUMP JUMPDEST PUSH2 0x2965 PUSH1 0x20 DUP4 ADD DUP5 PUSH2 0x2934 JUMP JUMPDEST SWAP4 SWAP3 POP POP POP JUMP JUMPDEST PUSH32 0x57726F6E6720636F6E73756D6572000000000000000000000000000000000000 PUSH1 0x0 DUP3 ADD MSTORE POP JUMP JUMPDEST PUSH1 0x0 PUSH2 0x29A2 PUSH1 0xE DUP4 PUSH2 0x2507 JUMP JUMPDEST SWAP2 POP PUSH2 0x29AD DUP3 PUSH2 0x296C JUMP JUMPDEST PUSH1 0x20 DUP3 ADD SWAP1 POP SWAP2 SWAP1 POP JUMP JUMPDEST PUSH1 0x0 PUSH1 0x20 DUP3 ADD SWAP1 POP DUP2 DUP2 SUB PUSH1 0x0 DUP4 ADD MSTORE PUSH2 0x29D1 DUP2 PUSH2 0x2995 JUMP JUMPDEST SWAP1 POP SWAP2 SWAP1 POP JUMP INVALID LOG2 PUSH5 0x6970667358 0x22 SLT KECCAK256 0x26 DUP4 DUP14 GAS 0x5C 0x2E BASEFEE 0xE0 0x2E 0x4F 0xBF MSTORE 0xED 0xB1 0x4A 0xFB 0xCB CREATE2 LOG0 PUSH24 0x78DC08419C8F2457C356A21564736F6C6343000813003300 "},"methodIdentifiers":{"acceptSubscriptionOwnerTransfer(uint64)":"82359740","addConsumer(uint64,address)":"7341c10c","cancelSubscription(uint64,address)":"d7ae1d30","createSubscription()":"a21a23e4","fulfillRandomWords(uint256,address,uint256[])":"ca7aefd2","fulfillRandomWordsWithOverride(uint256,address,uint256[])":"08e3898e","fundSubscription(uint64,uint96)":"afc69b53","getRequestConfig()":"00012291","getSubscription(uint64)":"a47c7696","pendingRequestExists(uint64)":"e82ad7d4","removeConsumer(uint64,address)":"9f87fad7","requestRandomWords(bytes32,uint64,uint16,uint32,uint32)":"5d3b1d30","requestSubscriptionOwnerTransfer(uint64,address)":"04c357cb"}}}}}