{"src/RandomProofOptimized.sol":{"RandomProofOptimized":{"abi":[{"inputs":[{"internalType":"uint64","name":"subscriptionId","type":"uint64"},{"internalType":"address","name":"vrfCoordinator","type":"address"},{"internalType":"bytes32","name":"keyHash","type":"bytes32"},{"internalType":"uint32","name":"callbackGasLimit","type":"uint32"}],"stateMutability":"nonpayable","type":"constructor"},{"inputs":[{"internalType":"bytes32","name":"entityHashBytes32","type":"bytes32"}],"name":"EntityHashAlreadyProcessed","type":"error"},{"inputs":[],"name":"InvalidEntityHash","type":"error"},{"inputs":[{"internalType":"address","name":"have","type":"address"},{"internalType":"address","name":"want","type":"address"}],"name":"OnlyCoordinatorCanFulfill","type":"error"},{"inputs":[],"name":"RequestNotFound","type":"error"},{"anonymous":false,"inputs":[{"indexed":true,"internalType":"uint256","name":"requestId","type":"uint256"},{"indexed":true,"internalType":"bytes32","name":"entityHashBytes32","type":"bytes32"},{"indexed":false,"internalType":"uint256","name":"randomness","type":"uint256"}],"name":"RandomnessFulfilled","type":"event"},{"anonymous":false,"inputs":[{"indexed":true,"internalType":"uint256","name":"requestId","type":"uint256"},{"indexed":true,"internalType":"bytes32","name":"entityHashBytes32","type":"bytes32"},{"indexed":false,"internalType":"string","name":"entityHash","type":"string"},{"indexed":false,"internalType":"string","name":"salt","type":"string"},{"indexed":true,"internalType":"address","name":"requester","type":"address"}],"name":"RandomnessRequested","type":"event"},{"inputs":[{"internalType":"string","name":"entityHash","type":"string"}],"name":"getRandomnessForEntityHash","outputs":[{"internalType":"uint256","name":"randomness","type":"uint256"},{"internalType":"bool","name":"fulfilled","type":"bool"}],"stateMutability":"view","type":"function"},{"inputs":[{"internalType":"uint256","name":"requestId","type":"uint256"}],"name":"getRequestDetails","outputs":[{"internalType":"bytes32","name":"entityHashBytes32","type":"bytes32"},{"internalType":"bytes32","name":"saltHash","type":"bytes32"},{"internalType":"uint256","name":"randomness","type":"uint256"},{"internalType":"address","name":"requester","type":"address"},{"internalType":"uint32","name":"requestBlock","type":"uint32"},{"internalType":"uint32","name":"fulfilledBlock","type":"uint32"},{"internalType":"bool","name":"fulfilled","type":"bool"}],"stateMutability":"view","type":"function"},{"inputs":[{"internalType":"string","name":"entityHash","type":"string"}],"name":"getRequestIdForEntityHash","outputs":[{"internalType":"uint256","name":"","type":"uint256"}],"stateMutability":"view","type":"function"},{"inputs":[{"internalType":"string","name":"entityHash","type":"string"}],"name":"isEntityHashProcessed","outputs":[{"internalType":"bool","name":"","type":"bool"}],"stateMutability":"view","type":"function"},{"inputs":[{"internalType":"uint256","name":"requestId","type":"uint256"},{"internalType":"uint256[]","name":"randomWords","type":"uint256[]"}],"name":"rawFulfillRandomWords","outputs":[],"stateMutability":"nonpayable","type":"function"},{"inputs":[{"internalType":"string","name":"entityHash","type":"string"},{"internalType":"string","name":"salt","type":"string"}],"name":"requestRandomness","outputs":[{"internalType":"uint256","name":"requestId","type":"uint256"}],"stateMutability":"nonpayable","type":"function"}],"evm":{"bytecode":{"linkReferences":{},"object":"6101206040523480156200001257600080fd5b5060405162001a3a38038062001a3a83398181016040528101906200003891906200029f565b828073ffffffffffffffffffffffffffffffffffffffff1660808173ffffffffffffffffffffffffffffffffffffffff1681525050506200008a678271f933638c465b60c01b6200017160201b60201c565b620000a6672584dbd8b9f28abc60c01b6200017160201b60201c565b8273ffffffffffffffffffffffffffffffffffffffff1660a08173ffffffffffffffffffffffffffffffffffffffff1681525050620000f667da71f026d4158caf60c01b6200017160201b60201c565b8367ffffffffffffffff1660c08167ffffffffffffffff16815250506200012e67340f00316b0ac93060c01b6200017160201b60201c565b8160e081815250506200015267df686bc021aabf7760c01b6200017160201b60201c565b8063ffffffff166101008163ffffffff16815250505050505062000311565b50565b600080fd5b600067ffffffffffffffff82169050919050565b620001988162000179565b8114620001a457600080fd5b50565b600081519050620001b8816200018d565b92915050565b600073ffffffffffffffffffffffffffffffffffffffff82169050919050565b6000620001eb82620001be565b9050919050565b620001fd81620001de565b81146200020957600080fd5b50565b6000815190506200021d81620001f2565b92915050565b6000819050919050565b620002388162000223565b81146200024457600080fd5b50565b60008151905062000258816200022d565b92915050565b600063ffffffff82169050919050565b62000279816200025e565b81146200028557600080fd5b50565b60008151905062000299816200026e565b92915050565b60008060008060808587031215620002bc57620002bb62000174565b5b6000620002cc87828801620001a7565b9450506020620002df878288016200020c565b9350506040620002f28782880162000247565b9250506060620003058782880162000288565b91505092959194509250565b60805160a05160c05160e051610100516116dd6200035d60003960006107c701526000610783015260006107a40152600061074701526000818161017c01526101d001526116dd6000f3fe608060405234801561001057600080fd5b50600436106100625760003560e01c80631fe543e31461006757806345471e7c146100835780639b4f7eee146100b3578063d479ea73146100e4578063db19295c14610114578063f34d4c6314610144575b600080fd5b610081600480360381019061007c919061116b565b61017a565b005b61009d60048036038101906100989190611222565b61023a565b6040516100aa919061128a565b60405180910390f35b6100cd60048036038101906100c89190611222565b6102dd565b6040516100db9291906112b4565b60405180910390f35b6100fe60048036038101906100f991906112dd565b61057a565b60405161010b919061135e565b60405180910390f35b61012e60048036038101906101299190611222565b610a6d565b60405161013b919061135e565b60405180910390f35b61015e60048036038101906101599190611379565b610bd8565b604051610171979695949392919061141f565b60405180910390f35b7f000000000000000000000000000000000000000000000000000000000000000073ffffffffffffffffffffffffffffffffffffffff163373ffffffffffffffffffffffffffffffffffffffff161461022c57337f00000000000000000000000000000000000000000000000000000000000000006040517f1cf993f400000000000000000000000000000000000000000000000000000000815260040161022392919061148e565b60405180910390fd5b6102368282610e4e565b5050565b600061025067a4decdc7f6e84ac360c01b610fc5565b61026467b2449600e44a251560c01b610fc5565b610278676ead59b724157a0960c01b610fc5565b6000838360405161028a9291906114f6565b604051809103902090506102a867490a533f2565a3e260c01b610fc5565b6102bc679601d1173f3e3b3160c01b610fc5565b60006001600083815260200190815260200160002054141591505092915050565b6000806102f467ab68c021df6621ab60c01b610fc5565b6103086781f653303ff4d46960c01b610fc5565b61031c67c4fcdaa3fc93f2a360c01b610fc5565b6000848460405161032e9291906114f6565b6040518091039020905061034c670b84ebc1d10ecb0160c01b610fc5565b6103606760d4a38a2bd172a660c01b610fc5565b60006001600083815260200190815260200160002054905061038c677d1868a4be51eeda60c01b610fc5565b6103a0672f7eac049a94e08060c01b610fc5565b60008103610402576103bc67ec781f3c61e7668c60c01b610fc5565b6103d06752a66cfe67f0908060c01b610fc5565b6040517f4b13b31e00000000000000000000000000000000000000000000000000000000815260040160405180910390fd5b610416672fbd86f538c8860460c01b610fc5565b61042a67c25ea3bfdbd150e060c01b610fc5565b61043e67db1db4347eb883ce60c01b610fc5565b60008060008381526020019081526020016000206040518060e00160405290816000820154815260200160018201548152602001600282015481526020016003820160009054906101000a900473ffffffffffffffffffffffffffffffffffffffff1673ffffffffffffffffffffffffffffffffffffffff1673ffffffffffffffffffffffffffffffffffffffff1681526020016003820160149054906101000a900463ffffffff1663ffffffff1663ffffffff1681526020016003820160189054906101000a900463ffffffff1663ffffffff1663ffffffff16815260200160038201601c9054906101000a900460ff161515151581525050905061054e6737e6c9f8103ee86e60c01b610fc5565b61056267041fb3070ff7e68f60c01b610fc5565b80604001518160c00151945094505050509250929050565b60006105906718093857dc8f302560c01b610fc5565b6105a467a76c0ec92be6f3f860c01b610fc5565b6105b867ed7e5071e496096960c01b610fc5565b6040858590501461061d576105d76752a26ced176a86e760c01b610fc5565b6105eb675447c28c37c8c36760c01b610fc5565b6040517f37ad151f00000000000000000000000000000000000000000000000000000000815260040160405180910390fd5b61063167bbf1cacfcbd5e73160c01b610fc5565b61064567a5ac421b2b048ae260c01b610fc5565b610659675d3e02db9d7e22d160c01b610fc5565b6000858560405161066b9291906114f6565b6040518091039020905061068967a7dfb36c2e9d85a760c01b610fc5565b61069d67b0ee75f5a3eef65160c01b610fc5565b600060016000838152602001908152602001600020541461071d576106cc6724c53b090405494d60c01b610fc5565b6106e0672f82a8cee163653b60c01b610fc5565b806040517f3327991a000000000000000000000000000000000000000000000000000000008152600401610714919061150f565b60405180910390fd5b610731675ee4133d5811178960c01b610fc5565b61074567e3aa200fd863fdaa60c01b610fc5565b7f000000000000000000000000000000000000000000000000000000000000000073ffffffffffffffffffffffffffffffffffffffff16635d3b1d307f00000000000000000000000000000000000000000000000000000000000000007f000000000000000000000000000000000000000000000000000000000000000060037f000000000000000000000000000000000000000000000000000000000000000060016040518663ffffffff1660e01b815260040161080895949392919061156a565b6020604051808303816000875af1158015610827573d6000803e3d6000fd5b505050506040513d601f19601f8201168201806040525081019061084b91906115d2565b9150610861674e03613cdbcf12cc60c01b610fc5565b6040518060e0016040528082815260200185856040516108829291906114f6565b60405180910390208152602001600081526020013373ffffffffffffffffffffffffffffffffffffffff1681526020014363ffffffff168152602001600063ffffffff1681526020016000151581525060008084815260200190815260200160002060008201518160000155602082015181600101556040820151816002015560608201518160030160006101000a81548173ffffffffffffffffffffffffffffffffffffffff021916908373ffffffffffffffffffffffffffffffffffffffff16021790555060808201518160030160146101000a81548163ffffffff021916908363ffffffff16021790555060a08201518160030160186101000a81548163ffffffff021916908363ffffffff16021790555060c082015181600301601c6101000a81548160ff0219169083151502179055509050506109ce67de4bdafc8d0e360460c01b610fc5565b8160016000838152602001908152602001600020819055506109fa6777377fd308bc1b6760c01b610fc5565b610a0e67294332dc5572705860c01b610fc5565b3373ffffffffffffffffffffffffffffffffffffffff1681837f6b75bbef895accb8965222312e858348aa5488b34187da0c9c6056841c7fc6e189898989604051610a5c949392919061163d565b60405180910390a450949350505050565b6000610a83678f6e9b1aa846d89360c01b610fc5565b610a97671708c73483d1d05560c01b610fc5565b610aab678d2328ca0773a46c60c01b610fc5565b60008383604051610abd9291906114f6565b60405180910390209050610adb67de2abcf4423d3df960c01b610fc5565b610aef672f399c4d59facf6660c01b610fc5565b600060016000838152602001908152602001600020549050610b1b67b48f8f8d4fe7034360c01b610fc5565b610b2f67403eb88d5ac6393760c01b610fc5565b60008103610b9157610b4b67ea34f881d30d883c60c01b610fc5565b610b5f67e1b8ad3417ed511c60c01b610fc5565b6040517f4b13b31e00000000000000000000000000000000000000000000000000000000815260040160405180910390fd5b610ba567f5026660cd95442760c01b610fc5565b610bb9672154f4092b4de6de60c01b610fc5565b610bcd671eac5c4fa7edff4560c01b610fc5565b809250505092915050565b6000806000806000806000610bf76711f6fdbab0cc8b2660c01b610fc5565b610c0b672461ea40f4165d3260c01b610fc5565b610c1f67aefb96dd4848d12e60c01b610fc5565b60008060008a81526020019081526020016000206040518060e00160405290816000820154815260200160018201548152602001600282015481526020016003820160009054906101000a900473ffffffffffffffffffffffffffffffffffffffff1673ffffffffffffffffffffffffffffffffffffffff1673ffffffffffffffffffffffffffffffffffffffff1681526020016003820160149054906101000a900463ffffffff1663ffffffff1663ffffffff1681526020016003820160189054906101000a900463ffffffff1663ffffffff1663ffffffff16815260200160038201601c9054906101000a900460ff1615151515815250509050610d2f67264cbbf54598ed4860c01b610fc5565b610d4367483eb7a0cd03c54460c01b610fc5565b600073ffffffffffffffffffffffffffffffffffffffff16816060015173ffffffffffffffffffffffffffffffffffffffff1603610dd557610d8f67c91ab1cab0bf1cae60c01b610fc5565b610da367442fd3a7f5978b6a60c01b610fc5565b6040517f4b13b31e00000000000000000000000000000000000000000000000000000000815260040160405180910390fd5b610de967c829395137293f7e60c01b610fc5565b610dfd672e635369f342f15a60c01b610fc5565b610e11676f39476aae1981c460c01b610fc5565b806000015181602001518260400151836060015184608001518560a001518660c00151975097509750975097509750975050919395979092949650565b610e62672701562b7255346460c01b610fc5565b610e766729d8da86f7be993360c01b610fc5565b610e8a67e307692a7ae593ac60c01b610fc5565b60008060008481526020019081526020016000209050610eb4672bed0179c3d1d48960c01b610fc5565b81600081518110610ec857610ec7611678565b5b60200260200101518160020181905550610eec6754cc7dd4a6186bd560c01b610fc5565b600181600301601c6101000a81548160ff021916908315150217905550610f1d678a08fda3b3f9bd3360c01b610fc5565b438160030160186101000a81548163ffffffff021916908363ffffffff160217905550610f54671cf065d4cae3ad0c60c01b610fc5565b610f68674dbb48d04f313dff60c01b610fc5565b8060000154837fbe3f52bb4df8f041a3e9118a0acf71ddeb18adc6fdb619f10c637273eab05e4284600081518110610fa357610fa2611678565b5b6020026020010151604051610fb8919061135e565b60405180910390a3505050565b50565b6000604051905090565b600080fd5b600080fd5b6000819050919050565b610fef81610fdc565b8114610ffa57600080fd5b50565b60008135905061100c81610fe6565b92915050565b600080fd5b6000601f19601f8301169050919050565b7f4e487b7100000000000000000000000000000000000000000000000000000000600052604160045260246000fd5b61106082611017565b810181811067ffffffffffffffff8211171561107f5761107e611028565b5b80604052505050565b6000611092610fc8565b905061109e8282611057565b919050565b600067ffffffffffffffff8211156110be576110bd611028565b5b602082029050602081019050919050565b600080fd5b60006110e76110e2846110a3565b611088565b9050808382526020820190506020840283018581111561110a576111096110cf565b5b835b81811015611133578061111f8882610ffd565b84526020840193505060208101905061110c565b5050509392505050565b600082601f83011261115257611151611012565b5b81356111628482602086016110d4565b91505092915050565b6000806040838503121561118257611181610fd2565b5b600061119085828601610ffd565b925050602083013567ffffffffffffffff8111156111b1576111b0610fd7565b5b6111bd8582860161113d565b9150509250929050565b600080fd5b60008083601f8401126111e2576111e1611012565b5b8235905067ffffffffffffffff8111156111ff576111fe6111c7565b5b60208301915083600182028301111561121b5761121a6110cf565b5b9250929050565b6000806020838503121561123957611238610fd2565b5b600083013567ffffffffffffffff81111561125757611256610fd7565b5b611263858286016111cc565b92509250509250929050565b60008115159050919050565b6112848161126f565b82525050565b600060208201905061129f600083018461127b565b92915050565b6112ae81610fdc565b82525050565b60006040820190506112c960008301856112a5565b6112d6602083018461127b565b9392505050565b600080600080604085870312156112f7576112f6610fd2565b5b600085013567ffffffffffffffff81111561131557611314610fd7565b5b611321878288016111cc565b9450945050602085013567ffffffffffffffff81111561134457611343610fd7565b5b611350878288016111cc565b925092505092959194509250565b600060208201905061137360008301846112a5565b92915050565b60006020828403121561138f5761138e610fd2565b5b600061139d84828501610ffd565b91505092915050565b6000819050919050565b6113b9816113a6565b82525050565b600073ffffffffffffffffffffffffffffffffffffffff82169050919050565b60006113ea826113bf565b9050919050565b6113fa816113df565b82525050565b600063ffffffff82169050919050565b61141981611400565b82525050565b600060e082019050611434600083018a6113b0565b61144160208301896113b0565b61144e60408301886112a5565b61145b60608301876113f1565b6114686080830186611410565b61147560a0830185611410565b61148260c083018461127b565b98975050505050505050565b60006040820190506114a360008301856113f1565b6114b060208301846113f1565b9392505050565b600081905092915050565b82818337600083830152505050565b60006114dd83856114b7565b93506114ea8385846114c2565b82840190509392505050565b60006115038284866114d1565b91508190509392505050565b600060208201905061152460008301846113b0565b92915050565b600067ffffffffffffffff82169050919050565b6115478161152a565b82525050565b600061ffff82169050919050565b6115648161154d565b82525050565b600060a08201905061157f60008301886113b0565b61158c602083018761153e565b611599604083018661155b565b6115a66060830185611410565b6115b36080830184611410565b9695505050505050565b6000815190506115cc81610fe6565b92915050565b6000602082840312156115e8576115e7610fd2565b5b60006115f6848285016115bd565b91505092915050565b600082825260208201905092915050565b600061161c83856115ff565b93506116298385846114c2565b61163283611017565b840190509392505050565b60006040820190508181036000830152611658818688611610565b9050818103602083015261166d818486611610565b905095945050505050565b7f4e487b7100000000000000000000000000000000000000000000000000000000600052603260045260246000fdfea2646970667358221220689bbb3de956bb92701ba0e2fe2132a398a6b6417a0785351e5c65353c36bda564736f6c63430008130033","opcodes":"PUSH2 0x120 PUSH1 0x40 MSTORE CALLVALUE DUP1 ISZERO PUSH3 0x12 JUMPI PUSH1 0x0 DUP1 REVERT JUMPDEST POP PUSH1 0x40 MLOAD PUSH3 0x1A3A CODESIZE SUB DUP1 PUSH3 0x1A3A DUP4 CODECOPY DUP2 DUP2 ADD PUSH1 0x40 MSTORE DUP2 ADD SWAP1 PUSH3 0x38 SWAP2 SWAP1 PUSH3 0x29F JUMP JUMPDEST DUP3 DUP1 PUSH20 0xFFFFFFFFFFFFFFFFFFFFFFFFFFFFFFFFFFFFFFFF AND PUSH1 0x80 DUP2 PUSH20 0xFFFFFFFFFFFFFFFFFFFFFFFFFFFFFFFFFFFFFFFF AND DUP2 MSTORE POP POP POP PUSH3 0x8A PUSH8 0x8271F933638C465B PUSH1 0xC0 SHL PUSH3 0x171 PUSH1 0x20 SHL PUSH1 0x20 SHR JUMP JUMPDEST PUSH3 0xA6 PUSH8 0x2584DBD8B9F28ABC PUSH1 0xC0 SHL PUSH3 0x171 PUSH1 0x20 SHL PUSH1 0x20 SHR JUMP JUMPDEST DUP3 PUSH20 0xFFFFFFFFFFFFFFFFFFFFFFFFFFFFFFFFFFFFFFFF AND PUSH1 0xA0 DUP2 PUSH20 0xFFFFFFFFFFFFFFFFFFFFFFFFFFFFFFFFFFFFFFFF AND DUP2 MSTORE POP POP PUSH3 0xF6 PUSH8 0xDA71F026D4158CAF PUSH1 0xC0 SHL PUSH3 0x171 PUSH1 0x20 SHL PUSH1 0x20 SHR JUMP JUMPDEST DUP4 PUSH8 0xFFFFFFFFFFFFFFFF AND PUSH1 0xC0 DUP2 PUSH8 0xFFFFFFFFFFFFFFFF AND DUP2 MSTORE POP POP PUSH3 0x12E PUSH8 0x340F00316B0AC930 PUSH1 0xC0 SHL PUSH3 0x171 PUSH1 0x20 SHL PUSH1 0x20 SHR JUMP JUMPDEST DUP2 PUSH1 0xE0 DUP2 DUP2 MSTORE POP POP PUSH3 0x152 PUSH8 0xDF686BC021AABF77 PUSH1 0xC0 SHL PUSH3 0x171 PUSH1 0x20 SHL PUSH1 0x20 SHR JUMP JUMPDEST DUP1 PUSH4 0xFFFFFFFF AND PUSH2 0x100 DUP2 PUSH4 0xFFFFFFFF AND DUP2 MSTORE POP POP POP POP POP POP PUSH3 0x311 JUMP JUMPDEST POP JUMP JUMPDEST PUSH1 0x0 DUP1 REVERT JUMPDEST PUSH1 0x0 PUSH8 0xFFFFFFFFFFFFFFFF DUP3 AND SWAP1 POP SWAP2 SWAP1 POP JUMP JUMPDEST PUSH3 0x198 DUP2 PUSH3 0x179 JUMP JUMPDEST DUP2 EQ PUSH3 0x1A4 JUMPI PUSH1 0x0 DUP1 REVERT JUMPDEST POP JUMP JUMPDEST PUSH1 0x0 DUP2 MLOAD SWAP1 POP PUSH3 0x1B8 DUP2 PUSH3 0x18D JUMP JUMPDEST SWAP3 SWAP2 POP POP JUMP JUMPDEST PUSH1 0x0 PUSH20 0xFFFFFFFFFFFFFFFFFFFFFFFFFFFFFFFFFFFFFFFF DUP3 AND SWAP1 POP SWAP2 SWAP1 POP JUMP JUMPDEST PUSH1 0x0 PUSH3 0x1EB DUP3 PUSH3 0x1BE JUMP JUMPDEST SWAP1 POP SWAP2 SWAP1 POP JUMP JUMPDEST PUSH3 0x1FD DUP2 PUSH3 0x1DE JUMP JUMPDEST DUP2 EQ PUSH3 0x209 JUMPI PUSH1 0x0 DUP1 REVERT JUMPDEST POP JUMP JUMPDEST PUSH1 0x0 DUP2 MLOAD SWAP1 POP PUSH3 0x21D DUP2 PUSH3 0x1F2 JUMP JUMPDEST SWAP3 SWAP2 POP POP JUMP JUMPDEST PUSH1 0x0 DUP2 SWAP1 POP SWAP2 SWAP1 POP JUMP JUMPDEST PUSH3 0x238 DUP2 PUSH3 0x223 JUMP JUMPDEST DUP2 EQ PUSH3 0x244 JUMPI PUSH1 0x0 DUP1 REVERT JUMPDEST POP JUMP JUMPDEST PUSH1 0x0 DUP2 MLOAD SWAP1 POP PUSH3 0x258 DUP2 PUSH3 0x22D JUMP JUMPDEST SWAP3 SWAP2 POP POP JUMP JUMPDEST PUSH1 0x0 PUSH4 0xFFFFFFFF DUP3 AND SWAP1 POP SWAP2 SWAP1 POP JUMP JUMPDEST PUSH3 0x279 DUP2 PUSH3 0x25E JUMP JUMPDEST DUP2 EQ PUSH3 0x285 JUMPI PUSH1 0x0 DUP1 REVERT JUMPDEST POP JUMP JUMPDEST PUSH1 0x0 DUP2 MLOAD SWAP1 POP PUSH3 0x299 DUP2 PUSH3 0x26E JUMP JUMPDEST SWAP3 SWAP2 POP POP JUMP JUMPDEST PUSH1 0x0 DUP1 PUSH1 0x0 DUP1 PUSH1 0x80 DUP6 DUP8 SUB SLT ISZERO PUSH3 0x2BC JUMPI PUSH3 0x2BB PUSH3 0x174 JUMP JUMPDEST JUMPDEST PUSH1 0x0 PUSH3 0x2CC DUP8 DUP3 DUP9 ADD PUSH3 0x1A7 JUMP JUMPDEST SWAP5 POP POP PUSH1 0x20 PUSH3 0x2DF DUP8 DUP3 DUP9 ADD PUSH3 0x20C JUMP JUMPDEST SWAP4 POP POP PUSH1 0x40 PUSH3 0x2F2 DUP8 DUP3 DUP9 ADD PUSH3 0x247 JUMP JUMPDEST SWAP3 POP POP PUSH1 0x60 PUSH3 0x305 DUP8 DUP3 DUP9 ADD PUSH3 0x288 JUMP JUMPDEST SWAP2 POP POP SWAP3 SWAP6 SWAP2 SWAP5 POP SWAP3 POP JUMP JUMPDEST PUSH1 0x80 MLOAD PUSH1 0xA0 MLOAD PUSH1 0xC0 MLOAD PUSH1 0xE0 MLOAD PUSH2 0x100 MLOAD PUSH2 0x16DD PUSH3 0x35D PUSH1 0x0 CODECOPY PUSH1 0x0 PUSH2 0x7C7 ADD MSTORE PUSH1 0x0 PUSH2 0x783 ADD MSTORE PUSH1 0x0 PUSH2 0x7A4 ADD MSTORE PUSH1 0x0 PUSH2 0x747 ADD MSTORE PUSH1 0x0 DUP2 DUP2 PUSH2 0x17C ADD MSTORE PUSH2 0x1D0 ADD MSTORE PUSH2 0x16DD PUSH1 0x0 RETURN INVALID PUSH1 0x80 PUSH1 0x40 MSTORE CALLVALUE DUP1 ISZERO PUSH2 0x10 JUMPI PUSH1 0x0 DUP1 REVERT JUMPDEST POP PUSH1 0x4 CALLDATASIZE LT PUSH2 0x62 JUMPI PUSH1 0x0 CALLDATALOAD PUSH1 0xE0 SHR DUP1 PUSH4 0x1FE543E3 EQ PUSH2 0x67 JUMPI DUP1 PUSH4 0x45471E7C EQ PUSH2 0x83 JUMPI DUP1 PUSH4 0x9B4F7EEE EQ PUSH2 0xB3 JUMPI DUP1 PUSH4 0xD479EA73 EQ PUSH2 0xE4 JUMPI DUP1 PUSH4 0xDB19295C EQ PUSH2 0x114 JUMPI DUP1 PUSH4 0xF34D4C63 EQ PUSH2 0x144 JUMPI JUMPDEST PUSH1 0x0 DUP1 REVERT JUMPDEST PUSH2 0x81 PUSH1 0x4 DUP1 CALLDATASIZE SUB DUP2 ADD SWAP1 PUSH2 0x7C SWAP2 SWAP1 PUSH2 0x116B JUMP JUMPDEST PUSH2 0x17A JUMP JUMPDEST STOP JUMPDEST PUSH2 0x9D PUSH1 0x4 DUP1 CALLDATASIZE SUB DUP2 ADD SWAP1 PUSH2 0x98 SWAP2 SWAP1 PUSH2 0x1222 JUMP JUMPDEST PUSH2 0x23A JUMP JUMPDEST PUSH1 0x40 MLOAD PUSH2 0xAA SWAP2 SWAP1 PUSH2 0x128A JUMP JUMPDEST PUSH1 0x40 MLOAD DUP1 SWAP2 SUB SWAP1 RETURN JUMPDEST PUSH2 0xCD PUSH1 0x4 DUP1 CALLDATASIZE SUB DUP2 ADD SWAP1 PUSH2 0xC8 SWAP2 SWAP1 PUSH2 0x1222 JUMP JUMPDEST PUSH2 0x2DD JUMP JUMPDEST PUSH1 0x40 MLOAD PUSH2 0xDB SWAP3 SWAP2 SWAP1 PUSH2 0x12B4 JUMP JUMPDEST PUSH1 0x40 MLOAD DUP1 SWAP2 SUB SWAP1 RETURN JUMPDEST PUSH2 0xFE PUSH1 0x4 DUP1 CALLDATASIZE SUB DUP2 ADD SWAP1 PUSH2 0xF9 SWAP2 SWAP1 PUSH2 0x12DD JUMP JUMPDEST PUSH2 0x57A JUMP JUMPDEST PUSH1 0x40 MLOAD PUSH2 0x10B SWAP2 SWAP1 PUSH2 0x135E JUMP JUMPDEST PUSH1 0x40 MLOAD DUP1 SWAP2 SUB SWAP1 RETURN JUMPDEST PUSH2 0x12E PUSH1 0x4 DUP1 CALLDATASIZE SUB DUP2 ADD SWAP1 PUSH2 0x129 SWAP2 SWAP1 PUSH2 0x1222 JUMP JUMPDEST PUSH2 0xA6D JUMP JUMPDEST PUSH1 0x40 MLOAD PUSH2 0x13B SWAP2 SWAP1 PUSH2 0x135E JUMP JUMPDEST PUSH1 0x40 MLOAD DUP1 SWAP2 SUB SWAP1 RETURN JUMPDEST PUSH2 0x15E PUSH1 0x4 DUP1 CALLDATASIZE SUB DUP2 ADD SWAP1 PUSH2 0x159 SWAP2 SWAP1 PUSH2 0x1379 JUMP JUMPDEST PUSH2 0xBD8 JUMP JUMPDEST PUSH1 0x40 MLOAD PUSH2 0x171 SWAP8 SWAP7 SWAP6 SWAP5 SWAP4 SWAP3 SWAP2 SWAP1 PUSH2 0x141F JUMP JUMPDEST PUSH1 0x40 MLOAD DUP1 SWAP2 SUB SWAP1 RETURN JUMPDEST PUSH32 0x0 PUSH20 0xFFFFFFFFFFFFFFFFFFFFFFFFFFFFFFFFFFFFFFFF AND CALLER PUSH20 0xFFFFFFFFFFFFFFFFFFFFFFFFFFFFFFFFFFFFFFFF AND EQ PUSH2 0x22C JUMPI CALLER PUSH32 0x0 PUSH1 0x40 MLOAD PUSH32 0x1CF993F400000000000000000000000000000000000000000000000000000000 DUP2 MSTORE PUSH1 0x4 ADD PUSH2 0x223 SWAP3 SWAP2 SWAP1 PUSH2 0x148E JUMP JUMPDEST PUSH1 0x40 MLOAD DUP1 SWAP2 SUB SWAP1 REVERT JUMPDEST PUSH2 0x236 DUP3 DUP3 PUSH2 0xE4E JUMP JUMPDEST POP POP JUMP JUMPDEST PUSH1 0x0 PUSH2 0x250 PUSH8 0xA4DECDC7F6E84AC3 PUSH1 0xC0 SHL PUSH2 0xFC5 JUMP JUMPDEST PUSH2 0x264 PUSH8 0xB2449600E44A2515 PUSH1 0xC0 SHL PUSH2 0xFC5 JUMP JUMPDEST PUSH2 0x278 PUSH8 0x6EAD59B724157A09 PUSH1 0xC0 SHL PUSH2 0xFC5 JUMP JUMPDEST PUSH1 0x0 DUP4 DUP4 PUSH1 0x40 MLOAD PUSH2 0x28A SWAP3 SWAP2 SWAP1 PUSH2 0x14F6 JUMP JUMPDEST PUSH1 0x40 MLOAD DUP1 SWAP2 SUB SWAP1 KECCAK256 SWAP1 POP PUSH2 0x2A8 PUSH8 0x490A533F2565A3E2 PUSH1 0xC0 SHL PUSH2 0xFC5 JUMP JUMPDEST PUSH2 0x2BC PUSH8 0x9601D1173F3E3B31 PUSH1 0xC0 SHL PUSH2 0xFC5 JUMP JUMPDEST PUSH1 0x0 PUSH1 0x1 PUSH1 0x0 DUP4 DUP2 MSTORE PUSH1 0x20 ADD SWAP1 DUP2 MSTORE PUSH1 0x20 ADD PUSH1 0x0 KECCAK256 SLOAD EQ ISZERO SWAP2 POP POP SWAP3 SWAP2 POP POP JUMP JUMPDEST PUSH1 0x0 DUP1 PUSH2 0x2F4 PUSH8 0xAB68C021DF6621AB PUSH1 0xC0 SHL PUSH2 0xFC5 JUMP JUMPDEST PUSH2 0x308 PUSH8 0x81F653303FF4D469 PUSH1 0xC0 SHL PUSH2 0xFC5 JUMP JUMPDEST PUSH2 0x31C PUSH8 0xC4FCDAA3FC93F2A3 PUSH1 0xC0 SHL PUSH2 0xFC5 JUMP JUMPDEST PUSH1 0x0 DUP5 DUP5 PUSH1 0x40 MLOAD PUSH2 0x32E SWAP3 SWAP2 SWAP1 PUSH2 0x14F6 JUMP JUMPDEST PUSH1 0x40 MLOAD DUP1 SWAP2 SUB SWAP1 KECCAK256 SWAP1 POP PUSH2 0x34C PUSH8 0xB84EBC1D10ECB01 PUSH1 0xC0 SHL PUSH2 0xFC5 JUMP JUMPDEST PUSH2 0x360 PUSH8 0x60D4A38A2BD172A6 PUSH1 0xC0 SHL PUSH2 0xFC5 JUMP JUMPDEST PUSH1 0x0 PUSH1 0x1 PUSH1 0x0 DUP4 DUP2 MSTORE PUSH1 0x20 ADD SWAP1 DUP2 MSTORE PUSH1 0x20 ADD PUSH1 0x0 KECCAK256 SLOAD SWAP1 POP PUSH2 0x38C PUSH8 0x7D1868A4BE51EEDA PUSH1 0xC0 SHL PUSH2 0xFC5 JUMP JUMPDEST PUSH2 0x3A0 PUSH8 0x2F7EAC049A94E080 PUSH1 0xC0 SHL PUSH2 0xFC5 JUMP JUMPDEST PUSH1 0x0 DUP2 SUB PUSH2 0x402 JUMPI PUSH2 0x3BC PUSH8 0xEC781F3C61E7668C PUSH1 0xC0 SHL PUSH2 0xFC5 JUMP JUMPDEST PUSH2 0x3D0 PUSH8 0x52A66CFE67F09080 PUSH1 0xC0 SHL PUSH2 0xFC5 JUMP JUMPDEST PUSH1 0x40 MLOAD PUSH32 0x4B13B31E00000000000000000000000000000000000000000000000000000000 DUP2 MSTORE PUSH1 0x4 ADD PUSH1 0x40 MLOAD DUP1 SWAP2 SUB SWAP1 REVERT JUMPDEST PUSH2 0x416 PUSH8 0x2FBD86F538C88604 PUSH1 0xC0 SHL PUSH2 0xFC5 JUMP JUMPDEST PUSH2 0x42A PUSH8 0xC25EA3BFDBD150E0 PUSH1 0xC0 SHL PUSH2 0xFC5 JUMP JUMPDEST PUSH2 0x43E PUSH8 0xDB1DB4347EB883CE PUSH1 0xC0 SHL PUSH2 0xFC5 JUMP JUMPDEST PUSH1 0x0 DUP1 PUSH1 0x0 DUP4 DUP2 MSTORE PUSH1 0x20 ADD SWAP1 DUP2 MSTORE PUSH1 0x20 ADD PUSH1 0x0 KECCAK256 PUSH1 0x40 MLOAD DUP1 PUSH1 0xE0 ADD PUSH1 0x40 MSTORE SWAP1 DUP2 PUSH1 0x0 DUP3 ADD SLOAD DUP2 MSTORE PUSH1 0x20 ADD PUSH1 0x1 DUP3 ADD SLOAD DUP2 MSTORE PUSH1 0x20 ADD PUSH1 0x2 DUP3 ADD SLOAD DUP2 MSTORE PUSH1 0x20 ADD PUSH1 0x3 DUP3 ADD PUSH1 0x0 SWAP1 SLOAD SWAP1 PUSH2 0x100 EXP SWAP1 DIV PUSH20 0xFFFFFFFFFFFFFFFFFFFFFFFFFFFFFFFFFFFFFFFF AND PUSH20 0xFFFFFFFFFFFFFFFFFFFFFFFFFFFFFFFFFFFFFFFF AND PUSH20 0xFFFFFFFFFFFFFFFFFFFFFFFFFFFFFFFFFFFFFFFF AND DUP2 MSTORE PUSH1 0x20 ADD PUSH1 0x3 DUP3 ADD PUSH1 0x14 SWAP1 SLOAD SWAP1 PUSH2 0x100 EXP SWAP1 DIV PUSH4 0xFFFFFFFF AND PUSH4 0xFFFFFFFF AND PUSH4 0xFFFFFFFF AND DUP2 MSTORE PUSH1 0x20 ADD PUSH1 0x3 DUP3 ADD PUSH1 0x18 SWAP1 SLOAD SWAP1 PUSH2 0x100 EXP SWAP1 DIV PUSH4 0xFFFFFFFF AND PUSH4 0xFFFFFFFF AND PUSH4 0xFFFFFFFF AND DUP2 MSTORE PUSH1 0x20 ADD PUSH1 0x3 DUP3 ADD PUSH1 0x1C SWAP1 SLOAD SWAP1 PUSH2 0x100 EXP SWAP1 DIV PUSH1 0xFF AND ISZERO ISZERO ISZERO ISZERO DUP2 MSTORE POP POP SWAP1 POP PUSH2 0x54E PUSH8 0x37E6C9F8103EE86E PUSH1 0xC0 SHL PUSH2 0xFC5 JUMP JUMPDEST PUSH2 0x562 PUSH8 0x41FB3070FF7E68F PUSH1 0xC0 SHL PUSH2 0xFC5 JUMP JUMPDEST DUP1 PUSH1 0x40 ADD MLOAD DUP2 PUSH1 0xC0 ADD MLOAD SWAP5 POP SWAP5 POP POP POP POP SWAP3 POP SWAP3 SWAP1 POP JUMP JUMPDEST PUSH1 0x0 PUSH2 0x590 PUSH8 0x18093857DC8F3025 PUSH1 0xC0 SHL PUSH2 0xFC5 JUMP JUMPDEST PUSH2 0x5A4 PUSH8 0xA76C0EC92BE6F3F8 PUSH1 0xC0 SHL PUSH2 0xFC5 JUMP JUMPDEST PUSH2 0x5B8 PUSH8 0xED7E5071E4960969 PUSH1 0xC0 SHL PUSH2 0xFC5 JUMP JUMPDEST PUSH1 0x40 DUP6 DUP6 SWAP1 POP EQ PUSH2 0x61D JUMPI PUSH2 0x5D7 PUSH8 0x52A26CED176A86E7 PUSH1 0xC0 SHL PUSH2 0xFC5 JUMP JUMPDEST PUSH2 0x5EB PUSH8 0x5447C28C37C8C367 PUSH1 0xC0 SHL PUSH2 0xFC5 JUMP JUMPDEST PUSH1 0x40 MLOAD PUSH32 0x37AD151F00000000000000000000000000000000000000000000000000000000 DUP2 MSTORE PUSH1 0x4 ADD PUSH1 0x40 MLOAD DUP1 SWAP2 SUB SWAP1 REVERT JUMPDEST PUSH2 0x631 PUSH8 0xBBF1CACFCBD5E731 PUSH1 0xC0 SHL PUSH2 0xFC5 JUMP JUMPDEST PUSH2 0x645 PUSH8 0xA5AC421B2B048AE2 PUSH1 0xC0 SHL PUSH2 0xFC5 JUMP JUMPDEST PUSH2 0x659 PUSH8 0x5D3E02DB9D7E22D1 PUSH1 0xC0 SHL PUSH2 0xFC5 JUMP JUMPDEST PUSH1 0x0 DUP6 DUP6 PUSH1 0x40 MLOAD PUSH2 0x66B SWAP3 SWAP2 SWAP1 PUSH2 0x14F6 JUMP JUMPDEST PUSH1 0x40 MLOAD DUP1 SWAP2 SUB SWAP1 KECCAK256 SWAP1 POP PUSH2 0x689 PUSH8 0xA7DFB36C2E9D85A7 PUSH1 0xC0 SHL PUSH2 0xFC5 JUMP JUMPDEST PUSH2 0x69D PUSH8 0xB0EE75F5A3EEF651 PUSH1 0xC0 SHL PUSH2 0xFC5 JUMP JUMPDEST PUSH1 0x0 PUSH1 0x1 PUSH1 0x0 DUP4 DUP2 MSTORE PUSH1 0x20 ADD SWAP1 DUP2 MSTORE PUSH1 0x20 ADD PUSH1 0x0 KECCAK256 SLOAD EQ PUSH2 0x71D JUMPI PUSH2 0x6CC PUSH8 0x24C53B090405494D PUSH1 0xC0 SHL PUSH2 0xFC5 JUMP JUMPDEST PUSH2 0x6E0 PUSH8 0x2F82A8CEE163653B PUSH1 0xC0 SHL PUSH2 0xFC5 JUMP JUMPDEST DUP1 PUSH1 0x40 MLOAD PUSH32 0x3327991A00000000000000000000000000000000000000000000000000000000 DUP2 MSTORE PUSH1 0x4 ADD PUSH2 0x714 SWAP2 SWAP1 PUSH2 0x150F JUMP JUMPDEST PUSH1 0x40 MLOAD DUP1 SWAP2 SUB SWAP1 REVERT JUMPDEST PUSH2 0x731 PUSH8 0x5EE4133D58111789 PUSH1 0xC0 SHL PUSH2 0xFC5 JUMP JUMPDEST PUSH2 0x745 PUSH8 0xE3AA200FD863FDAA PUSH1 0xC0 SHL PUSH2 0xFC5 JUMP JUMPDEST PUSH32 0x0 PUSH20 0xFFFFFFFFFFFFFFFFFFFFFFFFFFFFFFFFFFFFFFFF AND PUSH4 0x5D3B1D30 PUSH32 0x0 PUSH32 0x0 PUSH1 0x3 PUSH32 0x0 PUSH1 0x1 PUSH1 0x40 MLOAD DUP7 PUSH4 0xFFFFFFFF AND PUSH1 0xE0 SHL DUP2 MSTORE PUSH1 0x4 ADD PUSH2 0x808 SWAP6 SWAP5 SWAP4 SWAP3 SWAP2 SWAP1 PUSH2 0x156A JUMP JUMPDEST PUSH1 0x20 PUSH1 0x40 MLOAD DUP1 DUP4 SUB DUP2 PUSH1 0x0 DUP8 GAS CALL ISZERO DUP1 ISZERO PUSH2 0x827 JUMPI RETURNDATASIZE PUSH1 0x0 DUP1 RETURNDATACOPY RETURNDATASIZE PUSH1 0x0 REVERT JUMPDEST POP POP POP POP PUSH1 0x40 MLOAD RETURNDATASIZE PUSH1 0x1F NOT PUSH1 0x1F DUP3 ADD AND DUP3 ADD DUP1 PUSH1 0x40 MSTORE POP DUP2 ADD SWAP1 PUSH2 0x84B SWAP2 SWAP1 PUSH2 0x15D2 JUMP JUMPDEST SWAP2 POP PUSH2 0x861 PUSH8 0x4E03613CDBCF12CC PUSH1 0xC0 SHL PUSH2 0xFC5 JUMP JUMPDEST PUSH1 0x40 MLOAD DUP1 PUSH1 0xE0 ADD PUSH1 0x40 MSTORE DUP1 DUP3 DUP2 MSTORE PUSH1 0x20 ADD DUP6 DUP6 PUSH1 0x40 MLOAD PUSH2 0x882 SWAP3 SWAP2 SWAP1 PUSH2 0x14F6 JUMP JUMPDEST PUSH1 0x40 MLOAD DUP1 SWAP2 SUB SWAP1 KECCAK256 DUP2 MSTORE PUSH1 0x20 ADD PUSH1 0x0 DUP2 MSTORE PUSH1 0x20 ADD CALLER PUSH20 0xFFFFFFFFFFFFFFFFFFFFFFFFFFFFFFFFFFFFFFFF AND DUP2 MSTORE PUSH1 0x20 ADD NUMBER PUSH4 0xFFFFFFFF AND DUP2 MSTORE PUSH1 0x20 ADD PUSH1 0x0 PUSH4 0xFFFFFFFF AND DUP2 MSTORE PUSH1 0x20 ADD PUSH1 0x0 ISZERO ISZERO DUP2 MSTORE POP PUSH1 0x0 DUP1 DUP5 DUP2 MSTORE PUSH1 0x20 ADD SWAP1 DUP2 MSTORE PUSH1 0x20 ADD PUSH1 0x0 KECCAK256 PUSH1 0x0 DUP3 ADD MLOAD DUP2 PUSH1 0x0 ADD SSTORE PUSH1 0x20 DUP3 ADD MLOAD DUP2 PUSH1 0x1 ADD SSTORE PUSH1 0x40 DUP3 ADD MLOAD DUP2 PUSH1 0x2 ADD SSTORE PUSH1 0x60 DUP3 ADD MLOAD DUP2 PUSH1 0x3 ADD PUSH1 0x0 PUSH2 0x100 EXP DUP2 SLOAD DUP2 PUSH20 0xFFFFFFFFFFFFFFFFFFFFFFFFFFFFFFFFFFFFFFFF MUL NOT AND SWAP1 DUP4 PUSH20 0xFFFFFFFFFFFFFFFFFFFFFFFFFFFFFFFFFFFFFFFF AND MUL OR SWAP1 SSTORE POP PUSH1 0x80 DUP3 ADD MLOAD DUP2 PUSH1 0x3 ADD PUSH1 0x14 PUSH2 0x100 EXP DUP2 SLOAD DUP2 PUSH4 0xFFFFFFFF MUL NOT AND SWAP1 DUP4 PUSH4 0xFFFFFFFF AND MUL OR SWAP1 SSTORE POP PUSH1 0xA0 DUP3 ADD MLOAD DUP2 PUSH1 0x3 ADD PUSH1 0x18 PUSH2 0x100 EXP DUP2 SLOAD DUP2 PUSH4 0xFFFFFFFF MUL NOT AND SWAP1 DUP4 PUSH4 0xFFFFFFFF AND MUL OR SWAP1 SSTORE POP PUSH1 0xC0 DUP3 ADD MLOAD DUP2 PUSH1 0x3 ADD PUSH1 0x1C PUSH2 0x100 EXP DUP2 SLOAD DUP2 PUSH1 0xFF MUL NOT AND SWAP1 DUP4 ISZERO ISZERO MUL OR SWAP1 SSTORE POP SWAP1 POP POP PUSH2 0x9CE PUSH8 0xDE4BDAFC8D0E3604 PUSH1 0xC0 SHL PUSH2 0xFC5 JUMP JUMPDEST DUP2 PUSH1 0x1 PUSH1 0x0 DUP4 DUP2 MSTORE PUSH1 0x20 ADD SWAP1 DUP2 MSTORE PUSH1 0x20 ADD PUSH1 0x0 KECCAK256 DUP2 SWAP1 SSTORE POP PUSH2 0x9FA PUSH8 0x77377FD308BC1B67 PUSH1 0xC0 SHL PUSH2 0xFC5 JUMP JUMPDEST PUSH2 0xA0E PUSH8 0x294332DC55727058 PUSH1 0xC0 SHL PUSH2 0xFC5 JUMP JUMPDEST CALLER PUSH20 0xFFFFFFFFFFFFFFFFFFFFFFFFFFFFFFFFFFFFFFFF AND DUP2 DUP4 PUSH32 0x6B75BBEF895ACCB8965222312E858348AA5488B34187DA0C9C6056841C7FC6E1 DUP10 DUP10 DUP10 DUP10 PUSH1 0x40 MLOAD PUSH2 0xA5C SWAP5 SWAP4 SWAP3 SWAP2 SWAP1 PUSH2 0x163D JUMP JUMPDEST PUSH1 0x40 MLOAD DUP1 SWAP2 SUB SWAP1 LOG4 POP SWAP5 SWAP4 POP POP POP POP JUMP JUMPDEST PUSH1 0x0 PUSH2 0xA83 PUSH8 0x8F6E9B1AA846D893 PUSH1 0xC0 SHL PUSH2 0xFC5 JUMP JUMPDEST PUSH2 0xA97 PUSH8 0x1708C73483D1D055 PUSH1 0xC0 SHL PUSH2 0xFC5 JUMP JUMPDEST PUSH2 0xAAB PUSH8 0x8D2328CA0773A46C PUSH1 0xC0 SHL PUSH2 0xFC5 JUMP JUMPDEST PUSH1 0x0 DUP4 DUP4 PUSH1 0x40 MLOAD PUSH2 0xABD SWAP3 SWAP2 SWAP1 PUSH2 0x14F6 JUMP JUMPDEST PUSH1 0x40 MLOAD DUP1 SWAP2 SUB SWAP1 KECCAK256 SWAP1 POP PUSH2 0xADB PUSH8 0xDE2ABCF4423D3DF9 PUSH1 0xC0 SHL PUSH2 0xFC5 JUMP JUMPDEST PUSH2 0xAEF PUSH8 0x2F399C4D59FACF66 PUSH1 0xC0 SHL PUSH2 0xFC5 JUMP JUMPDEST PUSH1 0x0 PUSH1 0x1 PUSH1 0x0 DUP4 DUP2 MSTORE PUSH1 0x20 ADD SWAP1 DUP2 MSTORE PUSH1 0x20 ADD PUSH1 0x0 KECCAK256 SLOAD SWAP1 POP PUSH2 0xB1B PUSH8 0xB48F8F8D4FE70343 PUSH1 0xC0 SHL PUSH2 0xFC5 JUMP JUMPDEST PUSH2 0xB2F PUSH8 0x403EB88D5AC63937 PUSH1 0xC0 SHL PUSH2 0xFC5 JUMP JUMPDEST PUSH1 0x0 DUP2 SUB PUSH2 0xB91 JUMPI PUSH2 0xB4B PUSH8 0xEA34F881D30D883C PUSH1 0xC0 SHL PUSH2 0xFC5 JUMP JUMPDEST PUSH2 0xB5F PUSH8 0xE1B8AD3417ED511C PUSH1 0xC0 SHL PUSH2 0xFC5 JUMP JUMPDEST PUSH1 0x40 MLOAD PUSH32 0x4B13B31E00000000000000000000000000000000000000000000000000000000 DUP2 MSTORE PUSH1 0x4 ADD PUSH1 0x40 MLOAD DUP1 SWAP2 SUB SWAP1 REVERT JUMPDEST PUSH2 0xBA5 PUSH8 0xF5026660CD954427 PUSH1 0xC0 SHL PUSH2 0xFC5 JUMP JUMPDEST PUSH2 0xBB9 PUSH8 0x2154F4092B4DE6DE PUSH1 0xC0 SHL PUSH2 0xFC5 JUMP JUMPDEST PUSH2 0xBCD PUSH8 0x1EAC5C4FA7EDFF45 PUSH1 0xC0 SHL PUSH2 0xFC5 JUMP JUMPDEST DUP1 SWAP3 POP POP POP SWAP3 SWAP2 POP POP JUMP JUMPDEST PUSH1 0x0 DUP1 PUSH1 0x0 DUP1 PUSH1 0x0 DUP1 PUSH1 0x0 PUSH2 0xBF7 PUSH8 0x11F6FDBAB0CC8B26 PUSH1 0xC0 SHL PUSH2 0xFC5 JUMP JUMPDEST PUSH2 0xC0B PUSH8 0x2461EA40F4165D32 PUSH1 0xC0 SHL PUSH2 0xFC5 JUMP JUMPDEST PUSH2 0xC1F PUSH8 0xAEFB96DD4848D12E PUSH1 0xC0 SHL PUSH2 0xFC5 JUMP JUMPDEST PUSH1 0x0 DUP1 PUSH1 0x0 DUP11 DUP2 MSTORE PUSH1 0x20 ADD SWAP1 DUP2 MSTORE PUSH1 0x20 ADD PUSH1 0x0 KECCAK256 PUSH1 0x40 MLOAD DUP1 PUSH1 0xE0 ADD PUSH1 0x40 MSTORE SWAP1 DUP2 PUSH1 0x0 DUP3 ADD SLOAD DUP2 MSTORE PUSH1 0x20 ADD PUSH1 0x1 DUP3 ADD SLOAD DUP2 MSTORE PUSH1 0x20 ADD PUSH1 0x2 DUP3 ADD SLOAD DUP2 MSTORE PUSH1 0x20 ADD PUSH1 0x3 DUP3 ADD PUSH1 0x0 SWAP1 SLOAD SWAP1 PUSH2 0x100 EXP SWAP1 DIV PUSH20 0xFFFFFFFFFFFFFFFFFFFFFFFFFFFFFFFFFFFFFFFF AND PUSH20 0xFFFFFFFFFFFFFFFFFFFFFFFFFFFFFFFFFFFFFFFF AND PUSH20 0xFFFFFFFFFFFFFFFFFFFFFFFFFFFFFFFFFFFFFFFF AND DUP2 MSTORE PUSH1 0x20 ADD PUSH1 0x3 DUP3 ADD PUSH1 0x14 SWAP1 SLOAD SWAP1 PUSH2 0x100 EXP SWAP1 DIV PUSH4 0xFFFFFFFF AND PUSH4 0xFFFFFFFF AND PUSH4 0xFFFFFFFF AND DUP2 MSTORE PUSH1 0x20 ADD PUSH1 0x3 DUP3 ADD PUSH1 0x18 SWAP1 SLOAD SWAP1 PUSH2 0x100 EXP SWAP1 DIV PUSH4 0xFFFFFFFF AND PUSH4 0xFFFFFFFF AND PUSH4 0xFFFFFFFF AND DUP2 MSTORE PUSH1 0x20 ADD PUSH1 0x3 DUP3 ADD PUSH1 0x1C SWAP1 SLOAD SWAP1 PUSH2 0x100 EXP SWAP1 DIV PUSH1 0xFF AND ISZERO ISZERO ISZERO ISZERO DUP2 MSTORE POP POP SWAP1 POP PUSH2 0xD2F PUSH8 0x264CBBF54598ED48 PUSH1 0xC0 SHL PUSH2 0xFC5 JUMP JUMPDEST PUSH2 0xD43 PUSH8 0x483EB7A0CD03C544 PUSH1 0xC0 SHL PUSH2 0xFC5 JUMP JUMPDEST PUSH1 0x0 PUSH20 0xFFFFFFFFFFFFFFFFFFFFFFFFFFFFFFFFFFFFFFFF AND DUP2 PUSH1 0x60 ADD MLOAD PUSH20 0xFFFFFFFFFFFFFFFFFFFFFFFFFFFFFFFFFFFFFFFF AND SUB PUSH2 0xDD5 JUMPI PUSH2 0xD8F PUSH8 0xC91AB1CAB0BF1CAE PUSH1 0xC0 SHL PUSH2 0xFC5 JUMP JUMPDEST PUSH2 0xDA3 PUSH8 0x442FD3A7F5978B6A PUSH1 0xC0 SHL PUSH2 0xFC5 JUMP JUMPDEST PUSH1 0x40 MLOAD PUSH32 0x4B13B31E00000000000000000000000000000000000000000000000000000000 DUP2 MSTORE PUSH1 0x4 ADD PUSH1 0x40 MLOAD DUP1 SWAP2 SUB SWAP1 REVERT JUMPDEST PUSH2 0xDE9 PUSH8 0xC829395137293F7E PUSH1 0xC0 SHL PUSH2 0xFC5 JUMP JUMPDEST PUSH2 0xDFD PUSH8 0x2E635369F342F15A PUSH1 0xC0 SHL PUSH2 0xFC5 JUMP JUMPDEST PUSH2 0xE11 PUSH8 0x6F39476AAE1981C4 PUSH1 0xC0 SHL PUSH2 0xFC5 JUMP JUMPDEST DUP1 PUSH1 0x0 ADD MLOAD DUP2 PUSH1 0x20 ADD MLOAD DUP3 PUSH1 0x40 ADD MLOAD DUP4 PUSH1 0x60 ADD MLOAD DUP5 PUSH1 0x80 ADD MLOAD DUP6 PUSH1 0xA0 ADD MLOAD DUP7 PUSH1 0xC0 ADD MLOAD SWAP8 POP SWAP8 POP SWAP8 POP SWAP8 POP SWAP8 POP SWAP8 POP SWAP8 POP POP SWAP2 SWAP4 SWAP6 SWAP8 SWAP1 SWAP3 SWAP5 SWAP7 POP JUMP JUMPDEST PUSH2 0xE62 PUSH8 0x2701562B72553464 PUSH1 0xC0 SHL PUSH2 0xFC5 JUMP JUMPDEST PUSH2 0xE76 PUSH8 0x29D8DA86F7BE9933 PUSH1 0xC0 SHL PUSH2 0xFC5 JUMP JUMPDEST PUSH2 0xE8A PUSH8 0xE307692A7AE593AC PUSH1 0xC0 SHL PUSH2 0xFC5 JUMP JUMPDEST PUSH1 0x0 DUP1 PUSH1 0x0 DUP5 DUP2 MSTORE PUSH1 0x20 ADD SWAP1 DUP2 MSTORE PUSH1 0x20 ADD PUSH1 0x0 KECCAK256 SWAP1 POP PUSH2 0xEB4 PUSH8 0x2BED0179C3D1D489 PUSH1 0xC0 SHL PUSH2 0xFC5 JUMP JUMPDEST DUP2 PUSH1 0x0 DUP2 MLOAD DUP2 LT PUSH2 0xEC8 JUMPI PUSH2 0xEC7 PUSH2 0x1678 JUMP JUMPDEST JUMPDEST PUSH1 0x20 MUL PUSH1 0x20 ADD ADD MLOAD DUP2 PUSH1 0x2 ADD DUP2 SWAP1 SSTORE POP PUSH2 0xEEC PUSH8 0x54CC7DD4A6186BD5 PUSH1 0xC0 SHL PUSH2 0xFC5 JUMP JUMPDEST PUSH1 0x1 DUP2 PUSH1 0x3 ADD PUSH1 0x1C PUSH2 0x100 EXP DUP2 SLOAD DUP2 PUSH1 0xFF MUL NOT AND SWAP1 DUP4 ISZERO ISZERO MUL OR SWAP1 SSTORE POP PUSH2 0xF1D PUSH8 0x8A08FDA3B3F9BD33 PUSH1 0xC0 SHL PUSH2 0xFC5 JUMP JUMPDEST NUMBER DUP2 PUSH1 0x3 ADD PUSH1 0x18 PUSH2 0x100 EXP DUP2 SLOAD DUP2 PUSH4 0xFFFFFFFF MUL NOT AND SWAP1 DUP4 PUSH4 0xFFFFFFFF AND MUL OR SWAP1 SSTORE POP PUSH2 0xF54 PUSH8 0x1CF065D4CAE3AD0C PUSH1 0xC0 SHL PUSH2 0xFC5 JUMP JUMPDEST PUSH2 0xF68 PUSH8 0x4DBB48D04F313DFF PUSH1 0xC0 SHL PUSH2 0xFC5 JUMP JUMPDEST DUP1 PUSH1 0x0 ADD SLOAD DUP4 PUSH32 0xBE3F52BB4DF8F041A3E9118A0ACF71DDEB18ADC6FDB619F10C637273EAB05E42 DUP5 PUSH1 0x0 DUP2 MLOAD DUP2 LT PUSH2 0xFA3 JUMPI PUSH2 0xFA2 PUSH2 0x1678 JUMP JUMPDEST JUMPDEST PUSH1 0x20 MUL PUSH1 0x20 ADD ADD MLOAD PUSH1 0x40 MLOAD PUSH2 0xFB8 SWAP2 SWAP1 PUSH2 0x135E JUMP JUMPDEST PUSH1 0x40 MLOAD DUP1 SWAP2 SUB SWAP1 LOG3 POP POP POP JUMP JUMPDEST POP JUMP JUMPDEST PUSH1 0x0 PUSH1 0x40 MLOAD SWAP1 POP SWAP1 JUMP JUMPDEST PUSH1 0x0 DUP1 REVERT JUMPDEST PUSH1 0x0 DUP1 REVERT JUMPDEST PUSH1 0x0 DUP2 SWAP1 POP SWAP2 SWAP1 POP JUMP JUMPDEST PUSH2 0xFEF DUP2 PUSH2 0xFDC JUMP JUMPDEST DUP2 EQ PUSH2 0xFFA JUMPI PUSH1 0x0 DUP1 REVERT JUMPDEST POP JUMP JUMPDEST PUSH1 0x0 DUP2 CALLDATALOAD SWAP1 POP PUSH2 0x100C DUP2 PUSH2 0xFE6 JUMP JUMPDEST SWAP3 SWAP2 POP POP JUMP JUMPDEST PUSH1 0x0 DUP1 REVERT JUMPDEST PUSH1 0x0 PUSH1 0x1F NOT PUSH1 0x1F DUP4 ADD AND SWAP1 POP SWAP2 SWAP1 POP JUMP JUMPDEST PUSH32 0x4E487B7100000000000000000000000000000000000000000000000000000000 PUSH1 0x0 MSTORE PUSH1 0x41 PUSH1 0x4 MSTORE PUSH1 0x24 PUSH1 0x0 REVERT JUMPDEST PUSH2 0x1060 DUP3 PUSH2 0x1017 JUMP JUMPDEST DUP2 ADD DUP2 DUP2 LT PUSH8 0xFFFFFFFFFFFFFFFF DUP3 GT OR ISZERO PUSH2 0x107F JUMPI PUSH2 0x107E PUSH2 0x1028 JUMP JUMPDEST JUMPDEST DUP1 PUSH1 0x40 MSTORE POP POP POP JUMP JUMPDEST PUSH1 0x0 PUSH2 0x1092 PUSH2 0xFC8 JUMP JUMPDEST SWAP1 POP PUSH2 0x109E DUP3 DUP3 PUSH2 0x1057 JUMP JUMPDEST SWAP2 SWAP1 POP JUMP JUMPDEST PUSH1 0x0 PUSH8 0xFFFFFFFFFFFFFFFF DUP3 GT ISZERO PUSH2 0x10BE JUMPI PUSH2 0x10BD PUSH2 0x1028 JUMP JUMPDEST JUMPDEST PUSH1 0x20 DUP3 MUL SWAP1 POP PUSH1 0x20 DUP2 ADD SWAP1 POP SWAP2 SWAP1 POP JUMP JUMPDEST PUSH1 0x0 DUP1 REVERT JUMPDEST PUSH1 0x0 PUSH2 0x10E7 PUSH2 0x10E2 DUP5 PUSH2 0x10A3 JUMP JUMPDEST PUSH2 0x1088 JUMP JUMPDEST SWAP1 POP DUP1 DUP4 DUP3 MSTORE PUSH1 0x20 DUP3 ADD SWAP1 POP PUSH1 0x20 DUP5 MUL DUP4 ADD DUP6 DUP2 GT ISZERO PUSH2 0x110A JUMPI PUSH2 0x1109 PUSH2 0x10CF JUMP JUMPDEST JUMPDEST DUP4 JUMPDEST DUP2 DUP2 LT ISZERO PUSH2 0x1133 JUMPI DUP1 PUSH2 0x111F DUP9 DUP3 PUSH2 0xFFD JUMP JUMPDEST DUP5 MSTORE PUSH1 0x20 DUP5 ADD SWAP4 POP POP PUSH1 0x20 DUP2 ADD SWAP1 POP PUSH2 0x110C JUMP JUMPDEST POP POP POP SWAP4 SWAP3 POP POP POP JUMP JUMPDEST PUSH1 0x0 DUP3 PUSH1 0x1F DUP4 ADD SLT PUSH2 0x1152 JUMPI PUSH2 0x1151 PUSH2 0x1012 JUMP JUMPDEST JUMPDEST DUP2 CALLDATALOAD PUSH2 0x1162 DUP5 DUP3 PUSH1 0x20 DUP7 ADD PUSH2 0x10D4 JUMP JUMPDEST SWAP2 POP POP SWAP3 SWAP2 POP POP JUMP JUMPDEST PUSH1 0x0 DUP1 PUSH1 0x40 DUP4 DUP6 SUB SLT ISZERO PUSH2 0x1182 JUMPI PUSH2 0x1181 PUSH2 0xFD2 JUMP JUMPDEST JUMPDEST PUSH1 0x0 PUSH2 0x1190 DUP6 DUP3 DUP7 ADD PUSH2 0xFFD JUMP JUMPDEST SWAP3 POP POP PUSH1 0x20 DUP4 ADD CALLDATALOAD PUSH8 0xFFFFFFFFFFFFFFFF DUP2 GT ISZERO PUSH2 0x11B1 JUMPI PUSH2 0x11B0 PUSH2 0xFD7 JUMP JUMPDEST JUMPDEST PUSH2 0x11BD DUP6 DUP3 DUP7 ADD PUSH2 0x113D JUMP JUMPDEST SWAP2 POP POP SWAP3 POP SWAP3 SWAP1 POP JUMP JUMPDEST PUSH1 0x0 DUP1 REVERT JUMPDEST PUSH1 0x0 DUP1 DUP4 PUSH1 0x1F DUP5 ADD SLT PUSH2 0x11E2 JUMPI PUSH2 0x11E1 PUSH2 0x1012 JUMP JUMPDEST JUMPDEST DUP3 CALLDATALOAD SWAP1 POP PUSH8 0xFFFFFFFFFFFFFFFF DUP2 GT ISZERO PUSH2 0x11FF JUMPI PUSH2 0x11FE PUSH2 0x11C7 JUMP JUMPDEST JUMPDEST PUSH1 0x20 DUP4 ADD SWAP2 POP DUP4 PUSH1 0x1 DUP3 MUL DUP4 ADD GT ISZERO PUSH2 0x121B JUMPI PUSH2 0x121A PUSH2 0x10CF JUMP JUMPDEST JUMPDEST SWAP3 POP SWAP3 SWAP1 POP JUMP JUMPDEST PUSH1 0x0 DUP1 PUSH1 0x20 DUP4 DUP6 SUB SLT ISZERO PUSH2 0x1239 JUMPI PUSH2 0x1238 PUSH2 0xFD2 JUMP JUMPDEST JUMPDEST PUSH1 0x0 DUP4 ADD CALLDATALOAD PUSH8 0xFFFFFFFFFFFFFFFF DUP2 GT ISZERO PUSH2 0x1257 JUMPI PUSH2 0x1256 PUSH2 0xFD7 JUMP JUMPDEST JUMPDEST PUSH2 0x1263 DUP6 DUP3 DUP7 ADD PUSH2 0x11CC JUMP JUMPDEST SWAP3 POP SWAP3 POP POP SWAP3 POP SWAP3 SWAP1 POP JUMP JUMPDEST PUSH1 0x0 DUP2 ISZERO ISZERO SWAP1 POP SWAP2 SWAP1 POP JUMP JUMPDEST PUSH2 0x1284 DUP2 PUSH2 0x126F JUMP JUMPDEST DUP3 MSTORE POP POP JUMP JUMPDEST PUSH1 0x0 PUSH1 0x20 DUP3 ADD SWAP1 POP PUSH2 0x129F PUSH1 0x0 DUP4 ADD DUP5 PUSH2 0x127B JUMP JUMPDEST SWAP3 SWAP2 POP POP JUMP JUMPDEST PUSH2 0x12AE DUP2 PUSH2 0xFDC JUMP JUMPDEST DUP3 MSTORE POP POP JUMP JUMPDEST PUSH1 0x0 PUSH1 0x40 DUP3 ADD SWAP1 POP PUSH2 0x12C9 PUSH1 0x0 DUP4 ADD DUP6 PUSH2 0x12A5 JUMP JUMPDEST PUSH2 0x12D6 PUSH1 0x20 DUP4 ADD DUP5 PUSH2 0x127B JUMP JUMPDEST SWAP4 SWAP3 POP POP POP JUMP JUMPDEST PUSH1 0x0 DUP1 PUSH1 0x0 DUP1 PUSH1 0x40 DUP6 DUP8 SUB SLT ISZERO PUSH2 0x12F7 JUMPI PUSH2 0x12F6 PUSH2 0xFD2 JUMP JUMPDEST JUMPDEST PUSH1 0x0 DUP6 ADD CALLDATALOAD PUSH8 0xFFFFFFFFFFFFFFFF DUP2 GT ISZERO PUSH2 0x1315 JUMPI PUSH2 0x1314 PUSH2 0xFD7 JUMP JUMPDEST JUMPDEST PUSH2 0x1321 DUP8 DUP3 DUP9 ADD PUSH2 0x11CC JUMP JUMPDEST SWAP5 POP SWAP5 POP POP PUSH1 0x20 DUP6 ADD CALLDATALOAD PUSH8 0xFFFFFFFFFFFFFFFF DUP2 GT ISZERO PUSH2 0x1344 JUMPI PUSH2 0x1343 PUSH2 0xFD7 JUMP JUMPDEST JUMPDEST PUSH2 0x1350 DUP8 DUP3 DUP9 ADD PUSH2 0x11CC JUMP JUMPDEST SWAP3 POP SWAP3 POP POP SWAP3 SWAP6 SWAP2 SWAP5 POP SWAP3 POP JUMP JUMPDEST PUSH1 0x0 PUSH1 0x20 DUP3 ADD SWAP1 POP PUSH2 0x1373 PUSH1 0x0 DUP4 ADD DUP5 PUSH2 0x12A5 JUMP JUMPDEST SWAP3 SWAP2 POP POP JUMP JUMPDEST PUSH1 0x0 PUSH1 0x20 DUP3 DUP5 SUB SLT ISZERO PUSH2 0x138F JUMPI PUSH2 0x138E PUSH2 0xFD2 JUMP JUMPDEST JUMPDEST PUSH1 0x0 PUSH2 0x139D DUP5 DUP3 DUP6 ADD PUSH2 0xFFD JUMP JUMPDEST SWAP2 POP POP SWAP3 SWAP2 POP POP JUMP JUMPDEST PUSH1 0x0 DUP2 SWAP1 POP SWAP2 SWAP1 POP JUMP JUMPDEST PUSH2 0x13B9 DUP2 PUSH2 0x13A6 JUMP JUMPDEST DUP3 MSTORE POP POP JUMP JUMPDEST PUSH1 0x0 PUSH20 0xFFFFFFFFFFFFFFFFFFFFFFFFFFFFFFFFFFFFFFFF DUP3 AND SWAP1 POP SWAP2 SWAP1 POP JUMP JUMPDEST PUSH1 0x0 PUSH2 0x13EA DUP3 PUSH2 0x13BF JUMP JUMPDEST SWAP1 POP SWAP2 SWAP1 POP JUMP JUMPDEST PUSH2 0x13FA DUP2 PUSH2 0x13DF JUMP JUMPDEST DUP3 MSTORE POP POP JUMP JUMPDEST PUSH1 0x0 PUSH4 0xFFFFFFFF DUP3 AND SWAP1 POP SWAP2 SWAP1 POP JUMP JUMPDEST PUSH2 0x1419 DUP2 PUSH2 0x1400 JUMP JUMPDEST DUP3 MSTORE POP POP JUMP JUMPDEST PUSH1 0x0 PUSH1 0xE0 DUP3 ADD SWAP1 POP PUSH2 0x1434 PUSH1 0x0 DUP4 ADD DUP11 PUSH2 0x13B0 JUMP JUMPDEST PUSH2 0x1441 PUSH1 0x20 DUP4 ADD DUP10 PUSH2 0x13B0 JUMP JUMPDEST PUSH2 0x144E PUSH1 0x40 DUP4 ADD DUP9 PUSH2 0x12A5 JUMP JUMPDEST PUSH2 0x145B PUSH1 0x60 DUP4 ADD DUP8 PUSH2 0x13F1 JUMP JUMPDEST PUSH2 0x1468 PUSH1 0x80 DUP4 ADD DUP7 PUSH2 0x1410 JUMP JUMPDEST PUSH2 0x1475 PUSH1 0xA0 DUP4 ADD DUP6 PUSH2 0x1410 JUMP JUMPDEST PUSH2 0x1482 PUSH1 0xC0 DUP4 ADD DUP5 PUSH2 0x127B JUMP JUMPDEST SWAP9 SWAP8 POP POP POP POP POP POP POP POP JUMP JUMPDEST PUSH1 0x0 PUSH1 0x40 DUP3 ADD SWAP1 POP PUSH2 0x14A3 PUSH1 0x0 DUP4 ADD DUP6 PUSH2 0x13F1 JUMP JUMPDEST PUSH2 0x14B0 PUSH1 0x20 DUP4 ADD DUP5 PUSH2 0x13F1 JUMP JUMPDEST SWAP4 SWAP3 POP POP POP JUMP JUMPDEST PUSH1 0x0 DUP2 SWAP1 POP SWAP3 SWAP2 POP POP JUMP JUMPDEST DUP3 DUP2 DUP4 CALLDATACOPY PUSH1 0x0 DUP4 DUP4 ADD MSTORE POP POP POP JUMP JUMPDEST PUSH1 0x0 PUSH2 0x14DD DUP4 DUP6 PUSH2 0x14B7 JUMP JUMPDEST SWAP4 POP PUSH2 0x14EA DUP4 DUP6 DUP5 PUSH2 0x14C2 JUMP JUMPDEST DUP3 DUP5 ADD SWAP1 POP SWAP4 SWAP3 POP POP POP JUMP JUMPDEST PUSH1 0x0 PUSH2 0x1503 DUP3 DUP5 DUP7 PUSH2 0x14D1 JUMP JUMPDEST SWAP2 POP DUP2 SWAP1 POP SWAP4 SWAP3 POP POP POP JUMP JUMPDEST PUSH1 0x0 PUSH1 0x20 DUP3 ADD SWAP1 POP PUSH2 0x1524 PUSH1 0x0 DUP4 ADD DUP5 PUSH2 0x13B0 JUMP JUMPDEST SWAP3 SWAP2 POP POP JUMP JUMPDEST PUSH1 0x0 PUSH8 0xFFFFFFFFFFFFFFFF DUP3 AND SWAP1 POP SWAP2 SWAP1 POP JUMP JUMPDEST PUSH2 0x1547 DUP2 PUSH2 0x152A JUMP JUMPDEST DUP3 MSTORE POP POP JUMP JUMPDEST PUSH1 0x0 PUSH2 0xFFFF DUP3 AND SWAP1 POP SWAP2 SWAP1 POP JUMP JUMPDEST PUSH2 0x1564 DUP2 PUSH2 0x154D JUMP JUMPDEST DUP3 MSTORE POP POP JUMP JUMPDEST PUSH1 0x0 PUSH1 0xA0 DUP3 ADD SWAP1 POP PUSH2 0x157F PUSH1 0x0 DUP4 ADD DUP9 PUSH2 0x13B0 JUMP JUMPDEST PUSH2 0x158C PUSH1 0x20 DUP4 ADD DUP8 PUSH2 0x153E JUMP JUMPDEST PUSH2 0x1599 PUSH1 0x40 DUP4 ADD DUP7 PUSH2 0x155B JUMP JUMPDEST PUSH2 0x15A6 PUSH1 0x60 DUP4 ADD DUP6 PUSH2 0x1410 JUMP JUMPDEST PUSH2 0x15B3 PUSH1 0x80 DUP4 ADD DUP5 PUSH2 0x1410 JUMP JUMPDEST SWAP7 SWAP6 POP POP POP POP POP POP JUMP JUMPDEST PUSH1 0x0 DUP2 MLOAD SWAP1 POP PUSH2 0x15CC DUP2 PUSH2 0xFE6 JUMP JUMPDEST SWAP3 SWAP2 POP POP JUMP JUMPDEST PUSH1 0x0 PUSH1 0x20 DUP3 DUP5 SUB SLT ISZERO PUSH2 0x15E8 JUMPI PUSH2 0x15E7 PUSH2 0xFD2 JUMP JUMPDEST JUMPDEST PUSH1 0x0 PUSH2 0x15F6 DUP5 DUP3 DUP6 ADD PUSH2 0x15BD JUMP JUMPDEST SWAP2 POP POP SWAP3 SWAP2 POP POP JUMP JUMPDEST PUSH1 0x0 DUP3 DUP3 MSTORE PUSH1 0x20 DUP3 ADD SWAP1 POP SWAP3 SWAP2 POP POP JUMP JUMPDEST PUSH1 0x0 PUSH2 0x161C DUP4 DUP6 PUSH2 0x15FF JUMP JUMPDEST SWAP4 POP PUSH2 0x1629 DUP4 DUP6 DUP5 PUSH2 0x14C2 JUMP JUMPDEST PUSH2 0x1632 DUP4 PUSH2 0x1017 JUMP JUMPDEST DUP5 ADD SWAP1 POP SWAP4 SWAP3 POP POP POP JUMP JUMPDEST PUSH1 0x0 PUSH1 0x40 DUP3 ADD SWAP1 POP DUP2 DUP2 SUB PUSH1 0x0 DUP4 ADD MSTORE PUSH2 0x1658 DUP2 DUP7 DUP9 PUSH2 0x1610 JUMP JUMPDEST SWAP1 POP DUP2 DUP2 SUB PUSH1 0x20 DUP4 ADD MSTORE PUSH2 0x166D DUP2 DUP5 DUP7 PUSH2 0x1610 JUMP JUMPDEST SWAP1 POP SWAP6 SWAP5 POP POP POP POP POP JUMP JUMPDEST PUSH32 0x4E487B7100000000000000000000000000000000000000000000000000000000 PUSH1 0x0 MSTORE PUSH1 0x32 PUSH1 0x4 MSTORE PUSH1 0x24 PUSH1 0x0 REVERT INVALID LOG2 PUSH5 0x6970667358 0x22 SLT KECCAK256 PUSH9 0x9BBB3DE956BB92701B LOG0 0xE2 INVALID 0x21 ORIGIN LOG3 SWAP9 0xA6 0xB6 COINBASE PUSH27 0x785351E5C65353C36BDA564736F6C634300081300330000000000 "},"methodIdentifiers":{"getRandomnessForEntityHash(string)":"9b4f7eee","getRequestDetails(uint256)":"f34d4c63","getRequestIdForEntityHash(string)":"db19295c","isEntityHashProcessed(string)":"45471e7c","rawFulfillRandomWords(uint256,uint256[])":"1fe543e3","requestRandomness(string,string)":"d479ea73"}}}}}