{"src/RandomProof.sol":{"RandomProof":{"abi":[{"inputs":[{"internalType":"uint64","name":"subscriptionId","type":"uint64"},{"internalType":"address","name":"vrfCoordinator","type":"address"},{"internalType":"bytes32","name":"keyHash","type":"bytes32"},{"internalType":"uint32","name":"callbackGasLimit","type":"uint32"}],"stateMutability":"nonpayable","type":"constructor"},{"inputs":[{"internalType":"string","name":"entityHash","type":"string"}],"name":"EntityHashAlreadyProcessed","type":"error"},{"inputs":[],"name":"InvalidEntityHash","type":"error"},{"inputs":[{"internalType":"address","name":"have","type":"address"},{"internalType":"address","name":"want","type":"address"}],"name":"OnlyCoordinatorCanFulfill","type":"error"},{"inputs":[],"name":"RandomnessNotFulfilled","type":"error"},{"inputs":[],"name":"RequestNotFound","type":"error"},{"anonymous":false,"inputs":[{"indexed":true,"internalType":"uint256","name":"requestId","type":"uint256"},{"indexed":false,"internalType":"string","name":"entityHash","type":"string"},{"indexed":false,"internalType":"uint256","name":"randomness","type":"uint256"},{"indexed":false,"internalType":"uint256","name":"blockNumber","type":"uint256"}],"name":"RandomnessFulfilled","type":"event"},{"anonymous":false,"inputs":[{"indexed":true,"internalType":"uint256","name":"requestId","type":"uint256"},{"indexed":false,"internalType":"string","name":"entityHash","type":"string"},{"indexed":false,"internalType":"string","name":"salt","type":"string"},{"indexed":true,"internalType":"address","name":"requester","type":"address"},{"indexed":false,"internalType":"uint256","name":"blockNumber","type":"uint256"}],"name":"RandomnessRequested","type":"event"},{"inputs":[{"internalType":"string","name":"entityHash","type":"string"}],"name":"getRandomnessForEntityHash","outputs":[{"internalType":"uint256","name":"randomness","type":"uint256"},{"internalType":"bool","name":"fulfilled","type":"bool"}],"stateMutability":"view","type":"function"},{"inputs":[{"internalType":"uint256","name":"requestId","type":"uint256"}],"name":"getRequestDetails","outputs":[{"components":[{"internalType":"string","name":"entityHash","type":"string"},{"internalType":"string","name":"salt","type":"string"},{"internalType":"uint256","name":"randomness","type":"uint256"},{"internalType":"bool","name":"fulfilled","type":"bool"},{"internalType":"address","name":"requester","type":"address"},{"internalType":"uint256","name":"requestBlock","type":"uint256"},{"internalType":"uint256","name":"fulfilledBlock","type":"uint256"}],"internalType":"struct RandomProof.RandomnessRequest","name":"","type":"tuple"}],"stateMutability":"view","type":"function"},{"inputs":[{"internalType":"string","name":"entityHash","type":"string"}],"name":"getRequestIdForEntityHash","outputs":[{"internalType":"uint256","name":"","type":"uint256"}],"stateMutability":"view","type":"function"},{"inputs":[{"internalType":"string","name":"entityHash","type":"string"}],"name":"isEntityHashProcessed","outputs":[{"internalType":"bool","name":"","type":"bool"}],"stateMutability":"view","type":"function"},{"inputs":[{"internalType":"uint256","name":"requestId","type":"uint256"},{"internalType":"uint256[]","name":"randomWords","type":"uint256[]"}],"name":"rawFulfillRandomWords","outputs":[],"stateMutability":"nonpayable","type":"function"},{"inputs":[{"internalType":"string","name":"entityHash","type":"string"},{"internalType":"string","name":"salt","type":"string"}],"name":"requestRandomness","outputs":[{"internalType":"uint256","name":"requestId","type":"uint256"}],"stateMutability":"nonpayable","type":"function"}],"evm":{"bytecode":{"linkReferences":{},"object":"6101206040523480156200001257600080fd5b5060405162001ff838038062001ff883398181016040528101906200003891906200029f565b828073ffffffffffffffffffffffffffffffffffffffff1660808173ffffffffffffffffffffffffffffffffffffffff1681525050506200008a678bdb43d291cafbd860c01b6200017160201b60201c565b620000a667c5ef7c833b4a32e860c01b6200017160201b60201c565b8273ffffffffffffffffffffffffffffffffffffffff1660a08173ffffffffffffffffffffffffffffffffffffffff1681525050620000f6678d1fd5369e96abff60c01b6200017160201b60201c565b8367ffffffffffffffff1660c08167ffffffffffffffff16815250506200012e67c3e588e76f753f8f60c01b6200017160201b60201c565b8160e081815250506200015267912b39cd9d90de1f60c01b6200017160201b60201c565b8063ffffffff166101008163ffffffff16815250505050505062000311565b50565b600080fd5b600067ffffffffffffffff82169050919050565b620001988162000179565b8114620001a457600080fd5b50565b600081519050620001b8816200018d565b92915050565b600073ffffffffffffffffffffffffffffffffffffffff82169050919050565b6000620001eb82620001be565b9050919050565b620001fd81620001de565b81146200020957600080fd5b50565b6000815190506200021d81620001f2565b92915050565b6000819050919050565b620002388162000223565b81146200024457600080fd5b50565b60008151905062000258816200022d565b92915050565b600063ffffffff82169050919050565b62000279816200025e565b81146200028557600080fd5b50565b60008151905062000299816200026e565b92915050565b60008060008060808587031215620002bc57620002bb62000174565b5b6000620002cc87828801620001a7565b9450506020620002df878288016200020c565b9350506040620002f28782880162000247565b9250506060620003058782880162000288565b91505092959194509250565b60805160a05160c05160e05161010051611c9b6200035d60003960006107fb015260006107b7015260006107d80152600061077b01526000818161017601526101ca0152611c9b6000f3fe608060405234801561001057600080fd5b50600436106100625760003560e01c80631fe543e31461006757806345471e7c146100835780639b4f7eee146100b3578063d479ea73146100e4578063db19295c14610114578063f34d4c6314610144575b600080fd5b610081600480360381019061007c9190611222565b610174565b005b61009d60048036038101906100989190611333565b610234565b6040516100aa9190611397565b60405180910390f35b6100cd60048036038101906100c89190611333565b6102a5565b6040516100db9291906113c1565b60405180910390f35b6100fe60048036038101906100f991906113ea565b6105de565b60405161010b9190611462565b60405180910390f35b61012e60048036038101906101299190611333565b610aac565b60405161013b9190611462565b60405180910390f35b61015e6004803603810190610159919061147d565b610bdc565b60405161016b919061162b565b60405180910390f35b7f000000000000000000000000000000000000000000000000000000000000000073ffffffffffffffffffffffffffffffffffffffff163373ffffffffffffffffffffffffffffffffffffffff161461022657337f00000000000000000000000000000000000000000000000000000000000000006040517f1cf993f400000000000000000000000000000000000000000000000000000000815260040161021d92919061165c565b60405180910390fd5b6102308282610ec8565b5050565b600061024a679e8b0f887f80c51060c01b611027565b61025e679b7bac1194cfdcce60c01b611027565b61027267605a1f7d6938655a60c01b611027565b60028260405161028291906116c1565b908152602001604051809103902060009054906101000a900460ff169050919050565b6000806102bc67339eba43f839664560c01b611027565b6102d06722831e8ab932055160c01b611027565b6102e467bf874b7a72c0423c60c01b611027565b60006001846040516102f691906116c1565b908152602001604051809103902054905061031b677c0118b62825d13560c01b611027565b61032f67d81517869ffeddc960c01b611027565b600081036103915761034b672750383306c1952260c01b611027565b61035f67a8fc387caa160e6c60c01b611027565b6040517f4b13b31e00000000000000000000000000000000000000000000000000000000815260040160405180910390fd5b6103a5679eb2bba2acf5acae60c01b611027565b6103b967606e4f4864ba437460c01b611027565b6103cd6735ccddd535f34cf760c01b611027565b60008060008381526020019081526020016000206040518060e00160405290816000820180546103fc90611707565b80601f016020809104026020016040519081016040528092919081815260200182805461042890611707565b80156104755780601f1061044a57610100808354040283529160200191610475565b820191906000526020600020905b81548152906001019060200180831161045857829003601f168201915b5050505050815260200160018201805461048e90611707565b80601f01602080910402602001604051908101604052809291908181526020018280546104ba90611707565b80156105075780601f106104dc57610100808354040283529160200191610507565b820191906000526020600020905b8154815290600101906020018083116104ea57829003601f168201915b50505050508152602001600282015481526020016003820160009054906101000a900460ff161515151581526020016003820160019054906101000a900473ffffffffffffffffffffffffffffffffffffffff1673ffffffffffffffffffffffffffffffffffffffff1673ffffffffffffffffffffffffffffffffffffffff1681526020016004820154815260200160058201548152505090506105b5674f741108749c7fa560c01b611027565b6105c967e29a5082d752e57160c01b611027565b80604001518160600151935093505050915091565b60006105f4677153e374791a595460c01b611027565b61060867109fb5e82a2fd37860c01b611027565b61061c6731b95699a4470ba860c01b611027565b604083511461067f576106396742551ff38da50bef60c01b611027565b61064d67df223237043f454560c01b611027565b6040517f37ad151f00000000000000000000000000000000000000000000000000000000815260040160405180910390fd5b61069367c622002871da4bb060c01b611027565b6106a76707a17e6c9b1a2a7f60c01b611027565b6106bb67601f42314f8b981d60c01b611027565b6002836040516106cb91906116c1565b908152602001604051809103902060009054906101000a900460ff1615610751576107006773e2bceca4c1fc0b60c01b611027565b610714673eecd22dcb74612b60c01b611027565b826040517fb81667060000000000000000000000000000000000000000000000000000000081526004016107489190611782565b60405180910390fd5b61076567cba970605420cfe260c01b611027565b61077967adbbba0432e274c660c01b611027565b7f000000000000000000000000000000000000000000000000000000000000000073ffffffffffffffffffffffffffffffffffffffff16635d3b1d307f00000000000000000000000000000000000000000000000000000000000000007f000000000000000000000000000000000000000000000000000000000000000060037f000000000000000000000000000000000000000000000000000000000000000060016040518663ffffffff1660e01b815260040161083c95949392919061181c565b6020604051808303816000875af115801561085b573d6000803e3d6000fd5b505050506040513d601f19601f8201168201806040525081019061087f9190611884565b9050610895675765ca3cc30326e460c01b611027565b6040518060e00160405280848152602001838152602001600081526020016000151581526020013373ffffffffffffffffffffffffffffffffffffffff1681526020014381526020016000815250600080838152602001908152602001600020600082015181600001908161090a9190611a5d565b5060208201518160010190816109209190611a5d565b506040820151816002015560608201518160030160006101000a81548160ff02191690831515021790555060808201518160030160016101000a81548173ffffffffffffffffffffffffffffffffffffffff021916908373ffffffffffffffffffffffffffffffffffffffff16021790555060a0820151816004015560c082015181600501559050506109bd67bb57fcb57587178660c01b611027565b806001846040516109ce91906116c1565b9081526020016040518091039020819055506109f467bbc4c8ec8f564fff60c01b611027565b6001600284604051610a0691906116c1565b908152602001604051809103902060006101000a81548160ff021916908315150217905550610a3f679d74a5b068ebf71c60c01b611027565b610a5367d5080477e129617260c01b611027565b3373ffffffffffffffffffffffffffffffffffffffff16817ffaada18c5b3c4e292f39d28a2d27825807c50fa07c9a801ca9d94602529f00d8858543604051610a9e93929190611b2f565b60405180910390a392915050565b6000610ac26787c9a8032c0dcda460c01b611027565b610ad66780463abf715fed5660c01b611027565b610aea67837173c3610134f860c01b611027565b6000600183604051610afc91906116c1565b9081526020016040518091039020549050610b2167e92ac70910b9fcf660c01b611027565b610b3567133f4d4d4bc110cf60c01b611027565b60008103610b9757610b5167f34afd723eb3cb3660c01b611027565b610b6567f1971ee86235368b60c01b611027565b6040517f4b13b31e00000000000000000000000000000000000000000000000000000000815260040160405180910390fd5b610bab67a1025435911626b360c01b611027565b610bbf676121027b9fdea35560c01b611027565b610bd367eabcf56b23c2e54660c01b611027565b80915050919050565b610be461102a565b610bf867e21dbeb14d877cf160c01b611027565b610c0c67fa44abc8d68ab39860c01b611027565b610c2067603902dde03f120a60c01b611027565b60008060008481526020019081526020016000206040518060e0016040529081600082018054610c4f90611707565b80601f0160208091040260200160405190810160405280929190818152602001828054610c7b90611707565b8015610cc85780601f10610c9d57610100808354040283529160200191610cc8565b820191906000526020600020905b815481529060010190602001808311610cab57829003601f168201915b50505050508152602001600182018054610ce190611707565b80601f0160208091040260200160405190810160405280929190818152602001828054610d0d90611707565b8015610d5a5780601f10610d2f57610100808354040283529160200191610d5a565b820191906000526020600020905b815481529060010190602001808311610d3d57829003601f168201915b50505050508152602001600282015481526020016003820160009054906101000a900460ff161515151581526020016003820160019054906101000a900473ffffffffffffffffffffffffffffffffffffffff1673ffffffffffffffffffffffffffffffffffffffff1673ffffffffffffffffffffffffffffffffffffffff168152602001600482015481526020016005820154815250509050610e0867c86d5bd1eb4ea56460c01b611027565b610e1c678ae38caf8add468d60c01b611027565b600081600001515103610e8357610e3d67ba539c516b53a9ba60c01b611027565b610e516708d3c3555c67d00b60c01b611027565b6040517f4b13b31e00000000000000000000000000000000000000000000000000000000815260040160405180910390fd5b610e9767d757f8264adf4ea260c01b611027565b610eab67e17f83a36a55082d60c01b611027565b610ebf6769e9bfe3ad91285660c01b611027565b80915050919050565b610edc67770f51ad147c1fd960c01b611027565b610ef067a357aa7cae18825160c01b611027565b610f046794eabf9d2a4b107260c01b611027565b60008060008481526020019081526020016000209050610f2e67e5d88a9e2a9c0e0b60c01b611027565b81600081518110610f4257610f41611b74565b5b60200260200101518160020181905550610f66671acaff289bbe940360c01b611027565b60018160030160006101000a81548160ff021916908315150217905550610f9767c6ac5a06d0ede6ee60c01b611027565b438160050181905550610fb4676cbd59acc1769fe360c01b611027565b610fc86786df886fcac809d660c01b611027565b827fc164fb5df4dab625c62c1bf03462dd07f0ac21e5524b5ef7b5917f159426177b826000018460008151811061100257611001611b74565b5b60200260200101514360405161101a93929190611c27565b60405180910390a2505050565b50565b6040518060e00160405280606081526020016060815260200160008152602001600015158152602001600073ffffffffffffffffffffffffffffffffffffffff16815260200160008152602001600081525090565b6000604051905090565b600080fd5b600080fd5b6000819050919050565b6110a681611093565b81146110b157600080fd5b50565b6000813590506110c38161109d565b92915050565b600080fd5b6000601f19601f8301169050919050565b7f4e487b7100000000000000000000000000000000000000000000000000000000600052604160045260246000fd5b611117826110ce565b810181811067ffffffffffffffff82111715611136576111356110df565b5b80604052505050565b600061114961107f565b9050611155828261110e565b919050565b600067ffffffffffffffff821115611175576111746110df565b5b602082029050602081019050919050565b600080fd5b600061119e6111998461115a565b61113f565b905080838252602082019050602084028301858111156111c1576111c0611186565b5b835b818110156111ea57806111d688826110b4565b8452602084019350506020810190506111c3565b5050509392505050565b600082601f830112611209576112086110c9565b5b813561121984826020860161118b565b91505092915050565b6000806040838503121561123957611238611089565b5b6000611247858286016110b4565b925050602083013567ffffffffffffffff8111156112685761126761108e565b5b611274858286016111f4565b9150509250929050565b600080fd5b600067ffffffffffffffff82111561129e5761129d6110df565b5b6112a7826110ce565b9050602081019050919050565b82818337600083830152505050565b60006112d66112d184611283565b61113f565b9050828152602081018484840111156112f2576112f161127e565b5b6112fd8482856112b4565b509392505050565b600082601f83011261131a576113196110c9565b5b813561132a8482602086016112c3565b91505092915050565b60006020828403121561134957611348611089565b5b600082013567ffffffffffffffff8111156113675761136661108e565b5b61137384828501611305565b91505092915050565b60008115159050919050565b6113918161137c565b82525050565b60006020820190506113ac6000830184611388565b92915050565b6113bb81611093565b82525050565b60006040820190506113d660008301856113b2565b6113e36020830184611388565b9392505050565b6000806040838503121561140157611400611089565b5b600083013567ffffffffffffffff81111561141f5761141e61108e565b5b61142b85828601611305565b925050602083013567ffffffffffffffff81111561144c5761144b61108e565b5b61145885828601611305565b9150509250929050565b600060208201905061147760008301846113b2565b92915050565b60006020828403121561149357611492611089565b5b60006114a1848285016110b4565b91505092915050565b600081519050919050565b600082825260208201905092915050565b60005b838110156114e45780820151818401526020810190506114c9565b60008484015250505050565b60006114fb826114aa565b61150581856114b5565b93506115158185602086016114c6565b61151e816110ce565b840191505092915050565b61153281611093565b82525050565b6115418161137c565b82525050565b600073ffffffffffffffffffffffffffffffffffffffff82169050919050565b600061157282611547565b9050919050565b61158281611567565b82525050565b600060e08301600083015184820360008601526115a582826114f0565b915050602083015184820360208601526115bf82826114f0565b91505060408301516115d46040860182611529565b5060608301516115e76060860182611538565b5060808301516115fa6080860182611579565b5060a083015161160d60a0860182611529565b5060c083015161162060c0860182611529565b508091505092915050565b600060208201905081810360008301526116458184611588565b905092915050565b61165681611567565b82525050565b6000604082019050611671600083018561164d565b61167e602083018461164d565b9392505050565b600081905092915050565b600061169b826114aa565b6116a58185611685565b93506116b58185602086016114c6565b80840191505092915050565b60006116cd8284611690565b915081905092915050565b7f4e487b7100000000000000000000000000000000000000000000000000000000600052602260045260246000fd5b6000600282049050600182168061171f57607f821691505b602082108103611732576117316116d8565b5b50919050565b600082825260208201905092915050565b6000611754826114aa565b61175e8185611738565b935061176e8185602086016114c6565b611777816110ce565b840191505092915050565b6000602082019050818103600083015261179c8184611749565b905092915050565b6000819050919050565b6117b7816117a4565b82525050565b600067ffffffffffffffff82169050919050565b6117da816117bd565b82525050565b600061ffff82169050919050565b6117f7816117e0565b82525050565b600063ffffffff82169050919050565b611816816117fd565b82525050565b600060a08201905061183160008301886117ae565b61183e60208301876117d1565b61184b60408301866117ee565b611858606083018561180d565b611865608083018461180d565b9695505050505050565b60008151905061187e8161109d565b92915050565b60006020828403121561189a57611899611089565b5b60006118a88482850161186f565b91505092915050565b60008190508160005260206000209050919050565b60006020601f8301049050919050565b600082821b905092915050565b6000600883026119137fffffffffffffffffffffffffffffffffffffffffffffffffffffffffffffffff826118d6565b61191d86836118d6565b95508019841693508086168417925050509392505050565b6000819050919050565b600061195a61195561195084611093565b611935565b611093565b9050919050565b6000819050919050565b6119748361193f565b61198861198082611961565b8484546118e3565b825550505050565b600090565b61199d611990565b6119a881848461196b565b505050565b5b818110156119cc576119c1600082611995565b6001810190506119ae565b5050565b601f821115611a11576119e2816118b1565b6119eb846118c6565b810160208510156119fa578190505b611a0e611a06856118c6565b8301826119ad565b50505b505050565b600082821c905092915050565b6000611a3460001984600802611a16565b1980831691505092915050565b6000611a4d8383611a23565b9150826002028217905092915050565b611a66826114aa565b67ffffffffffffffff811115611a7f57611a7e6110df565b5b611a898254611707565b611a948282856119d0565b600060209050601f831160018114611ac75760008415611ab5578287015190505b611abf8582611a41565b865550611b27565b601f198416611ad5866118b1565b60005b82811015611afd57848901518255600182019150602085019450602081019050611ad8565b86831015611b1a5784890151611b16601f891682611a23565b8355505b6001600288020188555050505b505050505050565b60006060820190508181036000830152611b498186611749565b90508181036020830152611b5d8185611749565b9050611b6c60408301846113b2565b949350505050565b7f4e487b7100000000000000000000000000000000000000000000000000000000600052603260045260246000fd5b60008154611bb081611707565b611bba8186611738565b94506001821660008114611bd55760018114611beb57611c1e565b60ff198316865281151560200286019350611c1e565b611bf4856118b1565b60005b83811015611c1657815481890152600182019150602081019050611bf7565b808801955050505b50505092915050565b60006060820190508181036000830152611c418186611ba3565b9050611c5060208301856113b2565b611c5d60408301846113b2565b94935050505056fea2646970667358221220e79b2513a70ebbd7b8f20dd8996f31501807e7c608287c712ce5c8bbd1c83be464736f6c63430008130033","opcodes":"PUSH2 0x120 PUSH1 0x40 MSTORE CALLVALUE DUP1 ISZERO PUSH3 0x12 JUMPI PUSH1 0x0 DUP1 REVERT JUMPDEST POP PUSH1 0x40 MLOAD PUSH3 0x1FF8 CODESIZE SUB DUP1 PUSH3 0x1FF8 DUP4 CODECOPY DUP2 DUP2 ADD PUSH1 0x40 MSTORE DUP2 ADD SWAP1 PUSH3 0x38 SWAP2 SWAP1 PUSH3 0x29F JUMP JUMPDEST DUP3 DUP1 PUSH20 0xFFFFFFFFFFFFFFFFFFFFFFFFFFFFFFFFFFFFFFFF AND PUSH1 0x80 DUP2 PUSH20 0xFFFFFFFFFFFFFFFFFFFFFFFFFFFFFFFFFFFFFFFF AND DUP2 MSTORE POP POP POP PUSH3 0x8A PUSH8 0x8BDB43D291CAFBD8 PUSH1 0xC0 SHL PUSH3 0x171 PUSH1 0x20 SHL PUSH1 0x20 SHR JUMP JUMPDEST PUSH3 0xA6 PUSH8 0xC5EF7C833B4A32E8 PUSH1 0xC0 SHL PUSH3 0x171 PUSH1 0x20 SHL PUSH1 0x20 SHR JUMP JUMPDEST DUP3 PUSH20 0xFFFFFFFFFFFFFFFFFFFFFFFFFFFFFFFFFFFFFFFF AND PUSH1 0xA0 DUP2 PUSH20 0xFFFFFFFFFFFFFFFFFFFFFFFFFFFFFFFFFFFFFFFF AND DUP2 MSTORE POP POP PUSH3 0xF6 PUSH8 0x8D1FD5369E96ABFF PUSH1 0xC0 SHL PUSH3 0x171 PUSH1 0x20 SHL PUSH1 0x20 SHR JUMP JUMPDEST DUP4 PUSH8 0xFFFFFFFFFFFFFFFF AND PUSH1 0xC0 DUP2 PUSH8 0xFFFFFFFFFFFFFFFF AND DUP2 MSTORE POP POP PUSH3 0x12E PUSH8 0xC3E588E76F753F8F PUSH1 0xC0 SHL PUSH3 0x171 PUSH1 0x20 SHL PUSH1 0x20 SHR JUMP JUMPDEST DUP2 PUSH1 0xE0 DUP2 DUP2 MSTORE POP POP PUSH3 0x152 PUSH8 0x912B39CD9D90DE1F PUSH1 0xC0 SHL PUSH3 0x171 PUSH1 0x20 SHL PUSH1 0x20 SHR JUMP JUMPDEST DUP1 PUSH4 0xFFFFFFFF AND PUSH2 0x100 DUP2 PUSH4 0xFFFFFFFF AND DUP2 MSTORE POP POP POP POP POP POP PUSH3 0x311 JUMP JUMPDEST POP JUMP JUMPDEST PUSH1 0x0 DUP1 REVERT JUMPDEST PUSH1 0x0 PUSH8 0xFFFFFFFFFFFFFFFF DUP3 AND SWAP1 POP SWAP2 SWAP1 POP JUMP JUMPDEST PUSH3 0x198 DUP2 PUSH3 0x179 JUMP JUMPDEST DUP2 EQ PUSH3 0x1A4 JUMPI PUSH1 0x0 DUP1 REVERT JUMPDEST POP JUMP JUMPDEST PUSH1 0x0 DUP2 MLOAD SWAP1 POP PUSH3 0x1B8 DUP2 PUSH3 0x18D JUMP JUMPDEST SWAP3 SWAP2 POP POP JUMP JUMPDEST PUSH1 0x0 PUSH20 0xFFFFFFFFFFFFFFFFFFFFFFFFFFFFFFFFFFFFFFFF DUP3 AND SWAP1 POP SWAP2 SWAP1 POP JUMP JUMPDEST PUSH1 0x0 PUSH3 0x1EB DUP3 PUSH3 0x1BE JUMP JUMPDEST SWAP1 POP SWAP2 SWAP1 POP JUMP JUMPDEST PUSH3 0x1FD DUP2 PUSH3 0x1DE JUMP JUMPDEST DUP2 EQ PUSH3 0x209 JUMPI PUSH1 0x0 DUP1 REVERT JUMPDEST POP JUMP JUMPDEST PUSH1 0x0 DUP2 MLOAD SWAP1 POP PUSH3 0x21D DUP2 PUSH3 0x1F2 JUMP JUMPDEST SWAP3 SWAP2 POP POP JUMP JUMPDEST PUSH1 0x0 DUP2 SWAP1 POP SWAP2 SWAP1 POP JUMP JUMPDEST PUSH3 0x238 DUP2 PUSH3 0x223 JUMP JUMPDEST DUP2 EQ PUSH3 0x244 JUMPI PUSH1 0x0 DUP1 REVERT JUMPDEST POP JUMP JUMPDEST PUSH1 0x0 DUP2 MLOAD SWAP1 POP PUSH3 0x258 DUP2 PUSH3 0x22D JUMP JUMPDEST SWAP3 SWAP2 POP POP JUMP JUMPDEST PUSH1 0x0 PUSH4 0xFFFFFFFF DUP3 AND SWAP1 POP SWAP2 SWAP1 POP JUMP JUMPDEST PUSH3 0x279 DUP2 PUSH3 0x25E JUMP JUMPDEST DUP2 EQ PUSH3 0x285 JUMPI PUSH1 0x0 DUP1 REVERT JUMPDEST POP JUMP JUMPDEST PUSH1 0x0 DUP2 MLOAD SWAP1 POP PUSH3 0x299 DUP2 PUSH3 0x26E JUMP JUMPDEST SWAP3 SWAP2 POP POP JUMP JUMPDEST PUSH1 0x0 DUP1 PUSH1 0x0 DUP1 PUSH1 0x80 DUP6 DUP8 SUB SLT ISZERO PUSH3 0x2BC JUMPI PUSH3 0x2BB PUSH3 0x174 JUMP JUMPDEST JUMPDEST PUSH1 0x0 PUSH3 0x2CC DUP8 DUP3 DUP9 ADD PUSH3 0x1A7 JUMP JUMPDEST SWAP5 POP POP PUSH1 0x20 PUSH3 0x2DF DUP8 DUP3 DUP9 ADD PUSH3 0x20C JUMP JUMPDEST SWAP4 POP POP PUSH1 0x40 PUSH3 0x2F2 DUP8 DUP3 DUP9 ADD PUSH3 0x247 JUMP JUMPDEST SWAP3 POP POP PUSH1 0x60 PUSH3 0x305 DUP8 DUP3 DUP9 ADD PUSH3 0x288 JUMP JUMPDEST SWAP2 POP POP SWAP3 SWAP6 SWAP2 SWAP5 POP SWAP3 POP JUMP JUMPDEST PUSH1 0x80 MLOAD PUSH1 0xA0 MLOAD PUSH1 0xC0 MLOAD PUSH1 0xE0 MLOAD PUSH2 0x100 MLOAD PUSH2 0x1C9B PUSH3 0x35D PUSH1 0x0 CODECOPY PUSH1 0x0 PUSH2 0x7FB ADD MSTORE PUSH1 0x0 PUSH2 0x7B7 ADD MSTORE PUSH1 0x0 PUSH2 0x7D8 ADD MSTORE PUSH1 0x0 PUSH2 0x77B ADD MSTORE PUSH1 0x0 DUP2 DUP2 PUSH2 0x176 ADD MSTORE PUSH2 0x1CA ADD MSTORE PUSH2 0x1C9B PUSH1 0x0 RETURN INVALID PUSH1 0x80 PUSH1 0x40 MSTORE CALLVALUE DUP1 ISZERO PUSH2 0x10 JUMPI PUSH1 0x0 DUP1 REVERT JUMPDEST POP PUSH1 0x4 CALLDATASIZE LT PUSH2 0x62 JUMPI PUSH1 0x0 CALLDATALOAD PUSH1 0xE0 SHR DUP1 PUSH4 0x1FE543E3 EQ PUSH2 0x67 JUMPI DUP1 PUSH4 0x45471E7C EQ PUSH2 0x83 JUMPI DUP1 PUSH4 0x9B4F7EEE EQ PUSH2 0xB3 JUMPI DUP1 PUSH4 0xD479EA73 EQ PUSH2 0xE4 JUMPI DUP1 PUSH4 0xDB19295C EQ PUSH2 0x114 JUMPI DUP1 PUSH4 0xF34D4C63 EQ PUSH2 0x144 JUMPI JUMPDEST PUSH1 0x0 DUP1 REVERT JUMPDEST PUSH2 0x81 PUSH1 0x4 DUP1 CALLDATASIZE SUB DUP2 ADD SWAP1 PUSH2 0x7C SWAP2 SWAP1 PUSH2 0x1222 JUMP JUMPDEST PUSH2 0x174 JUMP JUMPDEST STOP JUMPDEST PUSH2 0x9D PUSH1 0x4 DUP1 CALLDATASIZE SUB DUP2 ADD SWAP1 PUSH2 0x98 SWAP2 SWAP1 PUSH2 0x1333 JUMP JUMPDEST PUSH2 0x234 JUMP JUMPDEST PUSH1 0x40 MLOAD PUSH2 0xAA SWAP2 SWAP1 PUSH2 0x1397 JUMP JUMPDEST PUSH1 0x40 MLOAD DUP1 SWAP2 SUB SWAP1 RETURN JUMPDEST PUSH2 0xCD PUSH1 0x4 DUP1 CALLDATASIZE SUB DUP2 ADD SWAP1 PUSH2 0xC8 SWAP2 SWAP1 PUSH2 0x1333 JUMP JUMPDEST PUSH2 0x2A5 JUMP JUMPDEST PUSH1 0x40 MLOAD PUSH2 0xDB SWAP3 SWAP2 SWAP1 PUSH2 0x13C1 JUMP JUMPDEST PUSH1 0x40 MLOAD DUP1 SWAP2 SUB SWAP1 RETURN JUMPDEST PUSH2 0xFE PUSH1 0x4 DUP1 CALLDATASIZE SUB DUP2 ADD SWAP1 PUSH2 0xF9 SWAP2 SWAP1 PUSH2 0x13EA JUMP JUMPDEST PUSH2 0x5DE JUMP JUMPDEST PUSH1 0x40 MLOAD PUSH2 0x10B SWAP2 SWAP1 PUSH2 0x1462 JUMP JUMPDEST PUSH1 0x40 MLOAD DUP1 SWAP2 SUB SWAP1 RETURN JUMPDEST PUSH2 0x12E PUSH1 0x4 DUP1 CALLDATASIZE SUB DUP2 ADD SWAP1 PUSH2 0x129 SWAP2 SWAP1 PUSH2 0x1333 JUMP JUMPDEST PUSH2 0xAAC JUMP JUMPDEST PUSH1 0x40 MLOAD PUSH2 0x13B SWAP2 SWAP1 PUSH2 0x1462 JUMP JUMPDEST PUSH1 0x40 MLOAD DUP1 SWAP2 SUB SWAP1 RETURN JUMPDEST PUSH2 0x15E PUSH1 0x4 DUP1 CALLDATASIZE SUB DUP2 ADD SWAP1 PUSH2 0x159 SWAP2 SWAP1 PUSH2 0x147D JUMP JUMPDEST PUSH2 0xBDC JUMP JUMPDEST PUSH1 0x40 MLOAD PUSH2 0x16B SWAP2 SWAP1 PUSH2 0x162B JUMP JUMPDEST PUSH1 0x40 MLOAD DUP1 SWAP2 SUB SWAP1 RETURN JUMPDEST PUSH32 0x0 PUSH20 0xFFFFFFFFFFFFFFFFFFFFFFFFFFFFFFFFFFFFFFFF AND CALLER PUSH20 0xFFFFFFFFFFFFFFFFFFFFFFFFFFFFFFFFFFFFFFFF AND EQ PUSH2 0x226 JUMPI CALLER PUSH32 0x0 PUSH1 0x40 MLOAD PUSH32 0x1CF993F400000000000000000000000000000000000000000000000000000000 DUP2 MSTORE PUSH1 0x4 ADD PUSH2 0x21D SWAP3 SWAP2 SWAP1 PUSH2 0x165C JUMP JUMPDEST PUSH1 0x40 MLOAD DUP1 SWAP2 SUB SWAP1 REVERT JUMPDEST PUSH2 0x230 DUP3 DUP3 PUSH2 0xEC8 JUMP JUMPDEST POP POP JUMP JUMPDEST PUSH1 0x0 PUSH2 0x24A PUSH8 0x9E8B0F887F80C510 PUSH1 0xC0 SHL PUSH2 0x1027 JUMP JUMPDEST PUSH2 0x25E PUSH8 0x9B7BAC1194CFDCCE PUSH1 0xC0 SHL PUSH2 0x1027 JUMP JUMPDEST PUSH2 0x272 PUSH8 0x605A1F7D6938655A PUSH1 0xC0 SHL PUSH2 0x1027 JUMP JUMPDEST PUSH1 0x2 DUP3 PUSH1 0x40 MLOAD PUSH2 0x282 SWAP2 SWAP1 PUSH2 0x16C1 JUMP JUMPDEST SWAP1 DUP2 MSTORE PUSH1 0x20 ADD PUSH1 0x40 MLOAD DUP1 SWAP2 SUB SWAP1 KECCAK256 PUSH1 0x0 SWAP1 SLOAD SWAP1 PUSH2 0x100 EXP SWAP1 DIV PUSH1 0xFF AND SWAP1 POP SWAP2 SWAP1 POP JUMP JUMPDEST PUSH1 0x0 DUP1 PUSH2 0x2BC PUSH8 0x339EBA43F8396645 PUSH1 0xC0 SHL PUSH2 0x1027 JUMP JUMPDEST PUSH2 0x2D0 PUSH8 0x22831E8AB9320551 PUSH1 0xC0 SHL PUSH2 0x1027 JUMP JUMPDEST PUSH2 0x2E4 PUSH8 0xBF874B7A72C0423C PUSH1 0xC0 SHL PUSH2 0x1027 JUMP JUMPDEST PUSH1 0x0 PUSH1 0x1 DUP5 PUSH1 0x40 MLOAD PUSH2 0x2F6 SWAP2 SWAP1 PUSH2 0x16C1 JUMP JUMPDEST SWAP1 DUP2 MSTORE PUSH1 0x20 ADD PUSH1 0x40 MLOAD DUP1 SWAP2 SUB SWAP1 KECCAK256 SLOAD SWAP1 POP PUSH2 0x31B PUSH8 0x7C0118B62825D135 PUSH1 0xC0 SHL PUSH2 0x1027 JUMP JUMPDEST PUSH2 0x32F PUSH8 0xD81517869FFEDDC9 PUSH1 0xC0 SHL PUSH2 0x1027 JUMP JUMPDEST PUSH1 0x0 DUP2 SUB PUSH2 0x391 JUMPI PUSH2 0x34B PUSH8 0x2750383306C19522 PUSH1 0xC0 SHL PUSH2 0x1027 JUMP JUMPDEST PUSH2 0x35F PUSH8 0xA8FC387CAA160E6C PUSH1 0xC0 SHL PUSH2 0x1027 JUMP JUMPDEST PUSH1 0x40 MLOAD PUSH32 0x4B13B31E00000000000000000000000000000000000000000000000000000000 DUP2 MSTORE PUSH1 0x4 ADD PUSH1 0x40 MLOAD DUP1 SWAP2 SUB SWAP1 REVERT JUMPDEST PUSH2 0x3A5 PUSH8 0x9EB2BBA2ACF5ACAE PUSH1 0xC0 SHL PUSH2 0x1027 JUMP JUMPDEST PUSH2 0x3B9 PUSH8 0x606E4F4864BA4374 PUSH1 0xC0 SHL PUSH2 0x1027 JUMP JUMPDEST PUSH2 0x3CD PUSH8 0x35CCDDD535F34CF7 PUSH1 0xC0 SHL PUSH2 0x1027 JUMP JUMPDEST PUSH1 0x0 DUP1 PUSH1 0x0 DUP4 DUP2 MSTORE PUSH1 0x20 ADD SWAP1 DUP2 MSTORE PUSH1 0x20 ADD PUSH1 0x0 KECCAK256 PUSH1 0x40 MLOAD DUP1 PUSH1 0xE0 ADD PUSH1 0x40 MSTORE SWAP1 DUP2 PUSH1 0x0 DUP3 ADD DUP1 SLOAD PUSH2 0x3FC SWAP1 PUSH2 0x1707 JUMP JUMPDEST DUP1 PUSH1 0x1F ADD PUSH1 0x20 DUP1 SWAP2 DIV MUL PUSH1 0x20 ADD PUSH1 0x40 MLOAD SWAP1 DUP2 ADD PUSH1 0x40 MSTORE DUP1 SWAP3 SWAP2 SWAP1 DUP2 DUP2 MSTORE PUSH1 0x20 ADD DUP3 DUP1 SLOAD PUSH2 0x428 SWAP1 PUSH2 0x1707 JUMP JUMPDEST DUP1 ISZERO PUSH2 0x475 JUMPI DUP1 PUSH1 0x1F LT PUSH2 0x44A JUMPI PUSH2 0x100 DUP1 DUP4 SLOAD DIV MUL DUP4 MSTORE SWAP2 PUSH1 0x20 ADD SWAP2 PUSH2 0x475 JUMP JUMPDEST DUP3 ADD SWAP2 SWAP1 PUSH1 0x0 MSTORE PUSH1 0x20 PUSH1 0x0 KECCAK256 SWAP1 JUMPDEST DUP2 SLOAD DUP2 MSTORE SWAP1 PUSH1 0x1 ADD SWAP1 PUSH1 0x20 ADD DUP1 DUP4 GT PUSH2 0x458 JUMPI DUP3 SWAP1 SUB PUSH1 0x1F AND DUP3 ADD SWAP2 JUMPDEST POP POP POP POP POP DUP2 MSTORE PUSH1 0x20 ADD PUSH1 0x1 DUP3 ADD DUP1 SLOAD PUSH2 0x48E SWAP1 PUSH2 0x1707 JUMP JUMPDEST DUP1 PUSH1 0x1F ADD PUSH1 0x20 DUP1 SWAP2 DIV MUL PUSH1 0x20 ADD PUSH1 0x40 MLOAD SWAP1 DUP2 ADD PUSH1 0x40 MSTORE DUP1 SWAP3 SWAP2 SWAP1 DUP2 DUP2 MSTORE PUSH1 0x20 ADD DUP3 DUP1 SLOAD PUSH2 0x4BA SWAP1 PUSH2 0x1707 JUMP JUMPDEST DUP1 ISZERO PUSH2 0x507 JUMPI DUP1 PUSH1 0x1F LT PUSH2 0x4DC JUMPI PUSH2 0x100 DUP1 DUP4 SLOAD DIV MUL DUP4 MSTORE SWAP2 PUSH1 0x20 ADD SWAP2 PUSH2 0x507 JUMP JUMPDEST DUP3 ADD SWAP2 SWAP1 PUSH1 0x0 MSTORE PUSH1 0x20 PUSH1 0x0 KECCAK256 SWAP1 JUMPDEST DUP2 SLOAD DUP2 MSTORE SWAP1 PUSH1 0x1 ADD SWAP1 PUSH1 0x20 ADD DUP1 DUP4 GT PUSH2 0x4EA JUMPI DUP3 SWAP1 SUB PUSH1 0x1F AND DUP3 ADD SWAP2 JUMPDEST POP POP POP POP POP DUP2 MSTORE PUSH1 0x20 ADD PUSH1 0x2 DUP3 ADD SLOAD DUP2 MSTORE PUSH1 0x20 ADD PUSH1 0x3 DUP3 ADD PUSH1 0x0 SWAP1 SLOAD SWAP1 PUSH2 0x100 EXP SWAP1 DIV PUSH1 0xFF AND ISZERO ISZERO ISZERO ISZERO DUP2 MSTORE PUSH1 0x20 ADD PUSH1 0x3 DUP3 ADD PUSH1 0x1 SWAP1 SLOAD SWAP1 PUSH2 0x100 EXP SWAP1 DIV PUSH20 0xFFFFFFFFFFFFFFFFFFFFFFFFFFFFFFFFFFFFFFFF AND PUSH20 0xFFFFFFFFFFFFFFFFFFFFFFFFFFFFFFFFFFFFFFFF AND PUSH20 0xFFFFFFFFFFFFFFFFFFFFFFFFFFFFFFFFFFFFFFFF AND DUP2 MSTORE PUSH1 0x20 ADD PUSH1 0x4 DUP3 ADD SLOAD DUP2 MSTORE PUSH1 0x20 ADD PUSH1 0x5 DUP3 ADD SLOAD DUP2 MSTORE POP POP SWAP1 POP PUSH2 0x5B5 PUSH8 0x4F741108749C7FA5 PUSH1 0xC0 SHL PUSH2 0x1027 JUMP JUMPDEST PUSH2 0x5C9 PUSH8 0xE29A5082D752E571 PUSH1 0xC0 SHL PUSH2 0x1027 JUMP JUMPDEST DUP1 PUSH1 0x40 ADD MLOAD DUP2 PUSH1 0x60 ADD MLOAD SWAP4 POP SWAP4 POP POP POP SWAP2 POP SWAP2 JUMP JUMPDEST PUSH1 0x0 PUSH2 0x5F4 PUSH8 0x7153E374791A5954 PUSH1 0xC0 SHL PUSH2 0x1027 JUMP JUMPDEST PUSH2 0x608 PUSH8 0x109FB5E82A2FD378 PUSH1 0xC0 SHL PUSH2 0x1027 JUMP JUMPDEST PUSH2 0x61C PUSH8 0x31B95699A4470BA8 PUSH1 0xC0 SHL PUSH2 0x1027 JUMP JUMPDEST PUSH1 0x40 DUP4 MLOAD EQ PUSH2 0x67F JUMPI PUSH2 0x639 PUSH8 0x42551FF38DA50BEF PUSH1 0xC0 SHL PUSH2 0x1027 JUMP JUMPDEST PUSH2 0x64D PUSH8 0xDF223237043F4545 PUSH1 0xC0 SHL PUSH2 0x1027 JUMP JUMPDEST PUSH1 0x40 MLOAD PUSH32 0x37AD151F00000000000000000000000000000000000000000000000000000000 DUP2 MSTORE PUSH1 0x4 ADD PUSH1 0x40 MLOAD DUP1 SWAP2 SUB SWAP1 REVERT JUMPDEST PUSH2 0x693 PUSH8 0xC622002871DA4BB0 PUSH1 0xC0 SHL PUSH2 0x1027 JUMP JUMPDEST PUSH2 0x6A7 PUSH8 0x7A17E6C9B1A2A7F PUSH1 0xC0 SHL PUSH2 0x1027 JUMP JUMPDEST PUSH2 0x6BB PUSH8 0x601F42314F8B981D PUSH1 0xC0 SHL PUSH2 0x1027 JUMP JUMPDEST PUSH1 0x2 DUP4 PUSH1 0x40 MLOAD PUSH2 0x6CB SWAP2 SWAP1 PUSH2 0x16C1 JUMP JUMPDEST SWAP1 DUP2 MSTORE PUSH1 0x20 ADD PUSH1 0x40 MLOAD DUP1 SWAP2 SUB SWAP1 KECCAK256 PUSH1 0x0 SWAP1 SLOAD SWAP1 PUSH2 0x100 EXP SWAP1 DIV PUSH1 0xFF AND ISZERO PUSH2 0x751 JUMPI PUSH2 0x700 PUSH8 0x73E2BCECA4C1FC0B PUSH1 0xC0 SHL PUSH2 0x1027 JUMP JUMPDEST PUSH2 0x714 PUSH8 0x3EECD22DCB74612B PUSH1 0xC0 SHL PUSH2 0x1027 JUMP JUMPDEST DUP3 PUSH1 0x40 MLOAD PUSH32 0xB816670600000000000000000000000000000000000000000000000000000000 DUP2 MSTORE PUSH1 0x4 ADD PUSH2 0x748 SWAP2 SWAP1 PUSH2 0x1782 JUMP JUMPDEST PUSH1 0x40 MLOAD DUP1 SWAP2 SUB SWAP1 REVERT JUMPDEST PUSH2 0x765 PUSH8 0xCBA970605420CFE2 PUSH1 0xC0 SHL PUSH2 0x1027 JUMP JUMPDEST PUSH2 0x779 PUSH8 0xADBBBA0432E274C6 PUSH1 0xC0 SHL PUSH2 0x1027 JUMP JUMPDEST PUSH32 0x0 PUSH20 0xFFFFFFFFFFFFFFFFFFFFFFFFFFFFFFFFFFFFFFFF AND PUSH4 0x5D3B1D30 PUSH32 0x0 PUSH32 0x0 PUSH1 0x3 PUSH32 0x0 PUSH1 0x1 PUSH1 0x40 MLOAD DUP7 PUSH4 0xFFFFFFFF AND PUSH1 0xE0 SHL DUP2 MSTORE PUSH1 0x4 ADD PUSH2 0x83C SWAP6 SWAP5 SWAP4 SWAP3 SWAP2 SWAP1 PUSH2 0x181C JUMP JUMPDEST PUSH1 0x20 PUSH1 0x40 MLOAD DUP1 DUP4 SUB DUP2 PUSH1 0x0 DUP8 GAS CALL ISZERO DUP1 ISZERO PUSH2 0x85B JUMPI RETURNDATASIZE PUSH1 0x0 DUP1 RETURNDATACOPY RETURNDATASIZE PUSH1 0x0 REVERT JUMPDEST POP POP POP POP PUSH1 0x40 MLOAD RETURNDATASIZE PUSH1 0x1F NOT PUSH1 0x1F DUP3 ADD AND DUP3 ADD DUP1 PUSH1 0x40 MSTORE POP DUP2 ADD SWAP1 PUSH2 0x87F SWAP2 SWAP1 PUSH2 0x1884 JUMP JUMPDEST SWAP1 POP PUSH2 0x895 PUSH8 0x5765CA3CC30326E4 PUSH1 0xC0 SHL PUSH2 0x1027 JUMP JUMPDEST PUSH1 0x40 MLOAD DUP1 PUSH1 0xE0 ADD PUSH1 0x40 MSTORE DUP1 DUP5 DUP2 MSTORE PUSH1 0x20 ADD DUP4 DUP2 MSTORE PUSH1 0x20 ADD PUSH1 0x0 DUP2 MSTORE PUSH1 0x20 ADD PUSH1 0x0 ISZERO ISZERO DUP2 MSTORE PUSH1 0x20 ADD CALLER PUSH20 0xFFFFFFFFFFFFFFFFFFFFFFFFFFFFFFFFFFFFFFFF AND DUP2 MSTORE PUSH1 0x20 ADD NUMBER DUP2 MSTORE PUSH1 0x20 ADD PUSH1 0x0 DUP2 MSTORE POP PUSH1 0x0 DUP1 DUP4 DUP2 MSTORE PUSH1 0x20 ADD SWAP1 DUP2 MSTORE PUSH1 0x20 ADD PUSH1 0x0 KECCAK256 PUSH1 0x0 DUP3 ADD MLOAD DUP2 PUSH1 0x0 ADD SWAP1 DUP2 PUSH2 0x90A SWAP2 SWAP1 PUSH2 0x1A5D JUMP JUMPDEST POP PUSH1 0x20 DUP3 ADD MLOAD DUP2 PUSH1 0x1 ADD SWAP1 DUP2 PUSH2 0x920 SWAP2 SWAP1 PUSH2 0x1A5D JUMP JUMPDEST POP PUSH1 0x40 DUP3 ADD MLOAD DUP2 PUSH1 0x2 ADD SSTORE PUSH1 0x60 DUP3 ADD MLOAD DUP2 PUSH1 0x3 ADD PUSH1 0x0 PUSH2 0x100 EXP DUP2 SLOAD DUP2 PUSH1 0xFF MUL NOT AND SWAP1 DUP4 ISZERO ISZERO MUL OR SWAP1 SSTORE POP PUSH1 0x80 DUP3 ADD MLOAD DUP2 PUSH1 0x3 ADD PUSH1 0x1 PUSH2 0x100 EXP DUP2 SLOAD DUP2 PUSH20 0xFFFFFFFFFFFFFFFFFFFFFFFFFFFFFFFFFFFFFFFF MUL NOT AND SWAP1 DUP4 PUSH20 0xFFFFFFFFFFFFFFFFFFFFFFFFFFFFFFFFFFFFFFFF AND MUL OR SWAP1 SSTORE POP PUSH1 0xA0 DUP3 ADD MLOAD DUP2 PUSH1 0x4 ADD SSTORE PUSH1 0xC0 DUP3 ADD MLOAD DUP2 PUSH1 0x5 ADD SSTORE SWAP1 POP POP PUSH2 0x9BD PUSH8 0xBB57FCB575871786 PUSH1 0xC0 SHL PUSH2 0x1027 JUMP JUMPDEST DUP1 PUSH1 0x1 DUP5 PUSH1 0x40 MLOAD PUSH2 0x9CE SWAP2 SWAP1 PUSH2 0x16C1 JUMP JUMPDEST SWAP1 DUP2 MSTORE PUSH1 0x20 ADD PUSH1 0x40 MLOAD DUP1 SWAP2 SUB SWAP1 KECCAK256 DUP2 SWAP1 SSTORE POP PUSH2 0x9F4 PUSH8 0xBBC4C8EC8F564FFF PUSH1 0xC0 SHL PUSH2 0x1027 JUMP JUMPDEST PUSH1 0x1 PUSH1 0x2 DUP5 PUSH1 0x40 MLOAD PUSH2 0xA06 SWAP2 SWAP1 PUSH2 0x16C1 JUMP JUMPDEST SWAP1 DUP2 MSTORE PUSH1 0x20 ADD PUSH1 0x40 MLOAD DUP1 SWAP2 SUB SWAP1 KECCAK256 PUSH1 0x0 PUSH2 0x100 EXP DUP2 SLOAD DUP2 PUSH1 0xFF MUL NOT AND SWAP1 DUP4 ISZERO ISZERO MUL OR SWAP1 SSTORE POP PUSH2 0xA3F PUSH8 0x9D74A5B068EBF71C PUSH1 0xC0 SHL PUSH2 0x1027 JUMP JUMPDEST PUSH2 0xA53 PUSH8 0xD5080477E1296172 PUSH1 0xC0 SHL PUSH2 0x1027 JUMP JUMPDEST CALLER PUSH20 0xFFFFFFFFFFFFFFFFFFFFFFFFFFFFFFFFFFFFFFFF AND DUP2 PUSH32 0xFAADA18C5B3C4E292F39D28A2D27825807C50FA07C9A801CA9D94602529F00D8 DUP6 DUP6 NUMBER PUSH1 0x40 MLOAD PUSH2 0xA9E SWAP4 SWAP3 SWAP2 SWAP1 PUSH2 0x1B2F JUMP JUMPDEST PUSH1 0x40 MLOAD DUP1 SWAP2 SUB SWAP1 LOG3 SWAP3 SWAP2 POP POP JUMP JUMPDEST PUSH1 0x0 PUSH2 0xAC2 PUSH8 0x87C9A8032C0DCDA4 PUSH1 0xC0 SHL PUSH2 0x1027 JUMP JUMPDEST PUSH2 0xAD6 PUSH8 0x80463ABF715FED56 PUSH1 0xC0 SHL PUSH2 0x1027 JUMP JUMPDEST PUSH2 0xAEA PUSH8 0x837173C3610134F8 PUSH1 0xC0 SHL PUSH2 0x1027 JUMP JUMPDEST PUSH1 0x0 PUSH1 0x1 DUP4 PUSH1 0x40 MLOAD PUSH2 0xAFC SWAP2 SWAP1 PUSH2 0x16C1 JUMP JUMPDEST SWAP1 DUP2 MSTORE PUSH1 0x20 ADD PUSH1 0x40 MLOAD DUP1 SWAP2 SUB SWAP1 KECCAK256 SLOAD SWAP1 POP PUSH2 0xB21 PUSH8 0xE92AC70910B9FCF6 PUSH1 0xC0 SHL PUSH2 0x1027 JUMP JUMPDEST PUSH2 0xB35 PUSH8 0x133F4D4D4BC110CF PUSH1 0xC0 SHL PUSH2 0x1027 JUMP JUMPDEST PUSH1 0x0 DUP2 SUB PUSH2 0xB97 JUMPI PUSH2 0xB51 PUSH8 0xF34AFD723EB3CB36 PUSH1 0xC0 SHL PUSH2 0x1027 JUMP JUMPDEST PUSH2 0xB65 PUSH8 0xF1971EE86235368B PUSH1 0xC0 SHL PUSH2 0x1027 JUMP JUMPDEST PUSH1 0x40 MLOAD PUSH32 0x4B13B31E00000000000000000000000000000000000000000000000000000000 DUP2 MSTORE PUSH1 0x4 ADD PUSH1 0x40 MLOAD DUP1 SWAP2 SUB SWAP1 REVERT JUMPDEST PUSH2 0xBAB PUSH8 0xA1025435911626B3 PUSH1 0xC0 SHL PUSH2 0x1027 JUMP JUMPDEST PUSH2 0xBBF PUSH8 0x6121027B9FDEA355 PUSH1 0xC0 SHL PUSH2 0x1027 JUMP JUMPDEST PUSH2 0xBD3 PUSH8 0xEABCF56B23C2E546 PUSH1 0xC0 SHL PUSH2 0x1027 JUMP JUMPDEST DUP1 SWAP2 POP POP SWAP2 SWAP1 POP JUMP JUMPDEST PUSH2 0xBE4 PUSH2 0x102A JUMP JUMPDEST PUSH2 0xBF8 PUSH8 0xE21DBEB14D877CF1 PUSH1 0xC0 SHL PUSH2 0x1027 JUMP JUMPDEST PUSH2 0xC0C PUSH8 0xFA44ABC8D68AB398 PUSH1 0xC0 SHL PUSH2 0x1027 JUMP JUMPDEST PUSH2 0xC20 PUSH8 0x603902DDE03F120A PUSH1 0xC0 SHL PUSH2 0x1027 JUMP JUMPDEST PUSH1 0x0 DUP1 PUSH1 0x0 DUP5 DUP2 MSTORE PUSH1 0x20 ADD SWAP1 DUP2 MSTORE PUSH1 0x20 ADD PUSH1 0x0 KECCAK256 PUSH1 0x40 MLOAD DUP1 PUSH1 0xE0 ADD PUSH1 0x40 MSTORE SWAP1 DUP2 PUSH1 0x0 DUP3 ADD DUP1 SLOAD PUSH2 0xC4F SWAP1 PUSH2 0x1707 JUMP JUMPDEST DUP1 PUSH1 0x1F ADD PUSH1 0x20 DUP1 SWAP2 DIV MUL PUSH1 0x20 ADD PUSH1 0x40 MLOAD SWAP1 DUP2 ADD PUSH1 0x40 MSTORE DUP1 SWAP3 SWAP2 SWAP1 DUP2 DUP2 MSTORE PUSH1 0x20 ADD DUP3 DUP1 SLOAD PUSH2 0xC7B SWAP1 PUSH2 0x1707 JUMP JUMPDEST DUP1 ISZERO PUSH2 0xCC8 JUMPI DUP1 PUSH1 0x1F LT PUSH2 0xC9D JUMPI PUSH2 0x100 DUP1 DUP4 SLOAD DIV MUL DUP4 MSTORE SWAP2 PUSH1 0x20 ADD SWAP2 PUSH2 0xCC8 JUMP JUMPDEST DUP3 ADD SWAP2 SWAP1 PUSH1 0x0 MSTORE PUSH1 0x20 PUSH1 0x0 KECCAK256 SWAP1 JUMPDEST DUP2 SLOAD DUP2 MSTORE SWAP1 PUSH1 0x1 ADD SWAP1 PUSH1 0x20 ADD DUP1 DUP4 GT PUSH2 0xCAB JUMPI DUP3 SWAP1 SUB PUSH1 0x1F AND DUP3 ADD SWAP2 JUMPDEST POP POP POP POP POP DUP2 MSTORE PUSH1 0x20 ADD PUSH1 0x1 DUP3 ADD DUP1 SLOAD PUSH2 0xCE1 SWAP1 PUSH2 0x1707 JUMP JUMPDEST DUP1 PUSH1 0x1F ADD PUSH1 0x20 DUP1 SWAP2 DIV MUL PUSH1 0x20 ADD PUSH1 0x40 MLOAD SWAP1 DUP2 ADD PUSH1 0x40 MSTORE DUP1 SWAP3 SWAP2 SWAP1 DUP2 DUP2 MSTORE PUSH1 0x20 ADD DUP3 DUP1 SLOAD PUSH2 0xD0D SWAP1 PUSH2 0x1707 JUMP JUMPDEST DUP1 ISZERO PUSH2 0xD5A JUMPI DUP1 PUSH1 0x1F LT PUSH2 0xD2F JUMPI PUSH2 0x100 DUP1 DUP4 SLOAD DIV MUL DUP4 MSTORE SWAP2 PUSH1 0x20 ADD SWAP2 PUSH2 0xD5A JUMP JUMPDEST DUP3 ADD SWAP2 SWAP1 PUSH1 0x0 MSTORE PUSH1 0x20 PUSH1 0x0 KECCAK256 SWAP1 JUMPDEST DUP2 SLOAD DUP2 MSTORE SWAP1 PUSH1 0x1 ADD SWAP1 PUSH1 0x20 ADD DUP1 DUP4 GT PUSH2 0xD3D JUMPI DUP3 SWAP1 SUB PUSH1 0x1F AND DUP3 ADD SWAP2 JUMPDEST POP POP POP POP POP DUP2 MSTORE PUSH1 0x20 ADD PUSH1 0x2 DUP3 ADD SLOAD DUP2 MSTORE PUSH1 0x20 ADD PUSH1 0x3 DUP3 ADD PUSH1 0x0 SWAP1 SLOAD SWAP1 PUSH2 0x100 EXP SWAP1 DIV PUSH1 0xFF AND ISZERO ISZERO ISZERO ISZERO DUP2 MSTORE PUSH1 0x20 ADD PUSH1 0x3 DUP3 ADD PUSH1 0x1 SWAP1 SLOAD SWAP1 PUSH2 0x100 EXP SWAP1 DIV PUSH20 0xFFFFFFFFFFFFFFFFFFFFFFFFFFFFFFFFFFFFFFFF AND PUSH20 0xFFFFFFFFFFFFFFFFFFFFFFFFFFFFFFFFFFFFFFFF AND PUSH20 0xFFFFFFFFFFFFFFFFFFFFFFFFFFFFFFFFFFFFFFFF AND DUP2 MSTORE PUSH1 0x20 ADD PUSH1 0x4 DUP3 ADD SLOAD DUP2 MSTORE PUSH1 0x20 ADD PUSH1 0x5 DUP3 ADD SLOAD DUP2 MSTORE POP POP SWAP1 POP PUSH2 0xE08 PUSH8 0xC86D5BD1EB4EA564 PUSH1 0xC0 SHL PUSH2 0x1027 JUMP JUMPDEST PUSH2 0xE1C PUSH8 0x8AE38CAF8ADD468D PUSH1 0xC0 SHL PUSH2 0x1027 JUMP JUMPDEST PUSH1 0x0 DUP2 PUSH1 0x0 ADD MLOAD MLOAD SUB PUSH2 0xE83 JUMPI PUSH2 0xE3D PUSH8 0xBA539C516B53A9BA PUSH1 0xC0 SHL PUSH2 0x1027 JUMP JUMPDEST PUSH2 0xE51 PUSH8 0x8D3C3555C67D00B PUSH1 0xC0 SHL PUSH2 0x1027 JUMP JUMPDEST PUSH1 0x40 MLOAD PUSH32 0x4B13B31E00000000000000000000000000000000000000000000000000000000 DUP2 MSTORE PUSH1 0x4 ADD PUSH1 0x40 MLOAD DUP1 SWAP2 SUB SWAP1 REVERT JUMPDEST PUSH2 0xE97 PUSH8 0xD757F8264ADF4EA2 PUSH1 0xC0 SHL PUSH2 0x1027 JUMP JUMPDEST PUSH2 0xEAB PUSH8 0xE17F83A36A55082D PUSH1 0xC0 SHL PUSH2 0x1027 JUMP JUMPDEST PUSH2 0xEBF PUSH8 0x69E9BFE3AD912856 PUSH1 0xC0 SHL PUSH2 0x1027 JUMP JUMPDEST DUP1 SWAP2 POP POP SWAP2 SWAP1 POP JUMP JUMPDEST PUSH2 0xEDC PUSH8 0x770F51AD147C1FD9 PUSH1 0xC0 SHL PUSH2 0x1027 JUMP JUMPDEST PUSH2 0xEF0 PUSH8 0xA357AA7CAE188251 PUSH1 0xC0 SHL PUSH2 0x1027 JUMP JUMPDEST PUSH2 0xF04 PUSH8 0x94EABF9D2A4B1072 PUSH1 0xC0 SHL PUSH2 0x1027 JUMP JUMPDEST PUSH1 0x0 DUP1 PUSH1 0x0 DUP5 DUP2 MSTORE PUSH1 0x20 ADD SWAP1 DUP2 MSTORE PUSH1 0x20 ADD PUSH1 0x0 KECCAK256 SWAP1 POP PUSH2 0xF2E PUSH8 0xE5D88A9E2A9C0E0B PUSH1 0xC0 SHL PUSH2 0x1027 JUMP JUMPDEST DUP2 PUSH1 0x0 DUP2 MLOAD DUP2 LT PUSH2 0xF42 JUMPI PUSH2 0xF41 PUSH2 0x1B74 JUMP JUMPDEST JUMPDEST PUSH1 0x20 MUL PUSH1 0x20 ADD ADD MLOAD DUP2 PUSH1 0x2 ADD DUP2 SWAP1 SSTORE POP PUSH2 0xF66 PUSH8 0x1ACAFF289BBE9403 PUSH1 0xC0 SHL PUSH2 0x1027 JUMP JUMPDEST PUSH1 0x1 DUP2 PUSH1 0x3 ADD PUSH1 0x0 PUSH2 0x100 EXP DUP2 SLOAD DUP2 PUSH1 0xFF MUL NOT AND SWAP1 DUP4 ISZERO ISZERO MUL OR SWAP1 SSTORE POP PUSH2 0xF97 PUSH8 0xC6AC5A06D0EDE6EE PUSH1 0xC0 SHL PUSH2 0x1027 JUMP JUMPDEST NUMBER DUP2 PUSH1 0x5 ADD DUP2 SWAP1 SSTORE POP PUSH2 0xFB4 PUSH8 0x6CBD59ACC1769FE3 PUSH1 0xC0 SHL PUSH2 0x1027 JUMP JUMPDEST PUSH2 0xFC8 PUSH8 0x86DF886FCAC809D6 PUSH1 0xC0 SHL PUSH2 0x1027 JUMP JUMPDEST DUP3 PUSH32 0xC164FB5DF4DAB625C62C1BF03462DD07F0AC21E5524B5EF7B5917F159426177B DUP3 PUSH1 0x0 ADD DUP5 PUSH1 0x0 DUP2 MLOAD DUP2 LT PUSH2 0x1002 JUMPI PUSH2 0x1001 PUSH2 0x1B74 JUMP JUMPDEST JUMPDEST PUSH1 0x20 MUL PUSH1 0x20 ADD ADD MLOAD NUMBER PUSH1 0x40 MLOAD PUSH2 0x101A SWAP4 SWAP3 SWAP2 SWAP1 PUSH2 0x1C27 JUMP JUMPDEST PUSH1 0x40 MLOAD DUP1 SWAP2 SUB SWAP1 LOG2 POP POP POP JUMP JUMPDEST POP JUMP JUMPDEST PUSH1 0x40 MLOAD DUP1 PUSH1 0xE0 ADD PUSH1 0x40 MSTORE DUP1 PUSH1 0x60 DUP2 MSTORE PUSH1 0x20 ADD PUSH1 0x60 DUP2 MSTORE PUSH1 0x20 ADD PUSH1 0x0 DUP2 MSTORE PUSH1 0x20 ADD PUSH1 0x0 ISZERO ISZERO DUP2 MSTORE PUSH1 0x20 ADD PUSH1 0x0 PUSH20 0xFFFFFFFFFFFFFFFFFFFFFFFFFFFFFFFFFFFFFFFF AND DUP2 MSTORE PUSH1 0x20 ADD PUSH1 0x0 DUP2 MSTORE PUSH1 0x20 ADD PUSH1 0x0 DUP2 MSTORE POP SWAP1 JUMP JUMPDEST PUSH1 0x0 PUSH1 0x40 MLOAD SWAP1 POP SWAP1 JUMP JUMPDEST PUSH1 0x0 DUP1 REVERT JUMPDEST PUSH1 0x0 DUP1 REVERT JUMPDEST PUSH1 0x0 DUP2 SWAP1 POP SWAP2 SWAP1 POP JUMP JUMPDEST PUSH2 0x10A6 DUP2 PUSH2 0x1093 JUMP JUMPDEST DUP2 EQ PUSH2 0x10B1 JUMPI PUSH1 0x0 DUP1 REVERT JUMPDEST POP JUMP JUMPDEST PUSH1 0x0 DUP2 CALLDATALOAD SWAP1 POP PUSH2 0x10C3 DUP2 PUSH2 0x109D JUMP JUMPDEST SWAP3 SWAP2 POP POP JUMP JUMPDEST PUSH1 0x0 DUP1 REVERT JUMPDEST PUSH1 0x0 PUSH1 0x1F NOT PUSH1 0x1F DUP4 ADD AND SWAP1 POP SWAP2 SWAP1 POP JUMP JUMPDEST PUSH32 0x4E487B7100000000000000000000000000000000000000000000000000000000 PUSH1 0x0 MSTORE PUSH1 0x41 PUSH1 0x4 MSTORE PUSH1 0x24 PUSH1 0x0 REVERT JUMPDEST PUSH2 0x1117 DUP3 PUSH2 0x10CE JUMP JUMPDEST DUP2 ADD DUP2 DUP2 LT PUSH8 0xFFFFFFFFFFFFFFFF DUP3 GT OR ISZERO PUSH2 0x1136 JUMPI PUSH2 0x1135 PUSH2 0x10DF JUMP JUMPDEST JUMPDEST DUP1 PUSH1 0x40 MSTORE POP POP POP JUMP JUMPDEST PUSH1 0x0 PUSH2 0x1149 PUSH2 0x107F JUMP JUMPDEST SWAP1 POP PUSH2 0x1155 DUP3 DUP3 PUSH2 0x110E JUMP JUMPDEST SWAP2 SWAP1 POP JUMP JUMPDEST PUSH1 0x0 PUSH8 0xFFFFFFFFFFFFFFFF DUP3 GT ISZERO PUSH2 0x1175 JUMPI PUSH2 0x1174 PUSH2 0x10DF JUMP JUMPDEST JUMPDEST PUSH1 0x20 DUP3 MUL SWAP1 POP PUSH1 0x20 DUP2 ADD SWAP1 POP SWAP2 SWAP1 POP JUMP JUMPDEST PUSH1 0x0 DUP1 REVERT JUMPDEST PUSH1 0x0 PUSH2 0x119E PUSH2 0x1199 DUP5 PUSH2 0x115A JUMP JUMPDEST PUSH2 0x113F JUMP JUMPDEST SWAP1 POP DUP1 DUP4 DUP3 MSTORE PUSH1 0x20 DUP3 ADD SWAP1 POP PUSH1 0x20 DUP5 MUL DUP4 ADD DUP6 DUP2 GT ISZERO PUSH2 0x11C1 JUMPI PUSH2 0x11C0 PUSH2 0x1186 JUMP JUMPDEST JUMPDEST DUP4 JUMPDEST DUP2 DUP2 LT ISZERO PUSH2 0x11EA JUMPI DUP1 PUSH2 0x11D6 DUP9 DUP3 PUSH2 0x10B4 JUMP JUMPDEST DUP5 MSTORE PUSH1 0x20 DUP5 ADD SWAP4 POP POP PUSH1 0x20 DUP2 ADD SWAP1 POP PUSH2 0x11C3 JUMP JUMPDEST POP POP POP SWAP4 SWAP3 POP POP POP JUMP JUMPDEST PUSH1 0x0 DUP3 PUSH1 0x1F DUP4 ADD SLT PUSH2 0x1209 JUMPI PUSH2 0x1208 PUSH2 0x10C9 JUMP JUMPDEST JUMPDEST DUP2 CALLDATALOAD PUSH2 0x1219 DUP5 DUP3 PUSH1 0x20 DUP7 ADD PUSH2 0x118B JUMP JUMPDEST SWAP2 POP POP SWAP3 SWAP2 POP POP JUMP JUMPDEST PUSH1 0x0 DUP1 PUSH1 0x40 DUP4 DUP6 SUB SLT ISZERO PUSH2 0x1239 JUMPI PUSH2 0x1238 PUSH2 0x1089 JUMP JUMPDEST JUMPDEST PUSH1 0x0 PUSH2 0x1247 DUP6 DUP3 DUP7 ADD PUSH2 0x10B4 JUMP JUMPDEST SWAP3 POP POP PUSH1 0x20 DUP4 ADD CALLDATALOAD PUSH8 0xFFFFFFFFFFFFFFFF DUP2 GT ISZERO PUSH2 0x1268 JUMPI PUSH2 0x1267 PUSH2 0x108E JUMP JUMPDEST JUMPDEST PUSH2 0x1274 DUP6 DUP3 DUP7 ADD PUSH2 0x11F4 JUMP JUMPDEST SWAP2 POP POP SWAP3 POP SWAP3 SWAP1 POP JUMP JUMPDEST PUSH1 0x0 DUP1 REVERT JUMPDEST PUSH1 0x0 PUSH8 0xFFFFFFFFFFFFFFFF DUP3 GT ISZERO PUSH2 0x129E JUMPI PUSH2 0x129D PUSH2 0x10DF JUMP JUMPDEST JUMPDEST PUSH2 0x12A7 DUP3 PUSH2 0x10CE JUMP JUMPDEST SWAP1 POP PUSH1 0x20 DUP2 ADD SWAP1 POP SWAP2 SWAP1 POP JUMP JUMPDEST DUP3 DUP2 DUP4 CALLDATACOPY PUSH1 0x0 DUP4 DUP4 ADD MSTORE POP POP POP JUMP JUMPDEST PUSH1 0x0 PUSH2 0x12D6 PUSH2 0x12D1 DUP5 PUSH2 0x1283 JUMP JUMPDEST PUSH2 0x113F JUMP JUMPDEST SWAP1 POP DUP3 DUP2 MSTORE PUSH1 0x20 DUP2 ADD DUP5 DUP5 DUP5 ADD GT ISZERO PUSH2 0x12F2 JUMPI PUSH2 0x12F1 PUSH2 0x127E JUMP JUMPDEST JUMPDEST PUSH2 0x12FD DUP5 DUP3 DUP6 PUSH2 0x12B4 JUMP JUMPDEST POP SWAP4 SWAP3 POP POP POP JUMP JUMPDEST PUSH1 0x0 DUP3 PUSH1 0x1F DUP4 ADD SLT PUSH2 0x131A JUMPI PUSH2 0x1319 PUSH2 0x10C9 JUMP JUMPDEST JUMPDEST DUP2 CALLDATALOAD PUSH2 0x132A DUP5 DUP3 PUSH1 0x20 DUP7 ADD PUSH2 0x12C3 JUMP JUMPDEST SWAP2 POP POP SWAP3 SWAP2 POP POP JUMP JUMPDEST PUSH1 0x0 PUSH1 0x20 DUP3 DUP5 SUB SLT ISZERO PUSH2 0x1349 JUMPI PUSH2 0x1348 PUSH2 0x1089 JUMP JUMPDEST JUMPDEST PUSH1 0x0 DUP3 ADD CALLDATALOAD PUSH8 0xFFFFFFFFFFFFFFFF DUP2 GT ISZERO PUSH2 0x1367 JUMPI PUSH2 0x1366 PUSH2 0x108E JUMP JUMPDEST JUMPDEST PUSH2 0x1373 DUP5 DUP3 DUP6 ADD PUSH2 0x1305 JUMP JUMPDEST SWAP2 POP POP SWAP3 SWAP2 POP POP JUMP JUMPDEST PUSH1 0x0 DUP2 ISZERO ISZERO SWAP1 POP SWAP2 SWAP1 POP JUMP JUMPDEST PUSH2 0x1391 DUP2 PUSH2 0x137C JUMP JUMPDEST DUP3 MSTORE POP POP JUMP JUMPDEST PUSH1 0x0 PUSH1 0x20 DUP3 ADD SWAP1 POP PUSH2 0x13AC PUSH1 0x0 DUP4 ADD DUP5 PUSH2 0x1388 JUMP JUMPDEST SWAP3 SWAP2 POP POP JUMP JUMPDEST PUSH2 0x13BB DUP2 PUSH2 0x1093 JUMP JUMPDEST DUP3 MSTORE POP POP JUMP JUMPDEST PUSH1 0x0 PUSH1 0x40 DUP3 ADD SWAP1 POP PUSH2 0x13D6 PUSH1 0x0 DUP4 ADD DUP6 PUSH2 0x13B2 JUMP JUMPDEST PUSH2 0x13E3 PUSH1 0x20 DUP4 ADD DUP5 PUSH2 0x1388 JUMP JUMPDEST SWAP4 SWAP3 POP POP POP JUMP JUMPDEST PUSH1 0x0 DUP1 PUSH1 0x40 DUP4 DUP6 SUB SLT ISZERO PUSH2 0x1401 JUMPI PUSH2 0x1400 PUSH2 0x1089 JUMP JUMPDEST JUMPDEST PUSH1 0x0 DUP4 ADD CALLDATALOAD PUSH8 0xFFFFFFFFFFFFFFFF DUP2 GT ISZERO PUSH2 0x141F JUMPI PUSH2 0x141E PUSH2 0x108E JUMP JUMPDEST JUMPDEST PUSH2 0x142B DUP6 DUP3 DUP7 ADD PUSH2 0x1305 JUMP JUMPDEST SWAP3 POP POP PUSH1 0x20 DUP4 ADD CALLDATALOAD PUSH8 0xFFFFFFFFFFFFFFFF DUP2 GT ISZERO PUSH2 0x144C JUMPI PUSH2 0x144B PUSH2 0x108E JUMP JUMPDEST JUMPDEST PUSH2 0x1458 DUP6 DUP3 DUP7 ADD PUSH2 0x1305 JUMP JUMPDEST SWAP2 POP POP SWAP3 POP SWAP3 SWAP1 POP JUMP JUMPDEST PUSH1 0x0 PUSH1 0x20 DUP3 ADD SWAP1 POP PUSH2 0x1477 PUSH1 0x0 DUP4 ADD DUP5 PUSH2 0x13B2 JUMP JUMPDEST SWAP3 SWAP2 POP POP JUMP JUMPDEST PUSH1 0x0 PUSH1 0x20 DUP3 DUP5 SUB SLT ISZERO PUSH2 0x1493 JUMPI PUSH2 0x1492 PUSH2 0x1089 JUMP JUMPDEST JUMPDEST PUSH1 0x0 PUSH2 0x14A1 DUP5 DUP3 DUP6 ADD PUSH2 0x10B4 JUMP JUMPDEST SWAP2 POP POP SWAP3 SWAP2 POP POP JUMP JUMPDEST PUSH1 0x0 DUP2 MLOAD SWAP1 POP SWAP2 SWAP1 POP JUMP JUMPDEST PUSH1 0x0 DUP3 DUP3 MSTORE PUSH1 0x20 DUP3 ADD SWAP1 POP SWAP3 SWAP2 POP POP JUMP JUMPDEST PUSH1 0x0 JUMPDEST DUP4 DUP2 LT ISZERO PUSH2 0x14E4 JUMPI DUP1 DUP3 ADD MLOAD DUP2 DUP5 ADD MSTORE PUSH1 0x20 DUP2 ADD SWAP1 POP PUSH2 0x14C9 JUMP JUMPDEST PUSH1 0x0 DUP5 DUP5 ADD MSTORE POP POP POP POP JUMP JUMPDEST PUSH1 0x0 PUSH2 0x14FB DUP3 PUSH2 0x14AA JUMP JUMPDEST PUSH2 0x1505 DUP2 DUP6 PUSH2 0x14B5 JUMP JUMPDEST SWAP4 POP PUSH2 0x1515 DUP2 DUP6 PUSH1 0x20 DUP7 ADD PUSH2 0x14C6 JUMP JUMPDEST PUSH2 0x151E DUP2 PUSH2 0x10CE JUMP JUMPDEST DUP5 ADD SWAP2 POP POP SWAP3 SWAP2 POP POP JUMP JUMPDEST PUSH2 0x1532 DUP2 PUSH2 0x1093 JUMP JUMPDEST DUP3 MSTORE POP POP JUMP JUMPDEST PUSH2 0x1541 DUP2 PUSH2 0x137C JUMP JUMPDEST DUP3 MSTORE POP POP JUMP JUMPDEST PUSH1 0x0 PUSH20 0xFFFFFFFFFFFFFFFFFFFFFFFFFFFFFFFFFFFFFFFF DUP3 AND SWAP1 POP SWAP2 SWAP1 POP JUMP JUMPDEST PUSH1 0x0 PUSH2 0x1572 DUP3 PUSH2 0x1547 JUMP JUMPDEST SWAP1 POP SWAP2 SWAP1 POP JUMP JUMPDEST PUSH2 0x1582 DUP2 PUSH2 0x1567 JUMP JUMPDEST DUP3 MSTORE POP POP JUMP JUMPDEST PUSH1 0x0 PUSH1 0xE0 DUP4 ADD PUSH1 0x0 DUP4 ADD MLOAD DUP5 DUP3 SUB PUSH1 0x0 DUP7 ADD MSTORE PUSH2 0x15A5 DUP3 DUP3 PUSH2 0x14F0 JUMP JUMPDEST SWAP2 POP POP PUSH1 0x20 DUP4 ADD MLOAD DUP5 DUP3 SUB PUSH1 0x20 DUP7 ADD MSTORE PUSH2 0x15BF DUP3 DUP3 PUSH2 0x14F0 JUMP JUMPDEST SWAP2 POP POP PUSH1 0x40 DUP4 ADD MLOAD PUSH2 0x15D4 PUSH1 0x40 DUP7 ADD DUP3 PUSH2 0x1529 JUMP JUMPDEST POP PUSH1 0x60 DUP4 ADD MLOAD PUSH2 0x15E7 PUSH1 0x60 DUP7 ADD DUP3 PUSH2 0x1538 JUMP JUMPDEST POP PUSH1 0x80 DUP4 ADD MLOAD PUSH2 0x15FA PUSH1 0x80 DUP7 ADD DUP3 PUSH2 0x1579 JUMP JUMPDEST POP PUSH1 0xA0 DUP4 ADD MLOAD PUSH2 0x160D PUSH1 0xA0 DUP7 ADD DUP3 PUSH2 0x1529 JUMP JUMPDEST POP PUSH1 0xC0 DUP4 ADD MLOAD PUSH2 0x1620 PUSH1 0xC0 DUP7 ADD DUP3 PUSH2 0x1529 JUMP JUMPDEST POP DUP1 SWAP2 POP POP SWAP3 SWAP2 POP POP JUMP JUMPDEST PUSH1 0x0 PUSH1 0x20 DUP3 ADD SWAP1 POP DUP2 DUP2 SUB PUSH1 0x0 DUP4 ADD MSTORE PUSH2 0x1645 DUP2 DUP5 PUSH2 0x1588 JUMP JUMPDEST SWAP1 POP SWAP3 SWAP2 POP POP JUMP JUMPDEST PUSH2 0x1656 DUP2 PUSH2 0x1567 JUMP JUMPDEST DUP3 MSTORE POP POP JUMP JUMPDEST PUSH1 0x0 PUSH1 0x40 DUP3 ADD SWAP1 POP PUSH2 0x1671 PUSH1 0x0 DUP4 ADD DUP6 PUSH2 0x164D JUMP JUMPDEST PUSH2 0x167E PUSH1 0x20 DUP4 ADD DUP5 PUSH2 0x164D JUMP JUMPDEST SWAP4 SWAP3 POP POP POP JUMP JUMPDEST PUSH1 0x0 DUP2 SWAP1 POP SWAP3 SWAP2 POP POP JUMP JUMPDEST PUSH1 0x0 PUSH2 0x169B DUP3 PUSH2 0x14AA JUMP JUMPDEST PUSH2 0x16A5 DUP2 DUP6 PUSH2 0x1685 JUMP JUMPDEST SWAP4 POP PUSH2 0x16B5 DUP2 DUP6 PUSH1 0x20 DUP7 ADD PUSH2 0x14C6 JUMP JUMPDEST DUP1 DUP5 ADD SWAP2 POP POP SWAP3 SWAP2 POP POP JUMP JUMPDEST PUSH1 0x0 PUSH2 0x16CD DUP3 DUP5 PUSH2 0x1690 JUMP JUMPDEST SWAP2 POP DUP2 SWAP1 POP SWAP3 SWAP2 POP POP JUMP JUMPDEST PUSH32 0x4E487B7100000000000000000000000000000000000000000000000000000000 PUSH1 0x0 MSTORE PUSH1 0x22 PUSH1 0x4 MSTORE PUSH1 0x24 PUSH1 0x0 REVERT JUMPDEST PUSH1 0x0 PUSH1 0x2 DUP3 DIV SWAP1 POP PUSH1 0x1 DUP3 AND DUP1 PUSH2 0x171F JUMPI PUSH1 0x7F DUP3 AND SWAP2 POP JUMPDEST PUSH1 0x20 DUP3 LT DUP2 SUB PUSH2 0x1732 JUMPI PUSH2 0x1731 PUSH2 0x16D8 JUMP JUMPDEST JUMPDEST POP SWAP2 SWAP1 POP JUMP JUMPDEST PUSH1 0x0 DUP3 DUP3 MSTORE PUSH1 0x20 DUP3 ADD SWAP1 POP SWAP3 SWAP2 POP POP JUMP JUMPDEST PUSH1 0x0 PUSH2 0x1754 DUP3 PUSH2 0x14AA JUMP JUMPDEST PUSH2 0x175E DUP2 DUP6 PUSH2 0x1738 JUMP JUMPDEST SWAP4 POP PUSH2 0x176E DUP2 DUP6 PUSH1 0x20 DUP7 ADD PUSH2 0x14C6 JUMP JUMPDEST PUSH2 0x1777 DUP2 PUSH2 0x10CE JUMP JUMPDEST DUP5 ADD SWAP2 POP POP SWAP3 SWAP2 POP POP JUMP JUMPDEST PUSH1 0x0 PUSH1 0x20 DUP3 ADD SWAP1 POP DUP2 DUP2 SUB PUSH1 0x0 DUP4 ADD MSTORE PUSH2 0x179C DUP2 DUP5 PUSH2 0x1749 JUMP JUMPDEST SWAP1 POP SWAP3 SWAP2 POP POP JUMP JUMPDEST PUSH1 0x0 DUP2 SWAP1 POP SWAP2 SWAP1 POP JUMP JUMPDEST PUSH2 0x17B7 DUP2 PUSH2 0x17A4 JUMP JUMPDEST DUP3 MSTORE POP POP JUMP JUMPDEST PUSH1 0x0 PUSH8 0xFFFFFFFFFFFFFFFF DUP3 AND SWAP1 POP SWAP2 SWAP1 POP JUMP JUMPDEST PUSH2 0x17DA DUP2 PUSH2 0x17BD JUMP JUMPDEST DUP3 MSTORE POP POP JUMP JUMPDEST PUSH1 0x0 PUSH2 0xFFFF DUP3 AND SWAP1 POP SWAP2 SWAP1 POP JUMP JUMPDEST PUSH2 0x17F7 DUP2 PUSH2 0x17E0 JUMP JUMPDEST DUP3 MSTORE POP POP JUMP JUMPDEST PUSH1 0x0 PUSH4 0xFFFFFFFF DUP3 AND SWAP1 POP SWAP2 SWAP1 POP JUMP JUMPDEST PUSH2 0x1816 DUP2 PUSH2 0x17FD JUMP JUMPDEST DUP3 MSTORE POP POP JUMP JUMPDEST PUSH1 0x0 PUSH1 0xA0 DUP3 ADD SWAP1 POP PUSH2 0x1831 PUSH1 0x0 DUP4 ADD DUP9 PUSH2 0x17AE JUMP JUMPDEST PUSH2 0x183E PUSH1 0x20 DUP4 ADD DUP8 PUSH2 0x17D1 JUMP JUMPDEST PUSH2 0x184B PUSH1 0x40 DUP4 ADD DUP7 PUSH2 0x17EE JUMP JUMPDEST PUSH2 0x1858 PUSH1 0x60 DUP4 ADD DUP6 PUSH2 0x180D JUMP JUMPDEST PUSH2 0x1865 PUSH1 0x80 DUP4 ADD DUP5 PUSH2 0x180D JUMP JUMPDEST SWAP7 SWAP6 POP POP POP POP POP POP JUMP JUMPDEST PUSH1 0x0 DUP2 MLOAD SWAP1 POP PUSH2 0x187E DUP2 PUSH2 0x109D JUMP JUMPDEST SWAP3 SWAP2 POP POP JUMP JUMPDEST PUSH1 0x0 PUSH1 0x20 DUP3 DUP5 SUB SLT ISZERO PUSH2 0x189A JUMPI PUSH2 0x1899 PUSH2 0x1089 JUMP JUMPDEST JUMPDEST PUSH1 0x0 PUSH2 0x18A8 DUP5 DUP3 DUP6 ADD PUSH2 0x186F JUMP JUMPDEST SWAP2 POP POP SWAP3 SWAP2 POP POP JUMP JUMPDEST PUSH1 0x0 DUP2 SWAP1 POP DUP2 PUSH1 0x0 MSTORE PUSH1 0x20 PUSH1 0x0 KECCAK256 SWAP1 POP SWAP2 SWAP1 POP JUMP JUMPDEST PUSH1 0x0 PUSH1 0x20 PUSH1 0x1F DUP4 ADD DIV SWAP1 POP SWAP2 SWAP1 POP JUMP JUMPDEST PUSH1 0x0 DUP3 DUP3 SHL SWAP1 POP SWAP3 SWAP2 POP POP JUMP JUMPDEST PUSH1 0x0 PUSH1 0x8 DUP4 MUL PUSH2 0x1913 PUSH32 0xFFFFFFFFFFFFFFFFFFFFFFFFFFFFFFFFFFFFFFFFFFFFFFFFFFFFFFFFFFFFFFFF DUP3 PUSH2 0x18D6 JUMP JUMPDEST PUSH2 0x191D DUP7 DUP4 PUSH2 0x18D6 JUMP JUMPDEST SWAP6 POP DUP1 NOT DUP5 AND SWAP4 POP DUP1 DUP7 AND DUP5 OR SWAP3 POP POP POP SWAP4 SWAP3 POP POP POP JUMP JUMPDEST PUSH1 0x0 DUP2 SWAP1 POP SWAP2 SWAP1 POP JUMP JUMPDEST PUSH1 0x0 PUSH2 0x195A PUSH2 0x1955 PUSH2 0x1950 DUP5 PUSH2 0x1093 JUMP JUMPDEST PUSH2 0x1935 JUMP JUMPDEST PUSH2 0x1093 JUMP JUMPDEST SWAP1 POP SWAP2 SWAP1 POP JUMP JUMPDEST PUSH1 0x0 DUP2 SWAP1 POP SWAP2 SWAP1 POP JUMP JUMPDEST PUSH2 0x1974 DUP4 PUSH2 0x193F JUMP JUMPDEST PUSH2 0x1988 PUSH2 0x1980 DUP3 PUSH2 0x1961 JUMP JUMPDEST DUP5 DUP5 SLOAD PUSH2 0x18E3 JUMP JUMPDEST DUP3 SSTORE POP POP POP POP JUMP JUMPDEST PUSH1 0x0 SWAP1 JUMP JUMPDEST PUSH2 0x199D PUSH2 0x1990 JUMP JUMPDEST PUSH2 0x19A8 DUP2 DUP5 DUP5 PUSH2 0x196B JUMP JUMPDEST POP POP POP JUMP JUMPDEST JUMPDEST DUP2 DUP2 LT ISZERO PUSH2 0x19CC JUMPI PUSH2 0x19C1 PUSH1 0x0 DUP3 PUSH2 0x1995 JUMP JUMPDEST PUSH1 0x1 DUP2 ADD SWAP1 POP PUSH2 0x19AE JUMP JUMPDEST POP POP JUMP JUMPDEST PUSH1 0x1F DUP3 GT ISZERO PUSH2 0x1A11 JUMPI PUSH2 0x19E2 DUP2 PUSH2 0x18B1 JUMP JUMPDEST PUSH2 0x19EB DUP5 PUSH2 0x18C6 JUMP JUMPDEST DUP2 ADD PUSH1 0x20 DUP6 LT ISZERO PUSH2 0x19FA JUMPI DUP2 SWAP1 POP JUMPDEST PUSH2 0x1A0E PUSH2 0x1A06 DUP6 PUSH2 0x18C6 JUMP JUMPDEST DUP4 ADD DUP3 PUSH2 0x19AD JUMP JUMPDEST POP POP JUMPDEST POP POP POP JUMP JUMPDEST PUSH1 0x0 DUP3 DUP3 SHR SWAP1 POP SWAP3 SWAP2 POP POP JUMP JUMPDEST PUSH1 0x0 PUSH2 0x1A34 PUSH1 0x0 NOT DUP5 PUSH1 0x8 MUL PUSH2 0x1A16 JUMP JUMPDEST NOT DUP1 DUP4 AND SWAP2 POP POP SWAP3 SWAP2 POP POP JUMP JUMPDEST PUSH1 0x0 PUSH2 0x1A4D DUP4 DUP4 PUSH2 0x1A23 JUMP JUMPDEST SWAP2 POP DUP3 PUSH1 0x2 MUL DUP3 OR SWAP1 POP SWAP3 SWAP2 POP POP JUMP JUMPDEST PUSH2 0x1A66 DUP3 PUSH2 0x14AA JUMP JUMPDEST PUSH8 0xFFFFFFFFFFFFFFFF DUP2 GT ISZERO PUSH2 0x1A7F JUMPI PUSH2 0x1A7E PUSH2 0x10DF JUMP JUMPDEST JUMPDEST PUSH2 0x1A89 DUP3 SLOAD PUSH2 0x1707 JUMP JUMPDEST PUSH2 0x1A94 DUP3 DUP3 DUP6 PUSH2 0x19D0 JUMP JUMPDEST PUSH1 0x0 PUSH1 0x20 SWAP1 POP PUSH1 0x1F DUP4 GT PUSH1 0x1 DUP2 EQ PUSH2 0x1AC7 JUMPI PUSH1 0x0 DUP5 ISZERO PUSH2 0x1AB5 JUMPI DUP3 DUP8 ADD MLOAD SWAP1 POP JUMPDEST PUSH2 0x1ABF DUP6 DUP3 PUSH2 0x1A41 JUMP JUMPDEST DUP7 SSTORE POP PUSH2 0x1B27 JUMP JUMPDEST PUSH1 0x1F NOT DUP5 AND PUSH2 0x1AD5 DUP7 PUSH2 0x18B1 JUMP JUMPDEST PUSH1 0x0 JUMPDEST DUP3 DUP2 LT ISZERO PUSH2 0x1AFD JUMPI DUP5 DUP10 ADD MLOAD DUP3 SSTORE PUSH1 0x1 DUP3 ADD SWAP2 POP PUSH1 0x20 DUP6 ADD SWAP5 POP PUSH1 0x20 DUP2 ADD SWAP1 POP PUSH2 0x1AD8 JUMP JUMPDEST DUP7 DUP4 LT ISZERO PUSH2 0x1B1A JUMPI DUP5 DUP10 ADD MLOAD PUSH2 0x1B16 PUSH1 0x1F DUP10 AND DUP3 PUSH2 0x1A23 JUMP JUMPDEST DUP4 SSTORE POP JUMPDEST PUSH1 0x1 PUSH1 0x2 DUP9 MUL ADD DUP9 SSTORE POP POP POP JUMPDEST POP POP POP POP POP POP JUMP JUMPDEST PUSH1 0x0 PUSH1 0x60 DUP3 ADD SWAP1 POP DUP2 DUP2 SUB PUSH1 0x0 DUP4 ADD MSTORE PUSH2 0x1B49 DUP2 DUP7 PUSH2 0x1749 JUMP JUMPDEST SWAP1 POP DUP2 DUP2 SUB PUSH1 0x20 DUP4 ADD MSTORE PUSH2 0x1B5D DUP2 DUP6 PUSH2 0x1749 JUMP JUMPDEST SWAP1 POP PUSH2 0x1B6C PUSH1 0x40 DUP4 ADD DUP5 PUSH2 0x13B2 JUMP JUMPDEST SWAP5 SWAP4 POP POP POP POP JUMP JUMPDEST PUSH32 0x4E487B7100000000000000000000000000000000000000000000000000000000 PUSH1 0x0 MSTORE PUSH1 0x32 PUSH1 0x4 MSTORE PUSH1 0x24 PUSH1 0x0 REVERT JUMPDEST PUSH1 0x0 DUP2 SLOAD PUSH2 0x1BB0 DUP2 PUSH2 0x1707 JUMP JUMPDEST PUSH2 0x1BBA DUP2 DUP7 PUSH2 0x1738 JUMP JUMPDEST SWAP5 POP PUSH1 0x1 DUP3 AND PUSH1 0x0 DUP2 EQ PUSH2 0x1BD5 JUMPI PUSH1 0x1 DUP2 EQ PUSH2 0x1BEB JUMPI PUSH2 0x1C1E JUMP JUMPDEST PUSH1 0xFF NOT DUP4 AND DUP7 MSTORE DUP2 ISZERO ISZERO PUSH1 0x20 MUL DUP7 ADD SWAP4 POP PUSH2 0x1C1E JUMP JUMPDEST PUSH2 0x1BF4 DUP6 PUSH2 0x18B1 JUMP JUMPDEST PUSH1 0x0 JUMPDEST DUP4 DUP2 LT ISZERO PUSH2 0x1C16 JUMPI DUP2 SLOAD DUP2 DUP10 ADD MSTORE PUSH1 0x1 DUP3 ADD SWAP2 POP PUSH1 0x20 DUP2 ADD SWAP1 POP PUSH2 0x1BF7 JUMP JUMPDEST DUP1 DUP9 ADD SWAP6 POP POP POP JUMPDEST POP POP POP SWAP3 SWAP2 POP POP JUMP JUMPDEST PUSH1 0x0 PUSH1 0x60 DUP3 ADD SWAP1 POP DUP2 DUP2 SUB PUSH1 0x0 DUP4 ADD MSTORE PUSH2 0x1C41 DUP2 DUP7 PUSH2 0x1BA3 JUMP JUMPDEST SWAP1 POP PUSH2 0x1C50 PUSH1 0x20 DUP4 ADD DUP6 PUSH2 0x13B2 JUMP JUMPDEST PUSH2 0x1C5D PUSH1 0x40 DUP4 ADD DUP5 PUSH2 0x13B2 JUMP JUMPDEST SWAP5 SWAP4 POP POP POP POP JUMP INVALID LOG2 PUSH5 0x6970667358 0x22 SLT KECCAK256 0xE7 SWAP12 0x25 SGT 0xA7 0xE 0xBB 0xD7 0xB8 CALLCODE 0xD 0xD8 SWAP10 PUSH16 0x31501807E7C608287C712CE5C8BBD1C8 EXTCODESIZE 0xE4 PUSH5 0x736F6C6343 STOP ADDMOD SGT STOP CALLER "},"methodIdentifiers":{"getRandomnessForEntityHash(string)":"9b4f7eee","getRequestDetails(uint256)":"f34d4c63","getRequestIdForEntityHash(string)":"db19295c","isEntityHashProcessed(string)":"45471e7c","rawFulfillRandomWords(uint256,uint256[])":"1fe543e3","requestRandomness(string,string)":"d479ea73"}}}}}