{
  "_format": "hh-sol-artifact-1",
  "contractName": "MaliciousReentrant",
  "sourceName": "src/mocks/MaliciousReentrant.sol",
  "abi": [
    {
      "inputs": [
        {
          "internalType": "address",
          "name": "_target",
          "type": "address"
        }
      ],
      "stateMutability": "nonpayable",
      "type": "constructor"
    },
    {
      "stateMutability": "payable",
      "type": "fallback"
    },
    {
      "inputs": [],
      "name": "attack",
      "outputs": [],
      "stateMutability": "nonpayable",
      "type": "function"
    },
    {
      "inputs": [],
      "name": "attacking",
      "outputs": [
        {
          "internalType": "bool",
          "name": "",
          "type": "bool"
        }
      ],
      "stateMutability": "view",
      "type": "function"
    },
    {
      "inputs": [],
      "name": "target",
      "outputs": [
        {
          "internalType": "contract IRandomProof",
          "name": "",
          "type": "address"
        }
      ],
      "stateMutability": "view",
      "type": "function"
    }
  ],
  "bytecode": "0x608060405260008060146101000a81548160ff02191690831515021790555034801561002a57600080fd5b50604051610837380380610837833981810160405281019061004c919061012c565b61006667fed2e9825e6fae9360c01b6100c660201b60201c565b6100806751f1b2589a79c3df60c01b6100c660201b60201c565b806000806101000a81548173ffffffffffffffffffffffffffffffffffffffff021916908373ffffffffffffffffffffffffffffffffffffffff16021790555050610159565b50565b600080fd5b600073ffffffffffffffffffffffffffffffffffffffff82169050919050565b60006100f9826100ce565b9050919050565b610109816100ee565b811461011457600080fd5b50565b60008151905061012681610100565b92915050565b600060208284031215610142576101416100c9565b5b600061015084828501610117565b91505092915050565b6106cf806101686000396000f3fe6080604052600436106100385760003560e01c80633c0bbcd9146101f65780639e5faafc14610221578063d4b839921461023857610039565b5b61004d67baae9d8d3774fbbf60c01b610263565b6100616770cc3d7973c69cbd60c01b610263565b610075676fa8fcec2ccfbce260c01b610263565b600060149054906101000a900460ff16156101df5761009e6791a19fbfe10be8d660c01b610263565b6100b267cd31a0e0df5403f160c01b610263565b60008060146101000a81548160ff0219169083151502179055506100e067382bd8190e0bb4f460c01b610263565b6100f467b485b6fabd273d9060c01b610263565b60008054906101000a900473ffffffffffffffffffffffffffffffffffffffff1673ffffffffffffffffffffffffffffffffffffffff166328a278c260405160200161013f90610448565b60405160208183030381529060405280519060200120604051602001610164906104a9565b604051602081830303815290604052805190602001206040518363ffffffff1660e01b81526004016101979291906104d7565b6020604051808303816000875af19250505080156101d357506040513d601f19601f820116820180604052508101906101d0919061053b565b60015b156101da57505b6101f4565b6101f3676f5646f22fcf6ac960c01b610263565b5b005b34801561020257600080fd5b5061020b610266565b6040516102189190610583565b60405180910390f35b34801561022d57600080fd5b50610236610279565b005b34801561024457600080fd5b5061024d6103cd565b60405161025a919061061d565b60405180910390f35b50565b600060149054906101000a900460ff1681565b61028d67b92c62d2be8762bb60c01b610263565b6102a167a3262669a9393ad060c01b610263565b6001600060146101000a81548160ff0219169083151502179055506102d06784a5d9155391f84960c01b610263565b6102e4676658196124b7a4ca60c01b610263565b60008054906101000a900473ffffffffffffffffffffffffffffffffffffffff1673ffffffffffffffffffffffffffffffffffffffff166328a278c260405160200161032f90610684565b60405160208183030381529060405280519060200120604051602001610354906104a9565b604051602081830303815290604052805190602001206040518363ffffffff1660e01b81526004016103879291906104d7565b6020604051808303816000875af11580156103a6573d6000803e3d6000fd5b505050506040513d601f19601f820116820180604052508101906103ca919061053b565b50565b60008054906101000a900473ffffffffffffffffffffffffffffffffffffffff1681565b600081905092915050565b7f7265656e74657200000000000000000000000000000000000000000000000000600082015250565b60006104326007836103f1565b915061043d826103fc565b600782019050919050565b600061045382610425565b9150819050919050565b7f73616c7400000000000000000000000000000000000000000000000000000000600082015250565b60006104936004836103f1565b915061049e8261045d565b600482019050919050565b60006104b482610486565b9150819050919050565b6000819050919050565b6104d1816104be565b82525050565b60006040820190506104ec60008301856104c8565b6104f960208301846104c8565b9392505050565b600080fd5b6000819050919050565b61051881610505565b811461052357600080fd5b50565b6000815190506105358161050f565b92915050565b60006020828403121561055157610550610500565b5b600061055f84828501610526565b91505092915050565b60008115159050919050565b61057d81610568565b82525050565b60006020820190506105986000830184610574565b92915050565b600073ffffffffffffffffffffffffffffffffffffffff82169050919050565b6000819050919050565b60006105e36105de6105d98461059e565b6105be565b61059e565b9050919050565b60006105f5826105c8565b9050919050565b6000610607826105ea565b9050919050565b610617816105fc565b82525050565b6000602082019050610632600083018461060e565b92915050565b7f61747461636b0000000000000000000000000000000000000000000000000000600082015250565b600061066e6006836103f1565b915061067982610638565b600682019050919050565b600061068f82610661565b915081905091905056fea26469706673582212206cd10110e8310e66a083ba1d0e37bd57fde930f3cf3b58fa16fa09ec57cd007364736f6c63430008130033",
  "linkReferences": {},
  "deployedLinkReferences": {}
}