{
  "_format": "hh-sol-artifact-1",
  "contractName": "VRFCoordinatorV2Mock",
  "sourceName": "src/mocks/VRFCoordinatorV2Mock.sol",
  "abi": [
    {
      "anonymous": false,
      "inputs": [
        {
          "indexed": true,
          "internalType": "uint256",
          "name": "requestId",
          "type": "uint256"
        },
        {
          "indexed": false,
          "internalType": "uint256",
          "name": "outputSeed",
          "type": "uint256"
        },
        {
          "indexed": false,
          "internalType": "uint96",
          "name": "payment",
          "type": "uint96"
        },
        {
          "indexed": false,
          "internalType": "bool",
          "name": "success",
          "type": "bool"
        }
      ],
      "name": "RandomWordsFulfilled",
      "type": "event"
    },
    {
      "anonymous": false,
      "inputs": [
        {
          "indexed": true,
          "internalType": "bytes32",
          "name": "keyHash",
          "type": "bytes32"
        },
        {
          "indexed": false,
          "internalType": "uint256",
          "name": "requestId",
          "type": "uint256"
        },
        {
          "indexed": false,
          "internalType": "uint256",
          "name": "preSeed",
          "type": "uint256"
        },
        {
          "indexed": true,
          "internalType": "uint64",
          "name": "subId",
          "type": "uint64"
        },
        {
          "indexed": false,
          "internalType": "uint16",
          "name": "minimumRequestConfirmations",
          "type": "uint16"
        },
        {
          "indexed": false,
          "internalType": "uint32",
          "name": "callbackGasLimit",
          "type": "uint32"
        },
        {
          "indexed": false,
          "internalType": "uint32",
          "name": "numWords",
          "type": "uint32"
        },
        {
          "indexed": true,
          "internalType": "address",
          "name": "sender",
          "type": "address"
        }
      ],
      "name": "RandomWordsRequested",
      "type": "event"
    },
    {
      "anonymous": false,
      "inputs": [
        {
          "indexed": true,
          "internalType": "uint64",
          "name": "subId",
          "type": "uint64"
        },
        {
          "indexed": false,
          "internalType": "address",
          "name": "consumer",
          "type": "address"
        }
      ],
      "name": "SubscriptionConsumerAdded",
      "type": "event"
    },
    {
      "anonymous": false,
      "inputs": [
        {
          "indexed": true,
          "internalType": "uint64",
          "name": "subId",
          "type": "uint64"
        },
        {
          "indexed": false,
          "internalType": "address",
          "name": "owner",
          "type": "address"
        }
      ],
      "name": "SubscriptionCreated",
      "type": "event"
    },
    {
      "anonymous": false,
      "inputs": [
        {
          "indexed": true,
          "internalType": "uint64",
          "name": "subId",
          "type": "uint64"
        },
        {
          "indexed": false,
          "internalType": "uint256",
          "name": "oldBalance",
          "type": "uint256"
        },
        {
          "indexed": false,
          "internalType": "uint256",
          "name": "newBalance",
          "type": "uint256"
        }
      ],
      "name": "SubscriptionFunded",
      "type": "event"
    },
    {
      "inputs": [
        {
          "internalType": "uint64",
          "name": "subId",
          "type": "uint64"
        }
      ],
      "name": "acceptSubscriptionOwnerTransfer",
      "outputs": [],
      "stateMutability": "nonpayable",
      "type": "function"
    },
    {
      "inputs": [
        {
          "internalType": "uint64",
          "name": "subId",
          "type": "uint64"
        },
        {
          "internalType": "address",
          "name": "consumer",
          "type": "address"
        }
      ],
      "name": "addConsumer",
      "outputs": [],
      "stateMutability": "nonpayable",
      "type": "function"
    },
    {
      "inputs": [
        {
          "internalType": "uint64",
          "name": "subId",
          "type": "uint64"
        },
        {
          "internalType": "address",
          "name": "to",
          "type": "address"
        }
      ],
      "name": "cancelSubscription",
      "outputs": [],
      "stateMutability": "nonpayable",
      "type": "function"
    },
    {
      "inputs": [],
      "name": "createSubscription",
      "outputs": [
        {
          "internalType": "uint64",
          "name": "",
          "type": "uint64"
        }
      ],
      "stateMutability": "nonpayable",
      "type": "function"
    },
    {
      "inputs": [
        {
          "internalType": "uint256",
          "name": "requestId",
          "type": "uint256"
        },
        {
          "internalType": "address",
          "name": "consumer",
          "type": "address"
        },
        {
          "internalType": "uint256[]",
          "name": "randomWords",
          "type": "uint256[]"
        }
      ],
      "name": "fulfillRandomWords",
      "outputs": [],
      "stateMutability": "nonpayable",
      "type": "function"
    },
    {
      "inputs": [
        {
          "internalType": "uint256",
          "name": "requestId",
          "type": "uint256"
        },
        {
          "internalType": "address",
          "name": "consumer",
          "type": "address"
        },
        {
          "internalType": "uint256[]",
          "name": "randomWords",
          "type": "uint256[]"
        }
      ],
      "name": "fulfillRandomWordsWithOverride",
      "outputs": [],
      "stateMutability": "nonpayable",
      "type": "function"
    },
    {
      "inputs": [
        {
          "internalType": "uint64",
          "name": "subId",
          "type": "uint64"
        },
        {
          "internalType": "uint96",
          "name": "amount",
          "type": "uint96"
        }
      ],
      "name": "fundSubscription",
      "outputs": [],
      "stateMutability": "nonpayable",
      "type": "function"
    },
    {
      "inputs": [],
      "name": "getRequestConfig",
      "outputs": [
        {
          "internalType": "uint16",
          "name": "",
          "type": "uint16"
        },
        {
          "internalType": "uint32",
          "name": "",
          "type": "uint32"
        },
        {
          "internalType": "bytes32[]",
          "name": "",
          "type": "bytes32[]"
        }
      ],
      "stateMutability": "view",
      "type": "function"
    },
    {
      "inputs": [
        {
          "internalType": "uint64",
          "name": "subId",
          "type": "uint64"
        }
      ],
      "name": "getSubscription",
      "outputs": [
        {
          "internalType": "uint96",
          "name": "balance",
          "type": "uint96"
        },
        {
          "internalType": "uint64",
          "name": "reqCount",
          "type": "uint64"
        },
        {
          "internalType": "address",
          "name": "owner",
          "type": "address"
        },
        {
          "internalType": "address[]",
          "name": "consumers",
          "type": "address[]"
        }
      ],
      "stateMutability": "view",
      "type": "function"
    },
    {
      "inputs": [
        {
          "internalType": "uint64",
          "name": "subId",
          "type": "uint64"
        }
      ],
      "name": "pendingRequestExists",
      "outputs": [
        {
          "internalType": "bool",
          "name": "",
          "type": "bool"
        }
      ],
      "stateMutability": "view",
      "type": "function"
    },
    {
      "inputs": [
        {
          "internalType": "uint64",
          "name": "subId",
          "type": "uint64"
        },
        {
          "internalType": "address",
          "name": "consumer",
          "type": "address"
        }
      ],
      "name": "removeConsumer",
      "outputs": [],
      "stateMutability": "nonpayable",
      "type": "function"
    },
    {
      "inputs": [
        {
          "internalType": "bytes32",
          "name": "keyHash",
          "type": "bytes32"
        },
        {
          "internalType": "uint64",
          "name": "subId",
          "type": "uint64"
        },
        {
          "internalType": "uint16",
          "name": "minimumRequestConfirmations",
          "type": "uint16"
        },
        {
          "internalType": "uint32",
          "name": "callbackGasLimit",
          "type": "uint32"
        },
        {
          "internalType": "uint32",
          "name": "numWords",
          "type": "uint32"
        }
      ],
      "name": "requestRandomWords",
      "outputs": [
        {
          "internalType": "uint256",
          "name": "",
          "type": "uint256"
        }
      ],
      "stateMutability": "nonpayable",
      "type": "function"
    },
    {
      "inputs": [
        {
          "internalType": "uint64",
          "name": "subId",
          "type": "uint64"
        },
        {
          "internalType": "address",
          "name": "newOwner",
          "type": "address"
        }
      ],
      "name": "requestSubscriptionOwnerTransfer",
      "outputs": [],
      "stateMutability": "nonpayable",
      "type": "function"
    }
  ],
  "bytecode": "0x608060405260016000556001805534801561001957600080fd5b50612a0e806100296000396000f3fe608060405234801561001057600080fd5b50600436106100ce5760003560e01c80639f87fad71161008c578063afc69b5311610066578063afc69b5314610200578063ca7aefd21461021c578063d7ae1d3014610238578063e82ad7d414610254576100ce565b80639f87fad714610193578063a21a23e4146101af578063a47c7696146101cd576100ce565b8062012291146100d357806304c357cb146100f357806308e3898e1461010f5780635d3b1d301461012b5780637341c10c1461015b5780638235974014610177575b600080fd5b6100db610284565b6040516100ea93929190611e48565b60405180910390f35b61010d60048036038101906101089190611f38565b6103a6565b005b61012960048036038101906101249190612107565b610543565b005b610145600480360381019061014091906121fa565b610682565b6040516101529190612284565b60405180910390f35b61017560048036038101906101709190611f38565b610b35565b005b610191600480360381019061018c919061229f565b610d72565b005b6101ad60048036038101906101a89190611f38565b610d89565b005b6101b761114f565b6040516101c491906122db565b60405180910390f35b6101e760048036038101906101e2919061229f565b6113e3565b6040516101f794939291906123ea565b60405180910390f35b61021a60048036038101906102159190612462565b6115fc565b005b61023660048036038101906102319190612107565b6117d3565b005b610252600480360381019061024d9190611f38565b6119f3565b005b61026e6004803603810190610269919061229f565b611c32565b60405161027b91906124bd565b60405180910390f35b600080606061029d675563d211d9dde86f60c01b611c79565b6102b167a053ec6aed4ff4d660c01b611c79565b6102c5679b901199f806f10c60c01b611c79565b6000600167ffffffffffffffff8111156102e2576102e1611fc4565b5b6040519080825280602002602001820160405280156103105781602001602082028036833780820191505090505b50905061032767f717e11e4d4b93a660c01b611c79565b7f474e34a077df58807dbe9c96d3c009b23b3c6d0cce433e59bbf5b34f823bc56c60001b8160008151811061035f5761035e6124d8565b5b60200260200101818152505061037f67fee0d4ae36a76a8a60c01b611c79565b61039367d1e6085a9ff58c0260c01b611c79565b6003622625a08293509350935050909192565b6103ba67cf168d32ee83c5d060c01b611c79565b6103ce670a442b9a79e7a5d760c01b611c79565b6103e26750455249da7b23fd60c01b611c79565b6103f6673b8c2de164c8edf560c01b611c79565b3373ffffffffffffffffffffffffffffffffffffffff16600260008467ffffffffffffffff1667ffffffffffffffff16815260200190815260200160002060000160009054906101000a900473ffffffffffffffffffffffffffffffffffffffff1673ffffffffffffffffffffffffffffffffffffffff16146104ae576040517f08c379a00000000000000000000000000000000000000000000000000000000081526004016104a590612564565b60405180910390fd5b6104c2672c9aa785c9ef94aa60c01b611c79565b6104d66715445a4afd72974460c01b611c79565b80600260008467ffffffffffffffff1667ffffffffffffffff16815260200190815260200160002060000160006101000a81548173ffffffffffffffffffffffffffffffffffffffff021916908373ffffffffffffffffffffffffffffffffffffffff1602179055505050565b6105576732d2576211635dbc60c01b611c79565b61056a66d834c62df5fa5260c01b611c79565b61057e678e16d539b1f3ecd460c01b611c79565b8173ffffffffffffffffffffffffffffffffffffffff16631fe543e384836040518363ffffffff1660e01b81526004016105b9929190612642565b600060405180830381600087803b1580156105d357600080fd5b505af11580156105e7573d6000803e3d6000fd5b505050506105ff67f9b8be141f4a26e360c01b611c79565b610613677994d846e93ba1bf60c01b611c79565b827f7dffc5ae5ee4e2e4df1651cf6ad329a73cebdb728f37ea0187b9b17e036756e46000835111610645576000610662565b82600081518110610659576106586124d8565b5b60200260200101515b60006001604051610675939291906126b7565b60405180910390a2505050565b600061069867e525e260b0d0b70760c01b611c79565b6106ac678ba0ca0b0a01904a60c01b611c79565b6106c067c0f6584179b8cae060c01b611c79565b60006106d667f3d01e85d4a4088860c01b611c79565b6106ea677ebdd7c9ab8411c560c01b611c79565b6000600260008867ffffffffffffffff1667ffffffffffffffff16815260200190815260200160002060020180548060200260200160405190810160405280929190818152602001828054801561079657602002820191906000526020600020905b8160009054906101000a900473ffffffffffffffffffffffffffffffffffffffff1673ffffffffffffffffffffffffffffffffffffffff168152602001906001019080831161074c575b505050505090506107b167db59e3ccbb2dc6fd60c01b611c79565b6107c567ee913ab9b72c0c4560c01b611c79565b60005b81518110156108b2576107e567f475e0e8df1baee860c01b611c79565b6107f967e9b842873310568e60c01b611c79565b3373ffffffffffffffffffffffffffffffffffffffff16828281518110610823576108226124d8565b5b602002602001015173ffffffffffffffffffffffffffffffffffffffff160361088b5761085a6733a3dd2e6086e65860c01b611c79565b61086e67786c6695f7ee815360c01b611c79565b60019250610886670ec9204d8b2dd02c60c01b611c79565b6108b2565b61089f67d06c93e4898ff07260c01b611c79565b80806108aa9061271d565b9150506107c8565b506108c767e0465f32b898d48a60c01b611c79565b6108db6774b894110ae94d1560c01b611c79565b6108ef6783f4355b10200b2b60c01b611c79565b8161092f576040517f08c379a0000000000000000000000000000000000000000000000000000000008152600401610926906127b1565b60405180910390fd5b6109436715a7055f84d30d4a60c01b611c79565b610957675f43a2defa941e4460c01b611c79565b61096b67474ad8bfbbab574160c01b611c79565b600080600081548092919061097f9061271d565b91905055905061099967f904f5bfcc0b7d9e60c01b611c79565b336003600083815260200190815260200160002060006101000a81548173ffffffffffffffffffffffffffffffffffffffff021916908373ffffffffffffffffffffffffffffffffffffffff1602179055506109ff673f3a7254fb1418d960c01b611c79565b600260008967ffffffffffffffff1667ffffffffffffffff168152602001908152602001600020600101600081819054906101000a900467ffffffffffffffff1680929190610a4d906127d1565b91906101000a81548167ffffffffffffffff021916908367ffffffffffffffff16021790555050610a88673c835941dc9279b960c01b611c79565b610a9c6708ed1a63b256ea1d60c01b611c79565b3373ffffffffffffffffffffffffffffffffffffffff168867ffffffffffffffff168a7f63373d1c4696214b898952999c9aaec57dac1ee2723cec59bea6888f489a977284428c8c8c604051610af6959493929190612801565b60405180910390a4610b1267540b306a99fe397e60c01b611c79565b610b266772c756dfc29adfb460c01b611c79565b80935050505095945050505050565b610b49673b75488b18fc648b60c01b611c79565b610b5d67c0b0afe0b84cb9ee60c01b611c79565b610b7167eaeb184bb49831ac60c01b611c79565b610b8567d75258f206850fba60c01b611c79565b3373ffffffffffffffffffffffffffffffffffffffff16600260008467ffffffffffffffff1667ffffffffffffffff16815260200190815260200160002060000160009054906101000a900473ffffffffffffffffffffffffffffffffffffffff1673ffffffffffffffffffffffffffffffffffffffff1614610c3d576040517f08c379a0000000000000000000000000000000000000000000000000000000008152600401610c3490612564565b60405180910390fd5b610c51676ba21d80eafdce4e60c01b611c79565b610c656766cbcfa9eea7e0fa60c01b611c79565b610c79670bcb9166e3da2d6760c01b611c79565b600260008367ffffffffffffffff1667ffffffffffffffff168152602001908152602001600020600201819080600181540180825580915050600190039060005260206000200160009091909190916101000a81548173ffffffffffffffffffffffffffffffffffffffff021916908373ffffffffffffffffffffffffffffffffffffffff160217905550610d1867e7a5427d078ac28660c01b611c79565b610d2c67edae7b586305d7fd60c01b611c79565b8167ffffffffffffffff167f43dc749a04ac8fb825cbd514f7c0e13f13bc6f2ee66043b76629d51776cff8e082604051610d669190612854565b60405180910390a25050565b610d8667b7dfc338632f039860c01b611c79565b50565b610d9d6709840602ab8c3c0960c01b611c79565b610db167b5f5fcfb242630c560c01b611c79565b610dc56707fa1b5015e7b68e60c01b611c79565b610dd967a3c270a6e07b4f5a60c01b611c79565b3373ffffffffffffffffffffffffffffffffffffffff16600260008467ffffffffffffffff1667ffffffffffffffff16815260200190815260200160002060000160009054906101000a900473ffffffffffffffffffffffffffffffffffffffff1673ffffffffffffffffffffffffffffffffffffffff1614610e91576040517f08c379a0000000000000000000000000000000000000000000000000000000008152600401610e8890612564565b60405180910390fd5b610ea567d6c98f59260cbeb160c01b611c79565b610eb96744d86688db8cd62f60c01b611c79565b610ecd67e854d764ea01350d60c01b611c79565b6000600260008467ffffffffffffffff1667ffffffffffffffff1681526020019081526020016000206002019050610f0f67653fc42a0bb4776b60c01b611c79565b610f23672e19930a293f75b960c01b611c79565b60005b818054905081101561114957610f466715ec5babe1c21efd60c01b611c79565b610f5a679af792141fe46fff60c01b611c79565b8273ffffffffffffffffffffffffffffffffffffffff16828281548110610f8457610f836124d8565b5b9060005260206000200160009054906101000a900473ffffffffffffffffffffffffffffffffffffffff1673ffffffffffffffffffffffffffffffffffffffff160361112257610fde671d46977e255f103560c01b611c79565b610ff26797fbdc1f1d38eb2860c01b611c79565b8160018380549050611004919061286f565b81548110611015576110146124d8565b5b9060005260206000200160009054906101000a900473ffffffffffffffffffffffffffffffffffffffff16828281548110611053576110526124d8565b5b9060005260206000200160006101000a81548173ffffffffffffffffffffffffffffffffffffffff021916908373ffffffffffffffffffffffffffffffffffffffff1602179055506110af67acb4727f75fbbe7f60c01b611c79565b6110c36778da6a74e2848ff060c01b611c79565b818054806110d4576110d36128a3565b5b6001900381819060005260206000200160006101000a81549073ffffffffffffffffffffffffffffffffffffffff0219169055905561111d67e4b04e70e9a4309960c01b611c79565b611149565b6111366745861e0b34fac72e60c01b611c79565b80806111419061271d565b915050610f26565b50505050565b600061116567c84dd88318f36c6960c01b611c79565b61117967c6f3f434fb53220360c01b611c79565b61118d67038ef2122f8812f060c01b611c79565b6000600160008154809291906111a29061271d565b9190505590506111bc675fcd55cd2514500160c01b611c79565b60405180608001604052803373ffffffffffffffffffffffffffffffffffffffff16815260200160006bffffffffffffffffffffffff168152602001600067ffffffffffffffff168152602001600067ffffffffffffffff81111561122457611223611fc4565b5b6040519080825280602002602001820160405280156112525781602001602082028036833780820191505090505b50815250600260008367ffffffffffffffff1667ffffffffffffffff16815260200190815260200160002060008201518160000160006101000a81548173ffffffffffffffffffffffffffffffffffffffff021916908373ffffffffffffffffffffffffffffffffffffffff16021790555060208201518160000160146101000a8154816bffffffffffffffffffffffff02191690836bffffffffffffffffffffffff16021790555060408201518160010160006101000a81548167ffffffffffffffff021916908367ffffffffffffffff1602179055506060820151816002019080519060200190611346929190611c7c565b5090505061135e67b9cde84f0fa5193460c01b611c79565b61137267cd9fc65cf8804daa60c01b611c79565b8067ffffffffffffffff167f464722b4166576d3dcbba877b999bc35cf911f4eaf434b7eba68fa113951d0bf336040516113ac9190612854565b60405180910390a26113c867c39ddada015692ea60c01b611c79565b6113dc6751feb5c79e504b3660c01b611c79565b8091505090565b600080600060606113fe67862576f73e3f2fb160c01b611c79565b61141267c09e4c934579b7b560c01b611c79565b6114266740e09b533b8270c460c01b611c79565b6000600260008767ffffffffffffffff1667ffffffffffffffff1681526020019081526020016000206040518060800160405290816000820160009054906101000a900473ffffffffffffffffffffffffffffffffffffffff1673ffffffffffffffffffffffffffffffffffffffff1673ffffffffffffffffffffffffffffffffffffffff1681526020016000820160149054906101000a90046bffffffffffffffffffffffff166bffffffffffffffffffffffff166bffffffffffffffffffffffff1681526020016001820160009054906101000a900467ffffffffffffffff1667ffffffffffffffff1667ffffffffffffffff168152602001600282018054806020026020016040519081016040528092919081815260200182805480156115a557602002820191906000526020600020905b8160009054906101000a900473ffffffffffffffffffffffffffffffffffffffff1673ffffffffffffffffffffffffffffffffffffffff168152602001906001019080831161155b575b50505050508152505090506115c467802aa237351d685b60c01b611c79565b6115d86708f094dbd0e7e2b960c01b611c79565b80602001518160400151826000015183606001519450945094509450509193509193565b61161067bdbdad12a2232e8360c01b611c79565b6116246780892061c67a035c60c01b611c79565b611638671fce872b951cfc7460c01b611c79565b6000600260008467ffffffffffffffff1667ffffffffffffffff16815260200190815260200160002060000160149054906101000a90046bffffffffffffffffffffffff166bffffffffffffffffffffffff1690506116a1679d6cc566a14eba5c60c01b611c79565b81600260008567ffffffffffffffff1667ffffffffffffffff16815260200190815260200160002060000160148282829054906101000a90046bffffffffffffffffffffffff166116f291906128d2565b92506101000a8154816bffffffffffffffffffffffff02191690836bffffffffffffffffffffffff16021790555061173467c06e83c95c0d02e460c01b611c79565b611748674047115599aff19860c01b611c79565b8267ffffffffffffffff167fd39ec07f4e209f627a4c427971473820dc129761ba28de8906bd56f57101d4f882600260008767ffffffffffffffff1667ffffffffffffffff16815260200190815260200160002060000160149054906101000a90046bffffffffffffffffffffffff166040516117c6929190612943565b60405180910390a2505050565b6117e767f447232e3243f98c60c01b611c79565b6117fb67ac085addf603050960c01b611c79565b61180f674584d8095ec2e2c860c01b611c79565b61182367eca278e9a683797a60c01b611c79565b8173ffffffffffffffffffffffffffffffffffffffff166003600085815260200190815260200160002060009054906101000a900473ffffffffffffffffffffffffffffffffffffffff1673ffffffffffffffffffffffffffffffffffffffff16146118c4576040517f08c379a00000000000000000000000000000000000000000000000000000000081526004016118bb906129b8565b60405180910390fd5b6118d8678314aa38001cb10360c01b611c79565b6118ec67994c4cb71e36372260c01b611c79565b61190067b305e6af3dc06a4160c01b611c79565b8173ffffffffffffffffffffffffffffffffffffffff16631fe543e384836040518363ffffffff1660e01b815260040161193b929190612642565b600060405180830381600087803b15801561195557600080fd5b505af1158015611969573d6000803e3d6000fd5b5050505061198167f9e9c45dcb9fd17b60c01b611c79565b6119956713a0086f4882f87260c01b611c79565b827f7dffc5ae5ee4e2e4df1651cf6ad329a73cebdb728f37ea0187b9b17e036756e4826000815181106119cb576119ca6124d8565b5b6020026020010151600060016040516119e6939291906126b7565b60405180910390a2505050565b611a0767e2604d3f31c507ff60c01b611c79565b611a1b670a676be60efaa67860c01b611c79565b611a2f67086a489526e2d59160c01b611c79565b611a43676f46b2989373e97860c01b611c79565b3373ffffffffffffffffffffffffffffffffffffffff16600260008467ffffffffffffffff1667ffffffffffffffff16815260200190815260200160002060000160009054906101000a900473ffffffffffffffffffffffffffffffffffffffff1673ffffffffffffffffffffffffffffffffffffffff1614611afb576040517f08c379a0000000000000000000000000000000000000000000000000000000008152600401611af290612564565b60405180910390fd5b611b0f67428f0fa95ec40a2b60c01b611c79565b611b23679c377e93060c8dfe60c01b611c79565b611b3767b5b776e74694e57860c01b611c79565b6000600260008467ffffffffffffffff1667ffffffffffffffff16815260200190815260200160002060000160149054906101000a90046bffffffffffffffffffffffff169050611b9267879240458b35687b60c01b611c79565b600260008467ffffffffffffffff1667ffffffffffffffff168152602001908152602001600020600080820160006101000a81549073ffffffffffffffffffffffffffffffffffffffff02191690556000820160146101000a8154906bffffffffffffffffffffffff02191690556001820160006101000a81549067ffffffffffffffff0219169055600282016000611c2b9190611d06565b5050505050565b6000611c4867698c4ea5934854cd60c01b611c79565b611c5c67c1b645e96c893bf160c01b611c79565b611c7067ee9413e624748b1e60c01b611c79565b60009050919050565b50565b828054828255906000526020600020908101928215611cf5579160200282015b82811115611cf45782518260006101000a81548173ffffffffffffffffffffffffffffffffffffffff021916908373ffffffffffffffffffffffffffffffffffffffff16021790555091602001919060010190611c9c565b5b509050611d029190611d27565b5090565b5080546000825590600052602060002090810190611d249190611d27565b50565b5b80821115611d40576000816000905550600101611d28565b5090565b600061ffff82169050919050565b611d5b81611d44565b82525050565b600063ffffffff82169050919050565b611d7a81611d61565b82525050565b600081519050919050565b600082825260208201905092915050565b6000819050602082019050919050565b6000819050919050565b611dbf81611dac565b82525050565b6000611dd18383611db6565b60208301905092915050565b6000602082019050919050565b6000611df582611d80565b611dff8185611d8b565b9350611e0a83611d9c565b8060005b83811015611e3b578151611e228882611dc5565b9750611e2d83611ddd565b925050600181019050611e0e565b5085935050505092915050565b6000606082019050611e5d6000830186611d52565b611e6a6020830185611d71565b8181036040830152611e7c8184611dea565b9050949350505050565b6000604051905090565b600080fd5b600080fd5b600067ffffffffffffffff82169050919050565b611eb781611e9a565b8114611ec257600080fd5b50565b600081359050611ed481611eae565b92915050565b600073ffffffffffffffffffffffffffffffffffffffff82169050919050565b6000611f0582611eda565b9050919050565b611f1581611efa565b8114611f2057600080fd5b50565b600081359050611f3281611f0c565b92915050565b60008060408385031215611f4f57611f4e611e90565b5b6000611f5d85828601611ec5565b9250506020611f6e85828601611f23565b9150509250929050565b6000819050919050565b611f8b81611f78565b8114611f9657600080fd5b50565b600081359050611fa881611f82565b92915050565b600080fd5b6000601f19601f8301169050919050565b7f4e487b7100000000000000000000000000000000000000000000000000000000600052604160045260246000fd5b611ffc82611fb3565b810181811067ffffffffffffffff8211171561201b5761201a611fc4565b5b80604052505050565b600061202e611e86565b905061203a8282611ff3565b919050565b600067ffffffffffffffff82111561205a57612059611fc4565b5b602082029050602081019050919050565b600080fd5b600061208361207e8461203f565b612024565b905080838252602082019050602084028301858111156120a6576120a561206b565b5b835b818110156120cf57806120bb8882611f99565b8452602084019350506020810190506120a8565b5050509392505050565b600082601f8301126120ee576120ed611fae565b5b81356120fe848260208601612070565b91505092915050565b6000806000606084860312156121205761211f611e90565b5b600061212e86828701611f99565b935050602061213f86828701611f23565b925050604084013567ffffffffffffffff8111156121605761215f611e95565b5b61216c868287016120d9565b9150509250925092565b61217f81611dac565b811461218a57600080fd5b50565b60008135905061219c81612176565b92915050565b6121ab81611d44565b81146121b657600080fd5b50565b6000813590506121c8816121a2565b92915050565b6121d781611d61565b81146121e257600080fd5b50565b6000813590506121f4816121ce565b92915050565b600080600080600060a0868803121561221657612215611e90565b5b60006122248882890161218d565b955050602061223588828901611ec5565b9450506040612246888289016121b9565b9350506060612257888289016121e5565b9250506080612268888289016121e5565b9150509295509295909350565b61227e81611f78565b82525050565b60006020820190506122996000830184612275565b92915050565b6000602082840312156122b5576122b4611e90565b5b60006122c384828501611ec5565b91505092915050565b6122d581611e9a565b82525050565b60006020820190506122f060008301846122cc565b92915050565b60006bffffffffffffffffffffffff82169050919050565b612317816122f6565b82525050565b61232681611efa565b82525050565b600081519050919050565b600082825260208201905092915050565b6000819050602082019050919050565b61236181611efa565b82525050565b60006123738383612358565b60208301905092915050565b6000602082019050919050565b60006123978261232c565b6123a18185612337565b93506123ac83612348565b8060005b838110156123dd5781516123c48882612367565b97506123cf8361237f565b9250506001810190506123b0565b5085935050505092915050565b60006080820190506123ff600083018761230e565b61240c60208301866122cc565b612419604083018561231d565b818103606083015261242b818461238c565b905095945050505050565b61243f816122f6565b811461244a57600080fd5b50565b60008135905061245c81612436565b92915050565b6000806040838503121561247957612478611e90565b5b600061248785828601611ec5565b92505060206124988582860161244d565b9150509250929050565b60008115159050919050565b6124b7816124a2565b82525050565b60006020820190506124d260008301846124ae565b92915050565b7f4e487b7100000000000000000000000000000000000000000000000000000000600052603260045260246000fd5b600082825260208201905092915050565b7f4e6f7420737562736372697074696f6e206f776e657200000000000000000000600082015250565b600061254e601683612507565b915061255982612518565b602082019050919050565b6000602082019050818103600083015261257d81612541565b9050919050565b600081519050919050565b600082825260208201905092915050565b6000819050602082019050919050565b6125b981611f78565b82525050565b60006125cb83836125b0565b60208301905092915050565b6000602082019050919050565b60006125ef82612584565b6125f9818561258f565b9350612604836125a0565b8060005b8381101561263557815161261c88826125bf565b9750612627836125d7565b925050600181019050612608565b5085935050505092915050565b60006040820190506126576000830185612275565b818103602083015261266981846125e4565b90509392505050565b6000819050919050565b6000819050919050565b60006126a161269c61269784612672565b61267c565b6122f6565b9050919050565b6126b181612686565b82525050565b60006060820190506126cc6000830186612275565b6126d960208301856126a8565b6126e660408301846124ae565b949350505050565b7f4e487b7100000000000000000000000000000000000000000000000000000000600052601160045260246000fd5b600061272882611f78565b91507fffffffffffffffffffffffffffffffffffffffffffffffffffffffffffffffff820361275a576127596126ee565b5b600182019050919050565b7f4e6f7420617574686f72697a656420636f6e73756d6572000000000000000000600082015250565b600061279b601783612507565b91506127a682612765565b602082019050919050565b600060208201905081810360008301526127ca8161278e565b9050919050565b60006127dc82611e9a565b915067ffffffffffffffff82036127f6576127f56126ee565b5b600182019050919050565b600060a0820190506128166000830188612275565b6128236020830187612275565b6128306040830186611d52565b61283d6060830185611d71565b61284a6080830184611d71565b9695505050505050565b6000602082019050612869600083018461231d565b92915050565b600061287a82611f78565b915061288583611f78565b925082820390508181111561289d5761289c6126ee565b5b92915050565b7f4e487b7100000000000000000000000000000000000000000000000000000000600052603160045260246000fd5b60006128dd826122f6565b91506128e8836122f6565b925082820190506bffffffffffffffffffffffff81111561290c5761290b6126ee565b5b92915050565b600061292d612928612923846122f6565b61267c565b611f78565b9050919050565b61293d81612912565b82525050565b60006040820190506129586000830185612275565b6129656020830184612934565b9392505050565b7f57726f6e6720636f6e73756d6572000000000000000000000000000000000000600082015250565b60006129a2600e83612507565b91506129ad8261296c565b602082019050919050565b600060208201905081810360008301526129d181612995565b905091905056fea264697066735822122026838d5a5c2e48e02e4fbf52edb14afbcbf5a07778dc08419c8f2457c356a21564736f6c63430008130033",
  "linkReferences": {},
  "deployedLinkReferences": {}
}